{
  "_format": "hh-sol-artifact-1",
  "contractName": "VkRegistry",
  "sourceName": "contracts/VkRegistry.sol",
  "abi": [
    {
      "anonymous": false,
      "inputs": [
        {
          "indexed": true,
          "internalType": "address",
          "name": "previousOwner",
          "type": "address"
        },
        {
          "indexed": true,
          "internalType": "address",
          "name": "newOwner",
          "type": "address"
        }
      ],
      "name": "OwnershipTransferred",
      "type": "event"
    },
    {
      "inputs": [
        {
          "internalType": "uint256",
          "name": "_stateTreeDepth",
          "type": "uint256"
        },
        {
          "internalType": "uint256",
          "name": "_messageTreeDepth",
          "type": "uint256"
        },
        {
          "internalType": "uint256",
          "name": "_voteOptionTreeDepth",
          "type": "uint256"
        },
        {
          "internalType": "uint256",
          "name": "_messageBatchSize",
          "type": "uint256"
        }
      ],
      "name": "genProcessVkSig",
      "outputs": [
        {
          "internalType": "uint256",
          "name": "",
          "type": "uint256"
        }
      ],
      "stateMutability": "pure",
      "type": "function"
    },
    {
      "inputs": [
        {
          "internalType": "uint256",
          "name": "_stateTreeDepth",
          "type": "uint256"
        },
        {
          "internalType": "uint256",
          "name": "_intStateTreeDepth",
          "type": "uint256"
        },
        {
          "internalType": "uint256",
          "name": "_voteOptionTreeDepth",
          "type": "uint256"
        }
      ],
      "name": "genTallyVkSig",
      "outputs": [
        {
          "internalType": "uint256",
          "name": "",
          "type": "uint256"
        }
      ],
      "stateMutability": "pure",
      "type": "function"
    },
    {
      "inputs": [
        {
          "internalType": "uint256",
          "name": "_stateTreeDepth",
          "type": "uint256"
        },
        {
          "internalType": "uint256",
          "name": "_messageTreeDepth",
          "type": "uint256"
        },
        {
          "internalType": "uint256",
          "name": "_voteOptionTreeDepth",
          "type": "uint256"
        },
        {
          "internalType": "uint256",
          "name": "_messageBatchSize",
          "type": "uint256"
        }
      ],
      "name": "getProcessVk",
      "outputs": [
        {
          "components": [
            {
              "components": [
                {
                  "internalType": "uint256",
                  "name": "x",
                  "type": "uint256"
                },
                {
                  "internalType": "uint256",
                  "name": "y",
                  "type": "uint256"
                }
              ],
              "internalType": "struct Pairing.G1Point",
              "name": "alpha1",
              "type": "tuple"
            },
            {
              "components": [
                {
                  "internalType": "uint256[2]",
                  "name": "x",
                  "type": "uint256[2]"
                },
                {
                  "internalType": "uint256[2]",
                  "name": "y",
                  "type": "uint256[2]"
                }
              ],
              "internalType": "struct Pairing.G2Point",
              "name": "beta2",
              "type": "tuple"
            },
            {
              "components": [
                {
                  "internalType": "uint256[2]",
                  "name": "x",
                  "type": "uint256[2]"
                },
                {
                  "internalType": "uint256[2]",
                  "name": "y",
                  "type": "uint256[2]"
                }
              ],
              "internalType": "struct Pairing.G2Point",
              "name": "gamma2",
              "type": "tuple"
            },
            {
              "components": [
                {
                  "internalType": "uint256[2]",
                  "name": "x",
                  "type": "uint256[2]"
                },
                {
                  "internalType": "uint256[2]",
                  "name": "y",
                  "type": "uint256[2]"
                }
              ],
              "internalType": "struct Pairing.G2Point",
              "name": "delta2",
              "type": "tuple"
            },
            {
              "components": [
                {
                  "internalType": "uint256",
                  "name": "x",
                  "type": "uint256"
                },
                {
                  "internalType": "uint256",
                  "name": "y",
                  "type": "uint256"
                }
              ],
              "internalType": "struct Pairing.G1Point[]",
              "name": "ic",
              "type": "tuple[]"
            }
          ],
          "internalType": "struct SnarkCommon.VerifyingKey",
          "name": "",
          "type": "tuple"
        }
      ],
      "stateMutability": "view",
      "type": "function"
    },
    {
      "inputs": [
        {
          "internalType": "uint256",
          "name": "_sig",
          "type": "uint256"
        }
      ],
      "name": "getProcessVkBySig",
      "outputs": [
        {
          "components": [
            {
              "components": [
                {
                  "internalType": "uint256",
                  "name": "x",
                  "type": "uint256"
                },
                {
                  "internalType": "uint256",
                  "name": "y",
                  "type": "uint256"
                }
              ],
              "internalType": "struct Pairing.G1Point",
              "name": "alpha1",
              "type": "tuple"
            },
            {
              "components": [
                {
                  "internalType": "uint256[2]",
                  "name": "x",
                  "type": "uint256[2]"
                },
                {
                  "internalType": "uint256[2]",
                  "name": "y",
                  "type": "uint256[2]"
                }
              ],
              "internalType": "struct Pairing.G2Point",
              "name": "beta2",
              "type": "tuple"
            },
            {
              "components": [
                {
                  "internalType": "uint256[2]",
                  "name": "x",
                  "type": "uint256[2]"
                },
                {
                  "internalType": "uint256[2]",
                  "name": "y",
                  "type": "uint256[2]"
                }
              ],
              "internalType": "struct Pairing.G2Point",
              "name": "gamma2",
              "type": "tuple"
            },
            {
              "components": [
                {
                  "internalType": "uint256[2]",
                  "name": "x",
                  "type": "uint256[2]"
                },
                {
                  "internalType": "uint256[2]",
                  "name": "y",
                  "type": "uint256[2]"
                }
              ],
              "internalType": "struct Pairing.G2Point",
              "name": "delta2",
              "type": "tuple"
            },
            {
              "components": [
                {
                  "internalType": "uint256",
                  "name": "x",
                  "type": "uint256"
                },
                {
                  "internalType": "uint256",
                  "name": "y",
                  "type": "uint256"
                }
              ],
              "internalType": "struct Pairing.G1Point[]",
              "name": "ic",
              "type": "tuple[]"
            }
          ],
          "internalType": "struct SnarkCommon.VerifyingKey",
          "name": "",
          "type": "tuple"
        }
      ],
      "stateMutability": "view",
      "type": "function"
    },
    {
      "inputs": [
        {
          "internalType": "uint256",
          "name": "_stateTreeDepth",
          "type": "uint256"
        },
        {
          "internalType": "uint256",
          "name": "_intStateTreeDepth",
          "type": "uint256"
        },
        {
          "internalType": "uint256",
          "name": "_voteOptionTreeDepth",
          "type": "uint256"
        }
      ],
      "name": "getTallyVk",
      "outputs": [
        {
          "components": [
            {
              "components": [
                {
                  "internalType": "uint256",
                  "name": "x",
                  "type": "uint256"
                },
                {
                  "internalType": "uint256",
                  "name": "y",
                  "type": "uint256"
                }
              ],
              "internalType": "struct Pairing.G1Point",
              "name": "alpha1",
              "type": "tuple"
            },
            {
              "components": [
                {
                  "internalType": "uint256[2]",
                  "name": "x",
                  "type": "uint256[2]"
                },
                {
                  "internalType": "uint256[2]",
                  "name": "y",
                  "type": "uint256[2]"
                }
              ],
              "internalType": "struct Pairing.G2Point",
              "name": "beta2",
              "type": "tuple"
            },
            {
              "components": [
                {
                  "internalType": "uint256[2]",
                  "name": "x",
                  "type": "uint256[2]"
                },
                {
                  "internalType": "uint256[2]",
                  "name": "y",
                  "type": "uint256[2]"
                }
              ],
              "internalType": "struct Pairing.G2Point",
              "name": "gamma2",
              "type": "tuple"
            },
            {
              "components": [
                {
                  "internalType": "uint256[2]",
                  "name": "x",
                  "type": "uint256[2]"
                },
                {
                  "internalType": "uint256[2]",
                  "name": "y",
                  "type": "uint256[2]"
                }
              ],
              "internalType": "struct Pairing.G2Point",
              "name": "delta2",
              "type": "tuple"
            },
            {
              "components": [
                {
                  "internalType": "uint256",
                  "name": "x",
                  "type": "uint256"
                },
                {
                  "internalType": "uint256",
                  "name": "y",
                  "type": "uint256"
                }
              ],
              "internalType": "struct Pairing.G1Point[]",
              "name": "ic",
              "type": "tuple[]"
            }
          ],
          "internalType": "struct SnarkCommon.VerifyingKey",
          "name": "",
          "type": "tuple"
        }
      ],
      "stateMutability": "view",
      "type": "function"
    },
    {
      "inputs": [
        {
          "internalType": "uint256",
          "name": "_sig",
          "type": "uint256"
        }
      ],
      "name": "getTallyVkBySig",
      "outputs": [
        {
          "components": [
            {
              "components": [
                {
                  "internalType": "uint256",
                  "name": "x",
                  "type": "uint256"
                },
                {
                  "internalType": "uint256",
                  "name": "y",
                  "type": "uint256"
                }
              ],
              "internalType": "struct Pairing.G1Point",
              "name": "alpha1",
              "type": "tuple"
            },
            {
              "components": [
                {
                  "internalType": "uint256[2]",
                  "name": "x",
                  "type": "uint256[2]"
                },
                {
                  "internalType": "uint256[2]",
                  "name": "y",
                  "type": "uint256[2]"
                }
              ],
              "internalType": "struct Pairing.G2Point",
              "name": "beta2",
              "type": "tuple"
            },
            {
              "components": [
                {
                  "internalType": "uint256[2]",
                  "name": "x",
                  "type": "uint256[2]"
                },
                {
                  "internalType": "uint256[2]",
                  "name": "y",
                  "type": "uint256[2]"
                }
              ],
              "internalType": "struct Pairing.G2Point",
              "name": "gamma2",
              "type": "tuple"
            },
            {
              "components": [
                {
                  "internalType": "uint256[2]",
                  "name": "x",
                  "type": "uint256[2]"
                },
                {
                  "internalType": "uint256[2]",
                  "name": "y",
                  "type": "uint256[2]"
                }
              ],
              "internalType": "struct Pairing.G2Point",
              "name": "delta2",
              "type": "tuple"
            },
            {
              "components": [
                {
                  "internalType": "uint256",
                  "name": "x",
                  "type": "uint256"
                },
                {
                  "internalType": "uint256",
                  "name": "y",
                  "type": "uint256"
                }
              ],
              "internalType": "struct Pairing.G1Point[]",
              "name": "ic",
              "type": "tuple[]"
            }
          ],
          "internalType": "struct SnarkCommon.VerifyingKey",
          "name": "",
          "type": "tuple"
        }
      ],
      "stateMutability": "view",
      "type": "function"
    },
    {
      "inputs": [
        {
          "internalType": "uint256",
          "name": "_stateTreeDepth",
          "type": "uint256"
        },
        {
          "internalType": "uint256",
          "name": "_messageTreeDepth",
          "type": "uint256"
        },
        {
          "internalType": "uint256",
          "name": "_voteOptionTreeDepth",
          "type": "uint256"
        },
        {
          "internalType": "uint256",
          "name": "_messageBatchSize",
          "type": "uint256"
        }
      ],
      "name": "hasProcessVk",
      "outputs": [
        {
          "internalType": "bool",
          "name": "",
          "type": "bool"
        }
      ],
      "stateMutability": "view",
      "type": "function"
    },
    {
      "inputs": [
        {
          "internalType": "uint256",
          "name": "_stateTreeDepth",
          "type": "uint256"
        },
        {
          "internalType": "uint256",
          "name": "_intStateTreeDepth",
          "type": "uint256"
        },
        {
          "internalType": "uint256",
          "name": "_voteOptionTreeDepth",
          "type": "uint256"
        }
      ],
      "name": "hasTallyVk",
      "outputs": [
        {
          "internalType": "bool",
          "name": "",
          "type": "bool"
        }
      ],
      "stateMutability": "view",
      "type": "function"
    },
    {
      "inputs": [
        {
          "internalType": "uint256",
          "name": "_sig",
          "type": "uint256"
        }
      ],
      "name": "isProcessVkSet",
      "outputs": [
        {
          "internalType": "bool",
          "name": "",
          "type": "bool"
        }
      ],
      "stateMutability": "view",
      "type": "function"
    },
    {
      "inputs": [
        {
          "internalType": "uint256",
          "name": "_sig",
          "type": "uint256"
        }
      ],
      "name": "isTallyVkSet",
      "outputs": [
        {
          "internalType": "bool",
          "name": "",
          "type": "bool"
        }
      ],
      "stateMutability": "view",
      "type": "function"
    },
    {
      "inputs": [],
      "name": "owner",
      "outputs": [
        {
          "internalType": "address",
          "name": "",
          "type": "address"
        }
      ],
      "stateMutability": "view",
      "type": "function"
    },
    {
      "inputs": [],
      "name": "renounceOwnership",
      "outputs": [],
      "stateMutability": "nonpayable",
      "type": "function"
    },
    {
      "inputs": [
        {
          "internalType": "uint256",
          "name": "_stateTreeDepth",
          "type": "uint256"
        },
        {
          "internalType": "uint256",
          "name": "_intStateTreeDepth",
          "type": "uint256"
        },
        {
          "internalType": "uint256",
          "name": "_messageTreeDepth",
          "type": "uint256"
        },
        {
          "internalType": "uint256",
          "name": "_voteOptionTreeDepth",
          "type": "uint256"
        },
        {
          "internalType": "uint256",
          "name": "_messageBatchSize",
          "type": "uint256"
        },
        {
          "components": [
            {
              "components": [
                {
                  "internalType": "uint256",
                  "name": "x",
                  "type": "uint256"
                },
                {
                  "internalType": "uint256",
                  "name": "y",
                  "type": "uint256"
                }
              ],
              "internalType": "struct Pairing.G1Point",
              "name": "alpha1",
              "type": "tuple"
            },
            {
              "components": [
                {
                  "internalType": "uint256[2]",
                  "name": "x",
                  "type": "uint256[2]"
                },
                {
                  "internalType": "uint256[2]",
                  "name": "y",
                  "type": "uint256[2]"
                }
              ],
              "internalType": "struct Pairing.G2Point",
              "name": "beta2",
              "type": "tuple"
            },
            {
              "components": [
                {
                  "internalType": "uint256[2]",
                  "name": "x",
                  "type": "uint256[2]"
                },
                {
                  "internalType": "uint256[2]",
                  "name": "y",
                  "type": "uint256[2]"
                }
              ],
              "internalType": "struct Pairing.G2Point",
              "name": "gamma2",
              "type": "tuple"
            },
            {
              "components": [
                {
                  "internalType": "uint256[2]",
                  "name": "x",
                  "type": "uint256[2]"
                },
                {
                  "internalType": "uint256[2]",
                  "name": "y",
                  "type": "uint256[2]"
                }
              ],
              "internalType": "struct Pairing.G2Point",
              "name": "delta2",
              "type": "tuple"
            },
            {
              "components": [
                {
                  "internalType": "uint256",
                  "name": "x",
                  "type": "uint256"
                },
                {
                  "internalType": "uint256",
                  "name": "y",
                  "type": "uint256"
                }
              ],
              "internalType": "struct Pairing.G1Point[]",
              "name": "ic",
              "type": "tuple[]"
            }
          ],
          "internalType": "struct SnarkCommon.VerifyingKey",
          "name": "_processVk",
          "type": "tuple"
        },
        {
          "components": [
            {
              "components": [
                {
                  "internalType": "uint256",
                  "name": "x",
                  "type": "uint256"
                },
                {
                  "internalType": "uint256",
                  "name": "y",
                  "type": "uint256"
                }
              ],
              "internalType": "struct Pairing.G1Point",
              "name": "alpha1",
              "type": "tuple"
            },
            {
              "components": [
                {
                  "internalType": "uint256[2]",
                  "name": "x",
                  "type": "uint256[2]"
                },
                {
                  "internalType": "uint256[2]",
                  "name": "y",
                  "type": "uint256[2]"
                }
              ],
              "internalType": "struct Pairing.G2Point",
              "name": "beta2",
              "type": "tuple"
            },
            {
              "components": [
                {
                  "internalType": "uint256[2]",
                  "name": "x",
                  "type": "uint256[2]"
                },
                {
                  "internalType": "uint256[2]",
                  "name": "y",
                  "type": "uint256[2]"
                }
              ],
              "internalType": "struct Pairing.G2Point",
              "name": "gamma2",
              "type": "tuple"
            },
            {
              "components": [
                {
                  "internalType": "uint256[2]",
                  "name": "x",
                  "type": "uint256[2]"
                },
                {
                  "internalType": "uint256[2]",
                  "name": "y",
                  "type": "uint256[2]"
                }
              ],
              "internalType": "struct Pairing.G2Point",
              "name": "delta2",
              "type": "tuple"
            },
            {
              "components": [
                {
                  "internalType": "uint256",
                  "name": "x",
                  "type": "uint256"
                },
                {
                  "internalType": "uint256",
                  "name": "y",
                  "type": "uint256"
                }
              ],
              "internalType": "struct Pairing.G1Point[]",
              "name": "ic",
              "type": "tuple[]"
            }
          ],
          "internalType": "struct SnarkCommon.VerifyingKey",
          "name": "_tallyVk",
          "type": "tuple"
        }
      ],
      "name": "setVerifyingKeys",
      "outputs": [],
      "stateMutability": "nonpayable",
      "type": "function"
    },
    {
      "inputs": [
        {
          "internalType": "address",
          "name": "newOwner",
          "type": "address"
        }
      ],
      "name": "transferOwnership",
      "outputs": [],
      "stateMutability": "nonpayable",
      "type": "function"
    }
  ],
  "bytecode": "0x608060405234801561001057600080fd5b5060006100216100c460201b60201c565b9050806000806101000a81548173ffffffffffffffffffffffffffffffffffffffff021916908373ffffffffffffffffffffffffffffffffffffffff1602179055508073ffffffffffffffffffffffffffffffffffffffff16600073ffffffffffffffffffffffffffffffffffffffff167f8be0079c531659141344cd1fd0a4f28419497f9722a3daafe3b4186f6b6457e060405160405180910390a3506100cc565b600033905090565b611e6f806100db6000396000f3fe608060405234801561001057600080fd5b50600436106100ea5760003560e01c80638da5cb5b1161008c578063ba2ff7ab11610066578063ba2ff7ab14610283578063c7c8beec146102b3578063db9f755b146102e3578063f2fde38b14610313576100ea565b80638da5cb5b14610219578063abc61c6b14610237578063b2e3953014610253576100ea565b8063257752d3116100c8578063257752d31461017f57806326960517146101af5780634f1b0e5f146101df578063715018a61461020f576100ea565b80630bfbd4fe146100ef57806317b7f8101461011f5780631afe11ef1461014f575b600080fd5b61010960048036038101906101049190611653565b61032f565b6040516101169190611c8a565b60405180910390f35b610139600480360381019061013491906115db565b61035b565b6040516101469190611baf565b60405180910390f35b61016960048036038101906101649190611604565b610385565b6040516101769190611cac565b60405180910390f35b610199600480360381019061019491906115db565b61039d565b6040516101a69190611baf565b60405180910390f35b6101c960048036038101906101c49190611604565b6103c7565b6040516101d69190611baf565b60405180910390f35b6101f960048036038101906101f49190611653565b610402565b6040516102069190611baf565b60405180910390f35b61021761043f565b005b610221610579565b60405161022e9190611b94565b60405180910390f35b610251600480360381019061024c91906116b6565b6105a2565b005b61026d60048036038101906102689190611653565b610a44565b60405161027a9190611cac565b60405180910390f35b61029d600480360381019061029891906115db565b610a63565b6040516102aa9190611c8a565b60405180910390f35b6102cd60048036038101906102c89190611604565b610d6c565b6040516102da9190611c8a565b60405180910390f35b6102fd60048036038101906102f891906115db565b610d96565b60405161030a9190611c8a565b60405180910390f35b61032d600480360381019061032891906115b2565b61109f565b005b610337611250565b600061034586868686610a44565b905061035081610a63565b915050949350505050565b60006004600083815260200190815260200160002060009054906101000a900460ff169050919050565b600081604084901b608086901b010190509392505050565b60006002600083815260200190815260200160002060009054906101000a900460ff169050919050565b6000806103d5858585610385565b90506004600082815260200190815260200160002060009054906101000a900460ff169150509392505050565b60008061041186868686610a44565b90506002600082815260200190815260200160002060009054906101000a900460ff16915050949350505050565b610447611248565b73ffffffffffffffffffffffffffffffffffffffff16610465610579565b73ffffffffffffffffffffffffffffffffffffffff16146104bb576040517f08c379a00000000000000000000000000000000000000000000000000000000081526004016104b290611c4a565b60405180910390fd5b600073ffffffffffffffffffffffffffffffffffffffff1660008054906101000a900473ffffffffffffffffffffffffffffffffffffffff1673ffffffffffffffffffffffffffffffffffffffff167f8be0079c531659141344cd1fd0a4f28419497f9722a3daafe3b4186f6b6457e060405160405180910390a360008060006101000a81548173ffffffffffffffffffffffffffffffffffffffff021916908373ffffffffffffffffffffffffffffffffffffffff160217905550565b60008060009054906101000a900473ffffffffffffffffffffffffffffffffffffffff16905090565b6105aa611248565b73ffffffffffffffffffffffffffffffffffffffff166105c8610579565b73ffffffffffffffffffffffffffffffffffffffff161461061e576040517f08c379a000000000000000000000000000000000000000000000000000000000815260040161061590611c4a565b60405180910390fd5b600061062c88878787610a44565b9050600015156002600083815260200190815260200160002060009054906101000a900460ff16151514610695576040517f08c379a000000000000000000000000000000000000000000000000000000000815260040161068c90611c0a565b60405180910390fd5b60006106a2898988610385565b9050600015156004600083815260200190815260200160002060009054906101000a900460ff1615151461070b576040517f08c379a000000000000000000000000000000000000000000000000000000000815260040161070290611bea565b60405180910390fd5b60006001600084815260200190815260200160002090508460000151816000016000820151816000015560208201518160010155905050846020015181600201600082015181600001906002610762929190611297565b5060208201518160020190600261077a929190611297565b5090505084604001518160060160008201518160000190600261079e929190611297565b506020820151816002019060026107b6929190611297565b50905050846060015181600a016000820151816000019060026107da929190611297565b506020820151816002019060026107f2929190611297565b5090505060005b8560800151518160ff1610156108745781600e0186608001518260ff168151811061082057fe5b602002602001015190806001815401808255809150506001900390600052602060002090600202016000909190919091506000820151816000015560208201518160010155505080806001019150506107f9565b5060016002600085815260200190815260200160002060006101000a81548160ff021916908315150217905550600060036000848152602001908152602001600020905084600001518160000160008201518160000155602082015181600101559050508460200151816002016000820151816000019060026108f8929190611297565b50602082015181600201906002610910929190611297565b50905050846040015181600601600082015181600001906002610934929190611297565b5060208201518160020190600261094c929190611297565b50905050846060015181600a01600082015181600001906002610970929190611297565b50602082015181600201906002610988929190611297565b5090505060005b8560800151518160ff161015610a0a5781600e0186608001518260ff16815181106109b657fe5b6020026020010151908060018154018082558091505060019003906000526020600020906002020160009091909190915060008201518160000155602082015181600101555050808060010191505061098f565b5060016004600085815260200190815260200160002060006101000a81548160ff0219169083151502179055505050505050505050505050565b600082604085901b608087901b60c085901b0101019050949350505050565b610a6b611250565b600115156002600084815260200190815260200160002060009054906101000a900460ff16151514610ad2576040517f08c379a0000000000000000000000000000000000000000000000000000000008152600401610ac990611c6a565b60405180910390fd5b600160008381526020019081526020016000206040518060a0016040529081600082016040518060400160405290816000820154815260200160018201548152505081526020016002820160405180604001604052908160008201600280602002604051908101604052809291908260028015610b64576020028201915b815481526020019060010190808311610b50575b5050505050815260200160028201600280602002604051908101604052809291908260028015610ba9576020028201915b815481526020019060010190808311610b95575b50505050508152505081526020016006820160405180604001604052908160008201600280602002604051908101604052809291908260028015610c02576020028201915b815481526020019060010190808311610bee575b5050505050815260200160028201600280602002604051908101604052809291908260028015610c47576020028201915b815481526020019060010190808311610c33575b5050505050815250508152602001600a820160405180604001604052908160008201600280602002604051908101604052809291908260028015610ca0576020028201915b815481526020019060010190808311610c8c575b5050505050815260200160028201600280602002604051908101604052809291908260028015610ce5576020028201915b815481526020019060010190808311610cd1575b5050505050815250508152602001600e8201805480602002602001604051908101604052809291908181526020016000905b82821015610d5d57838290600052602060002090600202016040518060400160405290816000820154815260200160018201548152505081526020019060010190610d17565b50505050815250509050919050565b610d74611250565b6000610d81858585610385565b9050610d8c81610d96565b9150509392505050565b610d9e611250565b600115156004600084815260200190815260200160002060009054906101000a900460ff16151514610e05576040517f08c379a0000000000000000000000000000000000000000000000000000000008152600401610dfc90611c2a565b60405180910390fd5b600360008381526020019081526020016000206040518060a0016040529081600082016040518060400160405290816000820154815260200160018201548152505081526020016002820160405180604001604052908160008201600280602002604051908101604052809291908260028015610e97576020028201915b815481526020019060010190808311610e83575b5050505050815260200160028201600280602002604051908101604052809291908260028015610edc576020028201915b815481526020019060010190808311610ec8575b50505050508152505081526020016006820160405180604001604052908160008201600280602002604051908101604052809291908260028015610f35576020028201915b815481526020019060010190808311610f21575b5050505050815260200160028201600280602002604051908101604052809291908260028015610f7a576020028201915b815481526020019060010190808311610f66575b5050505050815250508152602001600a820160405180604001604052908160008201600280602002604051908101604052809291908260028015610fd3576020028201915b815481526020019060010190808311610fbf575b5050505050815260200160028201600280602002604051908101604052809291908260028015611018576020028201915b815481526020019060010190808311611004575b5050505050815250508152602001600e8201805480602002602001604051908101604052809291908181526020016000905b828210156110905783829060005260206000209060020201604051806040016040529081600082015481526020016001820154815250508152602001906001019061104a565b50505050815250509050919050565b6110a7611248565b73ffffffffffffffffffffffffffffffffffffffff166110c5610579565b73ffffffffffffffffffffffffffffffffffffffff161461111b576040517f08c379a000000000000000000000000000000000000000000000000000000000815260040161111290611c4a565b60405180910390fd5b600073ffffffffffffffffffffffffffffffffffffffff168173ffffffffffffffffffffffffffffffffffffffff16141561118b576040517f08c379a000000000000000000000000000000000000000000000000000000000815260040161118290611bca565b60405180910390fd5b8073ffffffffffffffffffffffffffffffffffffffff1660008054906101000a900473ffffffffffffffffffffffffffffffffffffffff1673ffffffffffffffffffffffffffffffffffffffff167f8be0079c531659141344cd1fd0a4f28419497f9722a3daafe3b4186f6b6457e060405160405180910390a3806000806101000a81548173ffffffffffffffffffffffffffffffffffffffff021916908373ffffffffffffffffffffffffffffffffffffffff16021790555050565b600033905090565b6040518060a001604052806112636112d7565b81526020016112706112f1565b815260200161127d6112f1565b815260200161128a6112f1565b8152602001606081525090565b82600281019282156112c6579160200282015b828111156112c55782518255916020019190600101906112aa565b5b5090506112d39190611317565b5090565b604051806040016040528060008152602001600081525090565b6040518060400160405280611304611334565b8152602001611311611334565b81525090565b5b80821115611330576000816000905550600101611318565b5090565b6040518060400160405280600290602082028036833780820191505090505090565b60008135905061136581611e0b565b92915050565b600082601f83011261137c57600080fd5b813561138f61138a82611cf8565b611cc7565b915081818352602084019350602081019050838560408402820111156113b457600080fd5b60005b838110156113e457816113ca8882611462565b8452602084019350604083019250506001810190506113b7565b5050505092915050565b600082601f8301126113ff57600080fd5b600261141261140d82611d24565b611cc7565b9150818385602084028201111561142857600080fd5b60005b83811015611458578161143e888261159d565b84526020840193506020830192505060018101905061142b565b5050505092915050565b60006040828403121561147457600080fd5b61147e6040611cc7565b9050600061148e8482850161159d565b60008301525060206114a28482850161159d565b60208301525092915050565b6000608082840312156114c057600080fd5b6114ca6040611cc7565b905060006114da848285016113ee565b60008301525060406114ee848285016113ee565b60208301525092915050565b60006101e0828403121561150d57600080fd5b61151760a0611cc7565b9050600061152784828501611462565b600083015250604061153b848285016114ae565b60208301525060c061154f848285016114ae565b604083015250610140611564848285016114ae565b6060830152506101c082013567ffffffffffffffff81111561158557600080fd5b6115918482850161136b565b60808301525092915050565b6000813590506115ac81611e22565b92915050565b6000602082840312156115c457600080fd5b60006115d284828501611356565b91505092915050565b6000602082840312156115ed57600080fd5b60006115fb8482850161159d565b91505092915050565b60008060006060848603121561161957600080fd5b60006116278682870161159d565b93505060206116388682870161159d565b92505060406116498682870161159d565b9150509250925092565b6000806000806080858703121561166957600080fd5b60006116778782880161159d565b94505060206116888782880161159d565b93505060406116998782880161159d565b92505060606116aa8782880161159d565b91505092959194509250565b600080600080600080600060e0888a0312156116d157600080fd5b60006116df8a828b0161159d565b97505060206116f08a828b0161159d565b96505060406117018a828b0161159d565b95505060606117128a828b0161159d565b94505060806117238a828b0161159d565b93505060a088013567ffffffffffffffff81111561174057600080fd5b61174c8a828b016114fa565b92505060c088013567ffffffffffffffff81111561176957600080fd5b6117758a828b016114fa565b91505092959891949750929550565b60006117908383611a9f565b60408301905092915050565b60006117a88383611b76565b60208301905092915050565b6117bd81611dc1565b82525050565b60006117ce82611d64565b6117d88185611d94565b93506117e383611d4a565b8060005b838110156118145781516117fb8882611784565b975061180683611d7a565b9250506001810190506117e7565b5085935050505092915050565b61182a81611d6f565b6118348184611da5565b925061183f82611d5a565b8060005b83811015611870578151611857878261179c565b965061186283611d87565b925050600181019050611843565b505050505050565b61188181611dd3565b82525050565b6000611894602683611db0565b91507f4f776e61626c653a206e6577206f776e657220697320746865207a65726f206160008301527f64647265737300000000000000000000000000000000000000000000000000006020830152604082019050919050565b60006118fa602083611db0565b91507f566b52656769737472793a2074616c6c7920766b20616c7265616479207365746000830152602082019050919050565b600061193a602283611db0565b91507f566b52656769737472793a2070726f6365737320766b20616c7265616479207360008301527f65740000000000000000000000000000000000000000000000000000000000006020830152604082019050919050565b60006119a0602783611db0565b91507f566b52656769737472793a2074616c6c7920766572696679696e67206b65792060008301527f6e6f7420736574000000000000000000000000000000000000000000000000006020830152604082019050919050565b6000611a06602083611db0565b91507f4f776e61626c653a2063616c6c6572206973206e6f7420746865206f776e65726000830152602082019050919050565b6000611a46602983611db0565b91507f566b52656769737472793a2070726f6365737320766572696679696e67206b6560008301527f79206e6f742073657400000000000000000000000000000000000000000000006020830152604082019050919050565b604082016000820151611ab56000850182611b76565b506020820151611ac86020850182611b76565b50505050565b608082016000820151611ae46000850182611821565b506020820151611af76040850182611821565b50505050565b60006101e083016000830151611b166000860182611a9f565b506020830151611b296040860182611ace565b506040830151611b3c60c0860182611ace565b506060830151611b50610140860182611ace565b5060808301518482036101c0860152611b6982826117c3565b9150508091505092915050565b611b7f81611dff565b82525050565b611b8e81611dff565b82525050565b6000602082019050611ba960008301846117b4565b92915050565b6000602082019050611bc46000830184611878565b92915050565b60006020820190508181036000830152611be381611887565b9050919050565b60006020820190508181036000830152611c03816118ed565b9050919050565b60006020820190508181036000830152611c238161192d565b9050919050565b60006020820190508181036000830152611c4381611993565b9050919050565b60006020820190508181036000830152611c63816119f9565b9050919050565b60006020820190508181036000830152611c8381611a39565b9050919050565b60006020820190508181036000830152611ca48184611afd565b905092915050565b6000602082019050611cc16000830184611b85565b92915050565b6000604051905081810181811067ffffffffffffffff82111715611cee57611ced611e09565b5b8060405250919050565b600067ffffffffffffffff821115611d1357611d12611e09565b5b602082029050602081019050919050565b600067ffffffffffffffff821115611d3f57611d3e611e09565b5b602082029050919050565b6000819050602082019050919050565b6000819050919050565b600081519050919050565b600060029050919050565b6000602082019050919050565b6000602082019050919050565b600082825260208201905092915050565b600081905092915050565b600082825260208201905092915050565b6000611dcc82611ddf565b9050919050565b60008115159050919050565b600073ffffffffffffffffffffffffffffffffffffffff82169050919050565b6000819050919050565bfe5b611e1481611dc1565b8114611e1f57600080fd5b50565b611e2b81611dff565b8114611e3657600080fd5b5056fea2646970667358221220b93ec79d0f149464891de497c98259b0bb9aa74a77e83518a84ac9e6cd02f92f64736f6c63430007020033",
  "linkReferences": {},
  "deployedLinkReferences": {}
}