{
  "_format": "hh-sol-artifact-1",
  "contractName": "Hasher",
  "sourceName": "contracts/crypto/Hasher.sol",
  "abi": [
    {
      "inputs": [
        {
          "internalType": "uint256[2]",
          "name": "array",
          "type": "uint256[2]"
        }
      ],
      "name": "hash2",
      "outputs": [
        {
          "internalType": "uint256",
          "name": "",
          "type": "uint256"
        }
      ],
      "stateMutability": "pure",
      "type": "function"
    },
    {
      "inputs": [
        {
          "internalType": "uint256[3]",
          "name": "array",
          "type": "uint256[3]"
        }
      ],
      "name": "hash3",
      "outputs": [
        {
          "internalType": "uint256",
          "name": "",
          "type": "uint256"
        }
      ],
      "stateMutability": "pure",
      "type": "function"
    },
    {
      "inputs": [
        {
          "internalType": "uint256[4]",
          "name": "array",
          "type": "uint256[4]"
        }
      ],
      "name": "hash4",
      "outputs": [
        {
          "internalType": "uint256",
          "name": "",
          "type": "uint256"
        }
      ],
      "stateMutability": "pure",
      "type": "function"
    },
    {
      "inputs": [
        {
          "internalType": "uint256[5]",
          "name": "array",
          "type": "uint256[5]"
        }
      ],
      "name": "hash5",
      "outputs": [
        {
          "internalType": "uint256",
          "name": "",
          "type": "uint256"
        }
      ],
      "stateMutability": "pure",
      "type": "function"
    },
    {
      "inputs": [
        {
          "internalType": "uint256",
          "name": "_left",
          "type": "uint256"
        },
        {
          "internalType": "uint256",
          "name": "_right",
          "type": "uint256"
        }
      ],
      "name": "hashLeftRight",
      "outputs": [
        {
          "internalType": "uint256",
          "name": "",
          "type": "uint256"
        }
      ],
      "stateMutability": "pure",
      "type": "function"
    },
    {
      "inputs": [
        {
          "internalType": "uint256[]",
          "name": "array",
          "type": "uint256[]"
        }
      ],
      "name": "sha256Hash",
      "outputs": [
        {
          "internalType": "uint256",
          "name": "",
          "type": "uint256"
        }
      ],
      "stateMutability": "pure",
      "type": "function"
    }
  ],
  "bytecode": "0x608060405234801561001057600080fd5b50610810806100206000396000f3fe608060405234801561001057600080fd5b50600436106100625760003560e01c80633dfb88b21461006757806358bfc379146100e05780635bb93995146101ac57806362a361bb146101f85780639cfced9714610271578063bea140b3146102ea575b600080fd5b6100ca6004803603608081101561007d57600080fd5b8101908080608001906004806020026040519081016040528092919082600460200280828437600081840152601f19601f8201169050808301925050505050509192919290505050610363565b6040518082815260200191505060405180910390f35b610196600480360360208110156100f657600080fd5b810190808035906020019064010000000081111561011357600080fd5b82018360208201111561012557600080fd5b8035906020019184602083028401116401000000008311171561014757600080fd5b919080806020026020016040519081016040528093929190818152602001838360200280828437600081840152601f19601f82011690508083019250505050505050919291929050505061041e565b6040518082815260200191505060405180910390f35b6101e2600480360360408110156101c257600080fd5b81019080803590602001909291908035906020019092919050505061053d565b6040518082815260200191505060405180910390f35b61025b6004803603604081101561020e57600080fd5b8101908080604001906002806020026040519081016040528092919082600260200280828437600081840152601f19601f8201169050808301925050505050509192919290505050610587565b6040518082815260200191505060405180910390f35b6102d4600480360360a081101561028757600080fd5b810190808060a001906005806020026040519081016040528092919082600560200280828437600081840152601f19601f8201169050808301925050505050509192919290505050610642565b6040518082815260200191505060405180910390f35b61034d6004803603606081101561030057600080fd5b8101908080606001906003806020026040519081016040528092919082600360200280828437600081840152601f19601f82011690508083019250505050505091929192905050506106fd565b6040518082815260200191505060405180910390f35b600073__$584f44aaf914c42633951b34ceb432be31$__63248f6677836040518263ffffffff1660e01b81526004018082600460200280838360005b838110156103ba57808201518184015260208101905061039f565b5050505090500191505060206040518083038186803b1580156103dc57600080fd5b505af41580156103f0573d6000803e3d6000fd5b505050506040513d602081101561040657600080fd5b81019080805190602001909291905050509050919050565b60007f30644e72e131a029b85045b68181585d2833e84879b9709143e1f593f000000160028360405160200180828051906020019060200280838360005b8381101561047757808201518184015260208101905061045c565b505050509050019150506040516020818303038152906040526040518082805190602001908083835b602083106104c357805182526020820191506020810190506020830392506104a0565b6001836020036101000a038019825116818451168082178552505050505050905001915050602060405180830381855afa158015610505573d6000803e3d6000fd5b5050506040513d602081101561051a57600080fd5b810190808051906020019092919050505060001c8161053557fe5b069050919050565b60006105476107b8565b838160006002811061055557fe5b602002018181525050828160016002811061056c57fe5b60200201818152505061057e81610587565b91505092915050565b600073__$d4acaf6f169a2634c49d403ce7efde36fd$__6329a5f2f6836040518263ffffffff1660e01b81526004018082600260200280838360005b838110156105de5780820151818401526020810190506105c3565b5050505090500191505060206040518083038186803b15801561060057600080fd5b505af4158015610614573d6000803e3d6000fd5b505050506040513d602081101561062a57600080fd5b81019080805190602001909291905050509050919050565b600073__$2a5b9c44d836f7997ae51e8d308a712a39$__634937a258836040518263ffffffff1660e01b81526004018082600560200280838360005b8381101561069957808201518184015260208101905061067e565b5050505090500191505060206040518083038186803b1580156106bb57600080fd5b505af41580156106cf573d6000803e3d6000fd5b505050506040513d60208110156106e557600080fd5b81019080805190602001909291905050509050919050565b600073__$9b3049adcf18347c4fcd511e1429cbc37d$__6325cc70e8836040518263ffffffff1660e01b81526004018082600360200280838360005b83811015610754578082015181840152602081019050610739565b5050505090500191505060206040518083038186803b15801561077657600080fd5b505af415801561078a573d6000803e3d6000fd5b505050506040513d60208110156107a057600080fd5b81019080805190602001909291905050509050919050565b604051806040016040528060029060208202803683378082019150509050509056fea26469706673582212203a16b0a869f1be8c7bf92ef188d948e5b48ba7c584960d34190ff2d654a3208564736f6c63430007020033",
  "linkReferences": {
    "contracts/crypto/Hasher.sol": {
      "PoseidonT3": [
        {
          "length": 20,
          "start": 1451
        }
      ],
      "PoseidonT4": [
        {
          "length": 20,
          "start": 1825
        }
      ],
      "PoseidonT5": [
        {
          "length": 20,
          "start": 903
        }
      ],
      "PoseidonT6": [
        {
          "length": 20,
          "start": 1638
        }
      ]
    }
  },
  "deployedLinkReferences": {
    "contracts/crypto/Hasher.sol": {
      "PoseidonT3": [
        {
          "length": 20,
          "start": 1419
        }
      ],
      "PoseidonT4": [
        {
          "length": 20,
          "start": 1793
        }
      ],
      "PoseidonT5": [
        {
          "length": 20,
          "start": 871
        }
      ],
      "PoseidonT6": [
        {
          "length": 20,
          "start": 1606
        }
      ]
    }
  }
}