{
  "_format": "hh-sol-artifact-1",
  "contractName": "MockVerifier",
  "sourceName": "contracts/crypto/Verifier.sol",
  "abi": [
    {
      "inputs": [
        {
          "internalType": "uint256[8]",
          "name": "",
          "type": "uint256[8]"
        },
        {
          "components": [
            {
              "components": [
                {
                  "internalType": "uint256",
                  "name": "x",
                  "type": "uint256"
                },
                {
                  "internalType": "uint256",
                  "name": "y",
                  "type": "uint256"
                }
              ],
              "internalType": "struct Pairing.G1Point",
              "name": "alpha1",
              "type": "tuple"
            },
            {
              "components": [
                {
                  "internalType": "uint256[2]",
                  "name": "x",
                  "type": "uint256[2]"
                },
                {
                  "internalType": "uint256[2]",
                  "name": "y",
                  "type": "uint256[2]"
                }
              ],
              "internalType": "struct Pairing.G2Point",
              "name": "beta2",
              "type": "tuple"
            },
            {
              "components": [
                {
                  "internalType": "uint256[2]",
                  "name": "x",
                  "type": "uint256[2]"
                },
                {
                  "internalType": "uint256[2]",
                  "name": "y",
                  "type": "uint256[2]"
                }
              ],
              "internalType": "struct Pairing.G2Point",
              "name": "gamma2",
              "type": "tuple"
            },
            {
              "components": [
                {
                  "internalType": "uint256[2]",
                  "name": "x",
                  "type": "uint256[2]"
                },
                {
                  "internalType": "uint256[2]",
                  "name": "y",
                  "type": "uint256[2]"
                }
              ],
              "internalType": "struct Pairing.G2Point",
              "name": "delta2",
              "type": "tuple"
            },
            {
              "components": [
                {
                  "internalType": "uint256",
                  "name": "x",
                  "type": "uint256"
                },
                {
                  "internalType": "uint256",
                  "name": "y",
                  "type": "uint256"
                }
              ],
              "internalType": "struct Pairing.G1Point[]",
              "name": "ic",
              "type": "tuple[]"
            }
          ],
          "internalType": "struct SnarkCommon.VerifyingKey",
          "name": "",
          "type": "tuple"
        },
        {
          "internalType": "uint256[]",
          "name": "",
          "type": "uint256[]"
        }
      ],
      "name": "verify",
      "outputs": [
        {
          "internalType": "bool",
          "name": "",
          "type": "bool"
        }
      ],
      "stateMutability": "view",
      "type": "function"
    }
  ],
  "bytecode": "0x608060405260016000806101000a81548160ff02191690831515021790555034801561002a57600080fd5b5061059e8061003a6000396000f3fe608060405234801561001057600080fd5b506004361061002b5760003560e01c8063352a4d1514610030575b600080fd5b61004a600480360381019061004591906103b8565b610060565b6040516100579190610449565b60405180910390f35b60008060009054906101000a900460ff1690509392505050565b600082601f83011261008b57600080fd5b813561009e61009982610495565b610464565b915081818352602084019350602081019050838560408402820111156100c357600080fd5b60005b838110156100f357816100d98882610268565b8452602084019350604083019250506001810190506100c6565b5050505092915050565b600082601f83011261010e57600080fd5b600261012161011c826104c1565b610464565b9150818385602084028201111561013757600080fd5b60005b83811015610167578161014d88826103a3565b84526020840193506020830192505060018101905061013a565b5050505092915050565b600082601f83011261018257600080fd5b6008610195610190826104e7565b610464565b915081838560208402820111156101ab57600080fd5b60005b838110156101db57816101c188826103a3565b8452602084019350602083019250506001810190506101ae565b5050505092915050565b600082601f8301126101f657600080fd5b81356102096102048261050d565b610464565b9150818183526020840193506020810190508385602084028201111561022e57600080fd5b60005b8381101561025e578161024488826103a3565b845260208401935060208301925050600181019050610231565b5050505092915050565b60006040828403121561027a57600080fd5b6102846040610464565b90506000610294848285016103a3565b60008301525060206102a8848285016103a3565b60208301525092915050565b6000608082840312156102c657600080fd5b6102d06040610464565b905060006102e0848285016100fd565b60008301525060406102f4848285016100fd565b60208301525092915050565b60006101e0828403121561031357600080fd5b61031d60a0610464565b9050600061032d84828501610268565b6000830152506040610341848285016102b4565b60208301525060c0610355848285016102b4565b60408301525061014061036a848285016102b4565b6060830152506101c082013567ffffffffffffffff81111561038b57600080fd5b6103978482850161007a565b60808301525092915050565b6000813590506103b281610551565b92915050565b600080600061014084860312156103ce57600080fd5b60006103dc86828701610171565b93505061010084013567ffffffffffffffff8111156103fa57600080fd5b61040686828701610300565b92505061012084013567ffffffffffffffff81111561042457600080fd5b610430868287016101e5565b9150509250925092565b61044381610539565b82525050565b600060208201905061045e600083018461043a565b92915050565b6000604051905081810181811067ffffffffffffffff8211171561048b5761048a61054f565b5b8060405250919050565b600067ffffffffffffffff8211156104b0576104af61054f565b5b602082029050602081019050919050565b600067ffffffffffffffff8211156104dc576104db61054f565b5b602082029050919050565b600067ffffffffffffffff8211156105025761050161054f565b5b602082029050919050565b600067ffffffffffffffff8211156105285761052761054f565b5b602082029050602081019050919050565b60008115159050919050565b6000819050919050565bfe5b61055a81610545565b811461056557600080fd5b5056fea2646970667358221220f6480178ef83644ee8b7bb6b75873149cbc1eb2658ed5c99c28109386f763bbd64736f6c63430007020033",
  "linkReferences": {},
  "deployedLinkReferences": {}
}