{
  "_format": "hh-sol-artifact-1",
  "contractName": "Verifier",
  "sourceName": "contracts/crypto/Verifier.sol",
  "abi": [
    {
      "inputs": [
        {
          "internalType": "uint256[8]",
          "name": "_proof",
          "type": "uint256[8]"
        },
        {
          "components": [
            {
              "components": [
                {
                  "internalType": "uint256",
                  "name": "x",
                  "type": "uint256"
                },
                {
                  "internalType": "uint256",
                  "name": "y",
                  "type": "uint256"
                }
              ],
              "internalType": "struct Pairing.G1Point",
              "name": "alpha1",
              "type": "tuple"
            },
            {
              "components": [
                {
                  "internalType": "uint256[2]",
                  "name": "x",
                  "type": "uint256[2]"
                },
                {
                  "internalType": "uint256[2]",
                  "name": "y",
                  "type": "uint256[2]"
                }
              ],
              "internalType": "struct Pairing.G2Point",
              "name": "beta2",
              "type": "tuple"
            },
            {
              "components": [
                {
                  "internalType": "uint256[2]",
                  "name": "x",
                  "type": "uint256[2]"
                },
                {
                  "internalType": "uint256[2]",
                  "name": "y",
                  "type": "uint256[2]"
                }
              ],
              "internalType": "struct Pairing.G2Point",
              "name": "gamma2",
              "type": "tuple"
            },
            {
              "components": [
                {
                  "internalType": "uint256[2]",
                  "name": "x",
                  "type": "uint256[2]"
                },
                {
                  "internalType": "uint256[2]",
                  "name": "y",
                  "type": "uint256[2]"
                }
              ],
              "internalType": "struct Pairing.G2Point",
              "name": "delta2",
              "type": "tuple"
            },
            {
              "components": [
                {
                  "internalType": "uint256",
                  "name": "x",
                  "type": "uint256"
                },
                {
                  "internalType": "uint256",
                  "name": "y",
                  "type": "uint256"
                }
              ],
              "internalType": "struct Pairing.G1Point[]",
              "name": "ic",
              "type": "tuple[]"
            }
          ],
          "internalType": "struct SnarkCommon.VerifyingKey",
          "name": "vk",
          "type": "tuple"
        },
        {
          "internalType": "uint256[]",
          "name": "input",
          "type": "uint256[]"
        }
      ],
      "name": "verify",
      "outputs": [
        {
          "internalType": "bool",
          "name": "",
          "type": "bool"
        }
      ],
      "stateMutability": "view",
      "type": "function"
    }
  ],
  "bytecode": "0x608060405234801561001057600080fd5b506113f0806100206000396000f3fe608060405234801561001057600080fd5b506004361061002b5760003560e01c8063352a4d1514610030575b600080fd5b61004a60048036038101906100459190611019565b610060565b60405161005791906111ea565b60405180910390f35b600061006a610b86565b60405180604001604052808660006008811061008257fe5b602002015181526020018660016008811061009957fe5b6020020151815250816000018190525060405180604001604052806040518060400160405280886002600881106100cc57fe5b60200201518152602001886003600881106100e357fe5b6020020151815250815260200160405180604001604052808860046008811061010857fe5b602002015181526020018860056008811061011f57fe5b6020020151815250815250816020018190525060405180604001604052808660066008811061014a57fe5b602002015181526020018660076008811061016157fe5b60200201518152508160400181905250610179610bb9565b604051806040016040528060008152602001600081525090507f30644e72e131a029b85045b68181585d97816a916871ca8d3c208c16d87cfd47826000015160000151106101fc576040517f08c379a00000000000000000000000000000000000000000000000000000000081526004016101f390611205565b60405180910390fd5b7f30644e72e131a029b85045b68181585d97816a916871ca8d3c208c16d87cfd4782600001516020015110610266576040517f08c379a000000000000000000000000000000000000000000000000000000000815260040161025d90611205565b60405180910390fd5b7f30644e72e131a029b85045b68181585d97816a916871ca8d3c208c16d87cfd4782602001516000015160006002811061029c57fe5b6020020151106102e1576040517f08c379a00000000000000000000000000000000000000000000000000000000081526004016102d890611205565b60405180910390fd5b7f30644e72e131a029b85045b68181585d97816a916871ca8d3c208c16d87cfd4782602001516020015160006002811061031757fe5b60200201511061035c576040517f08c379a000000000000000000000000000000000000000000000000000000000815260040161035390611205565b60405180910390fd5b7f30644e72e131a029b85045b68181585d97816a916871ca8d3c208c16d87cfd4782602001516000015160016002811061039257fe5b6020020151106103d7576040517f08c379a00000000000000000000000000000000000000000000000000000000081526004016103ce90611205565b60405180910390fd5b7f30644e72e131a029b85045b68181585d97816a916871ca8d3c208c16d87cfd4782602001516020015160016002811061040d57fe5b602002015110610452576040517f08c379a000000000000000000000000000000000000000000000000000000000815260040161044990611205565b60405180910390fd5b7f30644e72e131a029b85045b68181585d97816a916871ca8d3c208c16d87cfd47826040015160000151106104bc576040517f08c379a00000000000000000000000000000000000000000000000000000000081526004016104b390611205565b60405180910390fd5b7f30644e72e131a029b85045b68181585d97816a916871ca8d3c208c16d87cfd4782604001516020015110610526576040517f08c379a000000000000000000000000000000000000000000000000000000000815260040161051d90611205565b60405180910390fd5b60005b84518110156105f6577f30644e72e131a029b85045b68181585d2833e84879b9709143e1f593f000000185828151811061055f57fe5b6020026020010151106105a7576040517f08c379a000000000000000000000000000000000000000000000000000000000815260040161059e90611245565b60405180910390fd5b6105e7826105e2886080015160018501815181106105c157fe5b60200260200101518885815181106105d557fe5b602002602001015161065a565b610722565b91508080600101915050610529565b5061061981866080015160008151811061060c57fe5b6020026020010151610722565b905061064f61062b8360000151610809565b836020015187600001518860200151858a6040015188604001518c606001516108bc565b925050509392505050565b610662610bb9565b61066a610bd3565b83600001518160006003811061067c57fe5b60200201818152505083602001518160016003811061069757fe5b60200201818152505082816002600381106106ae57fe5b602002018181525050600060608360808460076107d05a03fa905080600081146106d7576106d9565bfe5b508061071a576040517f08c379a000000000000000000000000000000000000000000000000000000000815260040161071190611225565b60405180910390fd5b505092915050565b61072a610bb9565b610732610bf5565b83600001518160006004811061074457fe5b60200201818152505083602001518160016004811061075f57fe5b60200201818152505082600001518160026004811061077a57fe5b60200201818152505082602001518160036004811061079557fe5b602002018181525050600060608360c08460066107d05a03fa905080600081146107be576107c0565bfe5b5080610801576040517f08c379a00000000000000000000000000000000000000000000000000000000081526004016107f890611265565b60405180910390fd5b505092915050565b610811610bb9565b60008260000151148015610829575060008260200151145b1561084c57604051806040016040528060008152602001600081525090506108b7565b6040518060400160405280836000015181526020017f30644e72e131a029b85045b68181585d97816a916871ca8d3c208c16d87cfd4784602001518161088e57fe5b067f30644e72e131a029b85045b68181585d97816a916871ca8d3c208c16d87cfd470381525090505b919050565b60006108c6610c17565b60405180608001604052808b81526020018981526020018781526020018581525090506108f1610c44565b60405180608001604052808b815260200189815260200187815260200185815250905060006018905060608167ffffffffffffffff8111801561093357600080fd5b506040519080825280602002602001820160405280156109625781602001602082028036833780820191505090505b50905060005b6004811015610aeb57600060068202905085826004811061098557fe5b60200201516000015183600083018151811061099d57fe5b6020026020010181815250508582600481106109b557fe5b6020020151602001518360018301815181106109cd57fe5b6020026020010181815250508482600481106109e557fe5b6020020151600001516000600281106109fa57fe5b6020020151836002830181518110610a0e57fe5b602002602001018181525050848260048110610a2657fe5b602002015160000151600160028110610a3b57fe5b6020020151836003830181518110610a4f57fe5b602002602001018181525050848260048110610a6757fe5b602002015160200151600060028110610a7c57fe5b6020020151836004830181518110610a9057fe5b602002602001018181525050848260048110610aa857fe5b602002015160200151600160028110610abd57fe5b6020020151836005830181518110610ad157fe5b602002602001018181525050508080600101915050610968565b50610af4610c71565b6000602082602086026020860160086107d05a03fa90508060008114610b1957610b1b565bfe5b5080610b5c576040517f08c379a0000000000000000000000000000000000000000000000000000000008152600401610b5390611285565b60405180910390fd5b600082600060018110610b6b57fe5b60200201511415965050505050505098975050505050505050565b6040518060600160405280610b99610bb9565b8152602001610ba6610c93565b8152602001610bb3610bb9565b81525090565b604051806040016040528060008152602001600081525090565b6040518060600160405280600390602082028036833780820191505090505090565b6040518060800160405280600490602082028036833780820191505090505090565b60405180608001604052806004905b610c2e610bb9565b815260200190600190039081610c265790505090565b60405180608001604052806004905b610c5b610c93565b815260200190600190039081610c535790505090565b6040518060200160405280600190602082028036833780820191505090505090565b6040518060400160405280610ca6610cb9565b8152602001610cb3610cb9565b81525090565b6040518060400160405280600290602082028036833780820191505090505090565b600082601f830112610cec57600080fd5b8135610cff610cfa826112d6565b6112a5565b91508181835260208401935060208101905083856040840282011115610d2457600080fd5b60005b83811015610d545781610d3a8882610ec9565b845260208401935060408301925050600181019050610d27565b5050505092915050565b600082601f830112610d6f57600080fd5b6002610d82610d7d82611302565b6112a5565b91508183856020840282011115610d9857600080fd5b60005b83811015610dc85781610dae8882611004565b845260208401935060208301925050600181019050610d9b565b5050505092915050565b600082601f830112610de357600080fd5b6008610df6610df182611328565b6112a5565b91508183856020840282011115610e0c57600080fd5b60005b83811015610e3c5781610e228882611004565b845260208401935060208301925050600181019050610e0f565b5050505092915050565b600082601f830112610e5757600080fd5b8135610e6a610e658261134e565b6112a5565b91508181835260208401935060208101905083856020840282011115610e8f57600080fd5b60005b83811015610ebf5781610ea58882611004565b845260208401935060208301925050600181019050610e92565b5050505092915050565b600060408284031215610edb57600080fd5b610ee560406112a5565b90506000610ef584828501611004565b6000830152506020610f0984828501611004565b60208301525092915050565b600060808284031215610f2757600080fd5b610f3160406112a5565b90506000610f4184828501610d5e565b6000830152506040610f5584828501610d5e565b60208301525092915050565b60006101e08284031215610f7457600080fd5b610f7e60a06112a5565b90506000610f8e84828501610ec9565b6000830152506040610fa284828501610f15565b60208301525060c0610fb684828501610f15565b604083015250610140610fcb84828501610f15565b6060830152506101c082013567ffffffffffffffff811115610fec57600080fd5b610ff884828501610cdb565b60808301525092915050565b600081359050611013816113a3565b92915050565b6000806000610140848603121561102f57600080fd5b600061103d86828701610dd2565b93505061010084013567ffffffffffffffff81111561105b57600080fd5b61106786828701610f61565b92505061012084013567ffffffffffffffff81111561108557600080fd5b61109186828701610e46565b9150509250925092565b6110a48161138b565b82525050565b60006110b7600d8361137a565b91507f4552524f525f50524f4f465f51000000000000000000000000000000000000006000830152602082019050919050565b60006110f760128361137a565b91507f70616972696e672d6d756c2d6661696c656400000000000000000000000000006000830152602082019050919050565b6000611137600f8361137a565b91507f4552524f525f494e5055545f56414c00000000000000000000000000000000006000830152602082019050919050565b600061117760128361137a565b91507f70616972696e672d6164642d6661696c656400000000000000000000000000006000830152602082019050919050565b60006111b760158361137a565b91507f70616972696e672d6f70636f64652d6661696c656400000000000000000000006000830152602082019050919050565b60006020820190506111ff600083018461109b565b92915050565b6000602082019050818103600083015261121e816110aa565b9050919050565b6000602082019050818103600083015261123e816110ea565b9050919050565b6000602082019050818103600083015261125e8161112a565b9050919050565b6000602082019050818103600083015261127e8161116a565b9050919050565b6000602082019050818103600083015261129e816111aa565b9050919050565b6000604051905081810181811067ffffffffffffffff821117156112cc576112cb6113a1565b5b8060405250919050565b600067ffffffffffffffff8211156112f1576112f06113a1565b5b602082029050602081019050919050565b600067ffffffffffffffff82111561131d5761131c6113a1565b5b602082029050919050565b600067ffffffffffffffff821115611343576113426113a1565b5b602082029050919050565b600067ffffffffffffffff821115611369576113686113a1565b5b602082029050602081019050919050565b600082825260208201905092915050565b60008115159050919050565b6000819050919050565bfe5b6113ac81611397565b81146113b757600080fd5b5056fea2646970667358221220025968a6cf7c869813d351add87962e7332c99d4c7072012e720af6db2fe197e64736f6c63430007020033",
  "linkReferences": {},
  "deployedLinkReferences": {}
}