{
  "_format": "hh-sol-artifact-1",
  "contractName": "AccQueueBinary0",
  "sourceName": "contracts/trees/AccQueue.sol",
  "abi": [
    {
      "inputs": [
        {
          "internalType": "uint256",
          "name": "_subDepth",
          "type": "uint256"
        }
      ],
      "stateMutability": "nonpayable",
      "type": "constructor"
    },
    {
      "anonymous": false,
      "inputs": [
        {
          "indexed": true,
          "internalType": "address",
          "name": "previousOwner",
          "type": "address"
        },
        {
          "indexed": true,
          "internalType": "address",
          "name": "newOwner",
          "type": "address"
        }
      ],
      "name": "OwnershipTransferred",
      "type": "event"
    },
    {
      "inputs": [],
      "name": "calcMinHeight",
      "outputs": [
        {
          "internalType": "uint256",
          "name": "",
          "type": "uint256"
        }
      ],
      "stateMutability": "view",
      "type": "function"
    },
    {
      "inputs": [
        {
          "internalType": "uint256",
          "name": "_leaf",
          "type": "uint256"
        }
      ],
      "name": "enqueue",
      "outputs": [
        {
          "internalType": "uint256",
          "name": "",
          "type": "uint256"
        }
      ],
      "stateMutability": "nonpayable",
      "type": "function"
    },
    {
      "inputs": [],
      "name": "fill",
      "outputs": [],
      "stateMutability": "nonpayable",
      "type": "function"
    },
    {
      "inputs": [
        {
          "internalType": "uint256",
          "name": "_depth",
          "type": "uint256"
        }
      ],
      "name": "getMainRoot",
      "outputs": [
        {
          "internalType": "uint256",
          "name": "",
          "type": "uint256"
        }
      ],
      "stateMutability": "view",
      "type": "function"
    },
    {
      "inputs": [],
      "name": "getSmallSRTroot",
      "outputs": [
        {
          "internalType": "uint256",
          "name": "",
          "type": "uint256"
        }
      ],
      "stateMutability": "view",
      "type": "function"
    },
    {
      "inputs": [
        {
          "internalType": "uint256",
          "name": "_index",
          "type": "uint256"
        }
      ],
      "name": "getSubRoot",
      "outputs": [
        {
          "internalType": "uint256",
          "name": "",
          "type": "uint256"
        }
      ],
      "stateMutability": "view",
      "type": "function"
    },
    {
      "inputs": [
        {
          "internalType": "uint256[]",
          "name": "array",
          "type": "uint256[]"
        }
      ],
      "name": "hash2",
      "outputs": [
        {
          "internalType": "uint256",
          "name": "",
          "type": "uint256"
        }
      ],
      "stateMutability": "pure",
      "type": "function"
    },
    {
      "inputs": [
        {
          "internalType": "uint256[]",
          "name": "array",
          "type": "uint256[]"
        }
      ],
      "name": "hash3",
      "outputs": [
        {
          "internalType": "uint256",
          "name": "",
          "type": "uint256"
        }
      ],
      "stateMutability": "pure",
      "type": "function"
    },
    {
      "inputs": [
        {
          "internalType": "uint256[]",
          "name": "array",
          "type": "uint256[]"
        }
      ],
      "name": "hash4",
      "outputs": [
        {
          "internalType": "uint256",
          "name": "",
          "type": "uint256"
        }
      ],
      "stateMutability": "pure",
      "type": "function"
    },
    {
      "inputs": [
        {
          "internalType": "uint256[]",
          "name": "array",
          "type": "uint256[]"
        }
      ],
      "name": "hash5",
      "outputs": [
        {
          "internalType": "uint256",
          "name": "",
          "type": "uint256"
        }
      ],
      "stateMutability": "pure",
      "type": "function"
    },
    {
      "inputs": [
        {
          "internalType": "uint256",
          "name": "_left",
          "type": "uint256"
        },
        {
          "internalType": "uint256",
          "name": "_right",
          "type": "uint256"
        }
      ],
      "name": "hashLeftRight",
      "outputs": [
        {
          "internalType": "uint256",
          "name": "",
          "type": "uint256"
        }
      ],
      "stateMutability": "pure",
      "type": "function"
    },
    {
      "inputs": [
        {
          "internalType": "uint256",
          "name": "_subRoot",
          "type": "uint256"
        }
      ],
      "name": "insertSubTree",
      "outputs": [],
      "stateMutability": "nonpayable",
      "type": "function"
    },
    {
      "inputs": [
        {
          "internalType": "uint256",
          "name": "_depth",
          "type": "uint256"
        }
      ],
      "name": "merge",
      "outputs": [
        {
          "internalType": "uint256",
          "name": "",
          "type": "uint256"
        }
      ],
      "stateMutability": "nonpayable",
      "type": "function"
    },
    {
      "inputs": [
        {
          "internalType": "uint256",
          "name": "_numSrQueueOps",
          "type": "uint256"
        }
      ],
      "name": "mergeSubRoots",
      "outputs": [],
      "stateMutability": "nonpayable",
      "type": "function"
    },
    {
      "inputs": [],
      "name": "numLeaves",
      "outputs": [
        {
          "internalType": "uint256",
          "name": "",
          "type": "uint256"
        }
      ],
      "stateMutability": "view",
      "type": "function"
    },
    {
      "inputs": [],
      "name": "owner",
      "outputs": [
        {
          "internalType": "address",
          "name": "",
          "type": "address"
        }
      ],
      "stateMutability": "view",
      "type": "function"
    },
    {
      "inputs": [],
      "name": "renounceOwnership",
      "outputs": [],
      "stateMutability": "nonpayable",
      "type": "function"
    },
    {
      "inputs": [
        {
          "internalType": "uint256[]",
          "name": "array",
          "type": "uint256[]"
        }
      ],
      "name": "sha256Hash",
      "outputs": [
        {
          "internalType": "uint256",
          "name": "",
          "type": "uint256"
        }
      ],
      "stateMutability": "pure",
      "type": "function"
    },
    {
      "inputs": [],
      "name": "subTreesMerged",
      "outputs": [
        {
          "internalType": "bool",
          "name": "",
          "type": "bool"
        }
      ],
      "stateMutability": "view",
      "type": "function"
    },
    {
      "inputs": [
        {
          "internalType": "address",
          "name": "newOwner",
          "type": "address"
        }
      ],
      "name": "transferOwnership",
      "outputs": [],
      "stateMutability": "nonpayable",
      "type": "function"
    }
  ],
  "bytecode": "0x60e06040523480156200001157600080fd5b50604051620030a6380380620030a6833981810160405260208110156200003757600080fd5b81019080805190602001909291905050508080600260006200005e6200093060201b60201c565b9050806000806101000a81548173ffffffffffffffffffffffffffffffffffffffff021916908373ffffffffffffffffffffffffffffffffffffffff1602179055508073ffffffffffffffffffffffffffffffffffffffff16600073ffffffffffffffffffffffffffffffffffffffff167f8be0079c531659141344cd1fd0a4f28419497f9722a3daafe3b4186f6b6457e060405160405180910390a3506000821162000157576040517f08c379a00000000000000000000000000000000000000000000000000000000081526004018080602001828103825260278152602001806200307f6027913960400191505060405180910390fd5b6020821115620001b3576040517f08c379a000000000000000000000000000000000000000000000000000000000815260040180806020018281038252602e81526020018062003024602e913960400191505060405180910390fd5b6002811480620001c35750600581145b6200021a576040517f08c379a000000000000000000000000000000000000000000000000000000000815260040180806020018281038252602d81526020018062003052602d913960400191505060405180910390fd5b60028114600060146101000a81548160ff02191690831515021790555081608081815250508060a0818152505081810a60c0818152505050505060006101726000602181106200026657fe5b01819055507f176ff05d9c7c4528b04553217098a71cd076d52623dab894a7f7ee34116ca1706101726001602181106200029c57fe5b01819055507f302f3c992cf2287ba48a65ae1683cb7049a1f487d23215f3833a826a66ff545f610172600260218110620002d257fe5b01819055507f056340cfa72ab8af7604f58f7a95704ffb9c53ba955adf7b237fd2fe820e29a76101726003602181106200030857fe5b01819055507f25222ecd46b7189fe2c9a7855da133ca58f4626910765c7e4a0ca0df3237020a6101726004602181106200033e57fe5b01819055507f1d3a131cf78fcecce18f3f760a7532d193080e10dc8a2d03866538ddca34f47c6101726005602181106200037457fe5b01819055507f238b7e93a8b0219168c1e4f4ffacfa066dca7cd60a0023bfbac849b0951342c5610172600660218110620003aa57fe5b01819055507f011c4eac7c1e09d79f4810ee6d095e3da9d875a66bbfa1c394226b02d98a5425610172600760218110620003e057fe5b01819055507f264909568b2e1680f71744101597dfcae4881a72464e094e665554d0fc29f8ed6101726008602181106200041657fe5b01819055507f2286e3e2f8c3786f76f8c5e19146e2c4ce7c728d3c2330e8a37e8abc5e5061e06101726009602181106200044c57fe5b01819055507f1af3c2a95f5da7d9344b519519cb16fb425783c8ceca85a23df75391d955cb82610172600a602181106200048257fe5b01819055507f2499d065820927901751229187b9a4b056499aaccc94235ebc3f65d581eb8913610172600b60218110620004b857fe5b01819055507f1232fae4b4e017f80820e90ea52c1f5d84108272f52404b9a1257c4845f67a32610172600c60218110620004ee57fe5b01819055507f06cdd4fcb96ab3b0963a9a5ff73d9358d0bafcb5021fe00e8e977a558274f8f3610172600d602181106200052457fe5b01819055507f301dd0cf98df864f4c173524d6551610253e1eaae57941d86936ea62f8020f19610172600e602181106200055a57fe5b01819055507e2600214d1ab14c5dfc03111355e933c0908a7ed42b6f9f47cf65cf5ff85a0c610172600f602181106200058f57fe5b01819055507f08033ab83d995be657bc6b89e43aac8bd0d556e2f152300a212b649a77bc338d610172601060218110620005c557fe5b01819055507f132e8622776e9a6637ab6416fff64d8dcd63ffdc5244a55f77298dc0d90d4df8610172601160218110620005fb57fe5b01819055507f1d44a12e5f0a76aaf475afae72a83e683169c6dece481dec5daef63a260c0a0b6101726012602181106200063157fe5b01819055507f10de6a5133a23d14bcfb0fb1295e77c47f63ad6fe48b246adbd728e267cbe85c6101726013602181106200066757fe5b01819055507f26104fc200f34e2df6af6f8a1ad394ddd6bf92ff30a1845f57621910d20471756101726014602181106200069d57fe5b01819055507f1863e97c41d5fd57071704db924e4659571487b1517d653eee01300de2e46cea610172601560218110620006d357fe5b01819055507f173e41003f51d3f7fcb32735e365e956416890cf2c95af8066acaa196c8d30226101726016602181106200070957fe5b01819055507f2e0d806fcb967cb30ffa9f645fe4e46e5733f69cc3ad8be4f6734e621529e0546101726017602181106200073f57fe5b01819055507f20602fe5e40e2d98dfe238dbf63b5dc3e9f4e4ba07316a4567ec01436a9c6bb76101726018602181106200077557fe5b01819055507f1acb46a46e9e095eee9cc2a0d2fcda3dc07ddaf88405b5bb6cd7fee96465c370610172601960218110620007ab57fe5b01819055507f1e668b1a81299567ac5d0ec04d07c767a3801bc84e1326aeca5ea46b3054bcff610172601a60218110620007e157fe5b01819055507f1c89723a4841e5a0c1925f3276b4eecf6833733a28e754d76c1fe956ecb695a0610172601b602181106200081757fe5b01819055507f1dfe2efcd81c0f100896c414ed1e184bae6798870ebb366223cc095cb663ec53610172601c602181106200084d57fe5b01819055507f06a70b266f64bed7550db464c766e6412f021306e29919a04e7364002dafd64b610172601d602181106200088357fe5b01819055507f3007d3bb6781caab1a9907bae86935157c32b9b74fcf95b77af506e70b12c139610172601e60218110620008b957fe5b01819055507e222d79293cdf98972204346fe7be7ea9192eb7c449ddf66ea1d3b8830eeebb610172601f60218110620008ee57fe5b01819055507f03857155b7fe59c88675594390a7d15675ac1fb1df763b186554e808576a13b26101726020602181106200092457fe5b01819055505062000938565b600033905090565b60805160a05160c051612665620009bf600039806109a352806116cc52806118d35280611b6a5280611c7c5250806107ec5280610cc05280610d875280610f3452806119ca5280611f9b528061208c52806121035250806109db5280610a495280610c905280611a005280611ba05280611bf45280611f56528061229352506126656000f3fe608060405234801561001057600080fd5b506004361061012c5760003560e01c8063715018a6116100ad578063c15da65b11610071578063c15da65b14610707578063d9c55ce114610735578063dda89a6e1461073f578063e93fb4d41461075d578063f2fde38b1461079f5761012c565b8063715018a6146105af57806386d238d9146105b95780638da5cb5b14610685578063b6a64acd146106b9578063c00bdbcc146106d95761012c565b80633e1a8cc1116100f45780633e1a8cc1146102e15780634d4ef74d146102ff5780634e9e97fa146103cb57806358bfc379146104975780635bb93995146105635761012c565b80631b9b8aa7146101315780631e1016fe146101735780631ffc735d1461023f57806324a47aeb146102815780633bfa6fce146102c3575b600080fd5b61015d6004803603602081101561014757600080fd5b81019080803590602001909291905050506107e3565b6040518082815260200191505060405180910390f35b6102296004803603602081101561018957600080fd5b81019080803590602001906401000000008111156101a657600080fd5b8201836020820111156101b857600080fd5b803590602001918460208302840111640100000000831117156101da57600080fd5b919080806020026020016040519081016040528093929190818152602001838360200280828437600081840152601f19601f82011690508083019250505050505050919291929050505061087a565b6040518082815260200191505060405180910390f35b61026b6004803603602081101561025557600080fd5b810190808035906020019092919050505061094e565b6040518082815260200191505060405180910390f35b6102ad6004803603602081101561029757600080fd5b8101908080359060200190929190505050610aa2565b6040518082815260200191505060405180910390f35b6102cb610f1f565b6040518082815260200191505060405180910390f35b6102e9610f72565b6040518082815260200191505060405180910390f35b6103b56004803603602081101561031557600080fd5b810190808035906020019064010000000081111561033257600080fd5b82018360208201111561034457600080fd5b8035906020019184602083028401116401000000008311171561036657600080fd5b919080806020026020016040519081016040528093929190818152602001838360200280828437600081840152601f19601f820116905080830192505050505050509192919290505050610fe3565b6040518082815260200191505060405180910390f35b610481600480360360208110156103e157600080fd5b81019080803590602001906401000000008111156103fe57600080fd5b82018360208201111561041057600080fd5b8035906020019184602083028401116401000000008311171561043257600080fd5b919080806020026020016040519081016040528093929190818152602001838360200280828437600081840152601f19601f8201169050808301925050505050505091929192905050506110b7565b6040518082815260200191505060405180910390f35b61054d600480360360208110156104ad57600080fd5b81019080803590602001906401000000008111156104ca57600080fd5b8201836020820111156104dc57600080fd5b803590602001918460208302840111640100000000831117156104fe57600080fd5b919080806020026020016040519081016040528093929190818152602001838360200280828437600081840152601f19601f82011690508083019250505050505050919291929050505061118b565b6040518082815260200191505060405180910390f35b6105996004803603604081101561057957600080fd5b8101908080359060200190929190803590602001909291905050506112aa565b6040518082815260200191505060405180910390f35b6105b761133e565b005b61066f600480360360208110156105cf57600080fd5b81019080803590602001906401000000008111156105ec57600080fd5b8201836020820111156105fe57600080fd5b8035906020019184602083028401116401000000008311171561062057600080fd5b919080806020026020016040519081016040528093929190818152602001838360200280828437600081840152601f19601f8201169050808301925050505050505091929192905050506114c4565b6040518082815260200191505060405180910390f35b61068d611598565b604051808273ffffffffffffffffffffffffffffffffffffffff16815260200191505060405180910390f35b6106c16115c1565b60405180821515815260200191505060405180910390f35b610705600480360360208110156106ef57600080fd5b81019080803590602001909291905050506115d5565b005b6107336004803603602081101561071d57600080fd5b8101908080359060200190929190505050611721565b005b61073d611a9e565b005b610747611cca565b6040518082815260200191505060405180910390f35b6107896004803603602081101561077357600080fd5b8101908080359060200190929190505050611cd1565b6040518082815260200191505060405180910390f35b6107e1600480360360208110156107b557600080fd5b81019080803573ffffffffffffffffffffffffffffffffffffffff169060200190929190505050611d49565b005b600061017154827f00000000000000000000000000000000000000000000000000000000000000000a1015610863576040517f08c379a00000000000000000000000000000000000000000000000000000000081526004018080602001828103825260318152602001806125ff6031913960400191505060405180910390fd5b61014d826021811061087157fe5b01549050919050565b600073__$9b3049adcf18347c4fcd511e1429cbc37d$__63c4420fb4836040518263ffffffff1660e01b81526004018080602001828103825283818151815260200191508051906020019060200280838360005b838110156108e95780820151818401526020810190506108ce565b505050509050019250505060206040518083038186803b15801561090c57600080fd5b505af4158015610920573d6000803e3d6000fd5b505050506040513d602081101561093657600080fd5b81019080805190602001909291905050509050919050565b600080610171549050610962836000611f54565b600181016101718190555061014d600061097c919061242d565b61016f60009055600061016e60006101000a81548160ff02191690831515021790555060007f000000000000000000000000000000000000000000000000000000000000000061017154816109cd57fe5b061415610a995760026000017f000000000000000000000000000000000000000000000000000000000000000060218110610a0457fe5b60040201600060048110610a1457fe5b015461014c600060015481526020019081526020016000208190555060016000815480929190600101919050555060026000017f000000000000000000000000000000000000000000000000000000000000000060218110610a7257fe5b60040201600060048110610a8257fe5b016000905560026084016000610a98919061242d565b5b80915050919050565b6000610aac612044565b73ffffffffffffffffffffffffffffffffffffffff1660008054906101000a900473ffffffffffffffffffffffffffffffffffffffff1673ffffffffffffffffffffffffffffffffffffffff1614610b6c576040517f08c379a00000000000000000000000000000000000000000000000000000000081526004018080602001828103825260208152602001807f4f776e61626c653a2063616c6c6572206973206e6f7420746865206f776e657281525060200191505060405180910390fd5b60008211610bc5576040517f08c379a00000000000000000000000000000000000000000000000000000000081526004018080602001828103825260248152602001806125db6024913960400191505060405180910390fd5b6001151561016e60009054906101000a900460ff16151514610c32576040517f08c379a00000000000000000000000000000000000000000000000000000000081526004018080602001828103825260388152602001806125316038913960400191505060405180910390fd5b6020821115610c8c576040517f08c379a00000000000000000000000000000000000000000000000000000000081526004018080602001828103825260268152602001806124da6026913960400191505060405180910390fd5b60007f000000000000000000000000000000000000000000000000000000000000000090505b600115610cf75761017154817f00000000000000000000000000000000000000000000000000000000000000000a10610cea57610cf7565b8080600101915050610cb2565b80831015610d50576040517f08c379a000000000000000000000000000000000000000000000000000000000815260040180806020018281038252602a8152602001806125b1602a913960400191505060405180910390fd5b80831415610d7b5761016f5461014d8460218110610d6a57fe5b018190555061016f54915050610f1a565b600061016f54905060607f000000000000000000000000000000000000000000000000000000000000000067ffffffffffffffff81118015610dbc57600080fd5b50604051908082528060200260200182016040528015610deb5781602001602082028036833780820191505090505b50905060008390505b85811015610efe576000610e078261204c565b9050600060149054906101000a900460ff1615610e62578383600081518110610e2c57fe5b6020026020010181815250508083600181518110610e4657fe5b602002602001018181525050610e5b83610fe3565b9350610ef0565b8383600081518110610e7057fe5b6020026020010181815250508083600181518110610e8a57fe5b6020026020010181815250508083600281518110610ea457fe5b6020026020010181815250508083600381518110610ebe57fe5b6020026020010181815250508083600481518110610ed857fe5b602002602001018181525050610eed836114c4565b93505b508080600101915050610df4565b508161014d8660218110610f0e57fe5b01819055508193505050505b919050565b600080600190505b600115610f6b57600154817f00000000000000000000000000000000000000000000000000000000000000000a10610f5e57610f6b565b8080600101915050610f27565b8091505090565b600061016e60009054906101000a900460ff16610fda576040517f08c379a000000000000000000000000000000000000000000000000000000000815260040180806020018281038252602781526020018061258a6027913960400191505060405180910390fd5b61016f54905090565b600073__$d4acaf6f169a2634c49d403ce7efde36fd$__63c4420fb4836040518263ffffffff1660e01b81526004018080602001828103825283818151815260200191508051906020019060200280838360005b83811015611052578082015181840152602081019050611037565b505050509050019250505060206040518083038186803b15801561107557600080fd5b505af4158015611089573d6000803e3d6000fd5b505050506040513d602081101561109f57600080fd5b81019080805190602001909291905050509050919050565b600073__$584f44aaf914c42633951b34ceb432be31$__63c4420fb4836040518263ffffffff1660e01b81526004018080602001828103825283818151815260200191508051906020019060200280838360005b8381101561112657808201518184015260208101905061110b565b505050509050019250505060206040518083038186803b15801561114957600080fd5b505af415801561115d573d6000803e3d6000fd5b505050506040513d602081101561117357600080fd5b81019080805190602001909291905050509050919050565b60007f30644e72e131a029b85045b68181585d2833e84879b9709143e1f593f000000160028360405160200180828051906020019060200280838360005b838110156111e45780820151818401526020810190506111c9565b505050509050019150506040516020818303038152906040526040518082805190602001908083835b60208310611230578051825260208201915060208101905060208303925061120d565b6001836020036101000a038019825116818451168082178552505050505050905001915050602060405180830381855afa158015611272573d6000803e3d6000fd5b5050506040513d602081101561128757600080fd5b810190808051906020019092919050505060001c816112a257fe5b069050919050565b60006060600267ffffffffffffffff811180156112c657600080fd5b506040519080825280602002602001820160405280156112f55781602001602082028036833780820191505090505b509050838160008151811061130657fe5b602002602001018181525050828160018151811061132057fe5b60200260200101818152505061133581610fe3565b91505092915050565b611346612044565b73ffffffffffffffffffffffffffffffffffffffff1660008054906101000a900473ffffffffffffffffffffffffffffffffffffffff1673ffffffffffffffffffffffffffffffffffffffff1614611406576040517f08c379a00000000000000000000000000000000000000000000000000000000081526004018080602001828103825260208152602001807f4f776e61626c653a2063616c6c6572206973206e6f7420746865206f776e657281525060200191505060405180910390fd5b600073ffffffffffffffffffffffffffffffffffffffff1660008054906101000a900473ffffffffffffffffffffffffffffffffffffffff1673ffffffffffffffffffffffffffffffffffffffff167f8be0079c531659141344cd1fd0a4f28419497f9722a3daafe3b4186f6b6457e060405160405180910390a360008060006101000a81548173ffffffffffffffffffffffffffffffffffffffff021916908373ffffffffffffffffffffffffffffffffffffffff160217905550565b600073__$2a5b9c44d836f7997ae51e8d308a712a39$__63c4420fb4836040518263ffffffff1660e01b81526004018080602001828103825283818151815260200191508051906020019060200280838360005b83811015611533578082015181840152602081019050611518565b505050509050019250505060206040518083038186803b15801561155657600080fd5b505af415801561156a573d6000803e3d6000fd5b505050506040513d602081101561158057600080fd5b81019080805190602001909291905050509050919050565b60008060009054906101000a900473ffffffffffffffffffffffffffffffffffffffff16905090565b61016e60009054906101000a900460ff1681565b6115dd612044565b73ffffffffffffffffffffffffffffffffffffffff1660008054906101000a900473ffffffffffffffffffffffffffffffffffffffff1673ffffffffffffffffffffffffffffffffffffffff161461169d576040517f08c379a00000000000000000000000000000000000000000000000000000000081526004018080602001828103825260208152602001807f4f776e61626c653a2063616c6c6572206973206e6f7420746865206f776e657281525060200191505060405180910390fd5b8061014c60006001548152602001908152602001600020819055506001600081548092919060010191905055507f00000000000000000000000000000000000000000000000000000000000000006101716000828254019250508190555061016f60009055600061016e60006101000a81548160ff02191690831515021790555050565b611729612044565b73ffffffffffffffffffffffffffffffffffffffff1660008054906101000a900473ffffffffffffffffffffffffffffffffffffffff1673ffffffffffffffffffffffffffffffffffffffff16146117e9576040517f08c379a00000000000000000000000000000000000000000000000000000000081526004018080602001828103825260208152602001807f4f776e61626c653a2063616c6c6572206973206e6f7420746865206f776e657281525060200191505060405180910390fd5b6000151561016e60009054906101000a900460ff16151514611856576040517f08c379a00000000000000000000000000000000000000000000000000000000081526004018080602001828103825260218152602001806125696021913960400191505060405180910390fd5b600061017154116118cf576040517f08c379a000000000000000000000000000000000000000000000000000000000815260040180806020018281038252601a8152602001807f41636351756575653a206e6f7468696e6720746f206d6572676500000000000081525060200191505060405180910390fd5b60007f000000000000000000000000000000000000000000000000000000000000000061017154816118fd57fe5b061461190c5761190b611a9e565b5b600180541415611948576119206000611cd1565b61016f81905550600161016e60006101000a81548160ff021916908315150217905550611a9b565b6000611952610f1f565b90506000806101705490505b6001548110156119c4576000841415801561197857508382145b1561198557505050611a9b565b61199c61199461017054611cd1565b600085612065565b610170600081548092919060010191905055508180600101925050808060010191505061195e565b506000827f00000000000000000000000000000000000000000000000000000000000000000a9050600154610170541415611a52576000611a247f000000000000000000000000000000000000000000000000000000000000000061204c565b9050600060015490505b82811015611a4f57611a4282600087612065565b8080600101915050611a2e565b50505b60a76000018360218110611a6257fe5b60040201600060048110611a7257fe5b015461016f81905550600161016e60006101000a81548160ff0219169083151502179055505050505b50565b611aa6612044565b73ffffffffffffffffffffffffffffffffffffffff1660008054906101000a900473ffffffffffffffffffffffffffffffffffffffff1673ffffffffffffffffffffffffffffffffffffffff1614611b66576040517f08c379a00000000000000000000000000000000000000000000000000000000081526004018080602001828103825260208152602001807f4f776e61626c653a2063616c6c6572206973206e6f7420746865206f776e657281525060200191505060405180910390fd5b60007f00000000000000000000000000000000000000000000000000000000000000006101715481611b9457fe5b061415611be357611bc47f000000000000000000000000000000000000000000000000000000000000000061204c565b61014c6000600154815260200190815260200160002081905550611c6a565b611bed6000612291565b60026000017f000000000000000000000000000000000000000000000000000000000000000060218110611c1d57fe5b60040201600060048110611c2d57fe5b015461014c600060015481526020019081526020016000208190555060026000016000611c5a9190612440565b61014d6000611c69919061242d565b5b600060018054019050806001819055507f000000000000000000000000000000000000000000000000000000000000000081026101718190555061016f60009055600061016e60006101000a81548160ff02191690831515021790555050565b6101715481565b60008160015411611d2d576040517f08c379a00000000000000000000000000000000000000000000000000000000081526004018080602001828103825260318152602001806125006031913960400191505060405180910390fd5b61014c6000838152602001908152602001600020549050919050565b611d51612044565b73ffffffffffffffffffffffffffffffffffffffff1660008054906101000a900473ffffffffffffffffffffffffffffffffffffffff1673ffffffffffffffffffffffffffffffffffffffff1614611e11576040517f08c379a00000000000000000000000000000000000000000000000000000000081526004018080602001828103825260208152602001807f4f776e61626c653a2063616c6c6572206973206e6f7420746865206f776e657281525060200191505060405180910390fd5b600073ffffffffffffffffffffffffffffffffffffffff168173ffffffffffffffffffffffffffffffffffffffff161415611e97576040517f08c379a00000000000000000000000000000000000000000000000000000000081526004018080602001828103825260268152602001806124b46026913960400191505060405180910390fd5b8073ffffffffffffffffffffffffffffffffffffffff1660008054906101000a900473ffffffffffffffffffffffffffffffffffffffff1673ffffffffffffffffffffffffffffffffffffffff167f8be0079c531659141344cd1fd0a4f28419497f9722a3daafe3b4186f6b6457e060405160405180910390a3806000806101000a81548173ffffffffffffffffffffffffffffffffffffffff021916908373ffffffffffffffffffffffffffffffffffffffff16021790555050565b7f0000000000000000000000000000000000000000000000000000000000000000811115611f8157612040565b600060026084018260218110611f9357fe5b0154905060017f000000000000000000000000000000000000000000000000000000000000000003811461200c578260026000018360218110611fd257fe5b600402018260048110611fe157fe5b018190555060026084018260218110611ff657fe5b016000815480929190600101919050555061203e565b600061201883856123ce565b90506002608401836021811061202a57fe5b016000905561203c8160018501611f54565b505b505b5050565b600033905090565b6000610172826021811061205c57fe5b01549050919050565b808211156120725761228c565b600060a7608401836021811061208457fe5b0154905060017f00000000000000000000000000000000000000000000000000000000000000000381146120fd578360a760000184602181106120c357fe5b6004020182600481106120d257fe5b018190555060a760840183602181106120e757fe5b016000815480929190600101919050555061228a565b600060607f000000000000000000000000000000000000000000000000000000000000000067ffffffffffffffff8111801561213857600080fd5b506040519080825280602002602001820160405280156121675781602001602082028036833780820191505090505b509050600060149054906101000a900460ff16156121e45760a7600001856021811061218f57fe5b6004020160006004811061219f57fe5b0154816000815181106121ae57fe5b60200260200101818152505085816001815181106121c857fe5b6020026020010181815250506121dd81610fe3565b9150612264565b60005b838160ff16101561223e5760a7600001866021811061220257fe5b600402018160ff166004811061221457fe5b0154828260ff168151811061222557fe5b60200260200101818152505080806001019150506121e7565b508581848151811061224c57fe5b602002602001018181525050612261816114c4565b91505b60a7608401856021811061227457fe5b0160009055612287826001870186612065565b50505b505b505050565b7f00000000000000000000000000000000000000000000000000000000000000008111156122be576123cb565b6000600260840182602181106122d057fe5b01549050600081146123bd5760006060600267ffffffffffffffff811180156122f857600080fd5b506040519080825280602002602001820160405280156123275781602001602082028036833780820191505090505b50905060006123358561204c565b90506002600001856021811061234757fe5b6004020160006004811061235757fe5b01548260008151811061236657fe5b602002602001018181525050808260018151811061238057fe5b60200260200101818152505061239582610fe3565b92506123a48360018701611f54565b600260840185602181106123b457fe5b01600090555050505b6123c960018301612291565b505b50565b6000806123fc600260000185602181106123e457fe5b600402016000600481106123f457fe5b0154846112aa565b90506002600001846021811061240e57fe5b6004020160006004811061241e57fe5b01600090558091505092915050565b50806021019061243d9190612456565b50565b5080602160040201906124539190612473565b50565b5b8082111561246f576000816000905550600101612457565b5090565b5b80821115612493576000818161248a9190612497565b50600401612474565b5090565b506000815560010160008155600101600081556001016000905556fe4f776e61626c653a206e6577206f776e657220697320746865207a65726f206164647265737341636351756575653a205f6465707468206d757374206265206c7465204d41585f444550544841636351756575653a205f696e646578206d75737420726566657220746f206120636f6d706c657465207375627472656541636351756575653a207375627472656573206d757374206265206d6572676564206265666f72652063616c6c696e67206d65726765282941636351756575653a20737562747265657320616c7265616479206d657267656441636351756575653a207375627472656573206d757374206265206d657267656420666972737441636351756575653a205f6465707468206d75737420626520677465207468652053525420646570746841636351756575653a205f6465707468206d757374206265206d6f7265207468616e203041636351756575653a206765744d61696e526f6f743a205f6465707468206d757374206265206869676820656e6f756768a264697066735822122007fe1ddfd03ef0554cb083a4909e122c1600fc4f7be1419cc1a0bc7359bbb78364736f6c6343000702003341636351756575653a206f6e6c7920737570706f72747320757020746f204d41585f4445505448206c6576656c7341636351756575653a206f6e6c7920737570706f727473205f686173684c656e677468206f662032206f72203541636351756575653a205f7375624465707468206d757374206265206d6f7265207468616e2030",
  "linkReferences": {
    "contracts/crypto/Hasher.sol": {
      "PoseidonT3": [
        {
          "length": 20,
          "start": 6566
        }
      ],
      "PoseidonT4": [
        {
          "length": 20,
          "start": 4669
        }
      ],
      "PoseidonT5": [
        {
          "length": 20,
          "start": 6778
        }
      ],
      "PoseidonT6": [
        {
          "length": 20,
          "start": 7815
        }
      ]
    }
  },
  "deployedLinkReferences": {
    "contracts/crypto/Hasher.sol": {
      "PoseidonT3": [
        {
          "length": 20,
          "start": 4071
        }
      ],
      "PoseidonT4": [
        {
          "length": 20,
          "start": 2174
        }
      ],
      "PoseidonT5": [
        {
          "length": 20,
          "start": 4283
        }
      ],
      "PoseidonT6": [
        {
          "length": 20,
          "start": 5320
        }
      ]
    }
  }
}