{
  "_format": "hh-sol-artifact-1",
  "contractName": "Poll",
  "sourceName": "contracts/Poll.sol",
  "abi": [
    {
      "inputs": [
        {
          "internalType": "uint256",
          "name": "_duration",
          "type": "uint256"
        },
        {
          "components": [
            {
              "internalType": "uint256",
              "name": "maxMessages",
              "type": "uint256"
            },
            {
              "internalType": "uint256",
              "name": "maxVoteOptions",
              "type": "uint256"
            }
          ],
          "internalType": "struct Params.MaxValues",
          "name": "_maxValues",
          "type": "tuple"
        },
        {
          "components": [
            {
              "internalType": "uint8",
              "name": "intStateTreeDepth",
              "type": "uint8"
            },
            {
              "internalType": "uint8",
              "name": "messageTreeSubDepth",
              "type": "uint8"
            },
            {
              "internalType": "uint8",
              "name": "messageTreeDepth",
              "type": "uint8"
            },
            {
              "internalType": "uint8",
              "name": "voteOptionTreeDepth",
              "type": "uint8"
            }
          ],
          "internalType": "struct Params.TreeDepths",
          "name": "_treeDepths",
          "type": "tuple"
        },
        {
          "components": [
            {
              "internalType": "uint8",
              "name": "messageBatchSize",
              "type": "uint8"
            },
            {
              "internalType": "uint8",
              "name": "tallyBatchSize",
              "type": "uint8"
            }
          ],
          "internalType": "struct Params.BatchSizes",
          "name": "_batchSizes",
          "type": "tuple"
        },
        {
          "components": [
            {
              "internalType": "uint256",
              "name": "x",
              "type": "uint256"
            },
            {
              "internalType": "uint256",
              "name": "y",
              "type": "uint256"
            }
          ],
          "internalType": "struct IPubKey.PubKey",
          "name": "_coordinatorPubKey",
          "type": "tuple"
        },
        {
          "components": [
            {
              "internalType": "contract VkRegistry",
              "name": "vkRegistry",
              "type": "address"
            },
            {
              "internalType": "contract IMACI",
              "name": "maci",
              "type": "address"
            },
            {
              "internalType": "contract AccQueue",
              "name": "messageAq",
              "type": "address"
            }
          ],
          "internalType": "struct PollDeploymentParams.ExtContracts",
          "name": "_extContracts",
          "type": "tuple"
        }
      ],
      "stateMutability": "nonpayable",
      "type": "constructor"
    },
    {
      "anonymous": false,
      "inputs": [
        {
          "indexed": false,
          "internalType": "uint256",
          "name": "_stateRoot",
          "type": "uint256"
        }
      ],
      "name": "MergeMaciStateAq",
      "type": "event"
    },
    {
      "anonymous": false,
      "inputs": [
        {
          "indexed": false,
          "internalType": "uint256",
          "name": "_numSrQueueOps",
          "type": "uint256"
        }
      ],
      "name": "MergeMaciStateAqSubRoots",
      "type": "event"
    },
    {
      "anonymous": false,
      "inputs": [
        {
          "indexed": false,
          "internalType": "uint256",
          "name": "_messageRoot",
          "type": "uint256"
        }
      ],
      "name": "MergeMessageAq",
      "type": "event"
    },
    {
      "anonymous": false,
      "inputs": [
        {
          "indexed": false,
          "internalType": "uint256",
          "name": "_numSrQueueOps",
          "type": "uint256"
        }
      ],
      "name": "MergeMessageAqSubRoots",
      "type": "event"
    },
    {
      "anonymous": false,
      "inputs": [
        {
          "indexed": true,
          "internalType": "address",
          "name": "previousOwner",
          "type": "address"
        },
        {
          "indexed": true,
          "internalType": "address",
          "name": "newOwner",
          "type": "address"
        }
      ],
      "name": "OwnershipTransferred",
      "type": "event"
    },
    {
      "anonymous": false,
      "inputs": [
        {
          "components": [
            {
              "internalType": "uint256",
              "name": "iv",
              "type": "uint256"
            },
            {
              "internalType": "uint256[7]",
              "name": "data",
              "type": "uint256[7]"
            }
          ],
          "indexed": false,
          "internalType": "struct IMessage.Message",
          "name": "_message",
          "type": "tuple"
        },
        {
          "components": [
            {
              "internalType": "uint256",
              "name": "x",
              "type": "uint256"
            },
            {
              "internalType": "uint256",
              "name": "y",
              "type": "uint256"
            }
          ],
          "indexed": false,
          "internalType": "struct IPubKey.PubKey",
          "name": "_encPubKey",
          "type": "tuple"
        }
      ],
      "name": "PublishMessage",
      "type": "event"
    },
    {
      "inputs": [
        {
          "internalType": "uint256",
          "name": "_messageSubRoot",
          "type": "uint256"
        }
      ],
      "name": "batchEnqueueMessage",
      "outputs": [],
      "stateMutability": "nonpayable",
      "type": "function"
    },
    {
      "inputs": [],
      "name": "batchSizes",
      "outputs": [
        {
          "internalType": "uint8",
          "name": "messageBatchSize",
          "type": "uint8"
        },
        {
          "internalType": "uint8",
          "name": "tallyBatchSize",
          "type": "uint8"
        }
      ],
      "stateMutability": "view",
      "type": "function"
    },
    {
      "inputs": [],
      "name": "coordinatorPubKey",
      "outputs": [
        {
          "internalType": "uint256",
          "name": "x",
          "type": "uint256"
        },
        {
          "internalType": "uint256",
          "name": "y",
          "type": "uint256"
        }
      ],
      "stateMutability": "view",
      "type": "function"
    },
    {
      "inputs": [],
      "name": "coordinatorPubKeyHash",
      "outputs": [
        {
          "internalType": "uint256",
          "name": "",
          "type": "uint256"
        }
      ],
      "stateMutability": "view",
      "type": "function"
    },
    {
      "inputs": [],
      "name": "currentSbAndTallyCommitments",
      "outputs": [
        {
          "internalType": "uint256",
          "name": "",
          "type": "uint256"
        },
        {
          "internalType": "uint256",
          "name": "",
          "type": "uint256"
        }
      ],
      "stateMutability": "view",
      "type": "function"
    },
    {
      "inputs": [],
      "name": "extContracts",
      "outputs": [
        {
          "internalType": "contract VkRegistry",
          "name": "vkRegistry",
          "type": "address"
        },
        {
          "internalType": "contract IMACI",
          "name": "maci",
          "type": "address"
        },
        {
          "internalType": "contract AccQueue",
          "name": "messageAq",
          "type": "address"
        }
      ],
      "stateMutability": "view",
      "type": "function"
    },
    {
      "inputs": [],
      "name": "getDeployTimeAndDuration",
      "outputs": [
        {
          "internalType": "uint256",
          "name": "",
          "type": "uint256"
        },
        {
          "internalType": "uint256",
          "name": "",
          "type": "uint256"
        }
      ],
      "stateMutability": "view",
      "type": "function"
    },
    {
      "inputs": [
        {
          "internalType": "uint256[2]",
          "name": "array",
          "type": "uint256[2]"
        }
      ],
      "name": "hash2",
      "outputs": [
        {
          "internalType": "uint256",
          "name": "",
          "type": "uint256"
        }
      ],
      "stateMutability": "pure",
      "type": "function"
    },
    {
      "inputs": [
        {
          "internalType": "uint256[3]",
          "name": "array",
          "type": "uint256[3]"
        }
      ],
      "name": "hash3",
      "outputs": [
        {
          "internalType": "uint256",
          "name": "",
          "type": "uint256"
        }
      ],
      "stateMutability": "pure",
      "type": "function"
    },
    {
      "inputs": [
        {
          "internalType": "uint256[4]",
          "name": "array",
          "type": "uint256[4]"
        }
      ],
      "name": "hash4",
      "outputs": [
        {
          "internalType": "uint256",
          "name": "",
          "type": "uint256"
        }
      ],
      "stateMutability": "pure",
      "type": "function"
    },
    {
      "inputs": [
        {
          "internalType": "uint256[5]",
          "name": "array",
          "type": "uint256[5]"
        }
      ],
      "name": "hash5",
      "outputs": [
        {
          "internalType": "uint256",
          "name": "",
          "type": "uint256"
        }
      ],
      "stateMutability": "pure",
      "type": "function"
    },
    {
      "inputs": [
        {
          "internalType": "uint256",
          "name": "_left",
          "type": "uint256"
        },
        {
          "internalType": "uint256",
          "name": "_right",
          "type": "uint256"
        }
      ],
      "name": "hashLeftRight",
      "outputs": [
        {
          "internalType": "uint256",
          "name": "",
          "type": "uint256"
        }
      ],
      "stateMutability": "pure",
      "type": "function"
    },
    {
      "inputs": [
        {
          "components": [
            {
              "internalType": "uint256",
              "name": "iv",
              "type": "uint256"
            },
            {
              "internalType": "uint256[7]",
              "name": "data",
              "type": "uint256[7]"
            }
          ],
          "internalType": "struct IMessage.Message",
          "name": "_message",
          "type": "tuple"
        },
        {
          "components": [
            {
              "internalType": "uint256",
              "name": "x",
              "type": "uint256"
            },
            {
              "internalType": "uint256",
              "name": "y",
              "type": "uint256"
            }
          ],
          "internalType": "struct IPubKey.PubKey",
          "name": "_encPubKey",
          "type": "tuple"
        }
      ],
      "name": "hashMessageAndEncPubKey",
      "outputs": [
        {
          "internalType": "uint256",
          "name": "",
          "type": "uint256"
        }
      ],
      "stateMutability": "pure",
      "type": "function"
    },
    {
      "inputs": [],
      "name": "maxValues",
      "outputs": [
        {
          "internalType": "uint256",
          "name": "maxMessages",
          "type": "uint256"
        },
        {
          "internalType": "uint256",
          "name": "maxVoteOptions",
          "type": "uint256"
        }
      ],
      "stateMutability": "view",
      "type": "function"
    },
    {
      "inputs": [
        {
          "internalType": "uint256",
          "name": "_pollId",
          "type": "uint256"
        }
      ],
      "name": "mergeMaciStateAq",
      "outputs": [],
      "stateMutability": "nonpayable",
      "type": "function"
    },
    {
      "inputs": [
        {
          "internalType": "uint256",
          "name": "_numSrQueueOps",
          "type": "uint256"
        },
        {
          "internalType": "uint256",
          "name": "_pollId",
          "type": "uint256"
        }
      ],
      "name": "mergeMaciStateAqSubRoots",
      "outputs": [],
      "stateMutability": "nonpayable",
      "type": "function"
    },
    {
      "inputs": [],
      "name": "mergeMessageAq",
      "outputs": [],
      "stateMutability": "nonpayable",
      "type": "function"
    },
    {
      "inputs": [
        {
          "internalType": "uint256",
          "name": "_numSrQueueOps",
          "type": "uint256"
        }
      ],
      "name": "mergeMessageAqSubRoots",
      "outputs": [],
      "stateMutability": "nonpayable",
      "type": "function"
    },
    {
      "inputs": [],
      "name": "mergedStateRoot",
      "outputs": [
        {
          "internalType": "uint256",
          "name": "",
          "type": "uint256"
        }
      ],
      "stateMutability": "view",
      "type": "function"
    },
    {
      "inputs": [],
      "name": "numSignUpsAndMessages",
      "outputs": [
        {
          "internalType": "uint256",
          "name": "",
          "type": "uint256"
        },
        {
          "internalType": "uint256",
          "name": "",
          "type": "uint256"
        }
      ],
      "stateMutability": "view",
      "type": "function"
    },
    {
      "inputs": [],
      "name": "owner",
      "outputs": [
        {
          "internalType": "address",
          "name": "",
          "type": "address"
        }
      ],
      "stateMutability": "view",
      "type": "function"
    },
    {
      "inputs": [
        {
          "components": [
            {
              "internalType": "uint256",
              "name": "iv",
              "type": "uint256"
            },
            {
              "internalType": "uint256[7]",
              "name": "data",
              "type": "uint256[7]"
            }
          ],
          "internalType": "struct IMessage.Message",
          "name": "_message",
          "type": "tuple"
        },
        {
          "components": [
            {
              "internalType": "uint256",
              "name": "x",
              "type": "uint256"
            },
            {
              "internalType": "uint256",
              "name": "y",
              "type": "uint256"
            }
          ],
          "internalType": "struct IPubKey.PubKey",
          "name": "_encPubKey",
          "type": "tuple"
        }
      ],
      "name": "publishMessage",
      "outputs": [],
      "stateMutability": "nonpayable",
      "type": "function"
    },
    {
      "inputs": [],
      "name": "renounceOwnership",
      "outputs": [],
      "stateMutability": "nonpayable",
      "type": "function"
    },
    {
      "inputs": [
        {
          "internalType": "uint256[]",
          "name": "array",
          "type": "uint256[]"
        }
      ],
      "name": "sha256Hash",
      "outputs": [
        {
          "internalType": "uint256",
          "name": "",
          "type": "uint256"
        }
      ],
      "stateMutability": "pure",
      "type": "function"
    },
    {
      "inputs": [],
      "name": "stateAqMerged",
      "outputs": [
        {
          "internalType": "bool",
          "name": "",
          "type": "bool"
        }
      ],
      "stateMutability": "view",
      "type": "function"
    },
    {
      "inputs": [
        {
          "internalType": "address",
          "name": "newOwner",
          "type": "address"
        }
      ],
      "name": "transferOwnership",
      "outputs": [],
      "stateMutability": "nonpayable",
      "type": "function"
    },
    {
      "inputs": [],
      "name": "treeDepths",
      "outputs": [
        {
          "internalType": "uint8",
          "name": "intStateTreeDepth",
          "type": "uint8"
        },
        {
          "internalType": "uint8",
          "name": "messageTreeSubDepth",
          "type": "uint8"
        },
        {
          "internalType": "uint8",
          "name": "messageTreeDepth",
          "type": "uint8"
        },
        {
          "internalType": "uint8",
          "name": "voteOptionTreeDepth",
          "type": "uint8"
        }
      ],
      "stateMutability": "view",
      "type": "function"
    }
  ],
  "bytecode": "0x60806040523480156200001157600080fd5b5060405162003c0438038062003c048339818101604052810190620000379190620007a0565b6000620000496200040a60201b60201c565b9050806000806101000a81548173ffffffffffffffffffffffffffffffffffffffff021916908373ffffffffffffffffffffffffffffffffffffffff1602179055508073ffffffffffffffffffffffffffffffffffffffff16600073ffffffffffffffffffffffffffffffffffffffff167f8be0079c531659141344cd1fd0a4f28419497f9722a3daafe3b4186f6b6457e060405160405180910390a3507f0e8c0be063e1dee5a8a9df19f0715acdfac6b7260f41d6c3769166cac049db7760016000600581106200011757fe5b01819055507f142181123bdf04edceb703cda229ba08b79092aad0eada9552d51966ee46229a600180600581106200014b57fe5b01819055507f20c99bb8b43cd63ee07ee8f33b445888ff638f67a7019b6d50036352a0e5e7bd60016002600581106200018057fe5b01819055507f1a999f92e772c387eb618ff2864256f26f268addaca43c88af7f8fab56ee19e76001600360058110620001b557fe5b01819055507f0b81b4da4b6b26de7e3997b3c2eb68abb7573206ae5de5b964de736ee40022ab6001600460058110620001ea57fe5b018190555080601560008201518160000160006101000a81548173ffffffffffffffffffffffffffffffffffffffff021916908373ffffffffffffffffffffffffffffffffffffffff16021790555060208201518160010160006101000a81548173ffffffffffffffffffffffffffffffffffffffff021916908373ffffffffffffffffffffffffffffffffffffffff16021790555060408201518160020160006101000a81548173ffffffffffffffffffffffffffffffffffffffff021916908373ffffffffffffffffffffffffffffffffffffffff1602179055509050508160066000820151816000015560208201518160010155905050620002fe826000015183602001516200041260201b60201c565b60098190555085600b81905550846011600082015181600001556020820151816001015590505082601460008201518160000160006101000a81548160ff021916908360ff16021790555060208201518160000160016101000a81548160ff021916908360ff16021790555090505083601360008201518160000160006101000a81548160ff021916908360ff16021790555060208201518160000160016101000a81548160ff021916908360ff16021790555060408201518160000160026101000a81548160ff021916908360ff16021790555060608201518160000160036101000a81548160ff021916908360ff16021790555090505042600a8190555050505050505062000a50565b600033905090565b60006200041e620004fe565b83816000600281106200042d57fe5b60200201818152505082816001600281106200044557fe5b6020020181815250506200045f816200046860201b60201c565b91505092915050565b600073__$d4acaf6f169a2634c49d403ce7efde36fd$__6329a5f2f6836040518263ffffffff1660e01b8152600401620004a39190620008c7565b60206040518083038186803b158015620004bc57600080fd5b505af4158015620004d1573d6000803e3d6000fd5b505050506040513d601f19601f82011682018060405250810190620004f7919062000774565b9050919050565b6040518060400160405280600290602082028036833780820191505090505090565b6000815190506200053181620009ce565b92915050565b6000815190506200054881620009e8565b92915050565b6000815190506200055f8162000a02565b92915050565b6000604082840312156200057857600080fd5b620005846040620008e4565b9050600062000596848285016200075d565b6000830152506020620005ac848285016200075d565b60208301525092915050565b600060608284031215620005cb57600080fd5b620005d76060620008e4565b90506000620005e9848285016200054e565b6000830152506020620005ff8482850162000537565b6020830152506040620006158482850162000520565b60408301525092915050565b6000604082840312156200063457600080fd5b620006406040620008e4565b90506000620006528482850162000746565b6000830152506020620006688482850162000746565b60208301525092915050565b6000604082840312156200068757600080fd5b620006936040620008e4565b90506000620006a58482850162000746565b6000830152506020620006bb8482850162000746565b60208301525092915050565b600060808284031215620006da57600080fd5b620006e66080620008e4565b90506000620006f8848285016200075d565b60008301525060206200070e848285016200075d565b602083015250604062000724848285016200075d565b60408301525060606200073a848285016200075d565b60608301525092915050565b600081519050620007578162000a1c565b92915050565b6000815190506200076e8162000a36565b92915050565b6000602082840312156200078757600080fd5b6000620007978482850162000746565b91505092915050565b6000806000806000806101c08789031215620007bb57600080fd5b6000620007cb89828a0162000746565b9650506020620007de89828a0162000621565b9550506060620007f189828a01620006c7565b94505060e06200080489828a0162000565565b9350506101206200081889828a0162000674565b9250506101606200082c89828a01620005b8565b9150509295509295509295565b6000620008478383620008b6565b60208301905092915050565b6200085e8162000922565b6200086a81846200093a565b9250620008778262000918565b8060005b83811015620008ae57815162000892878262000839565b96506200089f836200092d565b9250506001810190506200087b565b505050505050565b620008c181620009b5565b82525050565b6000604082019050620008de600083018462000853565b92915050565b6000604051905081810181811067ffffffffffffffff821117156200090e576200090d620009cc565b5b8060405250919050565b6000819050919050565b600060029050919050565b6000602082019050919050565b600081905092915050565b6000620009528262000995565b9050919050565b6000620009668262000945565b9050919050565b60006200097a8262000945565b9050919050565b60006200098e8262000945565b9050919050565b600073ffffffffffffffffffffffffffffffffffffffff82169050919050565b6000819050919050565b600060ff82169050919050565bfe5b620009d98162000959565b8114620009e557600080fd5b50565b620009f3816200096d565b8114620009ff57600080fd5b50565b62000a0d8162000981565b811462000a1957600080fd5b50565b62000a2781620009b5565b811462000a3357600080fd5b50565b62000a4181620009bf565b811462000a4d57600080fd5b50565b6131a48062000a606000396000f3fe608060405234801561001057600080fd5b50600436106101a85760003560e01c8063878a89ab116100f9578063ae93a21211610097578063bea140b311610071578063bea140b3146104a3578063d1f46149146104d3578063f2fde38b146104f2578063fba630f21461050e576101a8565b8063ae93a21214610449578063b5f38c8114610465578063bc14ee2b14610483576101a8565b80639c971729116100d35780639c971729146103c05780639cfced97146103dc578063a865cdd31461040c578063ac98e5df14610428576101a8565b8063878a89ab146103545780638aa0ba92146103845780638da5cb5b146103a2576101a8565b806358bfc3791161016657806362a361bb1161014057806362a361bb146102e25780636737e7a614610312578063715018a61461032e57806386f3c3f714610338576101a8565b806358bfc379146102635780635919015f146102935780635bb93995146102b2576101a8565b8062329f2f146101ad5780630396a0ce146101b757806331e766a5146101d65780633dfb88b2146101f55780634909229f146102255780634f367f0f14610244575b600080fd5b6101b561052c565b005b6101bf61072f565b6040516101cd929190612cb3565b60405180910390f35b6101de610741565b6040516101ec929190612cb3565b60405180910390f35b61020f600480360381019061020a91906124bd565b610753565b60405161021c9190612c98565b60405180910390f35b61022d6107e3565b60405161023b929190612cb3565b60405180910390f35b61024c6107f4565b60405161025a929190612cb3565b60405180910390f35b61027d6004803603810190610278919061250f565b610805565b60405161028a9190612c98565b60405180910390f35b61029b6108a9565b6040516102a9929190612cb3565b60405180910390f35b6102cc60048036038101906102c7919061265b565b6108ba565b6040516102d99190612c98565b60405180910390f35b6102fc60048036038101906102f7919061246b565b610904565b6040516103099190612c98565b60405180910390f35b61032c600480360381019061032791906125cb565b610994565b005b610336610c7c565b005b610352600480360381019061034d919061265b565b610db6565b005b61036e600480360381019061036991906125cb565b6111e9565b60405161037b9190612c98565b60405180910390f35b61038c6113a4565b6040516103999190612c98565b60405180910390f35b6103aa6113aa565b6040516103b79190612b32565b60405180910390f35b6103da60048036038101906103d59190612609565b6113d3565b005b6103f660048036038101906103f191906124e6565b6115a0565b6040516104039190612c98565b60405180910390f35b61042660048036038101906104219190612609565b611630565b005b6104306117c6565b6040516104409493929190612d20565b60405180910390f35b610463600480360381019061045e9190612609565b611818565b005b61046d611d00565b60405161047a9190612bb9565b60405180910390f35b61048b611d13565b60405161049a93929190612bd4565b60405180910390f35b6104bd60048036038101906104b89190612494565b611d8b565b6040516104ca9190612c98565b60405180910390f35b6104db611e1b565b6040516104e9929190612cf7565b60405180910390f35b61050c60048036038101906105079190612442565b611e47565b005b610516611ff0565b6040516105239190612c98565b60405180910390f35b610534611ff6565b73ffffffffffffffffffffffffffffffffffffffff166105526113aa565b73ffffffffffffffffffffffffffffffffffffffff16146105a8576040517f08c379a000000000000000000000000000000000000000000000000000000000815260040161059f90612c4d565b60405180910390fd5b6000600a5442039050600b5481116040518060400160405280600781526020017f506f6c6c453034000000000000000000000000000000000000000000000000008152509061062d576040517f08c379a00000000000000000000000000000000000000000000000000000000081526004016106249190612c0b565b60405180910390fd5b506000601560020160009054906101000a900473ffffffffffffffffffffffffffffffffffffffff1673ffffffffffffffffffffffffffffffffffffffff166324a47aeb601360000160029054906101000a900460ff166040518263ffffffff1660e01b81526004016106a09190612cdc565b602060405180830381600087803b1580156106ba57600080fd5b505af11580156106ce573d6000803e3d6000fd5b505050506040513d601f19601f820116820180604052508101906106f29190612632565b90507fc5624680ab5d50c84507f9e0dc2032163de2bda906ab8a661a53dd4d43bd5dc7816040516107239190612c98565b60405180910390a15050565b60118060000154908060010154905082565b60068060000154908060010154905082565b600073__$584f44aaf914c42633951b34ceb432be31$__63248f6677836040518263ffffffff1660e01b815260040161078c9190612b83565b60206040518083038186803b1580156107a457600080fd5b505af41580156107b8573d6000803e3d6000fd5b505050506040513d601f19601f820116820180604052508101906107dc9190612632565b9050919050565b600080600a54600b54915091509091565b600080600f54601054915091509091565b60007f30644e72e131a029b85045b68181585d2833e84879b9709143e1f593f000000160028360405160200161083b9190612b04565b6040516020818303038152906040526040516108579190612b1b565b602060405180830381855afa158015610874573d6000803e3d6000fd5b5050506040513d601f19601f820116820180604052508101906108979190612579565b60001c816108a157fe5b069050919050565b600080600d54600e54915091509091565b60006108c4611ffe565b83816000600281106108d257fe5b60200201818152505082816001600281106108e957fe5b6020020181815250506108fb81610904565b91505092915050565b600073__$d4acaf6f169a2634c49d403ce7efde36fd$__6329a5f2f6836040518263ffffffff1660e01b815260040161093d9190612b4d565b60206040518083038186803b15801561095557600080fd5b505af4158015610969573d6000803e3d6000fd5b505050506040513d601f19601f8201168201806040525081019061098d9190612632565b9050919050565b6000600a5442039050600b548111156040518060400160405280600781526020017f506f6c6c4530330000000000000000000000000000000000000000000000000081525090610a1a576040517f08c379a0000000000000000000000000000000000000000000000000000000008152600401610a119190612c0b565b60405180910390fd5b5060116000015460105411156040518060400160405280600781526020017f506f6c6c4530360000000000000000000000000000000000000000000000000081525090610a9d576040517f08c379a0000000000000000000000000000000000000000000000000000000008152600401610a949190612c0b565b60405180910390fd5b507f30644e72e131a029b85045b68181585d2833e84879b9709143e1f593f00000018260000151108015610af457507f30644e72e131a029b85045b68181585d2833e84879b9709143e1f593f00000018260200151105b6040518060400160405280600781526020017f506f6c6c4530350000000000000000000000000000000000000000000000000081525090610b6b576040517f08c379a0000000000000000000000000000000000000000000000000000000008152600401610b629190612c0b565b60405180910390fd5b506000610b7884846111e9565b9050601560020160009054906101000a900473ffffffffffffffffffffffffffffffffffffffff1673ffffffffffffffffffffffffffffffffffffffff16631ffc735d826040518263ffffffff1660e01b8152600401610bd89190612c98565b602060405180830381600087803b158015610bf257600080fd5b505af1158015610c06573d6000803e3d6000fd5b505050506040513d601f19601f82011682018060405250810190610c2a9190612632565b506010600081548092919060010191905055507f58be1e6b3a28e5681bdc24c85524b6c2441e267b7aac9da523dd82e156b505628484604051610c6e929190612c6d565b60405180910390a150505050565b610c84611ff6565b73ffffffffffffffffffffffffffffffffffffffff16610ca26113aa565b73ffffffffffffffffffffffffffffffffffffffff1614610cf8576040517f08c379a0000000000000000000000000000000000000000000000000000000008152600401610cef90612c4d565b60405180910390fd5b600073ffffffffffffffffffffffffffffffffffffffff1660008054906101000a900473ffffffffffffffffffffffffffffffffffffffff1673ffffffffffffffffffffffffffffffffffffffff167f8be0079c531659141344cd1fd0a4f28419497f9722a3daafe3b4186f6b6457e060405160405180910390a360008060006101000a81548173ffffffffffffffffffffffffffffffffffffffff021916908373ffffffffffffffffffffffffffffffffffffffff160217905550565b610dbe611ff6565b73ffffffffffffffffffffffffffffffffffffffff16610ddc6113aa565b73ffffffffffffffffffffffffffffffffffffffff1614610e32576040517f08c379a0000000000000000000000000000000000000000000000000000000008152600401610e2990612c4d565b60405180910390fd5b6000600a5442039050600b5481116040518060400160405280600781526020017f506f6c6c4530340000000000000000000000000000000000000000000000000081525090610eb7576040517f08c379a0000000000000000000000000000000000000000000000000000000008152600401610eae9190612c0b565b60405180910390fd5b50600c60009054906101000a900460ff16156040518060400160405280600781526020017f506f6c6c4530370000000000000000000000000000000000000000000000000081525090610f40576040517f08c379a0000000000000000000000000000000000000000000000000000000008152600401610f379190612c0b565b60405180910390fd5b50601560010160009054906101000a900473ffffffffffffffffffffffffffffffffffffffff1673ffffffffffffffffffffffffffffffffffffffff1663603baff86040518163ffffffff1660e01b815260040160206040518083038186803b158015610fac57600080fd5b505afa158015610fc0573d6000803e3d6000fd5b505050506040513d601f19601f82011682018060405250810190610fe491906125a2565b73ffffffffffffffffffffffffffffffffffffffff1663b6a64acd6040518163ffffffff1660e01b815260040160206040518083038186803b15801561102957600080fd5b505afa15801561103d573d6000803e3d6000fd5b505050506040513d601f19601f820116820180604052508101906110619190612550565b6110f857601560010160009054906101000a900473ffffffffffffffffffffffffffffffffffffffff1673ffffffffffffffffffffffffffffffffffffffff1663cfa1fa0384846040518363ffffffff1660e01b81526004016110c5929190612cb3565b600060405180830381600087803b1580156110df57600080fd5b505af11580156110f3573d6000803e3d6000fd5b505050505b6000600f5414156111ad57601560010160009054906101000a900473ffffffffffffffffffffffffffffffffffffffff1673ffffffffffffffffffffffffffffffffffffffff1663122db1536040518163ffffffff1660e01b815260040160206040518083038186803b15801561116e57600080fd5b505afa158015611182573d6000803e3d6000fd5b505050506040513d601f19601f820116820180604052508101906111a69190612632565b600f819055505b7fbe5eae95ff0a9a2779506ae62da06dda1e349311d3f2b6ceb990ea42b6a5f20b836040516111dc9190612c98565b60405180910390a1505050565b60006111f3612020565b83600001518160006005811061120557fe5b602002018181525050836020015160006007811061121f57fe5b60200201518160016005811061123157fe5b602002018181525050836020015160016007811061124b57fe5b60200201518160026005811061125d57fe5b602002018181525050836020015160026007811061127757fe5b60200201518160036005811061128957fe5b60200201818152505083602001516003600781106112a357fe5b6020020151816004600581106112b557fe5b6020020181815250506112c6612020565b84602001516004600781106112d757fe5b6020020151816000600581106112e957fe5b602002018181525050846020015160056007811061130357fe5b60200201518160016005811061131557fe5b602002018181525050846020015160066007811061132f57fe5b60200201518160026005811061134157fe5b60200201818152505083600001518160036005811061135c57fe5b60200201818152505083602001518160046005811061137757fe5b60200201818152505061139a61138c836115a0565b611395836115a0565b6108ba565b9250505092915050565b60095481565b60008060009054906101000a900473ffffffffffffffffffffffffffffffffffffffff16905090565b6113db611ff6565b73ffffffffffffffffffffffffffffffffffffffff166113f96113aa565b73ffffffffffffffffffffffffffffffffffffffff161461144f576040517f08c379a000000000000000000000000000000000000000000000000000000000815260040161144690612c4d565b60405180910390fd5b6000600a5442039050600b5481116040518060400160405280600781526020017f506f6c6c45303400000000000000000000000000000000000000000000000000815250906114d4576040517f08c379a00000000000000000000000000000000000000000000000000000000081526004016114cb9190612c0b565b60405180910390fd5b50601560020160009054906101000a900473ffffffffffffffffffffffffffffffffffffffff1673ffffffffffffffffffffffffffffffffffffffff1663c15da65b836040518263ffffffff1660e01b81526004016115339190612c98565b600060405180830381600087803b15801561154d57600080fd5b505af1158015611561573d6000803e3d6000fd5b505050507f1245b881cb30fdad22b2f9fde2d5c2a3605bbdf272d5e8a2235d8c9e81aba2ce826040516115949190612c98565b60405180910390a15050565b600073__$2a5b9c44d836f7997ae51e8d308a712a39$__634937a258836040518263ffffffff1660e01b81526004016115d99190612b9e565b60206040518083038186803b1580156115f157600080fd5b505af4158015611605573d6000803e3d6000fd5b505050506040513d601f19601f820116820180604052508101906116299190612632565b9050919050565b611638611ff6565b73ffffffffffffffffffffffffffffffffffffffff166116566113aa565b73ffffffffffffffffffffffffffffffffffffffff16146116ac576040517f08c379a00000000000000000000000000000000000000000000000000000000081526004016116a390612c4d565b60405180910390fd5b6000600a5442039050600b5481116040518060400160405280600781526020017f506f6c6c4530340000000000000000000000000000000000000000000000000081525090611731576040517f08c379a00000000000000000000000000000000000000000000000000000000081526004016117289190612c0b565b60405180910390fd5b50601560020160009054906101000a900473ffffffffffffffffffffffffffffffffffffffff1673ffffffffffffffffffffffffffffffffffffffff1663c00bdbcc836040518263ffffffff1660e01b81526004016117909190612c98565b600060405180830381600087803b1580156117aa57600080fd5b505af11580156117be573d6000803e3d6000fd5b505050505050565b60138060000160009054906101000a900460ff16908060000160019054906101000a900460ff16908060000160029054906101000a900460ff16908060000160039054906101000a900460ff16905084565b611820611ff6565b73ffffffffffffffffffffffffffffffffffffffff1661183e6113aa565b73ffffffffffffffffffffffffffffffffffffffff1614611894576040517f08c379a000000000000000000000000000000000000000000000000000000000815260040161188b90612c4d565b60405180910390fd5b6000600a5442039050600b5481116040518060400160405280600781526020017f506f6c6c4530340000000000000000000000000000000000000000000000000081525090611919576040517f08c379a00000000000000000000000000000000000000000000000000000000081526004016119109190612c0b565b60405180910390fd5b50600c60009054906101000a900460ff16156040518060400160405280600781526020017f506f6c6c45303700000000000000000000000000000000000000000000000000815250906119a2576040517f08c379a00000000000000000000000000000000000000000000000000000000081526004016119999190612c0b565b60405180910390fd5b50601560010160009054906101000a900473ffffffffffffffffffffffffffffffffffffffff1673ffffffffffffffffffffffffffffffffffffffff1663603baff86040518163ffffffff1660e01b815260040160206040518083038186803b158015611a0e57600080fd5b505afa158015611a22573d6000803e3d6000fd5b505050506040513d601f19601f82011682018060405250810190611a4691906125a2565b73ffffffffffffffffffffffffffffffffffffffff1663b6a64acd6040518163ffffffff1660e01b815260040160206040518083038186803b158015611a8b57600080fd5b505afa158015611a9f573d6000803e3d6000fd5b505050506040513d601f19601f82011682018060405250810190611ac39190612550565b15611b7a57601560010160009054906101000a900473ffffffffffffffffffffffffffffffffffffffff1673ffffffffffffffffffffffffffffffffffffffff1663dd0982a3836040518263ffffffff1660e01b8152600401611b269190612c98565b602060405180830381600087803b158015611b4057600080fd5b505af1158015611b54573d6000803e3d6000fd5b505050506040513d601f19601f82011682018060405250810190611b789190612632565b505b6001600c60006101000a81548160ff021916908315150217905550601560010160009054906101000a900473ffffffffffffffffffffffffffffffffffffffff1673ffffffffffffffffffffffffffffffffffffffff16632877e0366040518163ffffffff1660e01b815260040160206040518083038186803b158015611c0057600080fd5b505afa158015611c14573d6000803e3d6000fd5b505050506040513d601f19601f82011682018060405250810190611c389190612632565b600881905550611c46612042565b60085481600060038110611c5657fe5b602002018181525050600180601360000160039054906101000a900460ff160360ff1660058110611c8357fe5b015481600160038110611c9257fe5b602002018181525050600081600260038110611caa57fe5b602002018181525050611cbc81611d8b565b600d819055507f58deecc020170648ca539f41d6d967a2d071ce17a8296866ba3b3403977fd8ec600854604051611cf39190612c98565b60405180910390a1505050565b600c60009054906101000a900460ff1681565b60158060000160009054906101000a900473ffffffffffffffffffffffffffffffffffffffff16908060010160009054906101000a900473ffffffffffffffffffffffffffffffffffffffff16908060020160009054906101000a900473ffffffffffffffffffffffffffffffffffffffff16905083565b600073__$9b3049adcf18347c4fcd511e1429cbc37d$__6325cc70e8836040518263ffffffff1660e01b8152600401611dc49190612b68565b60206040518083038186803b158015611ddc57600080fd5b505af4158015611df0573d6000803e3d6000fd5b505050506040513d601f19601f82011682018060405250810190611e149190612632565b9050919050565b60148060000160009054906101000a900460ff16908060000160019054906101000a900460ff16905082565b611e4f611ff6565b73ffffffffffffffffffffffffffffffffffffffff16611e6d6113aa565b73ffffffffffffffffffffffffffffffffffffffff1614611ec3576040517f08c379a0000000000000000000000000000000000000000000000000000000008152600401611eba90612c4d565b60405180910390fd5b600073ffffffffffffffffffffffffffffffffffffffff168173ffffffffffffffffffffffffffffffffffffffff161415611f33576040517f08c379a0000000000000000000000000000000000000000000000000000000008152600401611f2a90612c2d565b60405180910390fd5b8073ffffffffffffffffffffffffffffffffffffffff1660008054906101000a900473ffffffffffffffffffffffffffffffffffffffff1673ffffffffffffffffffffffffffffffffffffffff167f8be0079c531659141344cd1fd0a4f28419497f9722a3daafe3b4186f6b6457e060405160405180910390a3806000806101000a81548173ffffffffffffffffffffffffffffffffffffffff021916908373ffffffffffffffffffffffffffffffffffffffff16021790555050565b60085481565b600033905090565b6040518060400160405280600290602082028036833780820191505090505090565b6040518060a00160405280600590602082028036833780820191505090505090565b6040518060600160405280600390602082028036833780820191505090505090565b600081359050612073816130fb565b92915050565b600082601f83011261208a57600080fd5b600261209d61209882612d96565b612d65565b915081838560208402820111156120b357600080fd5b60005b838110156120e357816120c98882612418565b8452602084019350602083019250506001810190506120b6565b5050505092915050565b600082601f8301126120fe57600080fd5b600361211161210c82612dbc565b612d65565b9150818385602084028201111561212757600080fd5b60005b83811015612157578161213d8882612418565b84526020840193506020830192505060018101905061212a565b5050505092915050565b600082601f83011261217257600080fd5b600461218561218082612de2565b612d65565b9150818385602084028201111561219b57600080fd5b60005b838110156121cb57816121b18882612418565b84526020840193506020830192505060018101905061219e565b5050505092915050565b600082601f8301126121e657600080fd5b60056121f96121f482612e08565b612d65565b9150818385602084028201111561220f57600080fd5b60005b8381101561223f57816122258882612418565b845260208401935060208301925050600181019050612212565b5050505092915050565b600082601f83011261225a57600080fd5b600761226d61226882612e2e565b612d65565b9150818385602084028201111561228357600080fd5b60005b838110156122b357816122998882612418565b845260208401935060208301925050600181019050612286565b5050505092915050565b600082601f8301126122ce57600080fd5b81356122e16122dc82612e54565b612d65565b9150818183526020840193506020810190508385602084028201111561230657600080fd5b60005b83811015612336578161231c8882612418565b845260208401935060208301925050600181019050612309565b5050505092915050565b60008151905061234f81613112565b92915050565b60008151905061236481613129565b92915050565b60008151905061237981613140565b92915050565b6000610100828403121561239257600080fd5b61239c6040612d65565b905060006123ac84828501612418565b60008301525060206123c084828501612249565b60208301525092915050565b6000604082840312156123de57600080fd5b6123e86040612d65565b905060006123f884828501612418565b600083015250602061240c84828501612418565b60208301525092915050565b60008135905061242781613157565b92915050565b60008151905061243c81613157565b92915050565b60006020828403121561245457600080fd5b600061246284828501612064565b91505092915050565b60006040828403121561247d57600080fd5b600061248b84828501612079565b91505092915050565b6000606082840312156124a657600080fd5b60006124b4848285016120ed565b91505092915050565b6000608082840312156124cf57600080fd5b60006124dd84828501612161565b91505092915050565b600060a082840312156124f857600080fd5b6000612506848285016121d5565b91505092915050565b60006020828403121561252157600080fd5b600082013567ffffffffffffffff81111561253b57600080fd5b612547848285016122bd565b91505092915050565b60006020828403121561256257600080fd5b600061257084828501612340565b91505092915050565b60006020828403121561258b57600080fd5b600061259984828501612355565b91505092915050565b6000602082840312156125b457600080fd5b60006125c28482850161236a565b91505092915050565b60008061014083850312156125df57600080fd5b60006125ed8582860161237f565b9250506101006125ff858286016123cc565b9150509250929050565b60006020828403121561261b57600080fd5b600061262984828501612418565b91505092915050565b60006020828403121561264457600080fd5b60006126528482850161242d565b91505092915050565b6000806040838503121561266e57600080fd5b600061267c85828601612418565b925050602061268d85828601612418565b9150509250929050565b60006126a38383612aaa565b60208301905092915050565b60006126bb8383612ac8565b60208301905092915050565b60006126d38383612ad7565b60208301905092915050565b6126e881612fc6565b82525050565b6126f781612ec2565b6127018184612f68565b925061270c82612e80565b8060005b8381101561273d57815161272487826126c7565b965061272f83612f1a565b925050600181019050612710565b505050505050565b61274e81612ecd565b6127588184612f73565b925061276382612e8a565b8060005b8381101561279457815161277b87826126c7565b965061278683612f27565b925050600181019050612767565b505050505050565b6127a581612ed8565b6127af8184612f7e565b92506127ba82612e94565b8060005b838110156127eb5781516127d287826126c7565b96506127dd83612f34565b9250506001810190506127be565b505050505050565b6127fc81612ee3565b6128068184612f89565b925061281182612e9e565b8060005b8381101561284257815161282987826126c7565b965061283483612f41565b925050600181019050612815565b505050505050565b61285381612eee565b61285d8184612f94565b925061286882612ea8565b8060005b838110156128995781516128808782612697565b965061288b83612f4e565b92505060018101905061286c565b505050505050565b60006128ac82612ef9565b6128b68185612f9f565b93506128c183612eb2565b8060005b838110156128f25781516128d988826126af565b97506128e483612f5b565b9250506001810190506128c5565b5085935050505092915050565b61290881612fd8565b82525050565b600061291982612f04565b6129238185612faa565b93506129338185602086016130b5565b80840191505092915050565b61294881613037565b82525050565b6129578161305b565b82525050565b6129668161307f565b82525050565b600061297782612f0f565b6129818185612fb5565b93506129918185602086016130b5565b61299a816130ea565b840191505092915050565b60006129b2602683612fb5565b91507f4f776e61626c653a206e6577206f776e657220697320746865207a65726f206160008301527f64647265737300000000000000000000000000000000000000000000000000006020830152604082019050919050565b6000612a18602083612fb5565b91507f4f776e61626c653a2063616c6c6572206973206e6f7420746865206f776e65726000830152602082019050919050565b61010082016000820151612a626000850182612aaa565b506020820151612a75602085018261284a565b50505050565b604082016000820151612a916000850182612aaa565b506020820151612aa46020850182612aaa565b50505050565b612ab381613020565b82525050565b612ac281613020565b82525050565b612ad181613020565b82525050565b612ae081613020565b82525050565b612aef816130a3565b82525050565b612afe8161302a565b82525050565b6000612b1082846128a1565b915081905092915050565b6000612b27828461290e565b915081905092915050565b6000602082019050612b4760008301846126df565b92915050565b6000604082019050612b6260008301846126ee565b92915050565b6000606082019050612b7d6000830184612745565b92915050565b6000608082019050612b98600083018461279c565b92915050565b600060a082019050612bb360008301846127f3565b92915050565b6000602082019050612bce60008301846128ff565b92915050565b6000606082019050612be9600083018661295d565b612bf6602083018561294e565b612c03604083018461293f565b949350505050565b60006020820190508181036000830152612c25818461296c565b905092915050565b60006020820190508181036000830152612c46816129a5565b9050919050565b60006020820190508181036000830152612c6681612a0b565b9050919050565b600061014082019050612c836000830185612a4b565b612c91610100830184612a7b565b9392505050565b6000602082019050612cad6000830184612ab9565b92915050565b6000604082019050612cc86000830185612ab9565b612cd56020830184612ab9565b9392505050565b6000602082019050612cf16000830184612ae6565b92915050565b6000604082019050612d0c6000830185612af5565b612d196020830184612af5565b9392505050565b6000608082019050612d356000830187612af5565b612d426020830186612af5565b612d4f6040830185612af5565b612d5c6060830184612af5565b95945050505050565b6000604051905081810181811067ffffffffffffffff82111715612d8c57612d8b6130e8565b5b8060405250919050565b600067ffffffffffffffff821115612db157612db06130e8565b5b602082029050919050565b600067ffffffffffffffff821115612dd757612dd66130e8565b5b602082029050919050565b600067ffffffffffffffff821115612dfd57612dfc6130e8565b5b602082029050919050565b600067ffffffffffffffff821115612e2357612e226130e8565b5b602082029050919050565b600067ffffffffffffffff821115612e4957612e486130e8565b5b602082029050919050565b600067ffffffffffffffff821115612e6f57612e6e6130e8565b5b602082029050602081019050919050565b6000819050919050565b6000819050919050565b6000819050919050565b6000819050919050565b6000819050919050565b6000819050602082019050919050565b600060029050919050565b600060039050919050565b600060049050919050565b600060059050919050565b600060079050919050565b600081519050919050565b600081519050919050565b600081519050919050565b6000602082019050919050565b6000602082019050919050565b6000602082019050919050565b6000602082019050919050565b6000602082019050919050565b6000602082019050919050565b600081905092915050565b600081905092915050565b600081905092915050565b600081905092915050565b600081905092915050565b600081905092915050565b600081905092915050565b600082825260208201905092915050565b6000612fd182613000565b9050919050565b60008115159050919050565b6000819050919050565b6000612ff982612fc6565b9050919050565b600073ffffffffffffffffffffffffffffffffffffffff82169050919050565b6000819050919050565b600060ff82169050919050565b600061304282613049565b9050919050565b600061305482613000565b9050919050565b60006130668261306d565b9050919050565b600061307882613000565b9050919050565b600061308a82613091565b9050919050565b600061309c82613000565b9050919050565b60006130ae8261302a565b9050919050565b60005b838110156130d35780820151818401526020810190506130b8565b838111156130e2576000848401525b50505050565bfe5b6000601f19601f8301169050919050565b61310481612fc6565b811461310f57600080fd5b50565b61311b81612fd8565b811461312657600080fd5b50565b61313281612fe4565b811461313d57600080fd5b50565b61314981612fee565b811461315457600080fd5b50565b61316081613020565b811461316b57600080fd5b5056fea264697066735822122049b9c61c37caa80c11589ed821b9107d492cc3397d5e1cc8b3a377ca901cc98b64736f6c63430007020033",
  "linkReferences": {
    "contracts/crypto/Hasher.sol": {
      "PoseidonT3": [
        {
          "length": 20,
          "start": 1132
        },
        {
          "length": 20,
          "start": 4968
        }
      ],
      "PoseidonT4": [
        {
          "length": 20,
          "start": 10223
        }
      ],
      "PoseidonT5": [
        {
          "length": 20,
          "start": 4535
        }
      ],
      "PoseidonT6": [
        {
          "length": 20,
          "start": 8196
        }
      ]
    }
  },
  "deployedLinkReferences": {
    "contracts/crypto/Hasher.sol": {
      "PoseidonT3": [
        {
          "length": 20,
          "start": 2312
        }
      ],
      "PoseidonT4": [
        {
          "length": 20,
          "start": 7567
        }
      ],
      "PoseidonT5": [
        {
          "length": 20,
          "start": 1879
        }
      ],
      "PoseidonT6": [
        {
          "length": 20,
          "start": 5540
        }
      ]
    }
  }
}