{
  "_format": "hh-sol-artifact-1",
  "contractName": "PollProcessorAndTallyer",
  "sourceName": "contracts/Poll.sol",
  "abi": [
    {
      "inputs": [
        {
          "internalType": "contract Verifier",
          "name": "_verifier",
          "type": "address"
        }
      ],
      "stateMutability": "nonpayable",
      "type": "constructor"
    },
    {
      "anonymous": false,
      "inputs": [
        {
          "indexed": true,
          "internalType": "address",
          "name": "previousOwner",
          "type": "address"
        },
        {
          "indexed": true,
          "internalType": "address",
          "name": "newOwner",
          "type": "address"
        }
      ],
      "name": "OwnershipTransferred",
      "type": "event"
    },
    {
      "inputs": [],
      "name": "currentMessageBatchIndex",
      "outputs": [
        {
          "internalType": "uint256",
          "name": "",
          "type": "uint256"
        }
      ],
      "stateMutability": "view",
      "type": "function"
    },
    {
      "inputs": [
        {
          "internalType": "contract Poll",
          "name": "_poll",
          "type": "address"
        },
        {
          "internalType": "uint256",
          "name": "_currentMessageBatchIndex",
          "type": "uint256"
        },
        {
          "internalType": "uint256",
          "name": "_numSignUps",
          "type": "uint256"
        }
      ],
      "name": "genProcessMessagesPackedVals",
      "outputs": [
        {
          "internalType": "uint256",
          "name": "",
          "type": "uint256"
        }
      ],
      "stateMutability": "view",
      "type": "function"
    },
    {
      "inputs": [
        {
          "internalType": "contract Poll",
          "name": "_poll",
          "type": "address"
        },
        {
          "internalType": "uint256",
          "name": "_currentMessageBatchIndex",
          "type": "uint256"
        },
        {
          "internalType": "uint256",
          "name": "_messageRoot",
          "type": "uint256"
        },
        {
          "internalType": "uint256",
          "name": "_numSignUps",
          "type": "uint256"
        },
        {
          "internalType": "uint256",
          "name": "_currentSbCommitment",
          "type": "uint256"
        },
        {
          "internalType": "uint256",
          "name": "_newSbCommitment",
          "type": "uint256"
        }
      ],
      "name": "genProcessMessagesPublicInputHash",
      "outputs": [
        {
          "internalType": "uint256",
          "name": "",
          "type": "uint256"
        }
      ],
      "stateMutability": "view",
      "type": "function"
    },
    {
      "inputs": [
        {
          "internalType": "uint256",
          "name": "_numSignUps",
          "type": "uint256"
        },
        {
          "internalType": "uint256",
          "name": "_batchStartIndex",
          "type": "uint256"
        },
        {
          "internalType": "uint256",
          "name": "_tallyBatchSize",
          "type": "uint256"
        }
      ],
      "name": "genTallyVotesPackedVals",
      "outputs": [
        {
          "internalType": "uint256",
          "name": "",
          "type": "uint256"
        }
      ],
      "stateMutability": "pure",
      "type": "function"
    },
    {
      "inputs": [
        {
          "internalType": "contract Poll",
          "name": "_poll",
          "type": "address"
        },
        {
          "internalType": "uint256",
          "name": "_numSignUps",
          "type": "uint256"
        },
        {
          "internalType": "uint256",
          "name": "_batchStartIndex",
          "type": "uint256"
        },
        {
          "internalType": "uint256",
          "name": "_tallyBatchSize",
          "type": "uint256"
        },
        {
          "internalType": "uint256",
          "name": "_newTallyCommitment",
          "type": "uint256"
        }
      ],
      "name": "genTallyVotesPublicInputHash",
      "outputs": [
        {
          "internalType": "uint256",
          "name": "",
          "type": "uint256"
        }
      ],
      "stateMutability": "view",
      "type": "function"
    },
    {
      "inputs": [],
      "name": "numBatchesProcessed",
      "outputs": [
        {
          "internalType": "uint256",
          "name": "",
          "type": "uint256"
        }
      ],
      "stateMutability": "view",
      "type": "function"
    },
    {
      "inputs": [],
      "name": "owner",
      "outputs": [
        {
          "internalType": "address",
          "name": "",
          "type": "address"
        }
      ],
      "stateMutability": "view",
      "type": "function"
    },
    {
      "inputs": [
        {
          "internalType": "contract Poll",
          "name": "_poll",
          "type": "address"
        },
        {
          "internalType": "uint256",
          "name": "_newSbCommitment",
          "type": "uint256"
        },
        {
          "internalType": "uint256[8]",
          "name": "_proof",
          "type": "uint256[8]"
        }
      ],
      "name": "processMessages",
      "outputs": [],
      "stateMutability": "nonpayable",
      "type": "function"
    },
    {
      "inputs": [],
      "name": "processingComplete",
      "outputs": [
        {
          "internalType": "bool",
          "name": "",
          "type": "bool"
        }
      ],
      "stateMutability": "view",
      "type": "function"
    },
    {
      "inputs": [],
      "name": "renounceOwnership",
      "outputs": [],
      "stateMutability": "nonpayable",
      "type": "function"
    },
    {
      "inputs": [],
      "name": "sbCommitment",
      "outputs": [
        {
          "internalType": "uint256",
          "name": "",
          "type": "uint256"
        }
      ],
      "stateMutability": "view",
      "type": "function"
    },
    {
      "inputs": [
        {
          "internalType": "uint256[]",
          "name": "array",
          "type": "uint256[]"
        }
      ],
      "name": "sha256Hash",
      "outputs": [
        {
          "internalType": "uint256",
          "name": "",
          "type": "uint256"
        }
      ],
      "stateMutability": "pure",
      "type": "function"
    },
    {
      "inputs": [],
      "name": "tallyBatchNum",
      "outputs": [
        {
          "internalType": "uint256",
          "name": "",
          "type": "uint256"
        }
      ],
      "stateMutability": "view",
      "type": "function"
    },
    {
      "inputs": [],
      "name": "tallyCommitment",
      "outputs": [
        {
          "internalType": "uint256",
          "name": "",
          "type": "uint256"
        }
      ],
      "stateMutability": "view",
      "type": "function"
    },
    {
      "inputs": [
        {
          "internalType": "contract Poll",
          "name": "_poll",
          "type": "address"
        },
        {
          "internalType": "uint256",
          "name": "_newTallyCommitment",
          "type": "uint256"
        },
        {
          "internalType": "uint256[8]",
          "name": "_proof",
          "type": "uint256[8]"
        }
      ],
      "name": "tallyVotes",
      "outputs": [],
      "stateMutability": "nonpayable",
      "type": "function"
    },
    {
      "inputs": [
        {
          "internalType": "address",
          "name": "newOwner",
          "type": "address"
        }
      ],
      "name": "transferOwnership",
      "outputs": [],
      "stateMutability": "nonpayable",
      "type": "function"
    },
    {
      "inputs": [],
      "name": "verifier",
      "outputs": [
        {
          "internalType": "contract Verifier",
          "name": "",
          "type": "address"
        }
      ],
      "stateMutability": "view",
      "type": "function"
    }
  ],
  "bytecode": "0x60806040523480156200001157600080fd5b50604051620034af380380620034af83398181016040528101906200003791906200014e565b6000620000496200012f60201b60201c565b9050806000806101000a81548173ffffffffffffffffffffffffffffffffffffffff021916908373ffffffffffffffffffffffffffffffffffffffff1602179055508073ffffffffffffffffffffffffffffffffffffffff16600073ffffffffffffffffffffffffffffffffffffffff167f8be0079c531659141344cd1fd0a4f28419497f9722a3daafe3b4186f6b6457e060405160405180910390a35080600760006101000a81548173ffffffffffffffffffffffffffffffffffffffff021916908373ffffffffffffffffffffffffffffffffffffffff16021790555050620001dc565b600033905090565b6000815190506200014881620001c2565b92915050565b6000602082840312156200016157600080fd5b6000620001718482850162000137565b91505092915050565b60006200018782620001a2565b9050919050565b60006200019b826200017a565b9050919050565b600073ffffffffffffffffffffffffffffffffffffffff82169050919050565b620001cd816200018e565b8114620001d957600080fd5b50565b6132c380620001ec6000396000f3fe608060405234801561001057600080fd5b506004361061010b5760003560e01c80638763d0c4116100a2578063c6304b2411610071578063c6304b2414610298578063c997f7d0146102c8578063d13181b8146102f8578063e5d4203d14610316578063f2fde38b146103325761010b565b80638763d0c41461020e5780638da5cb5b1461022c578063afb93bd31461024a578063b03698f2146102685761010b565b806361750293116100de5780636175029314610198578063695afca5146101b6578063715018a6146101e65780637a38d18f146101f05761010b565b80632b7ac3f3146101105780633d6528a11461012e578063410f90ce1461014c57806358bfc37914610168575b600080fd5b61011861034e565b6040516101259190612d9f565b60405180910390f35b610136610374565b6040516101439190612e1c565b60405180910390f35b6101666004803603810190610161919061254d565b61037a565b005b610182600480360381019061017d91906124ba565b610b97565b60405161018f9190612e1c565b60405180910390f35b6101a0610c3b565b6040516101ad9190612e1c565b60405180910390f35b6101d060048036038101906101cb91906125ec565b610c41565b6040516101dd9190612e1c565b60405180910390f35b6101ee610d25565b005b6101f8610e5f565b6040516102059190612e1c565b60405180910390f35b610216610e65565b6040516102239190612d84565b60405180910390f35b610234610e78565b6040516102419190612d28565b60405180910390f35b610252610ea1565b60405161025f9190612e1c565b60405180910390f35b610282600480360381019061027d91906127e1565b610ea7565b60405161028f9190612e1c565b60405180910390f35b6102b260048036038101906102ad9190612663565b610ec7565b6040516102bf9190612e1c565b60405180910390f35b6102e260048036038101906102dd919061259d565b6110e7565b6040516102ef9190612e1c565b60405180910390f35b6103006112b0565b60405161030d9190612e1c565b60405180910390f35b610330600480360381019061032b919061254d565b6112b6565b005b61034c60048036038101906103479190612491565b6116fd565b005b600760009054906101000a900473ffffffffffffffffffffffffffffffffffffffff1681565b60025481565b6103826118a6565b73ffffffffffffffffffffffffffffffffffffffff166103a0610e78565b73ffffffffffffffffffffffffffffffffffffffff16146103f6576040517f08c379a00000000000000000000000000000000000000000000000000000000081526004016103ed90612dfc565b60405180910390fd5b826000808273ffffffffffffffffffffffffffffffffffffffff16634909229f6040518163ffffffff1660e01b8152600401604080518083038186803b15801561043f57600080fd5b505afa158015610453573d6000803e3d6000fd5b505050506040513d601f19601f8201168201806040525081019061047791906127a5565b91509150600082420390508181116040518060400160405280600681526020017f5070744530310000000000000000000000000000000000000000000000000000815250906104fc576040517f08c379a00000000000000000000000000000000000000000000000000000000081526004016104f39190612dba565b60405180910390fd5b50600360009054906101000a900460ff16156040518060400160405280600681526020017f507074453032000000000000000000000000000000000000000000000000000081525090610585576040517f08c379a000000000000000000000000000000000000000000000000000000000815260040161057c9190612dba565b60405180910390fd5b508673ffffffffffffffffffffffffffffffffffffffff1663b5f38c816040518163ffffffff1660e01b815260040160206040518083038186803b1580156105cc57600080fd5b505afa1580156105e0573d6000803e3d6000fd5b505050506040513d601f19601f8201168201806040525081019061060491906124fb565b6040518060400160405280600681526020017f50707445303900000000000000000000000000000000000000000000000000008152509061067b576040517f08c379a00000000000000000000000000000000000000000000000000000000081526004016106729190612dba565b60405180910390fd5b5060008773ffffffffffffffffffffffffffffffffffffffff1663ac98e5df6040518163ffffffff1660e01b815260040160806040518083038186803b1580156106c457600080fd5b505afa1580156106d8573d6000803e3d6000fd5b505050506040513d601f19601f820116820180604052508101906106fc9190612895565b509250505060008873ffffffffffffffffffffffffffffffffffffffff1663d1f461496040518163ffffffff1660e01b8152600401604080518083038186803b15801561074857600080fd5b505afa15801561075c573d6000803e3d6000fd5b505050506040513d601f19601f820116820180604052508101906107809190612859565b5060ff16905060008973ffffffffffffffffffffffffffffffffffffffff1663bc14ee2b6040518163ffffffff1660e01b815260040160606040518083038186803b1580156107ce57600080fd5b505afa1580156107e2573d6000803e3d6000fd5b505050506040513d601f19601f8201168201806040525081019061080691906126ec565b90915090508091505060008173ffffffffffffffffffffffffffffffffffffffff16631b9b8aa7856040518263ffffffff1660e01b815260040161084a9190612e37565b60206040518083038186803b15801561086257600080fd5b505afa158015610876573d6000803e3d6000fd5b505050506040513d601f19601f8201168201806040525081019061089a919061277c565b905060008114156040518060400160405280600681526020017f507074453033000000000000000000000000000000000000000000000000000081525090610918576040517f08c379a000000000000000000000000000000000000000000000000000000000815260040161090f9190612dba565b60405180910390fd5b5060006004541415610a445760008b73ffffffffffffffffffffffffffffffffffffffff16635919015f6040518163ffffffff1660e01b8152600401604080518083038186803b15801561096b57600080fd5b505afa15801561097f573d6000803e3d6000fd5b505050506040513d601f19601f820116820180604052508101906109a391906127a5565b5090508060018190555060008c73ffffffffffffffffffffffffffffffffffffffff16634f367f0f6040518163ffffffff1660e01b8152600401604080518083038186803b1580156109f457600080fd5b505afa158015610a08573d6000803e3d6000fd5b505050506040513d601f19601f82011682018060405250810190610a2c91906127a5565b91505084858281610a3957fe5b040260028190555050505b6000610a588c600254846001548f8f6118ae565b9050806040518060400160405280600681526020017f507074453035000000000000000000000000000000000000000000000000000081525090610ad2576040517f08c379a0000000000000000000000000000000000000000000000000000000008152600401610ac99190612dba565b60405180910390fd5b5060008c73ffffffffffffffffffffffffffffffffffffffff16634f367f0f6040518163ffffffff1660e01b8152600401604080518083038186803b158015610b1a57600080fd5b505afa158015610b2e573d6000803e3d6000fd5b505050506040513d601f19601f82011682018060405250810190610b5291906127a5565b91505060006002541115610b7157846002600082825403925050819055505b610b888c6002546001600454018802841115611cb4565b50505050505050505050505050565b60007f30644e72e131a029b85045b68181585d2833e84879b9709143e1f593f0000001600283604051602001610bcd9190612cfa565b604051602081830303815290604052604051610be99190612d11565b602060405180830381855afa158015610c06573d6000803e3d6000fd5b5050506040513d601f19601f82011682018060405250810190610c299190612524565b60001c81610c3357fe5b069050919050565b60055481565b600080610c4f868686610ea7565b90506060600467ffffffffffffffff81118015610c6b57600080fd5b50604051908082528060200260200182016040528015610c9a5781602001602082028036833780820191505090505b5090508181600081518110610cab57fe5b60200260200101818152505060015481600181518110610cc757fe5b60200260200101818152505060055481600281518110610ce357fe5b6020026020010181815250508381600381518110610cfd57fe5b6020026020010181815250506000610d1482610b97565b905080935050505095945050505050565b610d2d6118a6565b73ffffffffffffffffffffffffffffffffffffffff16610d4b610e78565b73ffffffffffffffffffffffffffffffffffffffff1614610da1576040517f08c379a0000000000000000000000000000000000000000000000000000000008152600401610d9890612dfc565b60405180910390fd5b600073ffffffffffffffffffffffffffffffffffffffff1660008054906101000a900473ffffffffffffffffffffffffffffffffffffffff1673ffffffffffffffffffffffffffffffffffffffff167f8be0079c531659141344cd1fd0a4f28419497f9722a3daafe3b4186f6b6457e060405160405180910390a360008060006101000a81548173ffffffffffffffffffffffffffffffffffffffff021916908373ffffffffffffffffffffffffffffffffffffffff160217905550565b60045481565b600360009054906101000a900460ff1681565b60008060009054906101000a900473ffffffffffffffffffffffffffffffffffffffff16905090565b60065481565b600080603285901b838581610eb857fe5b04019050809150509392505050565b6000808773ffffffffffffffffffffffffffffffffffffffff16638aa0ba926040518163ffffffff1660e01b815260040160206040518083038186803b158015610f1057600080fd5b505afa158015610f24573d6000803e3d6000fd5b505050506040513d601f19601f82011682018060405250810190610f48919061277c565b90506000610f578989886110e7565b90506000808a73ffffffffffffffffffffffffffffffffffffffff16634909229f6040518163ffffffff1660e01b8152600401604080518083038186803b158015610fa157600080fd5b505afa158015610fb5573d6000803e3d6000fd5b505050506040513d601f19601f82011682018060405250810190610fd991906127a5565b915091506060600667ffffffffffffffff81118015610ff757600080fd5b506040519080825280602002602001820160405280156110265781602001602082028036833780820191505090505b509050838160008151811061103757fe5b602002602001018181525050848160018151811061105157fe5b602002602001018181525050898160028151811061106b57fe5b602002602001018181525050878160038151811061108557fe5b602002602001018181525050868160048151811061109f57fe5b602002602001018181525050818301816005815181106110bb57fe5b60200260200101818152505060006110d282610b97565b90508096505050505050509695505050505050565b6000808473ffffffffffffffffffffffffffffffffffffffff16630396a0ce6040518163ffffffff1660e01b8152600401604080518083038186803b15801561112f57600080fd5b505afa158015611143573d6000803e3d6000fd5b505050506040513d601f19601f8201168201806040525081019061116791906127a5565b91505060008573ffffffffffffffffffffffffffffffffffffffff16634f367f0f6040518163ffffffff1660e01b8152600401604080518083038186803b1580156111b157600080fd5b505afa1580156111c5573d6000803e3d6000fd5b505050506040513d601f19601f820116820180604052508101906111e991906127a5565b91505060008673ffffffffffffffffffffffffffffffffffffffff1663d1f461496040518163ffffffff1660e01b8152600401604080518083038186803b15801561123357600080fd5b505afa158015611247573d6000803e3d6000fd5b505050506040513d601f19601f8201168201806040525081019061126b9190612859565b50905060008160ff1690506000818801905083811115611289578390505b6000609682901b60648a901b60328a901b8801010190508096505050505050509392505050565b60015481565b6112be6118a6565b73ffffffffffffffffffffffffffffffffffffffff166112dc610e78565b73ffffffffffffffffffffffffffffffffffffffff1614611332576040517f08c379a000000000000000000000000000000000000000000000000000000000815260040161132990612dfc565b60405180910390fd5b826000808273ffffffffffffffffffffffffffffffffffffffff16634909229f6040518163ffffffff1660e01b8152600401604080518083038186803b15801561137b57600080fd5b505afa15801561138f573d6000803e3d6000fd5b505050506040513d601f19601f820116820180604052508101906113b391906127a5565b91509150600082420390508181116040518060400160405280600681526020017f507074453031000000000000000000000000000000000000000000000000000081525090611438576040517f08c379a000000000000000000000000000000000000000000000000000000000815260040161142f9190612dba565b60405180910390fd5b50600360009054906101000a900460ff166040518060400160405280600681526020017f5070744530370000000000000000000000000000000000000000000000000000815250906114c0576040517f08c379a00000000000000000000000000000000000000000000000000000000081526004016114b79190612dba565b60405180910390fd5b5060008773ffffffffffffffffffffffffffffffffffffffff1663d1f461496040518163ffffffff1660e01b8152600401604080518083038186803b15801561150857600080fd5b505afa15801561151c573d6000803e3d6000fd5b505050506040513d601f19601f820116820180604052508101906115409190612859565b60ff1691505060008160065402905060008973ffffffffffffffffffffffffffffffffffffffff16634f367f0f6040518163ffffffff1660e01b8152600401604080518083038186803b15801561159657600080fd5b505afa1580156115aa573d6000803e3d6000fd5b505050506040513d601f19601f820116820180604052508101906115ce91906127a5565b5090508082106040518060400160405280600681526020017f50707445303800000000000000000000000000000000000000000000000000008152509061164b576040517f08c379a00000000000000000000000000000000000000000000000000000000081526004016116429190612dba565b60405180910390fd5b50600061165c8b8a8486888f611cf3565b9050806040518060400160405280600681526020017f5070744530360000000000000000000000000000000000000000000000000000815250906116d6576040517f08c379a00000000000000000000000000000000000000000000000000000000081526004016116cd9190612dba565b60405180910390fd5b50896005819055506006600081548092919060010191905055505050505050505050505050565b6117056118a6565b73ffffffffffffffffffffffffffffffffffffffff16611723610e78565b73ffffffffffffffffffffffffffffffffffffffff1614611779576040517f08c379a000000000000000000000000000000000000000000000000000000000815260040161177090612dfc565b60405180910390fd5b600073ffffffffffffffffffffffffffffffffffffffff168173ffffffffffffffffffffffffffffffffffffffff1614156117e9576040517f08c379a00000000000000000000000000000000000000000000000000000000081526004016117e090612ddc565b60405180910390fd5b8073ffffffffffffffffffffffffffffffffffffffff1660008054906101000a900473ffffffffffffffffffffffffffffffffffffffff1673ffffffffffffffffffffffffffffffffffffffff167f8be0079c531659141344cd1fd0a4f28419497f9722a3daafe3b4186f6b6457e060405160405180910390a3806000806101000a81548173ffffffffffffffffffffffffffffffffffffffff021916908373ffffffffffffffffffffffffffffffffffffffff16021790555050565b600033905090565b60008060008873ffffffffffffffffffffffffffffffffffffffff1663ac98e5df6040518163ffffffff1660e01b815260040160806040518083038186803b1580156118f957600080fd5b505afa15801561190d573d6000803e3d6000fd5b505050506040513d601f19601f820116820180604052508101906119319190612895565b93509350505060008973ffffffffffffffffffffffffffffffffffffffff1663d1f461496040518163ffffffff1660e01b8152600401604080518083038186803b15801561197e57600080fd5b505afa158015611992573d6000803e3d6000fd5b505050506040513d601f19601f820116820180604052508101906119b69190612859565b5060ff16905060008a73ffffffffffffffffffffffffffffffffffffffff16634f367f0f6040518163ffffffff1660e01b8152600401604080518083038186803b158015611a0357600080fd5b505afa158015611a17573d6000803e3d6000fd5b505050506040513d601f19601f82011682018060405250810190611a3b91906127a5565b5090506000808c73ffffffffffffffffffffffffffffffffffffffff1663bc14ee2b6040518163ffffffff1660e01b815260040160606040518083038186803b158015611a8757600080fd5b505afa158015611a9b573d6000803e3d6000fd5b505050506040513d601f19601f82011682018060405250810190611abf91906126ec565b50915091506000611ad48e8e8e878f8f610ec7565b9050611ade611fed565b8373ffffffffffffffffffffffffffffffffffffffff16630bfbd4fe8473ffffffffffffffffffffffffffffffffffffffff1663652c76e46040518163ffffffff1660e01b815260040160206040518083038186803b158015611b4057600080fd5b505afa158015611b54573d6000803e3d6000fd5b505050506040513d601f19601f82011682018060405250810190611b789190612830565b8a8a8a6040518563ffffffff1660e01b8152600401611b9a9493929190612e89565b60006040518083038186803b158015611bb257600080fd5b505afa158015611bc6573d6000803e3d6000fd5b505050506040513d6000823e3d601f19601f82011682018060405250810190611bef919061273b565b9050600760009054906101000a900473ffffffffffffffffffffffffffffffffffffffff1673ffffffffffffffffffffffffffffffffffffffff166322b72c948b83856040518463ffffffff1660e01b8152600401611c5093929190612d43565b60206040518083038186803b158015611c6857600080fd5b505afa158015611c7c573d6000803e3d6000fd5b505050506040513d601f19601f82011682018060405250810190611ca091906124fb565b985050505050505050509695505050505050565b8260018190555080600360006101000a81548160ff02191690831515021790555081600281905550600460008154809291906001019190505550505050565b60008060008873ffffffffffffffffffffffffffffffffffffffff1663ac98e5df6040518163ffffffff1660e01b815260040160806040518083038186803b158015611d3e57600080fd5b505afa158015611d52573d6000803e3d6000fd5b505050506040513d601f19601f82011682018060405250810190611d769190612895565b9350505091506000808a73ffffffffffffffffffffffffffffffffffffffff1663bc14ee2b6040518163ffffffff1660e01b815260040160606040518083038186803b158015611dc557600080fd5b505afa158015611dd9573d6000803e3d6000fd5b505050506040513d601f19601f82011682018060405250810190611dfd91906126ec565b5091509150611e0a611fed565b8273ffffffffffffffffffffffffffffffffffffffff1663c7c8beec8373ffffffffffffffffffffffffffffffffffffffff1663652c76e46040518163ffffffff1660e01b815260040160206040518083038186803b158015611e6c57600080fd5b505afa158015611e80573d6000803e3d6000fd5b505050506040513d601f19601f82011682018060405250810190611ea49190612830565b87876040518463ffffffff1660e01b8152600401611ec493929190612e52565b60006040518083038186803b158015611edc57600080fd5b505afa158015611ef0573d6000803e3d6000fd5b505050506040513d6000823e3d601f19601f82011682018060405250810190611f19919061273b565b90506000611f2a8d8c8c8c8c610c41565b9050600760009054906101000a900473ffffffffffffffffffffffffffffffffffffffff1673ffffffffffffffffffffffffffffffffffffffff166322b72c948d84846040518463ffffffff1660e01b8152600401611f8b93929190612d43565b60206040518083038186803b158015611fa357600080fd5b505afa158015611fb7573d6000803e3d6000fd5b505050506040513d601f19601f82011682018060405250810190611fdb91906124fb565b96505050505050509695505050505050565b6040518060a00160405280612000612034565b815260200161200d61204e565b815260200161201a61204e565b815260200161202761204e565b8152602001606081525090565b604051806040016040528060008152602001600081525090565b6040518060400160405280612061612074565b815260200161206e612074565b81525090565b6040518060400160405280600290602082028036833780820191505090505090565b6000813590506120a5816131be565b92915050565b600082601f8301126120bc57600080fd5b81516120cf6120ca82612eff565b612ece565b915081818352602084019350602081019050838560408402820111156120f457600080fd5b60005b83811015612124578161210a8882612317565b8452602084019350604083019250506001810190506120f7565b5050505092915050565b600082601f83011261213f57600080fd5b600261215261214d82612f2b565b612ece565b9150818385602084028201111561216857600080fd5b60005b83811015612198578161217e8882612467565b84526020840193506020830192505060018101905061216b565b5050505092915050565b600082601f8301126121b357600080fd5b60086121c66121c182612f51565b612ece565b915081838560208402820111156121dc57600080fd5b60005b8381101561220c57816121f28882612452565b8452602084019350602083019250506001810190506121df565b5050505092915050565b600082601f83011261222757600080fd5b813561223a61223582612f77565b612ece565b9150818183526020840193506020810190508385602084028201111561225f57600080fd5b60005b8381101561228f57816122758882612452565b845260208401935060208301925050600181019050612262565b5050505092915050565b6000815190506122a8816131d5565b92915050565b6000815190506122bd816131ec565b92915050565b6000815190506122d281613203565b92915050565b6000815190506122e78161321a565b92915050565b6000813590506122fc81613231565b92915050565b60008151905061231181613248565b92915050565b60006040828403121561232957600080fd5b6123336040612ece565b9050600061234384828501612467565b600083015250602061235784828501612467565b60208301525092915050565b60006080828403121561237557600080fd5b61237f6040612ece565b9050600061238f8482850161212e565b60008301525060406123a38482850161212e565b60208301525092915050565b60006101e082840312156123c257600080fd5b6123cc60a0612ece565b905060006123dc84828501612317565b60008301525060406123f084828501612363565b60208301525060c061240484828501612363565b60408301525061014061241984828501612363565b6060830152506101c082015167ffffffffffffffff81111561243a57600080fd5b612446848285016120ab565b60808301525092915050565b6000813590506124618161325f565b92915050565b6000815190506124768161325f565b92915050565b60008151905061248b81613276565b92915050565b6000602082840312156124a357600080fd5b60006124b184828501612096565b91505092915050565b6000602082840312156124cc57600080fd5b600082013567ffffffffffffffff8111156124e657600080fd5b6124f284828501612216565b91505092915050565b60006020828403121561250d57600080fd5b600061251b84828501612299565b91505092915050565b60006020828403121561253657600080fd5b6000612544848285016122ae565b91505092915050565b6000806000610140848603121561256357600080fd5b6000612571868287016122ed565b935050602061258286828701612452565b9250506040612593868287016121a2565b9150509250925092565b6000806000606084860312156125b257600080fd5b60006125c0868287016122ed565b93505060206125d186828701612452565b92505060406125e286828701612452565b9150509250925092565b600080600080600060a0868803121561260457600080fd5b6000612612888289016122ed565b955050602061262388828901612452565b945050604061263488828901612452565b935050606061264588828901612452565b925050608061265688828901612452565b9150509295509295909350565b60008060008060008060c0878903121561267c57600080fd5b600061268a89828a016122ed565b965050602061269b89828a01612452565b95505060406126ac89828a01612452565b94505060606126bd89828a01612452565b93505060806126ce89828a01612452565b92505060a06126df89828a01612452565b9150509295509295509295565b60008060006060848603121561270157600080fd5b600061270f86828701612302565b9350506020612720868287016122d8565b9250506040612731868287016122c3565b9150509250925092565b60006020828403121561274d57600080fd5b600082015167ffffffffffffffff81111561276757600080fd5b612773848285016123af565b91505092915050565b60006020828403121561278e57600080fd5b600061279c84828501612467565b91505092915050565b600080604083850312156127b857600080fd5b60006127c685828601612467565b92505060206127d785828601612467565b9150509250929050565b6000806000606084860312156127f657600080fd5b600061280486828701612452565b935050602061281586828701612452565b925050604061282686828701612452565b9150509250925092565b60006020828403121561284257600080fd5b60006128508482850161247c565b91505092915050565b6000806040838503121561286c57600080fd5b600061287a8582860161247c565b925050602061288b8582860161247c565b9150509250929050565b600080600080608085870312156128ab57600080fd5b60006128b98782880161247c565b94505060206128ca8782880161247c565b93505060406128db8782880161247c565b92505060606128ec8782880161247c565b91505092959194509250565b60006129048383612be7565b60408301905092915050565b600061291c8383612cbe565b60208301905092915050565b60006129348383612cdc565b60208301905092915050565b6129498161309b565b82525050565b600061295a82612fd7565b612964818561304d565b935061296f83612fa3565b8060005b838110156129a057815161298788826128f8565b975061299283613019565b925050600181019050612973565b5085935050505092915050565b6129b681612fe2565b6129c0818461305e565b92506129cb82612fb3565b8060005b838110156129fc5781516129e38782612910565b96506129ee83613026565b9250506001810190506129cf565b505050505050565b612a0d81612fed565b612a178184613069565b9250612a2282612fbd565b8060005b83811015612a53578151612a3a8782612910565b9650612a4583613033565b925050600181019050612a26565b505050505050565b6000612a6682612ff8565b612a708185613074565b9350612a7b83612fc7565b8060005b83811015612aac578151612a938882612928565b9750612a9e83613040565b925050600181019050612a7f565b5085935050505092915050565b612ac2816130ad565b82525050565b6000612ad382613003565b612add818561307f565b9350612aed818560208601613178565b80840191505092915050565b612b0281613142565b82525050565b6000612b138261300e565b612b1d818561308a565b9350612b2d818560208601613178565b612b36816131ad565b840191505092915050565b6000612b4e60268361308a565b91507f4f776e61626c653a206e6577206f776e657220697320746865207a65726f206160008301527f64647265737300000000000000000000000000000000000000000000000000006020830152604082019050919050565b6000612bb460208361308a565b91507f4f776e61626c653a2063616c6c6572206973206e6f7420746865206f776e65726000830152602082019050919050565b604082016000820151612bfd6000850182612cbe565b506020820151612c106020850182612cbe565b50505050565b608082016000820151612c2c60008501826129ad565b506020820151612c3f60408501826129ad565b50505050565b60006101e083016000830151612c5e6000860182612be7565b506020830151612c716040860182612c16565b506040830151612c8460c0860182612c16565b506060830151612c98610140860182612c16565b5060808301518482036101c0860152612cb1828261294f565b9150508091505092915050565b612cc78161312b565b82525050565b612cd68161312b565b82525050565b612ce58161312b565b82525050565b612cf481613166565b82525050565b6000612d068284612a5b565b915081905092915050565b6000612d1d8284612ac8565b915081905092915050565b6000602082019050612d3d6000830184612940565b92915050565b600061014082019050612d596000830186612a04565b818103610100830152612d6c8185612c45565b9050612d7c610120830184612ccd565b949350505050565b6000602082019050612d996000830184612ab9565b92915050565b6000602082019050612db46000830184612af9565b92915050565b60006020820190508181036000830152612dd48184612b08565b905092915050565b60006020820190508181036000830152612df581612b41565b9050919050565b60006020820190508181036000830152612e1581612ba7565b9050919050565b6000602082019050612e316000830184612ccd565b92915050565b6000602082019050612e4c6000830184612ceb565b92915050565b6000606082019050612e676000830186612ceb565b612e746020830185612ceb565b612e816040830184612ceb565b949350505050565b6000608082019050612e9e6000830187612ceb565b612eab6020830186612ceb565b612eb86040830185612ceb565b612ec56060830184612ccd565b95945050505050565b6000604051905081810181811067ffffffffffffffff82111715612ef557612ef46131ab565b5b8060405250919050565b600067ffffffffffffffff821115612f1a57612f196131ab565b5b602082029050602081019050919050565b600067ffffffffffffffff821115612f4657612f456131ab565b5b602082029050919050565b600067ffffffffffffffff821115612f6c57612f6b6131ab565b5b602082029050919050565b600067ffffffffffffffff821115612f9257612f916131ab565b5b602082029050602081019050919050565b6000819050602082019050919050565b6000819050919050565b6000819050919050565b6000819050602082019050919050565b600081519050919050565b600060029050919050565b600060089050919050565b600081519050919050565b600081519050919050565b600081519050919050565b6000602082019050919050565b6000602082019050919050565b6000602082019050919050565b6000602082019050919050565b600082825260208201905092915050565b600081905092915050565b600081905092915050565b600081905092915050565b600081905092915050565b600082825260208201905092915050565b60006130a68261310b565b9050919050565b60008115159050919050565b6000819050919050565b60006130ce8261309b565b9050919050565b60006130e08261309b565b9050919050565b60006130f28261309b565b9050919050565b60006131048261309b565b9050919050565b600073ffffffffffffffffffffffffffffffffffffffff82169050919050565b6000819050919050565b600060ff82169050919050565b600061314d82613154565b9050919050565b600061315f8261310b565b9050919050565b600061317182613135565b9050919050565b60005b8381101561319657808201518184015260208101905061317b565b838111156131a5576000848401525b50505050565bfe5b6000601f19601f8301169050919050565b6131c78161309b565b81146131d257600080fd5b50565b6131de816130ad565b81146131e957600080fd5b50565b6131f5816130b9565b811461320057600080fd5b50565b61320c816130c3565b811461321757600080fd5b50565b613223816130d5565b811461322e57600080fd5b50565b61323a816130e7565b811461324557600080fd5b50565b613251816130f9565b811461325c57600080fd5b50565b6132688161312b565b811461327357600080fd5b50565b61327f81613135565b811461328a57600080fd5b5056fea2646970667358221220b778ecec474e455d92b3e3fe685721a9aa401e2d023717cbfc81c48c30677d0664736f6c63430007020033",
  "linkReferences": {},
  "deployedLinkReferences": {}
}