{
  "_format": "hh-sol-artifact-1",
  "contractName": "FreeForAllGatekeeper",
  "sourceName": "contracts/gatekeepers/FreeForAllSignUpGatekeeper.sol",
  "abi": [
    {
      "inputs": [
        {
          "internalType": "address",
          "name": "",
          "type": "address"
        },
        {
          "internalType": "bytes",
          "name": "",
          "type": "bytes"
        }
      ],
      "name": "register",
      "outputs": [],
      "stateMutability": "nonpayable",
      "type": "function"
    }
  ],
  "bytecode": "0x608060405234801561001057600080fd5b50610145806100206000396000f3fe608060405234801561001057600080fd5b506004361061002b5760003560e01c806324b8fbf614610030575b600080fd5b6101096004803603604081101561004657600080fd5b81019080803573ffffffffffffffffffffffffffffffffffffffff1690602001909291908035906020019064010000000081111561008357600080fd5b82018360208201111561009557600080fd5b803590602001918460018302840111640100000000831117156100b757600080fd5b91908080601f016020809104026020016040519081016040528093929190818152602001838380828437600081840152601f19601f82011690508083019250505050505050919291929050505061010b565b005b505056fea2646970667358221220c817eb63c09c5b5e3536b4b49e683a22f80209e82ded4b19d88771e8c5251da764736f6c63430007020033",
  "linkReferences": {},
  "deployedLinkReferences": {}
}