{
  "_format": "hh-sol-artifact-1",
  "contractName": "VkRegistry",
  "sourceName": "contracts/VkRegistry.sol",
  "abi": [
    {
      "anonymous": false,
      "inputs": [
        {
          "indexed": true,
          "internalType": "address",
          "name": "previousOwner",
          "type": "address"
        },
        {
          "indexed": true,
          "internalType": "address",
          "name": "newOwner",
          "type": "address"
        }
      ],
      "name": "OwnershipTransferred",
      "type": "event"
    },
    {
      "inputs": [
        {
          "internalType": "uint256",
          "name": "_stateTreeDepth",
          "type": "uint256"
        },
        {
          "internalType": "uint256",
          "name": "_messageTreeDepth",
          "type": "uint256"
        },
        {
          "internalType": "uint256",
          "name": "_voteOptionTreeDepth",
          "type": "uint256"
        },
        {
          "internalType": "uint256",
          "name": "_messageBatchSize",
          "type": "uint256"
        }
      ],
      "name": "genProcessVkSig",
      "outputs": [
        {
          "internalType": "uint256",
          "name": "",
          "type": "uint256"
        }
      ],
      "stateMutability": "pure",
      "type": "function"
    },
    {
      "inputs": [
        {
          "internalType": "uint256",
          "name": "_stateTreeDepth",
          "type": "uint256"
        },
        {
          "internalType": "uint256",
          "name": "_intStateTreeDepth",
          "type": "uint256"
        },
        {
          "internalType": "uint256",
          "name": "_voteOptionTreeDepth",
          "type": "uint256"
        }
      ],
      "name": "genTallyVkSig",
      "outputs": [
        {
          "internalType": "uint256",
          "name": "",
          "type": "uint256"
        }
      ],
      "stateMutability": "pure",
      "type": "function"
    },
    {
      "inputs": [
        {
          "internalType": "uint256",
          "name": "_stateTreeDepth",
          "type": "uint256"
        },
        {
          "internalType": "uint256",
          "name": "_messageTreeDepth",
          "type": "uint256"
        },
        {
          "internalType": "uint256",
          "name": "_voteOptionTreeDepth",
          "type": "uint256"
        },
        {
          "internalType": "uint256",
          "name": "_messageBatchSize",
          "type": "uint256"
        }
      ],
      "name": "getProcessVk",
      "outputs": [
        {
          "components": [
            {
              "components": [
                {
                  "internalType": "uint256",
                  "name": "x",
                  "type": "uint256"
                },
                {
                  "internalType": "uint256",
                  "name": "y",
                  "type": "uint256"
                }
              ],
              "internalType": "struct Pairing.G1Point",
              "name": "alpha1",
              "type": "tuple"
            },
            {
              "components": [
                {
                  "internalType": "uint256[2]",
                  "name": "x",
                  "type": "uint256[2]"
                },
                {
                  "internalType": "uint256[2]",
                  "name": "y",
                  "type": "uint256[2]"
                }
              ],
              "internalType": "struct Pairing.G2Point",
              "name": "beta2",
              "type": "tuple"
            },
            {
              "components": [
                {
                  "internalType": "uint256[2]",
                  "name": "x",
                  "type": "uint256[2]"
                },
                {
                  "internalType": "uint256[2]",
                  "name": "y",
                  "type": "uint256[2]"
                }
              ],
              "internalType": "struct Pairing.G2Point",
              "name": "gamma2",
              "type": "tuple"
            },
            {
              "components": [
                {
                  "internalType": "uint256[2]",
                  "name": "x",
                  "type": "uint256[2]"
                },
                {
                  "internalType": "uint256[2]",
                  "name": "y",
                  "type": "uint256[2]"
                }
              ],
              "internalType": "struct Pairing.G2Point",
              "name": "delta2",
              "type": "tuple"
            },
            {
              "components": [
                {
                  "internalType": "uint256",
                  "name": "x",
                  "type": "uint256"
                },
                {
                  "internalType": "uint256",
                  "name": "y",
                  "type": "uint256"
                }
              ],
              "internalType": "struct Pairing.G1Point[]",
              "name": "ic",
              "type": "tuple[]"
            }
          ],
          "internalType": "struct SnarkCommon.VerifyingKey",
          "name": "",
          "type": "tuple"
        }
      ],
      "stateMutability": "view",
      "type": "function"
    },
    {
      "inputs": [
        {
          "internalType": "uint256",
          "name": "_sig",
          "type": "uint256"
        }
      ],
      "name": "getProcessVkBySig",
      "outputs": [
        {
          "components": [
            {
              "components": [
                {
                  "internalType": "uint256",
                  "name": "x",
                  "type": "uint256"
                },
                {
                  "internalType": "uint256",
                  "name": "y",
                  "type": "uint256"
                }
              ],
              "internalType": "struct Pairing.G1Point",
              "name": "alpha1",
              "type": "tuple"
            },
            {
              "components": [
                {
                  "internalType": "uint256[2]",
                  "name": "x",
                  "type": "uint256[2]"
                },
                {
                  "internalType": "uint256[2]",
                  "name": "y",
                  "type": "uint256[2]"
                }
              ],
              "internalType": "struct Pairing.G2Point",
              "name": "beta2",
              "type": "tuple"
            },
            {
              "components": [
                {
                  "internalType": "uint256[2]",
                  "name": "x",
                  "type": "uint256[2]"
                },
                {
                  "internalType": "uint256[2]",
                  "name": "y",
                  "type": "uint256[2]"
                }
              ],
              "internalType": "struct Pairing.G2Point",
              "name": "gamma2",
              "type": "tuple"
            },
            {
              "components": [
                {
                  "internalType": "uint256[2]",
                  "name": "x",
                  "type": "uint256[2]"
                },
                {
                  "internalType": "uint256[2]",
                  "name": "y",
                  "type": "uint256[2]"
                }
              ],
              "internalType": "struct Pairing.G2Point",
              "name": "delta2",
              "type": "tuple"
            },
            {
              "components": [
                {
                  "internalType": "uint256",
                  "name": "x",
                  "type": "uint256"
                },
                {
                  "internalType": "uint256",
                  "name": "y",
                  "type": "uint256"
                }
              ],
              "internalType": "struct Pairing.G1Point[]",
              "name": "ic",
              "type": "tuple[]"
            }
          ],
          "internalType": "struct SnarkCommon.VerifyingKey",
          "name": "",
          "type": "tuple"
        }
      ],
      "stateMutability": "view",
      "type": "function"
    },
    {
      "inputs": [
        {
          "internalType": "uint256",
          "name": "_stateTreeDepth",
          "type": "uint256"
        },
        {
          "internalType": "uint256",
          "name": "_intStateTreeDepth",
          "type": "uint256"
        },
        {
          "internalType": "uint256",
          "name": "_voteOptionTreeDepth",
          "type": "uint256"
        }
      ],
      "name": "getTallyVk",
      "outputs": [
        {
          "components": [
            {
              "components": [
                {
                  "internalType": "uint256",
                  "name": "x",
                  "type": "uint256"
                },
                {
                  "internalType": "uint256",
                  "name": "y",
                  "type": "uint256"
                }
              ],
              "internalType": "struct Pairing.G1Point",
              "name": "alpha1",
              "type": "tuple"
            },
            {
              "components": [
                {
                  "internalType": "uint256[2]",
                  "name": "x",
                  "type": "uint256[2]"
                },
                {
                  "internalType": "uint256[2]",
                  "name": "y",
                  "type": "uint256[2]"
                }
              ],
              "internalType": "struct Pairing.G2Point",
              "name": "beta2",
              "type": "tuple"
            },
            {
              "components": [
                {
                  "internalType": "uint256[2]",
                  "name": "x",
                  "type": "uint256[2]"
                },
                {
                  "internalType": "uint256[2]",
                  "name": "y",
                  "type": "uint256[2]"
                }
              ],
              "internalType": "struct Pairing.G2Point",
              "name": "gamma2",
              "type": "tuple"
            },
            {
              "components": [
                {
                  "internalType": "uint256[2]",
                  "name": "x",
                  "type": "uint256[2]"
                },
                {
                  "internalType": "uint256[2]",
                  "name": "y",
                  "type": "uint256[2]"
                }
              ],
              "internalType": "struct Pairing.G2Point",
              "name": "delta2",
              "type": "tuple"
            },
            {
              "components": [
                {
                  "internalType": "uint256",
                  "name": "x",
                  "type": "uint256"
                },
                {
                  "internalType": "uint256",
                  "name": "y",
                  "type": "uint256"
                }
              ],
              "internalType": "struct Pairing.G1Point[]",
              "name": "ic",
              "type": "tuple[]"
            }
          ],
          "internalType": "struct SnarkCommon.VerifyingKey",
          "name": "",
          "type": "tuple"
        }
      ],
      "stateMutability": "view",
      "type": "function"
    },
    {
      "inputs": [
        {
          "internalType": "uint256",
          "name": "_sig",
          "type": "uint256"
        }
      ],
      "name": "getTallyVkBySig",
      "outputs": [
        {
          "components": [
            {
              "components": [
                {
                  "internalType": "uint256",
                  "name": "x",
                  "type": "uint256"
                },
                {
                  "internalType": "uint256",
                  "name": "y",
                  "type": "uint256"
                }
              ],
              "internalType": "struct Pairing.G1Point",
              "name": "alpha1",
              "type": "tuple"
            },
            {
              "components": [
                {
                  "internalType": "uint256[2]",
                  "name": "x",
                  "type": "uint256[2]"
                },
                {
                  "internalType": "uint256[2]",
                  "name": "y",
                  "type": "uint256[2]"
                }
              ],
              "internalType": "struct Pairing.G2Point",
              "name": "beta2",
              "type": "tuple"
            },
            {
              "components": [
                {
                  "internalType": "uint256[2]",
                  "name": "x",
                  "type": "uint256[2]"
                },
                {
                  "internalType": "uint256[2]",
                  "name": "y",
                  "type": "uint256[2]"
                }
              ],
              "internalType": "struct Pairing.G2Point",
              "name": "gamma2",
              "type": "tuple"
            },
            {
              "components": [
                {
                  "internalType": "uint256[2]",
                  "name": "x",
                  "type": "uint256[2]"
                },
                {
                  "internalType": "uint256[2]",
                  "name": "y",
                  "type": "uint256[2]"
                }
              ],
              "internalType": "struct Pairing.G2Point",
              "name": "delta2",
              "type": "tuple"
            },
            {
              "components": [
                {
                  "internalType": "uint256",
                  "name": "x",
                  "type": "uint256"
                },
                {
                  "internalType": "uint256",
                  "name": "y",
                  "type": "uint256"
                }
              ],
              "internalType": "struct Pairing.G1Point[]",
              "name": "ic",
              "type": "tuple[]"
            }
          ],
          "internalType": "struct SnarkCommon.VerifyingKey",
          "name": "",
          "type": "tuple"
        }
      ],
      "stateMutability": "view",
      "type": "function"
    },
    {
      "inputs": [
        {
          "internalType": "uint256",
          "name": "_stateTreeDepth",
          "type": "uint256"
        },
        {
          "internalType": "uint256",
          "name": "_messageTreeDepth",
          "type": "uint256"
        },
        {
          "internalType": "uint256",
          "name": "_voteOptionTreeDepth",
          "type": "uint256"
        },
        {
          "internalType": "uint256",
          "name": "_messageBatchSize",
          "type": "uint256"
        }
      ],
      "name": "hasProcessVk",
      "outputs": [
        {
          "internalType": "bool",
          "name": "",
          "type": "bool"
        }
      ],
      "stateMutability": "view",
      "type": "function"
    },
    {
      "inputs": [
        {
          "internalType": "uint256",
          "name": "_stateTreeDepth",
          "type": "uint256"
        },
        {
          "internalType": "uint256",
          "name": "_intStateTreeDepth",
          "type": "uint256"
        },
        {
          "internalType": "uint256",
          "name": "_voteOptionTreeDepth",
          "type": "uint256"
        }
      ],
      "name": "hasTallyVk",
      "outputs": [
        {
          "internalType": "bool",
          "name": "",
          "type": "bool"
        }
      ],
      "stateMutability": "view",
      "type": "function"
    },
    {
      "inputs": [
        {
          "internalType": "uint256",
          "name": "_sig",
          "type": "uint256"
        }
      ],
      "name": "isProcessVkSet",
      "outputs": [
        {
          "internalType": "bool",
          "name": "",
          "type": "bool"
        }
      ],
      "stateMutability": "view",
      "type": "function"
    },
    {
      "inputs": [
        {
          "internalType": "uint256",
          "name": "_sig",
          "type": "uint256"
        }
      ],
      "name": "isTallyVkSet",
      "outputs": [
        {
          "internalType": "bool",
          "name": "",
          "type": "bool"
        }
      ],
      "stateMutability": "view",
      "type": "function"
    },
    {
      "inputs": [],
      "name": "owner",
      "outputs": [
        {
          "internalType": "address",
          "name": "",
          "type": "address"
        }
      ],
      "stateMutability": "view",
      "type": "function"
    },
    {
      "inputs": [],
      "name": "renounceOwnership",
      "outputs": [],
      "stateMutability": "nonpayable",
      "type": "function"
    },
    {
      "inputs": [
        {
          "internalType": "uint256",
          "name": "_stateTreeDepth",
          "type": "uint256"
        },
        {
          "internalType": "uint256",
          "name": "_intStateTreeDepth",
          "type": "uint256"
        },
        {
          "internalType": "uint256",
          "name": "_messageTreeDepth",
          "type": "uint256"
        },
        {
          "internalType": "uint256",
          "name": "_voteOptionTreeDepth",
          "type": "uint256"
        },
        {
          "internalType": "uint256",
          "name": "_messageBatchSize",
          "type": "uint256"
        },
        {
          "components": [
            {
              "components": [
                {
                  "internalType": "uint256",
                  "name": "x",
                  "type": "uint256"
                },
                {
                  "internalType": "uint256",
                  "name": "y",
                  "type": "uint256"
                }
              ],
              "internalType": "struct Pairing.G1Point",
              "name": "alpha1",
              "type": "tuple"
            },
            {
              "components": [
                {
                  "internalType": "uint256[2]",
                  "name": "x",
                  "type": "uint256[2]"
                },
                {
                  "internalType": "uint256[2]",
                  "name": "y",
                  "type": "uint256[2]"
                }
              ],
              "internalType": "struct Pairing.G2Point",
              "name": "beta2",
              "type": "tuple"
            },
            {
              "components": [
                {
                  "internalType": "uint256[2]",
                  "name": "x",
                  "type": "uint256[2]"
                },
                {
                  "internalType": "uint256[2]",
                  "name": "y",
                  "type": "uint256[2]"
                }
              ],
              "internalType": "struct Pairing.G2Point",
              "name": "gamma2",
              "type": "tuple"
            },
            {
              "components": [
                {
                  "internalType": "uint256[2]",
                  "name": "x",
                  "type": "uint256[2]"
                },
                {
                  "internalType": "uint256[2]",
                  "name": "y",
                  "type": "uint256[2]"
                }
              ],
              "internalType": "struct Pairing.G2Point",
              "name": "delta2",
              "type": "tuple"
            },
            {
              "components": [
                {
                  "internalType": "uint256",
                  "name": "x",
                  "type": "uint256"
                },
                {
                  "internalType": "uint256",
                  "name": "y",
                  "type": "uint256"
                }
              ],
              "internalType": "struct Pairing.G1Point[]",
              "name": "ic",
              "type": "tuple[]"
            }
          ],
          "internalType": "struct SnarkCommon.VerifyingKey",
          "name": "_processVk",
          "type": "tuple"
        },
        {
          "components": [
            {
              "components": [
                {
                  "internalType": "uint256",
                  "name": "x",
                  "type": "uint256"
                },
                {
                  "internalType": "uint256",
                  "name": "y",
                  "type": "uint256"
                }
              ],
              "internalType": "struct Pairing.G1Point",
              "name": "alpha1",
              "type": "tuple"
            },
            {
              "components": [
                {
                  "internalType": "uint256[2]",
                  "name": "x",
                  "type": "uint256[2]"
                },
                {
                  "internalType": "uint256[2]",
                  "name": "y",
                  "type": "uint256[2]"
                }
              ],
              "internalType": "struct Pairing.G2Point",
              "name": "beta2",
              "type": "tuple"
            },
            {
              "components": [
                {
                  "internalType": "uint256[2]",
                  "name": "x",
                  "type": "uint256[2]"
                },
                {
                  "internalType": "uint256[2]",
                  "name": "y",
                  "type": "uint256[2]"
                }
              ],
              "internalType": "struct Pairing.G2Point",
              "name": "gamma2",
              "type": "tuple"
            },
            {
              "components": [
                {
                  "internalType": "uint256[2]",
                  "name": "x",
                  "type": "uint256[2]"
                },
                {
                  "internalType": "uint256[2]",
                  "name": "y",
                  "type": "uint256[2]"
                }
              ],
              "internalType": "struct Pairing.G2Point",
              "name": "delta2",
              "type": "tuple"
            },
            {
              "components": [
                {
                  "internalType": "uint256",
                  "name": "x",
                  "type": "uint256"
                },
                {
                  "internalType": "uint256",
                  "name": "y",
                  "type": "uint256"
                }
              ],
              "internalType": "struct Pairing.G1Point[]",
              "name": "ic",
              "type": "tuple[]"
            }
          ],
          "internalType": "struct SnarkCommon.VerifyingKey",
          "name": "_tallyVk",
          "type": "tuple"
        }
      ],
      "name": "setVerifyingKeys",
      "outputs": [],
      "stateMutability": "nonpayable",
      "type": "function"
    },
    {
      "inputs": [
        {
          "internalType": "address",
          "name": "newOwner",
          "type": "address"
        }
      ],
      "name": "transferOwnership",
      "outputs": [],
      "stateMutability": "nonpayable",
      "type": "function"
    }
  ],
  "bytecode": "0x608060405234801561001057600080fd5b5060006100216100c460201b60201c565b9050806000806101000a81548173ffffffffffffffffffffffffffffffffffffffff021916908373ffffffffffffffffffffffffffffffffffffffff1602179055508073ffffffffffffffffffffffffffffffffffffffff16600073ffffffffffffffffffffffffffffffffffffffff167f8be0079c531659141344cd1fd0a4f28419497f9722a3daafe3b4186f6b6457e060405160405180910390a3506100cc565b600033905090565b611eba806100db6000396000f3fe608060405234801561001057600080fd5b50600436106100ea5760003560e01c80638da5cb5b1161008c578063ba2ff7ab11610066578063ba2ff7ab14610283578063c7c8beec146102b3578063db9f755b146102e3578063f2fde38b14610313576100ea565b80638da5cb5b14610219578063abc61c6b14610237578063b2e3953014610253576100ea565b8063257752d3116100c8578063257752d31461017f57806326960517146101af5780634f1b0e5f146101df578063715018a61461020f576100ea565b80630bfbd4fe146100ef57806317b7f8101461011f5780631afe11ef1461014f575b600080fd5b6101096004803603810190610104919061169e565b61032f565b6040516101169190611cd5565b60405180910390f35b61013960048036038101906101349190611626565b61035b565b6040516101469190611bfa565b60405180910390f35b6101696004803603810190610164919061164f565b610385565b6040516101769190611cf7565b60405180910390f35b61019960048036038101906101949190611626565b61039d565b6040516101a69190611bfa565b60405180910390f35b6101c960048036038101906101c4919061164f565b6103c7565b6040516101d69190611bfa565b60405180910390f35b6101f960048036038101906101f4919061169e565b610402565b6040516102069190611bfa565b60405180910390f35b61021761043f565b005b610221610592565b60405161022e9190611bdf565b60405180910390f35b610251600480360381019061024c9190611701565b6105bb565b005b61026d6004803603810190610268919061169e565b610a76565b60405161027a9190611cf7565b60405180910390f35b61029d60048036038101906102989190611626565b610a95565b6040516102aa9190611cd5565b60405180910390f35b6102cd60048036038101906102c8919061164f565b610d9e565b6040516102da9190611cd5565b60405180910390f35b6102fd60048036038101906102f89190611626565b610dc8565b60405161030a9190611cd5565b60405180910390f35b61032d600480360381019061032891906115fd565b6110d1565b005b61033761129b565b600061034586868686610a76565b905061035081610a95565b915050949350505050565b60006004600083815260200190815260200160002060009054906101000a900460ff169050919050565b600081604084901b608086901b010190509392505050565b60006002600083815260200190815260200160002060009054906101000a900460ff169050919050565b6000806103d5858585610385565b90506004600082815260200190815260200160002060009054906101000a900460ff169150509392505050565b60008061041186868686610a76565b90506002600082815260200190815260200160002060009054906101000a900460ff16915050949350505050565b610447611293565b73ffffffffffffffffffffffffffffffffffffffff1660008054906101000a900473ffffffffffffffffffffffffffffffffffffffff1673ffffffffffffffffffffffffffffffffffffffff16146104d4576040517f08c379a00000000000000000000000000000000000000000000000000000000081526004016104cb90611c95565b60405180910390fd5b600073ffffffffffffffffffffffffffffffffffffffff1660008054906101000a900473ffffffffffffffffffffffffffffffffffffffff1673ffffffffffffffffffffffffffffffffffffffff167f8be0079c531659141344cd1fd0a4f28419497f9722a3daafe3b4186f6b6457e060405160405180910390a360008060006101000a81548173ffffffffffffffffffffffffffffffffffffffff021916908373ffffffffffffffffffffffffffffffffffffffff160217905550565b60008060009054906101000a900473ffffffffffffffffffffffffffffffffffffffff16905090565b6105c3611293565b73ffffffffffffffffffffffffffffffffffffffff1660008054906101000a900473ffffffffffffffffffffffffffffffffffffffff1673ffffffffffffffffffffffffffffffffffffffff1614610650576040517f08c379a000000000000000000000000000000000000000000000000000000000815260040161064790611c95565b60405180910390fd5b600061065e88878787610a76565b9050600015156002600083815260200190815260200160002060009054906101000a900460ff161515146106c7576040517f08c379a00000000000000000000000000000000000000000000000000000000081526004016106be90611c55565b60405180910390fd5b60006106d4898988610385565b9050600015156004600083815260200190815260200160002060009054906101000a900460ff1615151461073d576040517f08c379a000000000000000000000000000000000000000000000000000000000815260040161073490611c35565b60405180910390fd5b600060016000848152602001908152602001600020905084600001518160000160008201518160000155602082015181600101559050508460200151816002016000820151816000019060026107949291906112e2565b506020820151816002019060026107ac9291906112e2565b509050508460400151816006016000820151816000019060026107d09291906112e2565b506020820151816002019060026107e89291906112e2565b50905050846060015181600a0160008201518160000190600261080c9291906112e2565b506020820151816002019060026108249291906112e2565b5090505060005b8560800151518160ff1610156108a65781600e0186608001518260ff168151811061085257fe5b6020026020010151908060018154018082558091505060019003906000526020600020906002020160009091909190915060008201518160000155602082015181600101555050808060010191505061082b565b5060016002600085815260200190815260200160002060006101000a81548160ff0219169083151502179055506000600360008481526020019081526020016000209050846000015181600001600082015181600001556020820151816001015590505084602001518160020160008201518160000190600261092a9291906112e2565b506020820151816002019060026109429291906112e2565b509050508460400151816006016000820151816000019060026109669291906112e2565b5060208201518160020190600261097e9291906112e2565b50905050846060015181600a016000820151816000019060026109a29291906112e2565b506020820151816002019060026109ba9291906112e2565b5090505060005b8560800151518160ff161015610a3c5781600e0186608001518260ff16815181106109e857fe5b602002602001015190806001815401808255809150506001900390600052602060002090600202016000909190919091506000820151816000015560208201518160010155505080806001019150506109c1565b5060016004600085815260200190815260200160002060006101000a81548160ff0219169083151502179055505050505050505050505050565b600082604085901b608087901b60c085901b0101019050949350505050565b610a9d61129b565b600115156002600084815260200190815260200160002060009054906101000a900460ff16151514610b04576040517f08c379a0000000000000000000000000000000000000000000000000000000008152600401610afb90611cb5565b60405180910390fd5b600160008381526020019081526020016000206040518060a0016040529081600082016040518060400160405290816000820154815260200160018201548152505081526020016002820160405180604001604052908160008201600280602002604051908101604052809291908260028015610b96576020028201915b815481526020019060010190808311610b82575b5050505050815260200160028201600280602002604051908101604052809291908260028015610bdb576020028201915b815481526020019060010190808311610bc7575b50505050508152505081526020016006820160405180604001604052908160008201600280602002604051908101604052809291908260028015610c34576020028201915b815481526020019060010190808311610c20575b5050505050815260200160028201600280602002604051908101604052809291908260028015610c79576020028201915b815481526020019060010190808311610c65575b5050505050815250508152602001600a820160405180604001604052908160008201600280602002604051908101604052809291908260028015610cd2576020028201915b815481526020019060010190808311610cbe575b5050505050815260200160028201600280602002604051908101604052809291908260028015610d17576020028201915b815481526020019060010190808311610d03575b5050505050815250508152602001600e8201805480602002602001604051908101604052809291908181526020016000905b82821015610d8f57838290600052602060002090600202016040518060400160405290816000820154815260200160018201548152505081526020019060010190610d49565b50505050815250509050919050565b610da661129b565b6000610db3858585610385565b9050610dbe81610dc8565b9150509392505050565b610dd061129b565b600115156004600084815260200190815260200160002060009054906101000a900460ff16151514610e37576040517f08c379a0000000000000000000000000000000000000000000000000000000008152600401610e2e90611c75565b60405180910390fd5b600360008381526020019081526020016000206040518060a0016040529081600082016040518060400160405290816000820154815260200160018201548152505081526020016002820160405180604001604052908160008201600280602002604051908101604052809291908260028015610ec9576020028201915b815481526020019060010190808311610eb5575b5050505050815260200160028201600280602002604051908101604052809291908260028015610f0e576020028201915b815481526020019060010190808311610efa575b50505050508152505081526020016006820160405180604001604052908160008201600280602002604051908101604052809291908260028015610f67576020028201915b815481526020019060010190808311610f53575b5050505050815260200160028201600280602002604051908101604052809291908260028015610fac576020028201915b815481526020019060010190808311610f98575b5050505050815250508152602001600a820160405180604001604052908160008201600280602002604051908101604052809291908260028015611005576020028201915b815481526020019060010190808311610ff1575b505050505081526020016002820160028060200260405190810160405280929190826002801561104a576020028201915b815481526020019060010190808311611036575b5050505050815250508152602001600e8201805480602002602001604051908101604052809291908181526020016000905b828210156110c25783829060005260206000209060020201604051806040016040529081600082015481526020016001820154815250508152602001906001019061107c565b50505050815250509050919050565b6110d9611293565b73ffffffffffffffffffffffffffffffffffffffff1660008054906101000a900473ffffffffffffffffffffffffffffffffffffffff1673ffffffffffffffffffffffffffffffffffffffff1614611166576040517f08c379a000000000000000000000000000000000000000000000000000000000815260040161115d90611c95565b60405180910390fd5b600073ffffffffffffffffffffffffffffffffffffffff168173ffffffffffffffffffffffffffffffffffffffff1614156111d6576040517f08c379a00000000000000000000000000000000000000000000000000000000081526004016111cd90611c15565b60405180910390fd5b8073ffffffffffffffffffffffffffffffffffffffff1660008054906101000a900473ffffffffffffffffffffffffffffffffffffffff1673ffffffffffffffffffffffffffffffffffffffff167f8be0079c531659141344cd1fd0a4f28419497f9722a3daafe3b4186f6b6457e060405160405180910390a3806000806101000a81548173ffffffffffffffffffffffffffffffffffffffff021916908373ffffffffffffffffffffffffffffffffffffffff16021790555050565b600033905090565b6040518060a001604052806112ae611322565b81526020016112bb61133c565b81526020016112c861133c565b81526020016112d561133c565b8152602001606081525090565b8260028101928215611311579160200282015b828111156113105782518255916020019190600101906112f5565b5b50905061131e9190611362565b5090565b604051806040016040528060008152602001600081525090565b604051806040016040528061134f61137f565b815260200161135c61137f565b81525090565b5b8082111561137b576000816000905550600101611363565b5090565b6040518060400160405280600290602082028036833780820191505090505090565b6000813590506113b081611e56565b92915050565b600082601f8301126113c757600080fd5b81356113da6113d582611d43565b611d12565b915081818352602084019350602081019050838560408402820111156113ff57600080fd5b60005b8381101561142f578161141588826114ad565b845260208401935060408301925050600181019050611402565b5050505092915050565b600082601f83011261144a57600080fd5b600261145d61145882611d6f565b611d12565b9150818385602084028201111561147357600080fd5b60005b838110156114a3578161148988826115e8565b845260208401935060208301925050600181019050611476565b5050505092915050565b6000604082840312156114bf57600080fd5b6114c96040611d12565b905060006114d9848285016115e8565b60008301525060206114ed848285016115e8565b60208301525092915050565b60006080828403121561150b57600080fd5b6115156040611d12565b9050600061152584828501611439565b600083015250604061153984828501611439565b60208301525092915050565b60006101e0828403121561155857600080fd5b61156260a0611d12565b90506000611572848285016114ad565b6000830152506040611586848285016114f9565b60208301525060c061159a848285016114f9565b6040830152506101406115af848285016114f9565b6060830152506101c082013567ffffffffffffffff8111156115d057600080fd5b6115dc848285016113b6565b60808301525092915050565b6000813590506115f781611e6d565b92915050565b60006020828403121561160f57600080fd5b600061161d848285016113a1565b91505092915050565b60006020828403121561163857600080fd5b6000611646848285016115e8565b91505092915050565b60008060006060848603121561166457600080fd5b6000611672868287016115e8565b9350506020611683868287016115e8565b9250506040611694868287016115e8565b9150509250925092565b600080600080608085870312156116b457600080fd5b60006116c2878288016115e8565b94505060206116d3878288016115e8565b93505060406116e4878288016115e8565b92505060606116f5878288016115e8565b91505092959194509250565b600080600080600080600060e0888a03121561171c57600080fd5b600061172a8a828b016115e8565b975050602061173b8a828b016115e8565b965050604061174c8a828b016115e8565b955050606061175d8a828b016115e8565b945050608061176e8a828b016115e8565b93505060a088013567ffffffffffffffff81111561178b57600080fd5b6117978a828b01611545565b92505060c088013567ffffffffffffffff8111156117b457600080fd5b6117c08a828b01611545565b91505092959891949750929550565b60006117db8383611aea565b60408301905092915050565b60006117f38383611bc1565b60208301905092915050565b61180881611e0c565b82525050565b600061181982611daf565b6118238185611ddf565b935061182e83611d95565b8060005b8381101561185f57815161184688826117cf565b975061185183611dc5565b925050600181019050611832565b5085935050505092915050565b61187581611dba565b61187f8184611df0565b925061188a82611da5565b8060005b838110156118bb5781516118a287826117e7565b96506118ad83611dd2565b92505060018101905061188e565b505050505050565b6118cc81611e1e565b82525050565b60006118df602683611dfb565b91507f4f776e61626c653a206e6577206f776e657220697320746865207a65726f206160008301527f64647265737300000000000000000000000000000000000000000000000000006020830152604082019050919050565b6000611945602083611dfb565b91507f566b52656769737472793a2074616c6c7920766b20616c7265616479207365746000830152602082019050919050565b6000611985602283611dfb565b91507f566b52656769737472793a2070726f6365737320766b20616c7265616479207360008301527f65740000000000000000000000000000000000000000000000000000000000006020830152604082019050919050565b60006119eb602783611dfb565b91507f566b52656769737472793a2074616c6c7920766572696679696e67206b65792060008301527f6e6f7420736574000000000000000000000000000000000000000000000000006020830152604082019050919050565b6000611a51602083611dfb565b91507f4f776e61626c653a2063616c6c6572206973206e6f7420746865206f776e65726000830152602082019050919050565b6000611a91602983611dfb565b91507f566b52656769737472793a2070726f6365737320766572696679696e67206b6560008301527f79206e6f742073657400000000000000000000000000000000000000000000006020830152604082019050919050565b604082016000820151611b006000850182611bc1565b506020820151611b136020850182611bc1565b50505050565b608082016000820151611b2f600085018261186c565b506020820151611b42604085018261186c565b50505050565b60006101e083016000830151611b616000860182611aea565b506020830151611b746040860182611b19565b506040830151611b8760c0860182611b19565b506060830151611b9b610140860182611b19565b5060808301518482036101c0860152611bb4828261180e565b9150508091505092915050565b611bca81611e4a565b82525050565b611bd981611e4a565b82525050565b6000602082019050611bf460008301846117ff565b92915050565b6000602082019050611c0f60008301846118c3565b92915050565b60006020820190508181036000830152611c2e816118d2565b9050919050565b60006020820190508181036000830152611c4e81611938565b9050919050565b60006020820190508181036000830152611c6e81611978565b9050919050565b60006020820190508181036000830152611c8e816119de565b9050919050565b60006020820190508181036000830152611cae81611a44565b9050919050565b60006020820190508181036000830152611cce81611a84565b9050919050565b60006020820190508181036000830152611cef8184611b48565b905092915050565b6000602082019050611d0c6000830184611bd0565b92915050565b6000604051905081810181811067ffffffffffffffff82111715611d3957611d38611e54565b5b8060405250919050565b600067ffffffffffffffff821115611d5e57611d5d611e54565b5b602082029050602081019050919050565b600067ffffffffffffffff821115611d8a57611d89611e54565b5b602082029050919050565b6000819050602082019050919050565b6000819050919050565b600081519050919050565b600060029050919050565b6000602082019050919050565b6000602082019050919050565b600082825260208201905092915050565b600081905092915050565b600082825260208201905092915050565b6000611e1782611e2a565b9050919050565b60008115159050919050565b600073ffffffffffffffffffffffffffffffffffffffff82169050919050565b6000819050919050565bfe5b611e5f81611e0c565b8114611e6a57600080fd5b50565b611e7681611e4a565b8114611e8157600080fd5b5056fea2646970667358221220bef8b066459dd46a0d146bc8075f5ab0399710cbea10d0816a639fa1b2fb083364736f6c63430007020033",
  "linkReferences": {},
  "deployedLinkReferences": {}
}