{
  "_format": "hh-sol-artifact-1",
  "contractName": "MessageAqFactory",
  "sourceName": "contracts/Poll.sol",
  "abi": [
    {
      "anonymous": false,
      "inputs": [
        {
          "indexed": true,
          "internalType": "address",
          "name": "previousOwner",
          "type": "address"
        },
        {
          "indexed": true,
          "internalType": "address",
          "name": "newOwner",
          "type": "address"
        }
      ],
      "name": "OwnershipTransferred",
      "type": "event"
    },
    {
      "inputs": [
        {
          "internalType": "uint256",
          "name": "_subDepth",
          "type": "uint256"
        }
      ],
      "name": "deploy",
      "outputs": [
        {
          "internalType": "contract AccQueue",
          "name": "",
          "type": "address"
        }
      ],
      "stateMutability": "nonpayable",
      "type": "function"
    },
    {
      "inputs": [],
      "name": "owner",
      "outputs": [
        {
          "internalType": "address",
          "name": "",
          "type": "address"
        }
      ],
      "stateMutability": "view",
      "type": "function"
    },
    {
      "inputs": [],
      "name": "renounceOwnership",
      "outputs": [],
      "stateMutability": "nonpayable",
      "type": "function"
    },
    {
      "inputs": [
        {
          "internalType": "address",
          "name": "newOwner",
          "type": "address"
        }
      ],
      "name": "transferOwnership",
      "outputs": [],
      "stateMutability": "nonpayable",
      "type": "function"
    }
  ],
  "bytecode": "0x608060405234801561001057600080fd5b5060006100216100c460201b60201c565b9050806000806101000a81548173ffffffffffffffffffffffffffffffffffffffff021916908373ffffffffffffffffffffffffffffffffffffffff1602179055508073ffffffffffffffffffffffffffffffffffffffff16600073ffffffffffffffffffffffffffffffffffffffff167f8be0079c531659141344cd1fd0a4f28419497f9722a3daafe3b4186f6b6457e060405160405180910390a3506100cc565b600033905090565b613ac9806100db6000396000f3fe60806040523480156200001157600080fd5b5060043610620000525760003560e01c8063715018a614620000575780638da5cb5b1462000063578063a5e387511462000085578063f2fde38b14620000bb575b600080fd5b62000061620000db565b005b6200006d62000233565b6040516200007c9190620006f9565b60405180910390f35b620000a360048036038101906200009d9190620005f0565b6200025c565b604051620000b2919062000716565b60405180910390f35b620000d96004803603810190620000d39190620005c4565b620003b6565b005b620000e562000580565b73ffffffffffffffffffffffffffffffffffffffff1660008054906101000a900473ffffffffffffffffffffffffffffffffffffffff1673ffffffffffffffffffffffffffffffffffffffff161462000175576040517f08c379a00000000000000000000000000000000000000000000000000000000081526004016200016c9062000755565b60405180910390fd5b600073ffffffffffffffffffffffffffffffffffffffff1660008054906101000a900473ffffffffffffffffffffffffffffffffffffffff1673ffffffffffffffffffffffffffffffffffffffff167f8be0079c531659141344cd1fd0a4f28419497f9722a3daafe3b4186f6b6457e060405160405180910390a360008060006101000a81548173ffffffffffffffffffffffffffffffffffffffff021916908373ffffffffffffffffffffffffffffffffffffffff160217905550565b60008060009054906101000a900473ffffffffffffffffffffffffffffffffffffffff16905090565b60006200026862000580565b73ffffffffffffffffffffffffffffffffffffffff1660008054906101000a900473ffffffffffffffffffffffffffffffffffffffff1673ffffffffffffffffffffffffffffffffffffffff1614620002f8576040517f08c379a0000000000000000000000000000000000000000000000000000000008152600401620002ef9062000755565b60405180910390fd5b600082604051620003099062000588565b62000315919062000777565b604051809103906000f08015801562000332573d6000803e3d6000fd5b5090508073ffffffffffffffffffffffffffffffffffffffff1663f2fde38b6200035b62000233565b6040518263ffffffff1660e01b8152600401620003799190620006f9565b600060405180830381600087803b1580156200039457600080fd5b505af1158015620003a9573d6000803e3d6000fd5b5050505080915050919050565b620003c062000580565b73ffffffffffffffffffffffffffffffffffffffff1660008054906101000a900473ffffffffffffffffffffffffffffffffffffffff1673ffffffffffffffffffffffffffffffffffffffff161462000450576040517f08c379a0000000000000000000000000000000000000000000000000000000008152600401620004479062000755565b60405180910390fd5b600073ffffffffffffffffffffffffffffffffffffffff168173ffffffffffffffffffffffffffffffffffffffff161415620004c3576040517f08c379a0000000000000000000000000000000000000000000000000000000008152600401620004ba9062000733565b60405180910390fd5b8073ffffffffffffffffffffffffffffffffffffffff1660008054906101000a900473ffffffffffffffffffffffffffffffffffffffff1673ffffffffffffffffffffffffffffffffffffffff167f8be0079c531659141344cd1fd0a4f28419497f9722a3daafe3b4186f6b6457e060405160405180910390a3806000806101000a81548173ffffffffffffffffffffffffffffffffffffffff021916908373ffffffffffffffffffffffffffffffffffffffff16021790555050565b600033905090565b613254806200084083390190565b600081359050620005a7816200080b565b92915050565b600081359050620005be8162000825565b92915050565b600060208284031215620005d757600080fd5b6000620005e78482850162000596565b91505092915050565b6000602082840312156200060357600080fd5b60006200061384828501620005ad565b91505092915050565b6200062781620007a5565b82525050565b6200063881620007e3565b82525050565b60006200064d60268362000794565b91507f4f776e61626c653a206e6577206f776e657220697320746865207a65726f206160008301527f64647265737300000000000000000000000000000000000000000000000000006020830152604082019050919050565b6000620006b560208362000794565b91507f4f776e61626c653a2063616c6c6572206973206e6f7420746865206f776e65726000830152602082019050919050565b620006f381620007d9565b82525050565b60006020820190506200071060008301846200061c565b92915050565b60006020820190506200072d60008301846200062d565b92915050565b600060208201905081810360008301526200074e816200063e565b9050919050565b600060208201905081810360008301526200077081620006a6565b9050919050565b60006020820190506200078e6000830184620006e8565b92915050565b600082825260208201905092915050565b6000620007b282620007b9565b9050919050565b600073ffffffffffffffffffffffffffffffffffffffff82169050919050565b6000819050919050565b6000620007f082620007f7565b9050919050565b60006200080482620007b9565b9050919050565b6200081681620007a5565b81146200082257600080fd5b50565b6200083081620007d9565b81146200083c57600080fd5b5056fe60e06040523480156200001157600080fd5b506040516200325438038062003254833981810160405260208110156200003757600080fd5b81019080805190602001909291905050508080600560006200005e6200095160201b60201c565b9050806000806101000a81548173ffffffffffffffffffffffffffffffffffffffff021916908373ffffffffffffffffffffffffffffffffffffffff1602179055508073ffffffffffffffffffffffffffffffffffffffff16600073ffffffffffffffffffffffffffffffffffffffff167f8be0079c531659141344cd1fd0a4f28419497f9722a3daafe3b4186f6b6457e060405160405180910390a3506000821162000157576040517f08c379a00000000000000000000000000000000000000000000000000000000081526004018080602001828103825260278152602001806200322d6027913960400191505060405180910390fd5b6020821115620001b3576040517f08c379a000000000000000000000000000000000000000000000000000000000815260040180806020018281038252602e815260200180620031d2602e913960400191505060405180910390fd5b6002811480620001c35750600581145b6200021a576040517f08c379a000000000000000000000000000000000000000000000000000000000815260040180806020018281038252602d81526020018062003200602d913960400191505060405180910390fd5b60028114600060146101000a81548160ff02191690831515021790555081608081815250508060a0818152505081810a60c081815250505050507f12817f4161f2f5ded33f26c55735a77e80e4f8975483c8c2704745128417f7116101726000602181106200028557fe5b01819055507f1c745b6722a9b9954b69b5a9050d7007d5ea7876a91f8b7606900fe4f3c27dd7610172600160218110620002bb57fe5b01819055507f07447748134d204ef2ab5036e2596ae75525a6e656c2518b7a479c0a582f1069610172600260218110620002f157fe5b01819055507f288f1cb6e72e7a6f0843345d3b5ba463d4d342e8dcedba8edf34f46ec397706f6101726003602181106200032757fe5b01819055507f2e84a4713bf4f66a79fa310f442c169114b19f85755cbd85caf4e9e75fbc75fb6101726004602181106200035d57fe5b01819055507f1c7ff9050a45b7ce5653fbbfd38e2919ae275da5e00f242957d8b241819195cd6101726005602181106200039357fe5b01819055507f0a25a1d78f420b1656e22f55400e07bab3d80c115532566a7007ca9a4586dab2610172600660218110620003c957fe5b01819055507f0f147d749cb9cc50ba3db2ac4cc9e6045d1bcafccb76eb3bd8f4d53019c4797e610172600760218110620003ff57fe5b01819055507f05cd01676fa9ec46d2544bd105729083b6af60e4fc14e56209cc4e38005760506101726008602181106200043557fe5b01819055507f11e6604fb2594cc2c139a2979c732bc3afd07c05333d892497673894aa3cf31c6101726009602181106200046b57fe5b01819055507f0902a68df274de8b1e013273d1b1a0b53f45239688149592fad1e1cfaf4d11de610172600a60218110620004a157fe5b01819055507f0e1109821e9745069f65894942ae9eaba5464a3d8700c6676fc3457c62ddd356610172600b60218110620004d757fe5b01819055507f23f4e23d57d2b986370eff740b59f633faed83877768e5bf0cdebf3242406419610172600c602181106200050d57fe5b01819055507f1ffdc33441e4ed70a9083afbccf0ad7f4b04a238399148ad0b264fc55501cd2c610172600d602181106200054357fe5b01819055507f0f94714ffb8eac6c789b5e87fa8730f831284191127778caa44735cd093a446c610172600e602181106200057957fe5b01819055507f11c2140af5215b7036baf194fc21379c3258196f2b538c1e14d7b4fe1e13c082610172600f60218110620005af57fe5b01819055507f10f574e6fe63aa64a74b8b3cb07be7bb25a690854adb44f6899c47155d678a79610172601060218110620005e557fe5b01819055507f1ee527f0b5144076313f736b2aa55fcd2136e56124c5655bb7df1cd61e3e3faa6101726011602181106200061b57fe5b01819055507f2523265fe50447a0c4b6bf88a371af94034ebb828a87f7e3009537395dfb32dc6101726012602181106200065157fe5b01819055507f1ed274e7d0facf51969d46f77b885abe581853f15d221677f91ff0ca3d796b986101726013602181106200068757fe5b01819055507f27e9744406711d6222b8e3156b872895f165b764e86c4c3369ae52a6025499f3610172601460218110620006bd57fe5b01819055507f23afbf7a5c7e390e86449e1e768bd8491343ca33b2285a7469ebc0253d62e3a4610172601560218110620006f357fe5b01819055507f07ad179e54b7163c74f261b4655bab5bc2734781d528e4b1135f82b06f3349b46101726016602181106200072957fe5b01819055507f13300bdf7d9200959145019010e4eb31e9e1db33aed6e87a48aad52c834509666101726017602181106200075f57fe5b01819055507f29b9b51eff3e1dd448419a0019ef8e7da0d569d0abcdf7782b466eecd9bad3776101726018602181106200079557fe5b01819055507f0e97d08c7d7d34dc3765f1ac6ec7a4cccc0ad34864d45e07234eeb2675599f76610172601960218110620007cb57fe5b01819055507f117d4aa74185dc55040c4e54e63062e1d32ec3cfc52e4c7a288b5cf14259e3d9610172601a602181106200080157fe5b01819055507f05e7ea8990bbb33252966e204bde1c42bc7166f57494904fc1a8620aea6361cd610172601b602181106200083757fe5b01819055507f03fa8d869c0e97b5d691a790e764ba717b25b9539fbdb6839b43f5d24bc71f73610172601c602181106200086d57fe5b01819055507f0a831e8a1a1e2a42177efcd3e926e5a4e4e2213f49f10d6c3c2e5e8564e44f74610172601d60218110620008a357fe5b01819055507f0ed3054277c164bc90d0a0018eae77e5872e1c048ebeae3c3ce1de6b3f7928a3610172601e60218110620008d957fe5b01819055507f16e5b9d3cbc783115527c0f2164ce6ede3547e18dd7f3bceaa8c52f91283e970610172601f602181106200090f57fe5b01819055507f120bc6a73a89314c7cc707c153dca8160f9ae17aa482c2fb13d2dd28940e66d66101726020602181106200094557fe5b01819055505062000959565b600033905090565b60805160a05160c0516127ed620009e5600039806109a352806116cc52806118d35280611b6a5280611c7c5250806107ec5280610cc05280610d875280610f3452806119ca5280611f9b528061208c528061210352806123945250806109db5280610a495280610c905280611a005280611ba05280611bf45280611f56528061229352506127ed6000f3fe608060405234801561001057600080fd5b506004361061012c5760003560e01c8063715018a6116100ad578063c15da65b11610071578063c15da65b14610707578063d9c55ce114610735578063dda89a6e1461073f578063e93fb4d41461075d578063f2fde38b1461079f5761012c565b8063715018a6146105af57806386d238d9146105b95780638da5cb5b14610685578063b6a64acd146106b9578063c00bdbcc146106d95761012c565b80633e1a8cc1116100f45780633e1a8cc1146102e15780634d4ef74d146102ff5780634e9e97fa146103cb57806358bfc379146104975780635bb93995146105635761012c565b80631b9b8aa7146101315780631e1016fe146101735780631ffc735d1461023f57806324a47aeb146102815780633bfa6fce146102c3575b600080fd5b61015d6004803603602081101561014757600080fd5b81019080803590602001909291905050506107e3565b6040518082815260200191505060405180910390f35b6102296004803603602081101561018957600080fd5b81019080803590602001906401000000008111156101a657600080fd5b8201836020820111156101b857600080fd5b803590602001918460208302840111640100000000831117156101da57600080fd5b919080806020026020016040519081016040528093929190818152602001838360200280828437600081840152601f19601f82011690508083019250505050505050919291929050505061087a565b6040518082815260200191505060405180910390f35b61026b6004803603602081101561025557600080fd5b810190808035906020019092919050505061094e565b6040518082815260200191505060405180910390f35b6102ad6004803603602081101561029757600080fd5b8101908080359060200190929190505050610aa2565b6040518082815260200191505060405180910390f35b6102cb610f1f565b6040518082815260200191505060405180910390f35b6102e9610f72565b6040518082815260200191505060405180910390f35b6103b56004803603602081101561031557600080fd5b810190808035906020019064010000000081111561033257600080fd5b82018360208201111561034457600080fd5b8035906020019184602083028401116401000000008311171561036657600080fd5b919080806020026020016040519081016040528093929190818152602001838360200280828437600081840152601f19601f820116905080830192505050505050509192919290505050610fe3565b6040518082815260200191505060405180910390f35b610481600480360360208110156103e157600080fd5b81019080803590602001906401000000008111156103fe57600080fd5b82018360208201111561041057600080fd5b8035906020019184602083028401116401000000008311171561043257600080fd5b919080806020026020016040519081016040528093929190818152602001838360200280828437600081840152601f19601f8201169050808301925050505050505091929192905050506110b7565b6040518082815260200191505060405180910390f35b61054d600480360360208110156104ad57600080fd5b81019080803590602001906401000000008111156104ca57600080fd5b8201836020820111156104dc57600080fd5b803590602001918460208302840111640100000000831117156104fe57600080fd5b919080806020026020016040519081016040528093929190818152602001838360200280828437600081840152601f19601f82011690508083019250505050505050919291929050505061118b565b6040518082815260200191505060405180910390f35b6105996004803603604081101561057957600080fd5b8101908080359060200190929190803590602001909291905050506112aa565b6040518082815260200191505060405180910390f35b6105b761133e565b005b61066f600480360360208110156105cf57600080fd5b81019080803590602001906401000000008111156105ec57600080fd5b8201836020820111156105fe57600080fd5b8035906020019184602083028401116401000000008311171561062057600080fd5b919080806020026020016040519081016040528093929190818152602001838360200280828437600081840152601f19601f8201169050808301925050505050505091929192905050506114c4565b6040518082815260200191505060405180910390f35b61068d611598565b604051808273ffffffffffffffffffffffffffffffffffffffff16815260200191505060405180910390f35b6106c16115c1565b60405180821515815260200191505060405180910390f35b610705600480360360208110156106ef57600080fd5b81019080803590602001909291905050506115d5565b005b6107336004803603602081101561071d57600080fd5b8101908080359060200190929190505050611721565b005b61073d611a9e565b005b610747611cca565b6040518082815260200191505060405180910390f35b6107896004803603602081101561077357600080fd5b8101908080359060200190929190505050611cd1565b6040518082815260200191505060405180910390f35b6107e1600480360360208110156107b557600080fd5b81019080803573ffffffffffffffffffffffffffffffffffffffff169060200190929190505050611d49565b005b600061017154827f00000000000000000000000000000000000000000000000000000000000000000a1015610863576040517f08c379a00000000000000000000000000000000000000000000000000000000081526004018080602001828103825260318152602001806127876031913960400191505060405180910390fd5b61014d826021811061087157fe5b01549050919050565b600073__$9b3049adcf18347c4fcd511e1429cbc37d$__63c4420fb4836040518263ffffffff1660e01b81526004018080602001828103825283818151815260200191508051906020019060200280838360005b838110156108e95780820151818401526020810190506108ce565b505050509050019250505060206040518083038186803b15801561090c57600080fd5b505af4158015610920573d6000803e3d6000fd5b505050506040513d602081101561093657600080fd5b81019080805190602001909291905050509050919050565b600080610171549050610962836000611f54565b600181016101718190555061014d600061097c91906125b5565b61016f60009055600061016e60006101000a81548160ff02191690831515021790555060007f000000000000000000000000000000000000000000000000000000000000000061017154816109cd57fe5b061415610a995760026000017f000000000000000000000000000000000000000000000000000000000000000060218110610a0457fe5b60040201600060048110610a1457fe5b015461014c600060015481526020019081526020016000208190555060016000815480929190600101919050555060026000017f000000000000000000000000000000000000000000000000000000000000000060218110610a7257fe5b60040201600060048110610a8257fe5b016000905560026084016000610a9891906125b5565b5b80915050919050565b6000610aac612044565b73ffffffffffffffffffffffffffffffffffffffff1660008054906101000a900473ffffffffffffffffffffffffffffffffffffffff1673ffffffffffffffffffffffffffffffffffffffff1614610b6c576040517f08c379a00000000000000000000000000000000000000000000000000000000081526004018080602001828103825260208152602001807f4f776e61626c653a2063616c6c6572206973206e6f7420746865206f776e657281525060200191505060405180910390fd5b60008211610bc5576040517f08c379a00000000000000000000000000000000000000000000000000000000081526004018080602001828103825260248152602001806127636024913960400191505060405180910390fd5b6001151561016e60009054906101000a900460ff16151514610c32576040517f08c379a00000000000000000000000000000000000000000000000000000000081526004018080602001828103825260388152602001806126b96038913960400191505060405180910390fd5b6020821115610c8c576040517f08c379a00000000000000000000000000000000000000000000000000000000081526004018080602001828103825260268152602001806126626026913960400191505060405180910390fd5b60007f000000000000000000000000000000000000000000000000000000000000000090505b600115610cf75761017154817f00000000000000000000000000000000000000000000000000000000000000000a10610cea57610cf7565b8080600101915050610cb2565b80831015610d50576040517f08c379a000000000000000000000000000000000000000000000000000000000815260040180806020018281038252602a815260200180612739602a913960400191505060405180910390fd5b80831415610d7b5761016f5461014d8460218110610d6a57fe5b018190555061016f54915050610f1a565b600061016f54905060607f000000000000000000000000000000000000000000000000000000000000000067ffffffffffffffff81118015610dbc57600080fd5b50604051908082528060200260200182016040528015610deb5781602001602082028036833780820191505090505b50905060008390505b85811015610efe576000610e078261204c565b9050600060149054906101000a900460ff1615610e62578383600081518110610e2c57fe5b6020026020010181815250508083600181518110610e4657fe5b602002602001018181525050610e5b83610fe3565b9350610ef0565b8383600081518110610e7057fe5b6020026020010181815250508083600181518110610e8a57fe5b6020026020010181815250508083600281518110610ea457fe5b6020026020010181815250508083600381518110610ebe57fe5b6020026020010181815250508083600481518110610ed857fe5b602002602001018181525050610eed836114c4565b93505b508080600101915050610df4565b508161014d8660218110610f0e57fe5b01819055508193505050505b919050565b600080600190505b600115610f6b57600154817f00000000000000000000000000000000000000000000000000000000000000000a10610f5e57610f6b565b8080600101915050610f27565b8091505090565b600061016e60009054906101000a900460ff16610fda576040517f08c379a00000000000000000000000000000000000000000000000000000000081526004018080602001828103825260278152602001806127126027913960400191505060405180910390fd5b61016f54905090565b600073__$d4acaf6f169a2634c49d403ce7efde36fd$__63c4420fb4836040518263ffffffff1660e01b81526004018080602001828103825283818151815260200191508051906020019060200280838360005b83811015611052578082015181840152602081019050611037565b505050509050019250505060206040518083038186803b15801561107557600080fd5b505af4158015611089573d6000803e3d6000fd5b505050506040513d602081101561109f57600080fd5b81019080805190602001909291905050509050919050565b600073__$584f44aaf914c42633951b34ceb432be31$__63c4420fb4836040518263ffffffff1660e01b81526004018080602001828103825283818151815260200191508051906020019060200280838360005b8381101561112657808201518184015260208101905061110b565b505050509050019250505060206040518083038186803b15801561114957600080fd5b505af415801561115d573d6000803e3d6000fd5b505050506040513d602081101561117357600080fd5b81019080805190602001909291905050509050919050565b60007f30644e72e131a029b85045b68181585d2833e84879b9709143e1f593f000000160028360405160200180828051906020019060200280838360005b838110156111e45780820151818401526020810190506111c9565b505050509050019150506040516020818303038152906040526040518082805190602001908083835b60208310611230578051825260208201915060208101905060208303925061120d565b6001836020036101000a038019825116818451168082178552505050505050905001915050602060405180830381855afa158015611272573d6000803e3d6000fd5b5050506040513d602081101561128757600080fd5b810190808051906020019092919050505060001c816112a257fe5b069050919050565b60006060600267ffffffffffffffff811180156112c657600080fd5b506040519080825280602002602001820160405280156112f55781602001602082028036833780820191505090505b509050838160008151811061130657fe5b602002602001018181525050828160018151811061132057fe5b60200260200101818152505061133581610fe3565b91505092915050565b611346612044565b73ffffffffffffffffffffffffffffffffffffffff1660008054906101000a900473ffffffffffffffffffffffffffffffffffffffff1673ffffffffffffffffffffffffffffffffffffffff1614611406576040517f08c379a00000000000000000000000000000000000000000000000000000000081526004018080602001828103825260208152602001807f4f776e61626c653a2063616c6c6572206973206e6f7420746865206f776e657281525060200191505060405180910390fd5b600073ffffffffffffffffffffffffffffffffffffffff1660008054906101000a900473ffffffffffffffffffffffffffffffffffffffff1673ffffffffffffffffffffffffffffffffffffffff167f8be0079c531659141344cd1fd0a4f28419497f9722a3daafe3b4186f6b6457e060405160405180910390a360008060006101000a81548173ffffffffffffffffffffffffffffffffffffffff021916908373ffffffffffffffffffffffffffffffffffffffff160217905550565b600073__$2a5b9c44d836f7997ae51e8d308a712a39$__63c4420fb4836040518263ffffffff1660e01b81526004018080602001828103825283818151815260200191508051906020019060200280838360005b83811015611533578082015181840152602081019050611518565b505050509050019250505060206040518083038186803b15801561155657600080fd5b505af415801561156a573d6000803e3d6000fd5b505050506040513d602081101561158057600080fd5b81019080805190602001909291905050509050919050565b60008060009054906101000a900473ffffffffffffffffffffffffffffffffffffffff16905090565b61016e60009054906101000a900460ff1681565b6115dd612044565b73ffffffffffffffffffffffffffffffffffffffff1660008054906101000a900473ffffffffffffffffffffffffffffffffffffffff1673ffffffffffffffffffffffffffffffffffffffff161461169d576040517f08c379a00000000000000000000000000000000000000000000000000000000081526004018080602001828103825260208152602001807f4f776e61626c653a2063616c6c6572206973206e6f7420746865206f776e657281525060200191505060405180910390fd5b8061014c60006001548152602001908152602001600020819055506001600081548092919060010191905055507f00000000000000000000000000000000000000000000000000000000000000006101716000828254019250508190555061016f60009055600061016e60006101000a81548160ff02191690831515021790555050565b611729612044565b73ffffffffffffffffffffffffffffffffffffffff1660008054906101000a900473ffffffffffffffffffffffffffffffffffffffff1673ffffffffffffffffffffffffffffffffffffffff16146117e9576040517f08c379a00000000000000000000000000000000000000000000000000000000081526004018080602001828103825260208152602001807f4f776e61626c653a2063616c6c6572206973206e6f7420746865206f776e657281525060200191505060405180910390fd5b6000151561016e60009054906101000a900460ff16151514611856576040517f08c379a00000000000000000000000000000000000000000000000000000000081526004018080602001828103825260218152602001806126f16021913960400191505060405180910390fd5b600061017154116118cf576040517f08c379a000000000000000000000000000000000000000000000000000000000815260040180806020018281038252601a8152602001807f41636351756575653a206e6f7468696e6720746f206d6572676500000000000081525060200191505060405180910390fd5b60007f000000000000000000000000000000000000000000000000000000000000000061017154816118fd57fe5b061461190c5761190b611a9e565b5b600180541415611948576119206000611cd1565b61016f81905550600161016e60006101000a81548160ff021916908315150217905550611a9b565b6000611952610f1f565b90506000806101705490505b6001548110156119c4576000841415801561197857508382145b1561198557505050611a9b565b61199c61199461017054611cd1565b600085612065565b610170600081548092919060010191905055508180600101925050808060010191505061195e565b506000827f00000000000000000000000000000000000000000000000000000000000000000a9050600154610170541415611a52576000611a247f000000000000000000000000000000000000000000000000000000000000000061204c565b9050600060015490505b82811015611a4f57611a4282600087612065565b8080600101915050611a2e565b50505b60a76000018360218110611a6257fe5b60040201600060048110611a7257fe5b015461016f81905550600161016e60006101000a81548160ff0219169083151502179055505050505b50565b611aa6612044565b73ffffffffffffffffffffffffffffffffffffffff1660008054906101000a900473ffffffffffffffffffffffffffffffffffffffff1673ffffffffffffffffffffffffffffffffffffffff1614611b66576040517f08c379a00000000000000000000000000000000000000000000000000000000081526004018080602001828103825260208152602001807f4f776e61626c653a2063616c6c6572206973206e6f7420746865206f776e657281525060200191505060405180910390fd5b60007f00000000000000000000000000000000000000000000000000000000000000006101715481611b9457fe5b061415611be357611bc47f000000000000000000000000000000000000000000000000000000000000000061204c565b61014c6000600154815260200190815260200160002081905550611c6a565b611bed6000612291565b60026000017f000000000000000000000000000000000000000000000000000000000000000060218110611c1d57fe5b60040201600060048110611c2d57fe5b015461014c600060015481526020019081526020016000208190555060026000016000611c5a91906125c8565b61014d6000611c6991906125b5565b5b600060018054019050806001819055507f000000000000000000000000000000000000000000000000000000000000000081026101718190555061016f60009055600061016e60006101000a81548160ff02191690831515021790555050565b6101715481565b60008160015411611d2d576040517f08c379a00000000000000000000000000000000000000000000000000000000081526004018080602001828103825260318152602001806126886031913960400191505060405180910390fd5b61014c6000838152602001908152602001600020549050919050565b611d51612044565b73ffffffffffffffffffffffffffffffffffffffff1660008054906101000a900473ffffffffffffffffffffffffffffffffffffffff1673ffffffffffffffffffffffffffffffffffffffff1614611e11576040517f08c379a00000000000000000000000000000000000000000000000000000000081526004018080602001828103825260208152602001807f4f776e61626c653a2063616c6c6572206973206e6f7420746865206f776e657281525060200191505060405180910390fd5b600073ffffffffffffffffffffffffffffffffffffffff168173ffffffffffffffffffffffffffffffffffffffff161415611e97576040517f08c379a000000000000000000000000000000000000000000000000000000000815260040180806020018281038252602681526020018061263c6026913960400191505060405180910390fd5b8073ffffffffffffffffffffffffffffffffffffffff1660008054906101000a900473ffffffffffffffffffffffffffffffffffffffff1673ffffffffffffffffffffffffffffffffffffffff167f8be0079c531659141344cd1fd0a4f28419497f9722a3daafe3b4186f6b6457e060405160405180910390a3806000806101000a81548173ffffffffffffffffffffffffffffffffffffffff021916908373ffffffffffffffffffffffffffffffffffffffff16021790555050565b7f0000000000000000000000000000000000000000000000000000000000000000811115611f8157612040565b600060026084018260218110611f9357fe5b0154905060017f000000000000000000000000000000000000000000000000000000000000000003811461200c578260026000018360218110611fd257fe5b600402018260048110611fe157fe5b018190555060026084018260218110611ff657fe5b016000815480929190600101919050555061203e565b60006120188385612429565b90506002608401836021811061202a57fe5b016000905561203c8160018501611f54565b505b505b5050565b600033905090565b6000610172826021811061205c57fe5b01549050919050565b808211156120725761228c565b600060a7608401836021811061208457fe5b0154905060017f00000000000000000000000000000000000000000000000000000000000000000381146120fd578360a760000184602181106120c357fe5b6004020182600481106120d257fe5b018190555060a760840183602181106120e757fe5b016000815480929190600101919050555061228a565b600060607f000000000000000000000000000000000000000000000000000000000000000067ffffffffffffffff8111801561213857600080fd5b506040519080825280602002602001820160405280156121675781602001602082028036833780820191505090505b509050600060149054906101000a900460ff16156121e45760a7600001856021811061218f57fe5b6004020160006004811061219f57fe5b0154816000815181106121ae57fe5b60200260200101818152505085816001815181106121c857fe5b6020026020010181815250506121dd81610fe3565b9150612264565b60005b838160ff16101561223e5760a7600001866021811061220257fe5b600402018160ff166004811061221457fe5b0154828260ff168151811061222557fe5b60200260200101818152505080806001019150506121e7565b508581848151811061224c57fe5b602002602001018181525050612261816114c4565b91505b60a7608401856021811061227457fe5b0160009055612287826001870186612065565b50505b505b505050565b7f00000000000000000000000000000000000000000000000000000000000000008111156122be57612426565b6000600260840182602181106122d057fe5b01549050600081146124185760006060600567ffffffffffffffff811180156122f857600080fd5b506040519080825280602002602001820160405280156123275781602001602082028036833780820191505090505b50905060006123358561204c565b905060005b848160ff161015612391576002600001866021811061235557fe5b600402018160ff166004811061236757fe5b0154838260ff168151811061237857fe5b602002602001018181525050808060010191505061233a565b5b7f00000000000000000000000000000000000000000000000000000000000000008160ff1610156123e65781838260ff16815181106123cd57fe5b6020026020010181815250508080600101915050612392565b6123ef836114c4565b93506123fe8460018801611f54565b6002608401866021811061240e57fe5b0160009055505050505b61242460018301612291565b505b50565b60006060600567ffffffffffffffff8111801561244557600080fd5b506040519080825280602002602001820160405280156124745781602001602082028036833780820191505090505b5090506002600001846021811061248757fe5b6004020160006004811061249757fe5b0154816000815181106124a657fe5b602002602001018181525050600260000184602181106124c257fe5b600402016001600481106124d257fe5b0154816001815181106124e157fe5b602002602001018181525050600260000184602181106124fd57fe5b6004020160026004811061250d57fe5b01548160028151811061251c57fe5b6020026020010181815250506002600001846021811061253857fe5b6004020160036004811061254857fe5b01548160038151811061255757fe5b602002602001018181525050828160048151811061257157fe5b6020026020010181815250506000612588826114c4565b90506002600001856021811061259a57fe5b6004020160006125aa91906125de565b809250505092915050565b5080602101906125c591906125fa565b50565b5080602160040201906125db9190612617565b50565b5060008155600101600081556001016000815560010160009055565b5b808211156126135760008160009055506001016125fb565b5090565b5b80821115612637576000818161262e91906125de565b50600401612618565b509056fe4f776e61626c653a206e6577206f776e657220697320746865207a65726f206164647265737341636351756575653a205f6465707468206d757374206265206c7465204d41585f444550544841636351756575653a205f696e646578206d75737420726566657220746f206120636f6d706c657465207375627472656541636351756575653a207375627472656573206d757374206265206d6572676564206265666f72652063616c6c696e67206d65726765282941636351756575653a20737562747265657320616c7265616479206d657267656441636351756575653a207375627472656573206d757374206265206d657267656420666972737441636351756575653a205f6465707468206d75737420626520677465207468652053525420646570746841636351756575653a205f6465707468206d757374206265206d6f7265207468616e203041636351756575653a206765744d61696e526f6f743a205f6465707468206d757374206265206869676820656e6f756768a26469706673582212203859b2a0e74162b2bfe7f11ec5c2a631846e3745cc852f5d204cbc58beec804664736f6c6343000702003341636351756575653a206f6e6c7920737570706f72747320757020746f204d41585f4445505448206c6576656c7341636351756575653a206f6e6c7920737570706f727473205f686173684c656e677468206f662032206f72203541636351756575653a205f7375624465707468206d757374206265206d6f7265207468616e2030a26469706673582212206e03b8ab8dc4493fd893b1a4ec6700cbd9bfb53865b82dfdd4038186e202c8b364736f6c63430007020033",
  "linkReferences": {
    "contracts/crypto/Hasher.sol": {
      "PoseidonT3": [
        {
          "length": 20,
          "start": 8935
        }
      ],
      "PoseidonT4": [
        {
          "length": 20,
          "start": 7038
        }
      ],
      "PoseidonT5": [
        {
          "length": 20,
          "start": 9147
        }
      ],
      "PoseidonT6": [
        {
          "length": 20,
          "start": 10184
        }
      ]
    }
  },
  "deployedLinkReferences": {
    "contracts/crypto/Hasher.sol": {
      "PoseidonT3": [
        {
          "length": 20,
          "start": 8716
        }
      ],
      "PoseidonT4": [
        {
          "length": 20,
          "start": 6819
        }
      ],
      "PoseidonT5": [
        {
          "length": 20,
          "start": 8928
        }
      ],
      "PoseidonT6": [
        {
          "length": 20,
          "start": 9965
        }
      ]
    }
  }
}