{
  "_format": "hh-sol-artifact-1",
  "contractName": "Poll",
  "sourceName": "contracts/Poll.sol",
  "abi": [
    {
      "inputs": [
        {
          "internalType": "uint256",
          "name": "_duration",
          "type": "uint256"
        },
        {
          "internalType": "uint8",
          "name": "_stateTreeDepth",
          "type": "uint8"
        },
        {
          "components": [
            {
              "internalType": "uint256",
              "name": "maxMessages",
              "type": "uint256"
            },
            {
              "internalType": "uint256",
              "name": "maxVoteOptions",
              "type": "uint256"
            }
          ],
          "internalType": "struct Params.MaxValues",
          "name": "_maxValues",
          "type": "tuple"
        },
        {
          "components": [
            {
              "internalType": "uint8",
              "name": "intStateTreeDepth",
              "type": "uint8"
            },
            {
              "internalType": "uint8",
              "name": "messageTreeSubDepth",
              "type": "uint8"
            },
            {
              "internalType": "uint8",
              "name": "messageTreeDepth",
              "type": "uint8"
            },
            {
              "internalType": "uint8",
              "name": "voteOptionTreeDepth",
              "type": "uint8"
            }
          ],
          "internalType": "struct Params.TreeDepths",
          "name": "_treeDepths",
          "type": "tuple"
        },
        {
          "components": [
            {
              "internalType": "uint8",
              "name": "messageBatchSize",
              "type": "uint8"
            },
            {
              "internalType": "uint8",
              "name": "tallyBatchSize",
              "type": "uint8"
            }
          ],
          "internalType": "struct Params.BatchSizes",
          "name": "_batchSizes",
          "type": "tuple"
        },
        {
          "components": [
            {
              "internalType": "uint256",
              "name": "x",
              "type": "uint256"
            },
            {
              "internalType": "uint256",
              "name": "y",
              "type": "uint256"
            }
          ],
          "internalType": "struct IPubKey.PubKey",
          "name": "_coordinatorPubKey",
          "type": "tuple"
        },
        {
          "components": [
            {
              "internalType": "contract VkRegistry",
              "name": "vkRegistry",
              "type": "address"
            },
            {
              "internalType": "contract IMACI",
              "name": "maci",
              "type": "address"
            },
            {
              "internalType": "contract AccQueue",
              "name": "messageAq",
              "type": "address"
            }
          ],
          "internalType": "struct PollDeploymentParams.ExtContracts",
          "name": "_extContracts",
          "type": "tuple"
        },
        {
          "internalType": "contract PollProcessorAndTallyer",
          "name": "_ppt",
          "type": "address"
        }
      ],
      "stateMutability": "nonpayable",
      "type": "constructor"
    },
    {
      "anonymous": false,
      "inputs": [
        {
          "indexed": false,
          "internalType": "uint256",
          "name": "_stateRoot",
          "type": "uint256"
        }
      ],
      "name": "MergeMaciStateAq",
      "type": "event"
    },
    {
      "anonymous": false,
      "inputs": [
        {
          "indexed": false,
          "internalType": "uint256",
          "name": "_numSrQueueOps",
          "type": "uint256"
        }
      ],
      "name": "MergeMaciStateAqSubRoots",
      "type": "event"
    },
    {
      "anonymous": false,
      "inputs": [
        {
          "indexed": false,
          "internalType": "uint256",
          "name": "root",
          "type": "uint256"
        }
      ],
      "name": "MergeMessageAq",
      "type": "event"
    },
    {
      "anonymous": false,
      "inputs": [
        {
          "indexed": false,
          "internalType": "uint256",
          "name": "_numSrQueueOps",
          "type": "uint256"
        }
      ],
      "name": "MergeMessageAqSubRoots",
      "type": "event"
    },
    {
      "anonymous": false,
      "inputs": [
        {
          "indexed": true,
          "internalType": "address",
          "name": "previousOwner",
          "type": "address"
        },
        {
          "indexed": true,
          "internalType": "address",
          "name": "newOwner",
          "type": "address"
        }
      ],
      "name": "OwnershipTransferred",
      "type": "event"
    },
    {
      "anonymous": false,
      "inputs": [
        {
          "components": [
            {
              "internalType": "uint256",
              "name": "iv",
              "type": "uint256"
            },
            {
              "internalType": "uint256[7]",
              "name": "data",
              "type": "uint256[7]"
            }
          ],
          "indexed": false,
          "internalType": "struct IMessage.Message",
          "name": "_message",
          "type": "tuple"
        },
        {
          "components": [
            {
              "internalType": "uint256",
              "name": "x",
              "type": "uint256"
            },
            {
              "internalType": "uint256",
              "name": "y",
              "type": "uint256"
            }
          ],
          "indexed": false,
          "internalType": "struct IPubKey.PubKey",
          "name": "_encPubKey",
          "type": "tuple"
        }
      ],
      "name": "PublishMessage",
      "type": "event"
    },
    {
      "inputs": [
        {
          "internalType": "uint256",
          "name": "_messageSubRoot",
          "type": "uint256"
        }
      ],
      "name": "batchEnqueueMessage",
      "outputs": [],
      "stateMutability": "nonpayable",
      "type": "function"
    },
    {
      "inputs": [],
      "name": "batchSizes",
      "outputs": [
        {
          "internalType": "uint8",
          "name": "messageBatchSize",
          "type": "uint8"
        },
        {
          "internalType": "uint8",
          "name": "tallyBatchSize",
          "type": "uint8"
        }
      ],
      "stateMutability": "view",
      "type": "function"
    },
    {
      "inputs": [],
      "name": "coordinatorPubKey",
      "outputs": [
        {
          "internalType": "uint256",
          "name": "x",
          "type": "uint256"
        },
        {
          "internalType": "uint256",
          "name": "y",
          "type": "uint256"
        }
      ],
      "stateMutability": "view",
      "type": "function"
    },
    {
      "inputs": [],
      "name": "currentSbCommitment",
      "outputs": [
        {
          "internalType": "uint256",
          "name": "",
          "type": "uint256"
        }
      ],
      "stateMutability": "view",
      "type": "function"
    },
    {
      "inputs": [],
      "name": "currentTallyCommitment",
      "outputs": [
        {
          "internalType": "uint256",
          "name": "",
          "type": "uint256"
        }
      ],
      "stateMutability": "view",
      "type": "function"
    },
    {
      "inputs": [],
      "name": "deployTime",
      "outputs": [
        {
          "internalType": "uint256",
          "name": "",
          "type": "uint256"
        }
      ],
      "stateMutability": "view",
      "type": "function"
    },
    {
      "inputs": [],
      "name": "duration",
      "outputs": [
        {
          "internalType": "uint256",
          "name": "",
          "type": "uint256"
        }
      ],
      "stateMutability": "view",
      "type": "function"
    },
    {
      "inputs": [
        {
          "internalType": "uint256[]",
          "name": "array",
          "type": "uint256[]"
        }
      ],
      "name": "hash2",
      "outputs": [
        {
          "internalType": "uint256",
          "name": "",
          "type": "uint256"
        }
      ],
      "stateMutability": "pure",
      "type": "function"
    },
    {
      "inputs": [
        {
          "internalType": "uint256[]",
          "name": "array",
          "type": "uint256[]"
        }
      ],
      "name": "hash3",
      "outputs": [
        {
          "internalType": "uint256",
          "name": "",
          "type": "uint256"
        }
      ],
      "stateMutability": "pure",
      "type": "function"
    },
    {
      "inputs": [
        {
          "internalType": "uint256[]",
          "name": "array",
          "type": "uint256[]"
        }
      ],
      "name": "hash4",
      "outputs": [
        {
          "internalType": "uint256",
          "name": "",
          "type": "uint256"
        }
      ],
      "stateMutability": "pure",
      "type": "function"
    },
    {
      "inputs": [
        {
          "internalType": "uint256[]",
          "name": "array",
          "type": "uint256[]"
        }
      ],
      "name": "hash5",
      "outputs": [
        {
          "internalType": "uint256",
          "name": "",
          "type": "uint256"
        }
      ],
      "stateMutability": "pure",
      "type": "function"
    },
    {
      "inputs": [
        {
          "internalType": "uint256",
          "name": "_left",
          "type": "uint256"
        },
        {
          "internalType": "uint256",
          "name": "_right",
          "type": "uint256"
        }
      ],
      "name": "hashLeftRight",
      "outputs": [
        {
          "internalType": "uint256",
          "name": "",
          "type": "uint256"
        }
      ],
      "stateMutability": "pure",
      "type": "function"
    },
    {
      "inputs": [
        {
          "components": [
            {
              "internalType": "uint256",
              "name": "iv",
              "type": "uint256"
            },
            {
              "internalType": "uint256[7]",
              "name": "data",
              "type": "uint256[7]"
            }
          ],
          "internalType": "struct IMessage.Message",
          "name": "_message",
          "type": "tuple"
        }
      ],
      "name": "hashMessage",
      "outputs": [
        {
          "internalType": "uint256",
          "name": "",
          "type": "uint256"
        }
      ],
      "stateMutability": "pure",
      "type": "function"
    },
    {
      "inputs": [],
      "name": "maci",
      "outputs": [
        {
          "internalType": "contract IMACI",
          "name": "",
          "type": "address"
        }
      ],
      "stateMutability": "view",
      "type": "function"
    },
    {
      "inputs": [],
      "name": "maxValues",
      "outputs": [
        {
          "internalType": "uint256",
          "name": "maxMessages",
          "type": "uint256"
        },
        {
          "internalType": "uint256",
          "name": "maxVoteOptions",
          "type": "uint256"
        }
      ],
      "stateMutability": "view",
      "type": "function"
    },
    {
      "inputs": [
        {
          "internalType": "uint256",
          "name": "_pollId",
          "type": "uint256"
        }
      ],
      "name": "mergeMaciStateAq",
      "outputs": [],
      "stateMutability": "nonpayable",
      "type": "function"
    },
    {
      "inputs": [
        {
          "internalType": "uint256",
          "name": "_numSrQueueOps",
          "type": "uint256"
        },
        {
          "internalType": "uint256",
          "name": "_pollId",
          "type": "uint256"
        }
      ],
      "name": "mergeMaciStateAqSubRoots",
      "outputs": [],
      "stateMutability": "nonpayable",
      "type": "function"
    },
    {
      "inputs": [],
      "name": "mergeMessageAq",
      "outputs": [],
      "stateMutability": "nonpayable",
      "type": "function"
    },
    {
      "inputs": [
        {
          "internalType": "uint256",
          "name": "_numSrQueueOps",
          "type": "uint256"
        }
      ],
      "name": "mergeMessageAqSubRoots",
      "outputs": [],
      "stateMutability": "nonpayable",
      "type": "function"
    },
    {
      "inputs": [],
      "name": "messageAq",
      "outputs": [
        {
          "internalType": "contract AccQueue",
          "name": "",
          "type": "address"
        }
      ],
      "stateMutability": "view",
      "type": "function"
    },
    {
      "inputs": [],
      "name": "numMessages",
      "outputs": [
        {
          "internalType": "uint256",
          "name": "",
          "type": "uint256"
        }
      ],
      "stateMutability": "view",
      "type": "function"
    },
    {
      "inputs": [],
      "name": "numSignUps",
      "outputs": [
        {
          "internalType": "uint256",
          "name": "",
          "type": "uint256"
        }
      ],
      "stateMutability": "view",
      "type": "function"
    },
    {
      "inputs": [],
      "name": "owner",
      "outputs": [
        {
          "internalType": "address",
          "name": "",
          "type": "address"
        }
      ],
      "stateMutability": "view",
      "type": "function"
    },
    {
      "inputs": [],
      "name": "ppt",
      "outputs": [
        {
          "internalType": "contract PollProcessorAndTallyer",
          "name": "",
          "type": "address"
        }
      ],
      "stateMutability": "view",
      "type": "function"
    },
    {
      "inputs": [],
      "name": "processVkSig",
      "outputs": [
        {
          "internalType": "uint256",
          "name": "",
          "type": "uint256"
        }
      ],
      "stateMutability": "view",
      "type": "function"
    },
    {
      "inputs": [
        {
          "components": [
            {
              "internalType": "uint256",
              "name": "iv",
              "type": "uint256"
            },
            {
              "internalType": "uint256[7]",
              "name": "data",
              "type": "uint256[7]"
            }
          ],
          "internalType": "struct IMessage.Message",
          "name": "_message",
          "type": "tuple"
        },
        {
          "components": [
            {
              "internalType": "uint256",
              "name": "x",
              "type": "uint256"
            },
            {
              "internalType": "uint256",
              "name": "y",
              "type": "uint256"
            }
          ],
          "internalType": "struct IPubKey.PubKey",
          "name": "_encPubKey",
          "type": "tuple"
        }
      ],
      "name": "publishMessage",
      "outputs": [],
      "stateMutability": "nonpayable",
      "type": "function"
    },
    {
      "inputs": [],
      "name": "renounceOwnership",
      "outputs": [],
      "stateMutability": "nonpayable",
      "type": "function"
    },
    {
      "inputs": [
        {
          "internalType": "uint256[]",
          "name": "array",
          "type": "uint256[]"
        }
      ],
      "name": "sha256Hash",
      "outputs": [
        {
          "internalType": "uint256",
          "name": "",
          "type": "uint256"
        }
      ],
      "stateMutability": "pure",
      "type": "function"
    },
    {
      "inputs": [],
      "name": "stateAqMerged",
      "outputs": [
        {
          "internalType": "bool",
          "name": "",
          "type": "bool"
        }
      ],
      "stateMutability": "view",
      "type": "function"
    },
    {
      "inputs": [],
      "name": "tallyVkSig",
      "outputs": [
        {
          "internalType": "uint256",
          "name": "",
          "type": "uint256"
        }
      ],
      "stateMutability": "view",
      "type": "function"
    },
    {
      "inputs": [
        {
          "internalType": "address",
          "name": "newOwner",
          "type": "address"
        }
      ],
      "name": "transferOwnership",
      "outputs": [],
      "stateMutability": "nonpayable",
      "type": "function"
    },
    {
      "inputs": [],
      "name": "treeDepths",
      "outputs": [
        {
          "internalType": "uint8",
          "name": "intStateTreeDepth",
          "type": "uint8"
        },
        {
          "internalType": "uint8",
          "name": "messageTreeSubDepth",
          "type": "uint8"
        },
        {
          "internalType": "uint8",
          "name": "messageTreeDepth",
          "type": "uint8"
        },
        {
          "internalType": "uint8",
          "name": "voteOptionTreeDepth",
          "type": "uint8"
        }
      ],
      "stateMutability": "view",
      "type": "function"
    }
  ],
  "bytecode": "0x60806040527f17e1b6993b1af9f8dfe8d4202c2f2a610994ff19b92462f9a54da39d11026d6b6010553480156200003557600080fd5b5060405162003cf338038062003cf383398181016040528101906200005b9190620009ee565b60006200006d6200070c60201b60201c565b9050806000806101000a81548173ffffffffffffffffffffffffffffffffffffffff021916908373ffffffffffffffffffffffffffffffffffffffff1602179055508073ffffffffffffffffffffffffffffffffffffffff16600073ffffffffffffffffffffffffffffffffffffffff167f8be0079c531659141344cd1fd0a4f28419497f9722a3daafe3b4186f6b6457e060405160405180910390a3507f2f10f0b3abc1b9075c333d5d3907e99108d60025c648d36767409636be34350260016000600581106200013b57fe5b01819055507f24a802537971fca5e21eb7a00d53e8624d8c4522743d1e3d5bf6e075c68d2fbe600180600581106200016f57fe5b01819055507f1933612bcc57629280551e3eae4b708614d2f8011aa9d59f488b0aaad47f204d6001600260058110620001a457fe5b01819055507f194e0ebfa09d0bc50f0f6b4dd05f0acd487f8d639ef4d595875e8dfd86a085396001600360058110620001d957fe5b01819055507f0f2cf49e2ab11c47dbd697f96866191c104be42cc75e43c1a300369e3a58c8aa60016004600581106200020e57fe5b018190555060008260000151905060008360200151905060008460400151905085600660008201518160000155602082015181600101559050508a600981905550886013600082015181600001556020820151816001015590505086601660008201518160000160006101000a81548160ff021916908360ff16021790555060208201518160000160016101000a81548160ff021916908360ff16021790555090505087601560008201518160000160006101000a81548160ff021916908360ff16021790555060208201518160000160016101000a81548160ff021916908360ff16021790555060408201518160000160026101000a81548160ff021916908360ff16021790555060608201518160000160036101000a81548160ff021916908360ff16021790555090505081600c60006101000a81548173ffffffffffffffffffffffffffffffffffffffff021916908373ffffffffffffffffffffffffffffffffffffffff16021790555080600d60006101000a81548173ffffffffffffffffffffffffffffffffffffffff021916908373ffffffffffffffffffffffffffffffffffffffff16021790555060008373ffffffffffffffffffffffffffffffffffffffff1663b2e395308c8b604001518c606001518c600001516040518563ffffffff1660e01b81526004016200040c949392919062000b96565b60206040518083038186803b1580156200042557600080fd5b505afa1580156200043a573d6000803e3d6000fd5b505050506040513d601f19601f82011682018060405250810190620004609190620009c2565b905060008473ffffffffffffffffffffffffffffffffffffffff16631afe11ef8d8c600001518d606001516040518463ffffffff1660e01b8152600401620004ab9392919062000b59565b60206040518083038186803b158015620004c457600080fd5b505afa158015620004d9573d6000803e3d6000fd5b505050506040513d601f19601f82011682018060405250810190620004ff9190620009c2565b90508473ffffffffffffffffffffffffffffffffffffffff1663257752d3836040518263ffffffff1660e01b81526004016200053c919062000b3c565b60206040518083038186803b1580156200055557600080fd5b505afa1580156200056a573d6000803e3d6000fd5b505050506040513d601f19601f8201168201806040525081019062000590919062000996565b80156200062857508473ffffffffffffffffffffffffffffffffffffffff166317b7f810826040518263ffffffff1660e01b8152600401620005d3919062000b3c565b60206040518083038186803b158015620005ec57600080fd5b505afa15801562000601573d6000803e3d6000fd5b505050506040513d601f19601f8201168201806040525081019062000627919062000996565b5b6040518060400160405280600781526020017f506f6c6c4530310000000000000000000000000000000000000000000000000081525090620006a2576040517f08c379a000000000000000000000000000000000000000000000000000000000815260040162000699919062000b18565b60405180910390fd5b5081600a8190555080600b819055504260088190555085600e60006101000a81548173ffffffffffffffffffffffffffffffffffffffff021916908373ffffffffffffffffffffffffffffffffffffffff1602179055505050505050505050505050505062000ded565b600033905090565b600081519050620007258162000d37565b92915050565b6000815190506200073c8162000d51565b92915050565b600081519050620007538162000d6b565b92915050565b6000815190506200076a8162000d85565b92915050565b600081519050620007818162000d9f565b92915050565b6000604082840312156200079a57600080fd5b620007a6604062000be3565b90506000620007b8848285016200097f565b6000830152506020620007ce848285016200097f565b60208301525092915050565b600060608284031215620007ed57600080fd5b620007f9606062000be3565b905060006200080b8482850162000770565b6000830152506020620008218482850162000742565b602083015250604062000837848285016200072b565b60408301525092915050565b6000604082840312156200085657600080fd5b62000862604062000be3565b90506000620008748482850162000968565b60008301525060206200088a8482850162000968565b60208301525092915050565b600060408284031215620008a957600080fd5b620008b5604062000be3565b90506000620008c78482850162000968565b6000830152506020620008dd8482850162000968565b60208301525092915050565b600060808284031215620008fc57600080fd5b62000908608062000be3565b905060006200091a848285016200097f565b600083015250602062000930848285016200097f565b602083015250604062000946848285016200097f565b60408301525060606200095c848285016200097f565b60608301525092915050565b600081519050620009798162000db9565b92915050565b600081519050620009908162000dd3565b92915050565b600060208284031215620009a957600080fd5b6000620009b98482850162000714565b91505092915050565b600060208284031215620009d557600080fd5b6000620009e58482850162000968565b91505092915050565b600080600080600080600080610200898b03121562000a0c57600080fd5b600062000a1c8b828c0162000968565b985050602062000a2f8b828c016200097f565b975050604062000a428b828c0162000843565b965050608062000a558b828c01620008e9565b95505061010062000a698b828c0162000787565b94505061014062000a7d8b828c0162000896565b93505061018062000a918b828c01620007da565b9250506101e062000aa58b828c0162000759565b9150509295985092959890939650565b600062000ac28262000c17565b62000ace818562000c22565b935062000ae081856020860162000cee565b62000aeb8162000d26565b840191505092915050565b62000b018162000cc3565b82525050565b62000b128162000cda565b82525050565b6000602082019050818103600083015262000b34818462000ab5565b905092915050565b600060208201905062000b53600083018462000af6565b92915050565b600060608201905062000b70600083018662000b07565b62000b7f602083018562000b07565b62000b8e604083018462000b07565b949350505050565b600060808201905062000bad600083018762000b07565b62000bbc602083018662000b07565b62000bcb604083018562000b07565b62000bda606083018462000b07565b95945050505050565b6000604051905081810181811067ffffffffffffffff8211171562000c0d5762000c0c62000d24565b5b8060405250919050565b600081519050919050565b600082825260208201905092915050565b600062000c408262000ca3565b9050919050565b60008115159050919050565b600062000c608262000c33565b9050919050565b600062000c748262000c33565b9050919050565b600062000c888262000c33565b9050919050565b600062000c9c8262000c33565b9050919050565b600073ffffffffffffffffffffffffffffffffffffffff82169050919050565b6000819050919050565b600060ff82169050919050565b600062000ce78262000ccd565b9050919050565b60005b8381101562000d0e57808201518184015260208101905062000cf1565b8381111562000d1e576000848401525b50505050565bfe5b6000601f19601f8301169050919050565b62000d428162000c47565b811462000d4e57600080fd5b50565b62000d5c8162000c53565b811462000d6857600080fd5b50565b62000d768162000c67565b811462000d8257600080fd5b50565b62000d908162000c7b565b811462000d9c57600080fd5b50565b62000daa8162000c8f565b811462000db657600080fd5b50565b62000dc48162000cc3565b811462000dd057600080fd5b50565b62000dde8162000ccd565b811462000dea57600080fd5b50565b612ef68062000dfd6000396000f3fe608060405234801561001057600080fd5b50600436106101ee5760003560e01c8063776447941161010f578063a865cdd3116100a2578063c17268d911610071578063c17268d91461058c578063c642eb8b146105aa578063d1f46149146105c8578063f2fde38b146105e7576101ee565b8063a865cdd314610515578063ac98e5df14610531578063ae93a21214610552578063b5f38c811461056e576101ee565b80638ae8a05f116100de5780638ae8a05f1461049f5780638da5cb5b146104bd5780639c971729146104db578063a7594a30146104f7576101ee565b806377644794146104175780637a40624b1461043557806386d238d91461045357806386f3c3f714610483576101ee565b806334a0922c11610187578063591286ee11610156578063591286ee146103915780635bb93995146103c15780636737e7a6146103f1578063715018a61461040d576101ee565b806334a0922c146102e35780634d4ef74d146103015780634e9e97fa1461033157806358bfc37914610361576101ee565b80630fb5a6b4116101c35780630fb5a6b414610258578063122db153146102765780631e1016fe1461029457806331e766a5146102c4576101ee565b8062328792146101f3578062329f2f146102115780630396a0ce1461021b5780630f4cf6921461023a575b600080fd5b6101fb610603565b6040516102089190612a7d565b60405180910390f35b610219610629565b005b610223610842565b604051610231929190612b40565b60405180910390f35b610242610854565b60405161024f9190612b25565b60405180910390f35b61026061085a565b60405161026d9190612b25565b60405180910390f35b61027e610860565b60405161028b9190612b25565b60405180910390f35b6102ae60048036038101906102a991906124a0565b610866565b6040516102bb9190612b25565b60405180910390f35b6102cc6108f6565b6040516102da929190612b40565b60405180910390f35b6102eb610908565b6040516102f89190612a62565b60405180910390f35b61031b600480360381019061031691906124a0565b61092e565b6040516103289190612b25565b60405180910390f35b61034b600480360381019061034691906124a0565b6109be565b6040516103589190612b25565b60405180910390f35b61037b600480360381019061037691906124a0565b610a4e565b6040516103889190612b25565b60405180910390f35b6103ab60048036038101906103a6919061255c565b610af2565b6040516103b89190612b25565b60405180910390f35b6103db60048036038101906103d69190612616565b610cb8565b6040516103e89190612b25565b60405180910390f35b61040b60048036038101906104069190612586565b610d4c565b005b610415611030565b005b61041f611183565b60405161042c9190612b25565b60405180910390f35b61043d611189565b60405161044a9190612b25565b60405180910390f35b61046d600480360381019061046891906124a0565b61118f565b60405161047a9190612b25565b60405180910390f35b61049d60048036038101906104989190612616565b61121f565b005b6104a7611662565b6040516104b49190612a47565b60405180910390f35b6104c5611688565b6040516104d291906129ef565b60405180910390f35b6104f560048036038101906104f091906125c4565b6116b1565b005b6104ff611894565b60405161050c9190612b25565b60405180910390f35b61052f600480360381019061052a91906125c4565b61189a565b005b610539611a46565b6040516105499493929190612bad565b60405180910390f35b61056c600480360381019061056791906125c4565b611a98565b005b610576612054565b6040516105839190612a2c565b60405180910390f35b610594612067565b6040516105a19190612b25565b60405180910390f35b6105b261206d565b6040516105bf9190612b25565b60405180910390f35b6105d0612073565b6040516105de929190612b84565b60405180910390f35b61060160048036038101906105fc9190612477565b61209f565b005b600e60009054906101000a900473ffffffffffffffffffffffffffffffffffffffff1681565b610631612261565b73ffffffffffffffffffffffffffffffffffffffff1660008054906101000a900473ffffffffffffffffffffffffffffffffffffffff1673ffffffffffffffffffffffffffffffffffffffff16146106be576040517f08c379a00000000000000000000000000000000000000000000000000000000081526004016106b590612ada565b60405180910390fd5b60006008544203905060095481116040518060400160405280600781526020017f506f6c6c4530340000000000000000000000000000000000000000000000000081525090610743576040517f08c379a000000000000000000000000000000000000000000000000000000000815260040161073a9190612a98565b60405180910390fd5b506000600d60009054906101000a900473ffffffffffffffffffffffffffffffffffffffff1673ffffffffffffffffffffffffffffffffffffffff166324a47aeb601560000160029054906101000a900460ff166040518263ffffffff1660e01b81526004016107b39190612b69565b602060405180830381600087803b1580156107cd57600080fd5b505af11580156107e1573d6000803e3d6000fd5b505050506040513d601f19601f8201168201806040525081019061080591906125ed565b90507fc5624680ab5d50c84507f9e0dc2032163de2bda906ab8a661a53dd4d43bd5dc7816040516108369190612b25565b60405180910390a15050565b60138060000154908060010154905082565b60125481565b60095481565b60115481565b600073__$9b3049adcf18347c4fcd511e1429cbc37d$__63c4420fb4836040518263ffffffff1660e01b815260040161089f9190612a0a565b60206040518083038186803b1580156108b757600080fd5b505af41580156108cb573d6000803e3d6000fd5b505050506040513d601f19601f820116820180604052508101906108ef91906125ed565b9050919050565b60068060000154908060010154905082565b600c60009054906101000a900473ffffffffffffffffffffffffffffffffffffffff1681565b600073__$d4acaf6f169a2634c49d403ce7efde36fd$__63c4420fb4836040518263ffffffff1660e01b81526004016109679190612a0a565b60206040518083038186803b15801561097f57600080fd5b505af4158015610993573d6000803e3d6000fd5b505050506040513d601f19601f820116820180604052508101906109b791906125ed565b9050919050565b600073__$584f44aaf914c42633951b34ceb432be31$__63c4420fb4836040518263ffffffff1660e01b81526004016109f79190612a0a565b60206040518083038186803b158015610a0f57600080fd5b505af4158015610a23573d6000803e3d6000fd5b505050506040513d601f19601f82011682018060405250810190610a4791906125ed565b9050919050565b60007f30644e72e131a029b85045b68181585d2833e84879b9709143e1f593f0000001600283604051602001610a8491906129c1565b604051602081830303815290604052604051610aa091906129d8565b602060405180830381855afa158015610abd573d6000803e3d6000fd5b5050506040513d601f19601f82011682018060405250810190610ae0919061250a565b60001c81610aea57fe5b069050919050565b60006060600867ffffffffffffffff81118015610b0e57600080fd5b50604051908082528060200260200182016040528015610b3d5781602001602082028036833780820191505090505b509050826000015181600081518110610b5257fe5b6020026020010181815250508260200151600060078110610b6f57fe5b602002015181600181518110610b8157fe5b6020026020010181815250508260200151600160078110610b9e57fe5b602002015181600281518110610bb057fe5b6020026020010181815250508260200151600260078110610bcd57fe5b602002015181600381518110610bdf57fe5b6020026020010181815250508260200151600360078110610bfc57fe5b602002015181600481518110610c0e57fe5b6020026020010181815250508260200151600460078110610c2b57fe5b602002015181600581518110610c3d57fe5b6020026020010181815250508260200151600560078110610c5a57fe5b602002015181600681518110610c6c57fe5b6020026020010181815250508260200151600660078110610c8957fe5b602002015181600781518110610c9b57fe5b602002602001018181525050610cb081610a4e565b915050919050565b60006060600267ffffffffffffffff81118015610cd457600080fd5b50604051908082528060200260200182016040528015610d035781602001602082028036833780820191505090505b5090508381600081518110610d1457fe5b6020026020010181815250508281600181518110610d2e57fe5b602002602001018181525050610d438161092e565b91505092915050565b6000600854420390506009548111156040518060400160405280600781526020017f506f6c6c4530330000000000000000000000000000000000000000000000000081525090610dd2576040517f08c379a0000000000000000000000000000000000000000000000000000000008152600401610dc99190612a98565b60405180910390fd5b5060136000015460125411156040518060400160405280600781526020017f506f6c6c4530370000000000000000000000000000000000000000000000000081525090610e55576040517f08c379a0000000000000000000000000000000000000000000000000000000008152600401610e4c9190612a98565b60405180910390fd5b507f30644e72e131a029b85045b68181585d2833e84879b9709143e1f593f00000018260000151108015610eac57507f30644e72e131a029b85045b68181585d2833e84879b9709143e1f593f00000018260200151105b6040518060400160405280600781526020017f506f6c6c4530350000000000000000000000000000000000000000000000000081525090610f23576040517f08c379a0000000000000000000000000000000000000000000000000000000008152600401610f1a9190612a98565b60405180910390fd5b506000610f2f84610af2565b9050600d60009054906101000a900473ffffffffffffffffffffffffffffffffffffffff1673ffffffffffffffffffffffffffffffffffffffff16631ffc735d826040518263ffffffff1660e01b8152600401610f8c9190612b25565b602060405180830381600087803b158015610fa657600080fd5b505af1158015610fba573d6000803e3d6000fd5b505050506040513d601f19601f82011682018060405250810190610fde91906125ed565b506012600081548092919060010191905055507f58be1e6b3a28e5681bdc24c85524b6c2441e267b7aac9da523dd82e156b505628484604051611022929190612afa565b60405180910390a150505050565b611038612261565b73ffffffffffffffffffffffffffffffffffffffff1660008054906101000a900473ffffffffffffffffffffffffffffffffffffffff1673ffffffffffffffffffffffffffffffffffffffff16146110c5576040517f08c379a00000000000000000000000000000000000000000000000000000000081526004016110bc90612ada565b60405180910390fd5b600073ffffffffffffffffffffffffffffffffffffffff1660008054906101000a900473ffffffffffffffffffffffffffffffffffffffff1673ffffffffffffffffffffffffffffffffffffffff167f8be0079c531659141344cd1fd0a4f28419497f9722a3daafe3b4186f6b6457e060405160405180910390a360008060006101000a81548173ffffffffffffffffffffffffffffffffffffffff021916908373ffffffffffffffffffffffffffffffffffffffff160217905550565b600b5481565b60085481565b600073__$2a5b9c44d836f7997ae51e8d308a712a39$__63c4420fb4836040518263ffffffff1660e01b81526004016111c89190612a0a565b60206040518083038186803b1580156111e057600080fd5b505af41580156111f4573d6000803e3d6000fd5b505050506040513d601f19601f8201168201806040525081019061121891906125ed565b9050919050565b611227612261565b73ffffffffffffffffffffffffffffffffffffffff1660008054906101000a900473ffffffffffffffffffffffffffffffffffffffff1673ffffffffffffffffffffffffffffffffffffffff16146112b4576040517f08c379a00000000000000000000000000000000000000000000000000000000081526004016112ab90612ada565b60405180910390fd5b60006008544203905060095481116040518060400160405280600781526020017f506f6c6c4530340000000000000000000000000000000000000000000000000081525090611339576040517f08c379a00000000000000000000000000000000000000000000000000000000081526004016113309190612a98565b60405180910390fd5b50600c60149054906101000a900460ff16156040518060400160405280600781526020017f506f6c6c45303800000000000000000000000000000000000000000000000000815250906113c2576040517f08c379a00000000000000000000000000000000000000000000000000000000081526004016113b99190612a98565b60405180910390fd5b50600c60009054906101000a900473ffffffffffffffffffffffffffffffffffffffff1673ffffffffffffffffffffffffffffffffffffffff1663603baff86040518163ffffffff1660e01b815260040160206040518083038186803b15801561142b57600080fd5b505afa15801561143f573d6000803e3d6000fd5b505050506040513d601f19601f820116820180604052508101906114639190612533565b73ffffffffffffffffffffffffffffffffffffffff1663b6a64acd6040518163ffffffff1660e01b815260040160206040518083038186803b1580156114a857600080fd5b505afa1580156114bc573d6000803e3d6000fd5b505050506040513d601f19601f820116820180604052508101906114e091906124e1565b61157457600c60009054906101000a900473ffffffffffffffffffffffffffffffffffffffff1673ffffffffffffffffffffffffffffffffffffffff1663cfa1fa0384846040518363ffffffff1660e01b8152600401611541929190612b40565b600060405180830381600087803b15801561155b57600080fd5b505af115801561156f573d6000803e3d6000fd5b505050505b6000601154141561162657600c60009054906101000a900473ffffffffffffffffffffffffffffffffffffffff1673ffffffffffffffffffffffffffffffffffffffff1663122db1536040518163ffffffff1660e01b815260040160206040518083038186803b1580156115e757600080fd5b505afa1580156115fb573d6000803e3d6000fd5b505050506040513d601f19601f8201168201806040525081019061161f91906125ed565b6011819055505b7fbe5eae95ff0a9a2779506ae62da06dda1e349311d3f2b6ceb990ea42b6a5f20b836040516116559190612b25565b60405180910390a1505050565b600d60009054906101000a900473ffffffffffffffffffffffffffffffffffffffff1681565b60008060009054906101000a900473ffffffffffffffffffffffffffffffffffffffff16905090565b6116b9612261565b73ffffffffffffffffffffffffffffffffffffffff1660008054906101000a900473ffffffffffffffffffffffffffffffffffffffff1673ffffffffffffffffffffffffffffffffffffffff1614611746576040517f08c379a000000000000000000000000000000000000000000000000000000000815260040161173d90612ada565b60405180910390fd5b60006008544203905060095481116040518060400160405280600781526020017f506f6c6c45303400000000000000000000000000000000000000000000000000815250906117cb576040517f08c379a00000000000000000000000000000000000000000000000000000000081526004016117c29190612a98565b60405180910390fd5b50600d60009054906101000a900473ffffffffffffffffffffffffffffffffffffffff1673ffffffffffffffffffffffffffffffffffffffff1663c15da65b836040518263ffffffff1660e01b81526004016118279190612b25565b600060405180830381600087803b15801561184157600080fd5b505af1158015611855573d6000803e3d6000fd5b505050507f1245b881cb30fdad22b2f9fde2d5c2a3605bbdf272d5e8a2235d8c9e81aba2ce826040516118889190612b25565b60405180910390a15050565b600a5481565b6118a2612261565b73ffffffffffffffffffffffffffffffffffffffff1660008054906101000a900473ffffffffffffffffffffffffffffffffffffffff1673ffffffffffffffffffffffffffffffffffffffff161461192f576040517f08c379a000000000000000000000000000000000000000000000000000000000815260040161192690612ada565b60405180910390fd5b60006008544203905060095481116040518060400160405280600781526020017f506f6c6c45303400000000000000000000000000000000000000000000000000815250906119b4576040517f08c379a00000000000000000000000000000000000000000000000000000000081526004016119ab9190612a98565b60405180910390fd5b50600d60009054906101000a900473ffffffffffffffffffffffffffffffffffffffff1673ffffffffffffffffffffffffffffffffffffffff1663c00bdbcc836040518263ffffffff1660e01b8152600401611a109190612b25565b600060405180830381600087803b158015611a2a57600080fd5b505af1158015611a3e573d6000803e3d6000fd5b505050505050565b60158060000160009054906101000a900460ff16908060000160019054906101000a900460ff16908060000160029054906101000a900460ff16908060000160039054906101000a900460ff16905084565b611aa0612261565b73ffffffffffffffffffffffffffffffffffffffff1660008054906101000a900473ffffffffffffffffffffffffffffffffffffffff1673ffffffffffffffffffffffffffffffffffffffff1614611b2d576040517f08c379a0000000000000000000000000000000000000000000000000000000008152600401611b2490612ada565b60405180910390fd5b60006008544203905060095481116040518060400160405280600781526020017f506f6c6c4530340000000000000000000000000000000000000000000000000081525090611bb2576040517f08c379a0000000000000000000000000000000000000000000000000000000008152600401611ba99190612a98565b60405180910390fd5b50600c60149054906101000a900460ff16156040518060400160405280600781526020017f506f6c6c4530380000000000000000000000000000000000000000000000000081525090611c3b576040517f08c379a0000000000000000000000000000000000000000000000000000000008152600401611c329190612a98565b60405180910390fd5b506000600f54146040518060400160405280600781526020017f506f6c6c4530320000000000000000000000000000000000000000000000000081525090611cb9576040517f08c379a0000000000000000000000000000000000000000000000000000000008152600401611cb09190612a98565b60405180910390fd5b50600c60009054906101000a900473ffffffffffffffffffffffffffffffffffffffff1673ffffffffffffffffffffffffffffffffffffffff1663603baff86040518163ffffffff1660e01b815260040160206040518083038186803b158015611d2257600080fd5b505afa158015611d36573d6000803e3d6000fd5b505050506040513d601f19601f82011682018060405250810190611d5a9190612533565b73ffffffffffffffffffffffffffffffffffffffff1663b6a64acd6040518163ffffffff1660e01b815260040160206040518083038186803b158015611d9f57600080fd5b505afa158015611db3573d6000803e3d6000fd5b505050506040513d601f19601f82011682018060405250810190611dd791906124e1565b15611e8b57600c60009054906101000a900473ffffffffffffffffffffffffffffffffffffffff1673ffffffffffffffffffffffffffffffffffffffff1663dd0982a3836040518263ffffffff1660e01b8152600401611e379190612b25565b602060405180830381600087803b158015611e5157600080fd5b505af1158015611e65573d6000803e3d6000fd5b505050506040513d601f19601f82011682018060405250810190611e8991906125ed565b505b6001600c60146101000a81548160ff0219169083151502179055506000600c60009054906101000a900473ffffffffffffffffffffffffffffffffffffffff1673ffffffffffffffffffffffffffffffffffffffff16632877e0366040518163ffffffff1660e01b815260040160206040518083038186803b158015611f1057600080fd5b505afa158015611f24573d6000803e3d6000fd5b505050506040513d601f19601f82011682018060405250810190611f4891906125ed565b90506060600367ffffffffffffffff81118015611f6457600080fd5b50604051908082528060200260200182016040528015611f935781602001602082028036833780820191505090505b5090508181600081518110611fa457fe5b6020026020010181815250506001601560000160039054906101000a900460ff1660ff1660058110611fd257fe5b015481600181518110611fe157fe5b602002602001018181525050600081600281518110611ffc57fe5b60200260200101818152505061201181610866565b600f819055507f58deecc020170648ca539f41d6d967a2d071ce17a8296866ba3b3403977fd8ec826040516120469190612b25565b60405180910390a150505050565b600c60149054906101000a900460ff1681565b600f5481565b60105481565b60168060000160009054906101000a900460ff16908060000160019054906101000a900460ff16905082565b6120a7612261565b73ffffffffffffffffffffffffffffffffffffffff1660008054906101000a900473ffffffffffffffffffffffffffffffffffffffff1673ffffffffffffffffffffffffffffffffffffffff1614612134576040517f08c379a000000000000000000000000000000000000000000000000000000000815260040161212b90612ada565b60405180910390fd5b600073ffffffffffffffffffffffffffffffffffffffff168173ffffffffffffffffffffffffffffffffffffffff1614156121a4576040517f08c379a000000000000000000000000000000000000000000000000000000000815260040161219b90612aba565b60405180910390fd5b8073ffffffffffffffffffffffffffffffffffffffff1660008054906101000a900473ffffffffffffffffffffffffffffffffffffffff1673ffffffffffffffffffffffffffffffffffffffff167f8be0079c531659141344cd1fd0a4f28419497f9722a3daafe3b4186f6b6457e060405160405180910390a3806000806101000a81548173ffffffffffffffffffffffffffffffffffffffff021916908373ffffffffffffffffffffffffffffffffffffffff16021790555050565b600033905090565b60008135905061227881612e4d565b92915050565b600082601f83011261228f57600080fd5b60076122a261229d82612c23565b612bf2565b915081838560208402820111156122b857600080fd5b60005b838110156122e857816122ce888261244d565b8452602084019350602083019250506001810190506122bb565b5050505092915050565b600082601f83011261230357600080fd5b813561231661231182612c49565b612bf2565b9150818183526020840193506020810190508385602084028201111561233b57600080fd5b60005b8381101561236b5781612351888261244d565b84526020840193506020830192505060018101905061233e565b5050505092915050565b60008151905061238481612e64565b92915050565b60008151905061239981612e7b565b92915050565b6000815190506123ae81612e92565b92915050565b600061010082840312156123c757600080fd5b6123d16040612bf2565b905060006123e18482850161244d565b60008301525060206123f58482850161227e565b60208301525092915050565b60006040828403121561241357600080fd5b61241d6040612bf2565b9050600061242d8482850161244d565b60008301525060206124418482850161244d565b60208301525092915050565b60008135905061245c81612ea9565b92915050565b60008151905061247181612ea9565b92915050565b60006020828403121561248957600080fd5b600061249784828501612269565b91505092915050565b6000602082840312156124b257600080fd5b600082013567ffffffffffffffff8111156124cc57600080fd5b6124d8848285016122f2565b91505092915050565b6000602082840312156124f357600080fd5b600061250184828501612375565b91505092915050565b60006020828403121561251c57600080fd5b600061252a8482850161238a565b91505092915050565b60006020828403121561254557600080fd5b60006125538482850161239f565b91505092915050565b6000610100828403121561256f57600080fd5b600061257d848285016123b4565b91505092915050565b600080610140838503121561259a57600080fd5b60006125a8858286016123b4565b9250506101006125ba85828601612401565b9150509250929050565b6000602082840312156125d657600080fd5b60006125e48482850161244d565b91505092915050565b6000602082840312156125ff57600080fd5b600061260d84828501612462565b91505092915050565b6000806040838503121561262957600080fd5b60006126378582860161244d565b92505060206126488582860161244d565b9150509250929050565b600061265e8383612967565b60208301905092915050565b60006126768383612985565b60208301905092915050565b600061268e8383612994565b60208301905092915050565b6126a381612d18565b82525050565b6126b281612c8f565b6126bc8184612cd5565b92506126c782612c75565b8060005b838110156126f85781516126df8782612652565b96506126ea83612cbb565b9250506001810190506126cb565b505050505050565b600061270b82612c9a565b6127158185612ce0565b935061272083612c7f565b8060005b838110156127515781516127388882612682565b975061274383612cc8565b925050600181019050612724565b5085935050505092915050565b600061276982612c9a565b6127738185612cf1565b935061277e83612c7f565b8060005b838110156127af578151612796888261266a565b97506127a183612cc8565b925050600181019050612782565b5085935050505092915050565b6127c581612d2a565b82525050565b60006127d682612ca5565b6127e08185612cfc565b93506127f0818560208601612e07565b80840191505092915050565b61280581612d89565b82525050565b61281481612dad565b82525050565b61282381612dd1565b82525050565b600061283482612cb0565b61283e8185612d07565b935061284e818560208601612e07565b61285781612e3c565b840191505092915050565b600061286f602683612d07565b91507f4f776e61626c653a206e6577206f776e657220697320746865207a65726f206160008301527f64647265737300000000000000000000000000000000000000000000000000006020830152604082019050919050565b60006128d5602083612d07565b91507f4f776e61626c653a2063616c6c6572206973206e6f7420746865206f776e65726000830152602082019050919050565b6101008201600082015161291f6000850182612967565b50602082015161293260208501826126a9565b50505050565b60408201600082015161294e6000850182612967565b5060208201516129616020850182612967565b50505050565b61297081612d72565b82525050565b61297f81612d72565b82525050565b61298e81612d72565b82525050565b61299d81612d72565b82525050565b6129ac81612df5565b82525050565b6129bb81612d7c565b82525050565b60006129cd828461275e565b915081905092915050565b60006129e482846127cb565b915081905092915050565b6000602082019050612a04600083018461269a565b92915050565b60006020820190508181036000830152612a248184612700565b905092915050565b6000602082019050612a4160008301846127bc565b92915050565b6000602082019050612a5c60008301846127fc565b92915050565b6000602082019050612a77600083018461280b565b92915050565b6000602082019050612a92600083018461281a565b92915050565b60006020820190508181036000830152612ab28184612829565b905092915050565b60006020820190508181036000830152612ad381612862565b9050919050565b60006020820190508181036000830152612af3816128c8565b9050919050565b600061014082019050612b106000830185612908565b612b1e610100830184612938565b9392505050565b6000602082019050612b3a6000830184612976565b92915050565b6000604082019050612b556000830185612976565b612b626020830184612976565b9392505050565b6000602082019050612b7e60008301846129a3565b92915050565b6000604082019050612b9960008301856129b2565b612ba660208301846129b2565b9392505050565b6000608082019050612bc260008301876129b2565b612bcf60208301866129b2565b612bdc60408301856129b2565b612be960608301846129b2565b95945050505050565b6000604051905081810181811067ffffffffffffffff82111715612c1957612c18612e3a565b5b8060405250919050565b600067ffffffffffffffff821115612c3e57612c3d612e3a565b5b602082029050919050565b600067ffffffffffffffff821115612c6457612c63612e3a565b5b602082029050602081019050919050565b6000819050919050565b6000819050602082019050919050565b600060079050919050565b600081519050919050565b600081519050919050565b600081519050919050565b6000602082019050919050565b6000602082019050919050565b600081905092915050565b600082825260208201905092915050565b600081905092915050565b600081905092915050565b600082825260208201905092915050565b6000612d2382612d52565b9050919050565b60008115159050919050565b6000819050919050565b6000612d4b82612d18565b9050919050565b600073ffffffffffffffffffffffffffffffffffffffff82169050919050565b6000819050919050565b600060ff82169050919050565b6000612d9482612d9b565b9050919050565b6000612da682612d52565b9050919050565b6000612db882612dbf565b9050919050565b6000612dca82612d52565b9050919050565b6000612ddc82612de3565b9050919050565b6000612dee82612d52565b9050919050565b6000612e0082612d7c565b9050919050565b60005b83811015612e25578082015181840152602081019050612e0a565b83811115612e34576000848401525b50505050565bfe5b6000601f19601f8301169050919050565b612e5681612d18565b8114612e6157600080fd5b50565b612e6d81612d2a565b8114612e7857600080fd5b50565b612e8481612d36565b8114612e8f57600080fd5b50565b612e9b81612d40565b8114612ea657600080fd5b50565b612eb281612d72565b8114612ebd57600080fd5b5056fea2646970667358221220a84ae5c91c151f20ad8cf4868cfd59c345eed3e03fde859fc6a3a900fac02afc64736f6c63430007020033",
  "linkReferences": {
    "contracts/crypto/Hasher.sol": {
      "PoseidonT3": [
        {
          "length": 20,
          "start": 5935
        }
      ],
      "PoseidonT4": [
        {
          "length": 20,
          "start": 5735
        }
      ],
      "PoseidonT5": [
        {
          "length": 20,
          "start": 6079
        }
      ],
      "PoseidonT6": [
        {
          "length": 20,
          "start": 8080
        }
      ]
    }
  },
  "deployedLinkReferences": {
    "contracts/crypto/Hasher.sol": {
      "PoseidonT3": [
        {
          "length": 20,
          "start": 2354
        }
      ],
      "PoseidonT4": [
        {
          "length": 20,
          "start": 2154
        }
      ],
      "PoseidonT5": [
        {
          "length": 20,
          "start": 2498
        }
      ],
      "PoseidonT6": [
        {
          "length": 20,
          "start": 4499
        }
      ]
    }
  }
}