{
  "_format": "hh-sol-artifact-1",
  "contractName": "PollProcessorAndTallyer",
  "sourceName": "contracts/Poll.sol",
  "abi": [
    {
      "inputs": [
        {
          "internalType": "contract IVerifier",
          "name": "_verifier",
          "type": "address"
        }
      ],
      "stateMutability": "nonpayable",
      "type": "constructor"
    },
    {
      "anonymous": false,
      "inputs": [
        {
          "indexed": true,
          "internalType": "address",
          "name": "previousOwner",
          "type": "address"
        },
        {
          "indexed": true,
          "internalType": "address",
          "name": "newOwner",
          "type": "address"
        }
      ],
      "name": "OwnershipTransferred",
      "type": "event"
    },
    {
      "inputs": [],
      "name": "currentMessageBatchIndex",
      "outputs": [
        {
          "internalType": "uint256",
          "name": "",
          "type": "uint256"
        }
      ],
      "stateMutability": "view",
      "type": "function"
    },
    {
      "inputs": [
        {
          "internalType": "contract Poll",
          "name": "_poll",
          "type": "address"
        },
        {
          "internalType": "uint256",
          "name": "_numSignUps",
          "type": "uint256"
        }
      ],
      "name": "genProcessMessagesPackedVals",
      "outputs": [
        {
          "internalType": "uint256",
          "name": "",
          "type": "uint256"
        }
      ],
      "stateMutability": "view",
      "type": "function"
    },
    {
      "inputs": [
        {
          "internalType": "contract Poll",
          "name": "_poll",
          "type": "address"
        },
        {
          "internalType": "uint256",
          "name": "_messageRoot",
          "type": "uint256"
        },
        {
          "internalType": "uint256",
          "name": "_numSignUps",
          "type": "uint256"
        }
      ],
      "name": "genProcessMessagesPublicInputs",
      "outputs": [
        {
          "internalType": "uint256[]",
          "name": "",
          "type": "uint256[]"
        }
      ],
      "stateMutability": "view",
      "type": "function"
    },
    {
      "inputs": [
        {
          "internalType": "contract Poll",
          "name": "_poll",
          "type": "address"
        }
      ],
      "name": "genTallyVotesPackedVals",
      "outputs": [
        {
          "internalType": "uint256",
          "name": "",
          "type": "uint256"
        }
      ],
      "stateMutability": "view",
      "type": "function"
    },
    {
      "inputs": [
        {
          "internalType": "contract Poll",
          "name": "_poll",
          "type": "address"
        },
        {
          "internalType": "uint256",
          "name": "_newTallyCommitment",
          "type": "uint256"
        }
      ],
      "name": "genTallyVotesPublicInputs",
      "outputs": [
        {
          "internalType": "uint256[]",
          "name": "",
          "type": "uint256[]"
        }
      ],
      "stateMutability": "view",
      "type": "function"
    },
    {
      "inputs": [
        {
          "internalType": "uint256[]",
          "name": "array",
          "type": "uint256[]"
        }
      ],
      "name": "hash2",
      "outputs": [
        {
          "internalType": "uint256",
          "name": "",
          "type": "uint256"
        }
      ],
      "stateMutability": "pure",
      "type": "function"
    },
    {
      "inputs": [
        {
          "internalType": "uint256[]",
          "name": "array",
          "type": "uint256[]"
        }
      ],
      "name": "hash3",
      "outputs": [
        {
          "internalType": "uint256",
          "name": "",
          "type": "uint256"
        }
      ],
      "stateMutability": "pure",
      "type": "function"
    },
    {
      "inputs": [
        {
          "internalType": "uint256[]",
          "name": "array",
          "type": "uint256[]"
        }
      ],
      "name": "hash4",
      "outputs": [
        {
          "internalType": "uint256",
          "name": "",
          "type": "uint256"
        }
      ],
      "stateMutability": "pure",
      "type": "function"
    },
    {
      "inputs": [
        {
          "internalType": "uint256[]",
          "name": "array",
          "type": "uint256[]"
        }
      ],
      "name": "hash5",
      "outputs": [
        {
          "internalType": "uint256",
          "name": "",
          "type": "uint256"
        }
      ],
      "stateMutability": "pure",
      "type": "function"
    },
    {
      "inputs": [
        {
          "internalType": "uint256",
          "name": "_left",
          "type": "uint256"
        },
        {
          "internalType": "uint256",
          "name": "_right",
          "type": "uint256"
        }
      ],
      "name": "hashLeftRight",
      "outputs": [
        {
          "internalType": "uint256",
          "name": "",
          "type": "uint256"
        }
      ],
      "stateMutability": "pure",
      "type": "function"
    },
    {
      "inputs": [],
      "name": "numBatchesProcessed",
      "outputs": [
        {
          "internalType": "uint256",
          "name": "",
          "type": "uint256"
        }
      ],
      "stateMutability": "view",
      "type": "function"
    },
    {
      "inputs": [],
      "name": "owner",
      "outputs": [
        {
          "internalType": "address",
          "name": "",
          "type": "address"
        }
      ],
      "stateMutability": "view",
      "type": "function"
    },
    {
      "inputs": [
        {
          "internalType": "contract Poll",
          "name": "_poll",
          "type": "address"
        },
        {
          "internalType": "uint256",
          "name": "_newSbCommitment",
          "type": "uint256"
        },
        {
          "internalType": "uint256[8]",
          "name": "_proof",
          "type": "uint256[8]"
        }
      ],
      "name": "processMessages",
      "outputs": [],
      "stateMutability": "nonpayable",
      "type": "function"
    },
    {
      "inputs": [],
      "name": "processingComplete",
      "outputs": [
        {
          "internalType": "bool",
          "name": "",
          "type": "bool"
        }
      ],
      "stateMutability": "view",
      "type": "function"
    },
    {
      "inputs": [],
      "name": "renounceOwnership",
      "outputs": [],
      "stateMutability": "nonpayable",
      "type": "function"
    },
    {
      "inputs": [],
      "name": "sbCommitment",
      "outputs": [
        {
          "internalType": "uint256",
          "name": "",
          "type": "uint256"
        }
      ],
      "stateMutability": "view",
      "type": "function"
    },
    {
      "inputs": [
        {
          "internalType": "uint256[]",
          "name": "array",
          "type": "uint256[]"
        }
      ],
      "name": "sha256Hash",
      "outputs": [
        {
          "internalType": "uint256",
          "name": "",
          "type": "uint256"
        }
      ],
      "stateMutability": "pure",
      "type": "function"
    },
    {
      "inputs": [],
      "name": "tallyBatchNum",
      "outputs": [
        {
          "internalType": "uint256",
          "name": "",
          "type": "uint256"
        }
      ],
      "stateMutability": "view",
      "type": "function"
    },
    {
      "inputs": [],
      "name": "tallyCommitment",
      "outputs": [
        {
          "internalType": "uint256",
          "name": "",
          "type": "uint256"
        }
      ],
      "stateMutability": "view",
      "type": "function"
    },
    {
      "inputs": [
        {
          "internalType": "contract Poll",
          "name": "_poll",
          "type": "address"
        },
        {
          "internalType": "uint256",
          "name": "_newTallyCommitment",
          "type": "uint256"
        },
        {
          "internalType": "uint256[8]",
          "name": "_proof",
          "type": "uint256[8]"
        }
      ],
      "name": "tallyVotes",
      "outputs": [],
      "stateMutability": "nonpayable",
      "type": "function"
    },
    {
      "inputs": [
        {
          "internalType": "address",
          "name": "newOwner",
          "type": "address"
        }
      ],
      "name": "transferOwnership",
      "outputs": [],
      "stateMutability": "nonpayable",
      "type": "function"
    },
    {
      "inputs": [],
      "name": "verifier",
      "outputs": [
        {
          "internalType": "contract IVerifier",
          "name": "",
          "type": "address"
        }
      ],
      "stateMutability": "view",
      "type": "function"
    }
  ],
  "bytecode": "0x60806040523480156200001157600080fd5b5060405162003df838038062003df883398181016040528101906200003791906200014e565b6000620000496200012f60201b60201c565b9050806000806101000a81548173ffffffffffffffffffffffffffffffffffffffff021916908373ffffffffffffffffffffffffffffffffffffffff1602179055508073ffffffffffffffffffffffffffffffffffffffff16600073ffffffffffffffffffffffffffffffffffffffff167f8be0079c531659141344cd1fd0a4f28419497f9722a3daafe3b4186f6b6457e060405160405180910390a35080600760006101000a81548173ffffffffffffffffffffffffffffffffffffffff021916908373ffffffffffffffffffffffffffffffffffffffff16021790555050620001dc565b600033905090565b6000815190506200014881620001c2565b92915050565b6000602082840312156200016157600080fd5b6000620001718482850162000137565b91505092915050565b60006200018782620001a2565b9050919050565b60006200019b826200017a565b9050919050565b600073ffffffffffffffffffffffffffffffffffffffff82169050919050565b620001cd816200018e565b8114620001d957600080fd5b50565b613c0c80620001ec6000396000f3fe608060405234801561001057600080fd5b50600436106101425760003560e01c8063715018a6116100b8578063afb93bd31161007c578063afb93bd3146103a1578063bd548cb0146103bf578063d13181b8146103ef578063d3f8adcd1461040d578063e5d4203d1461043d578063f2fde38b1461045957610142565b8063715018a61461030d5780637a38d18f1461031757806386d238d9146103355780638763d0c4146103655780638da5cb5b1461038357610142565b8063410f90ce1161010a578063410f90ce146102135780634d4ef74d1461022f5780634e9e97fa1461025f57806358bfc3791461028f5780635bb93995146102bf57806361750293146102ef57610142565b806315d81451146101475780631e1016fe146101775780632b7ac3f3146101a75780632d10849d146101c55780633d6528a1146101f5575b600080fd5b610161600480360381019061015c9190612e43565b610475565b60405161016e9190613743565b60405180910390f35b610191600480360381019061018c9190612d35565b61064f565b60405161019e9190613743565b60405180910390f35b6101af6106df565b6040516101bc91906136c6565b60405180910390f35b6101df60048036038101906101da9190612e43565b610705565b6040516101ec9190613689565b60405180910390f35b6101fd610942565b60405161020a9190613743565b60405180910390f35b61022d60048036038101906102289190612e7f565b610948565b005b61024960048036038101906102449190612d35565b6115b2565b6040516102569190613743565b60405180910390f35b61027960048036038101906102749190612d35565b611642565b6040516102869190613743565b60405180910390f35b6102a960048036038101906102a49190612d35565b6116d2565b6040516102b69190613743565b60405180910390f35b6102d960048036038101906102d49190612fb1565b611776565b6040516102e69190613743565b60405180910390f35b6102f761180a565b6040516103049190613743565b60405180910390f35b610315611810565b005b61031f611963565b60405161032c9190613743565b60405180910390f35b61034f600480360381019061034a9190612d35565b611969565b60405161035c9190613743565b60405180910390f35b61036d6119f9565b60405161037a91906136ab565b60405180910390f35b61038b611a0c565b6040516103989190613604565b60405180910390f35b6103a9611a35565b6040516103b69190613743565b60405180910390f35b6103d960048036038101906103d49190612ecf565b611a3b565b6040516103e69190613689565b60405180910390f35b6103f7611c92565b6040516104049190613743565b60405180910390f35b61042760048036038101906104229190612e1a565b611c98565b6040516104349190613743565b60405180910390f35b61045760048036038101906104529190612e7f565b611dba565b005b610473600480360381019061046e9190612d0c565b61265f565b005b6000808373ffffffffffffffffffffffffffffffffffffffff16630396a0ce6040518163ffffffff1660e01b8152600401604080518083038186803b1580156104bd57600080fd5b505afa1580156104d1573d6000803e3d6000fd5b505050506040513d601f19601f820116820180604052508101906104f59190612fed565b91505060008473ffffffffffffffffffffffffffffffffffffffff1663d1f461496040518163ffffffff1660e01b8152600401604080518083038186803b15801561053f57600080fd5b505afa158015610553573d6000803e3d6000fd5b505050506040513d601f19601f820116820180604052508101906105779190613052565b50905060008160ff1690506000600254905060008773ffffffffffffffffffffffffffffffffffffffff16630f4cf6926040518163ffffffff1660e01b815260040160206040518083038186803b1580156105d157600080fd5b505afa1580156105e5573d6000803e3d6000fd5b505050506040513d601f19601f820116820180604052508101906106099190612f88565b9050600083838303101561062257600183830303610626565b8383015b90506000609682901b606485901b60328b901b8901010190508097505050505050505092915050565b600073__$9b3049adcf18347c4fcd511e1429cbc37d$__63c4420fb4836040518263ffffffff1660e01b81526004016106889190613667565b60206040518083038186803b1580156106a057600080fd5b505af41580156106b4573d6000803e3d6000fd5b505050506040513d601f19601f820116820180604052508101906106d89190612f88565b9050919050565b600760009054906101000a900473ffffffffffffffffffffffffffffffffffffffff1681565b6060600061071284611c98565b90506060600467ffffffffffffffff8111801561072e57600080fd5b5060405190808252806020026020018201604052801561075d5781602001602082028036833780820191505090505b509050818160008151811061076e57fe5b6020026020010181815250508473ffffffffffffffffffffffffffffffffffffffff1663c17268d96040518163ffffffff1660e01b815260040160206040518083038186803b1580156107c057600080fd5b505afa1580156107d4573d6000803e3d6000fd5b505050506040513d601f19601f820116820180604052508101906107f89190612f88565b8160018151811061080557fe5b6020026020010181815250508473ffffffffffffffffffffffffffffffffffffffff1663c642eb8b6040518163ffffffff1660e01b815260040160206040518083038186803b15801561085757600080fd5b505afa15801561086b573d6000803e3d6000fd5b505050506040513d601f19601f8201168201806040525081019061088f9190612f88565b8160028151811061089c57fe5b60200260200101818152505083816003815181106108b657fe5b60200260200101818152505060006108cd826116d2565b90506060600167ffffffffffffffff811180156108e957600080fd5b506040519080825280602002602001820160405280156109185781602001602082028036833780820191505090505b509050818160008151811061092957fe5b6020026020010181815250508094505050505092915050565b60025481565b610950612821565b73ffffffffffffffffffffffffffffffffffffffff1660008054906101000a900473ffffffffffffffffffffffffffffffffffffffff1673ffffffffffffffffffffffffffffffffffffffff16146109dd576040517f08c379a00000000000000000000000000000000000000000000000000000000081526004016109d490613723565b60405180910390fd5b8260008173ffffffffffffffffffffffffffffffffffffffff16637a40624b6040518163ffffffff1660e01b815260040160206040518083038186803b158015610a2657600080fd5b505afa158015610a3a573d6000803e3d6000fd5b505050506040513d601f19601f82011682018060405250810190610a5e9190612f88565b420390508173ffffffffffffffffffffffffffffffffffffffff16630fb5a6b46040518163ffffffff1660e01b815260040160206040518083038186803b158015610aa857600080fd5b505afa158015610abc573d6000803e3d6000fd5b505050506040513d601f19601f82011682018060405250810190610ae09190612f88565b81116040518060400160405280600681526020017f507074453031000000000000000000000000000000000000000000000000000081525090610b59576040517f08c379a0000000000000000000000000000000000000000000000000000000008152600401610b5091906136e1565b60405180910390fd5b508473ffffffffffffffffffffffffffffffffffffffff1663b5f38c816040518163ffffffff1660e01b815260040160206040518083038186803b158015610ba057600080fd5b505afa158015610bb4573d6000803e3d6000fd5b505050506040513d601f19601f82011682018060405250810190610bd89190612d76565b6040518060400160405280600681526020017f507074453039000000000000000000000000000000000000000000000000000081525090610c4f576040517f08c379a0000000000000000000000000000000000000000000000000000000008152600401610c4691906136e1565b60405180910390fd5b506000808673ffffffffffffffffffffffffffffffffffffffff1663ac98e5df6040518163ffffffff1660e01b815260040160806040518083038186803b158015610c9957600080fd5b505afa158015610cad573d6000803e3d6000fd5b505050506040513d601f19601f82011682018060405250810190610cd1919061308e565b90919250909150809250819350505060008773ffffffffffffffffffffffffffffffffffffffff16638ae8a05f6040518163ffffffff1660e01b815260040160206040518083038186803b158015610d2857600080fd5b505afa158015610d3c573d6000803e3d6000fd5b505050506040513d601f19601f82011682018060405250810190610d609190612dc8565b73ffffffffffffffffffffffffffffffffffffffff16631b9b8aa7846040518263ffffffff1660e01b8152600401610d98919061375e565b60206040518083038186803b158015610db057600080fd5b505afa158015610dc4573d6000803e3d6000fd5b505050506040513d601f19601f82011682018060405250810190610de89190612f88565b905060008114156040518060400160405280600681526020017f507074453033000000000000000000000000000000000000000000000000000081525090610e66576040517f08c379a0000000000000000000000000000000000000000000000000000000008152600401610e5d91906136e1565b60405180910390fd5b5060008873ffffffffffffffffffffffffffffffffffffffff1663d1f461496040518163ffffffff1660e01b8152600401604080518083038186803b158015610eae57600080fd5b505afa158015610ec2573d6000803e3d6000fd5b505050506040513d601f19601f82011682018060405250810190610ee69190613052565b8160ff1691505080915050600360009054906101000a900460ff16156040518060400160405280600681526020017f507074453032000000000000000000000000000000000000000000000000000081525090610f79576040517f08c379a0000000000000000000000000000000000000000000000000000000008152600401610f7091906136e1565b60405180910390fd5b50600060045414156110985760008973ffffffffffffffffffffffffffffffffffffffff16638ae8a05f6040518163ffffffff1660e01b815260040160206040518083038186803b158015610fcd57600080fd5b505afa158015610fe1573d6000803e3d6000fd5b505050506040513d601f19601f820116820180604052508101906110059190612dc8565b73ffffffffffffffffffffffffffffffffffffffff1663dda89a6e6040518163ffffffff1660e01b815260040160206040518083038186803b15801561104a57600080fd5b505afa15801561105e573d6000803e3d6000fd5b505050506040513d601f19601f820116820180604052508101906110829190612f88565b90508182828161108e57fe5b0402600281905550505b6110a0612868565b8973ffffffffffffffffffffffffffffffffffffffff166334a0922c6040518163ffffffff1660e01b815260040160206040518083038186803b1580156110e657600080fd5b505afa1580156110fa573d6000803e3d6000fd5b505050506040513d601f19601f8201168201806040525081019061111e9190612df1565b73ffffffffffffffffffffffffffffffffffffffff166313fb89326040518163ffffffff1660e01b815260040160206040518083038186803b15801561116357600080fd5b505afa158015611177573d6000803e3d6000fd5b505050506040513d601f19601f8201168201806040525081019061119b9190612f1e565b73ffffffffffffffffffffffffffffffffffffffff16630bfbd4fe8b73ffffffffffffffffffffffffffffffffffffffff166334a0922c6040518163ffffffff1660e01b815260040160206040518083038186803b1580156111fc57600080fd5b505afa158015611210573d6000803e3d6000fd5b505050506040513d601f19601f820116820180604052508101906112349190612df1565b73ffffffffffffffffffffffffffffffffffffffff1663652c76e46040518163ffffffff1660e01b815260040160206040518083038186803b15801561127957600080fd5b505afa15801561128d573d6000803e3d6000fd5b505050506040513d601f19601f820116820180604052508101906112b19190613029565b8787866040518563ffffffff1660e01b81526004016112d394939291906137b0565b60006040518083038186803b1580156112eb57600080fd5b505afa1580156112ff573d6000803e3d6000fd5b505050506040513d6000823e3d601f19601f820116820180604052508101906113289190612f47565b905060008a73ffffffffffffffffffffffffffffffffffffffff1663122db1536040518163ffffffff1660e01b815260040160206040518083038186803b15801561137257600080fd5b505afa158015611386573d6000803e3d6000fd5b505050506040513d601f19601f820116820180604052508101906113aa9190612f88565b905060606113b98c8684611a3b565b90506000600760009054906101000a900473ffffffffffffffffffffffffffffffffffffffff1673ffffffffffffffffffffffffffffffffffffffff1663352a4d158c86856040518463ffffffff1660e01b815260040161141c9392919061361f565b60206040518083038186803b15801561143457600080fd5b505afa158015611448573d6000803e3d6000fd5b505050506040513d601f19601f8201168201806040525081019061146c9190612d76565b9050806040518060400160405280600681526020017f5070744530350000000000000000000000000000000000000000000000000000815250906114e6576040517f08c379a00000000000000000000000000000000000000000000000000000000081526004016114dd91906136e1565b60405180910390fd5b505050506000600254111561150657816002600082825403925050819055505b60008a73ffffffffffffffffffffffffffffffffffffffff16630f4cf6926040518163ffffffff1660e01b815260040160206040518083038186803b15801561154e57600080fd5b505afa158015611562573d6000803e3d6000fd5b505050506040513d601f19601f820116820180604052508101906115869190612f88565b90506000600160045401840282111590506115a48b60025483612829565b505050505050505050505050565b600073__$d4acaf6f169a2634c49d403ce7efde36fd$__63c4420fb4836040518263ffffffff1660e01b81526004016115eb9190613667565b60206040518083038186803b15801561160357600080fd5b505af4158015611617573d6000803e3d6000fd5b505050506040513d601f19601f8201168201806040525081019061163b9190612f88565b9050919050565b600073__$584f44aaf914c42633951b34ceb432be31$__63c4420fb4836040518263ffffffff1660e01b815260040161167b9190613667565b60206040518083038186803b15801561169357600080fd5b505af41580156116a7573d6000803e3d6000fd5b505050506040513d601f19601f820116820180604052508101906116cb9190612f88565b9050919050565b60007f30644e72e131a029b85045b68181585d2833e84879b9709143e1f593f000000160028360405160200161170891906135d6565b60405160208183030381529060405260405161172491906135ed565b602060405180830381855afa158015611741573d6000803e3d6000fd5b5050506040513d601f19601f820116820180604052508101906117649190612d9f565b60001c8161176e57fe5b069050919050565b60006060600267ffffffffffffffff8111801561179257600080fd5b506040519080825280602002602001820160405280156117c15781602001602082028036833780820191505090505b50905083816000815181106117d257fe5b60200260200101818152505082816001815181106117ec57fe5b602002602001018181525050611801816115b2565b91505092915050565b60055481565b611818612821565b73ffffffffffffffffffffffffffffffffffffffff1660008054906101000a900473ffffffffffffffffffffffffffffffffffffffff1673ffffffffffffffffffffffffffffffffffffffff16146118a5576040517f08c379a000000000000000000000000000000000000000000000000000000000815260040161189c90613723565b60405180910390fd5b600073ffffffffffffffffffffffffffffffffffffffff1660008054906101000a900473ffffffffffffffffffffffffffffffffffffffff1673ffffffffffffffffffffffffffffffffffffffff167f8be0079c531659141344cd1fd0a4f28419497f9722a3daafe3b4186f6b6457e060405160405180910390a360008060006101000a81548173ffffffffffffffffffffffffffffffffffffffff021916908373ffffffffffffffffffffffffffffffffffffffff160217905550565b60045481565b600073__$2a5b9c44d836f7997ae51e8d308a712a39$__63c4420fb4836040518263ffffffff1660e01b81526004016119a29190613667565b60206040518083038186803b1580156119ba57600080fd5b505af41580156119ce573d6000803e3d6000fd5b505050506040513d601f19601f820116820180604052508101906119f29190612f88565b9050919050565b600360009054906101000a900460ff1681565b60008060009054906101000a900473ffffffffffffffffffffffffffffffffffffffff16905090565b60065481565b60606000808573ffffffffffffffffffffffffffffffffffffffff166331e766a56040518163ffffffff1660e01b8152600401604080518083038186803b158015611a8557600080fd5b505afa158015611a99573d6000803e3d6000fd5b505050506040513d601f19601f82011682018060405250810190611abd9190612fed565b915091506000611acd8383611776565b90506000611adb8887610475565b90506060600467ffffffffffffffff81118015611af757600080fd5b50604051908082528060200260200182016040528015611b265781602001602082028036833780820191505090505b5090508181600081518110611b3757fe5b6020026020010181815250508281600181518110611b5157fe5b6020026020010181815250508781600281518110611b6b57fe5b6020026020010181815250508873ffffffffffffffffffffffffffffffffffffffff1663c17268d96040518163ffffffff1660e01b815260040160206040518083038186803b158015611bbd57600080fd5b505afa158015611bd1573d6000803e3d6000fd5b505050506040513d601f19601f82011682018060405250810190611bf59190612f88565b81600381518110611c0257fe5b6020026020010181815250506000611c19826116d2565b90506060600167ffffffffffffffff81118015611c3557600080fd5b50604051908082528060200260200182016040528015611c645781602001602082028036833780820191505090505b5090508181600081518110611c7557fe5b602002602001018181525050809750505050505050509392505050565b60015481565b6000808273ffffffffffffffffffffffffffffffffffffffff1663d1f461496040518163ffffffff1660e01b8152600401604080518083038186803b158015611ce057600080fd5b505afa158015611cf4573d6000803e3d6000fd5b505050506040513d601f19601f82011682018060405250810190611d189190613052565b60ff16915050600081600654029050600060328573ffffffffffffffffffffffffffffffffffffffff1663122db1536040518163ffffffff1660e01b815260040160206040518083038186803b158015611d7157600080fd5b505afa158015611d85573d6000803e3d6000fd5b505050506040513d601f19601f82011682018060405250810190611da99190612f88565b901b82019050809350505050919050565b611dc2612821565b73ffffffffffffffffffffffffffffffffffffffff1660008054906101000a900473ffffffffffffffffffffffffffffffffffffffff1673ffffffffffffffffffffffffffffffffffffffff1614611e4f576040517f08c379a0000000000000000000000000000000000000000000000000000000008152600401611e4690613723565b60405180910390fd5b8260008173ffffffffffffffffffffffffffffffffffffffff16637a40624b6040518163ffffffff1660e01b815260040160206040518083038186803b158015611e9857600080fd5b505afa158015611eac573d6000803e3d6000fd5b505050506040513d601f19601f82011682018060405250810190611ed09190612f88565b420390508173ffffffffffffffffffffffffffffffffffffffff16630fb5a6b46040518163ffffffff1660e01b815260040160206040518083038186803b158015611f1a57600080fd5b505afa158015611f2e573d6000803e3d6000fd5b505050506040513d601f19601f82011682018060405250810190611f529190612f88565b81116040518060400160405280600681526020017f507074453031000000000000000000000000000000000000000000000000000081525090611fcb576040517f08c379a0000000000000000000000000000000000000000000000000000000008152600401611fc291906136e1565b60405180910390fd5b5060008573ffffffffffffffffffffffffffffffffffffffff1663d1f461496040518163ffffffff1660e01b8152600401604080518083038186803b15801561201357600080fd5b505afa158015612027573d6000803e3d6000fd5b505050506040513d601f19601f8201168201806040525081019061204b9190613052565b60ff1691505060008160065402905060008773ffffffffffffffffffffffffffffffffffffffff1663122db1536040518163ffffffff1660e01b815260040160206040518083038186803b1580156120a257600080fd5b505afa1580156120b6573d6000803e3d6000fd5b505050506040513d601f19601f820116820180604052508101906120da9190612f88565b9050600360009054906101000a900460ff166040518060400160405280600681526020017f507074453037000000000000000000000000000000000000000000000000000081525090612163576040517f08c379a000000000000000000000000000000000000000000000000000000000815260040161215a91906136e1565b60405180910390fd5b508082106040518060400160405280600681526020017f5070744530380000000000000000000000000000000000000000000000000000815250906121de576040517f08c379a00000000000000000000000000000000000000000000000000000000081526004016121d591906136e1565b60405180910390fd5b506000808973ffffffffffffffffffffffffffffffffffffffff1663ac98e5df6040518163ffffffff1660e01b815260040160806040518083038186803b15801561222857600080fd5b505afa15801561223c573d6000803e3d6000fd5b505050506040513d601f19601f82011682018060405250810190612260919061308e565b90915090508092508193505050612275612868565b8a73ffffffffffffffffffffffffffffffffffffffff166334a0922c6040518163ffffffff1660e01b815260040160206040518083038186803b1580156122bb57600080fd5b505afa1580156122cf573d6000803e3d6000fd5b505050506040513d601f19601f820116820180604052508101906122f39190612df1565b73ffffffffffffffffffffffffffffffffffffffff166313fb89326040518163ffffffff1660e01b815260040160206040518083038186803b15801561233857600080fd5b505afa15801561234c573d6000803e3d6000fd5b505050506040513d601f19601f820116820180604052508101906123709190612f1e565b73ffffffffffffffffffffffffffffffffffffffff1663c7c8beec8c73ffffffffffffffffffffffffffffffffffffffff166334a0922c6040518163ffffffff1660e01b815260040160206040518083038186803b1580156123d157600080fd5b505afa1580156123e5573d6000803e3d6000fd5b505050506040513d601f19601f820116820180604052508101906124099190612df1565b73ffffffffffffffffffffffffffffffffffffffff1663652c76e46040518163ffffffff1660e01b815260040160206040518083038186803b15801561244e57600080fd5b505afa158015612462573d6000803e3d6000fd5b505050506040513d601f19601f820116820180604052508101906124869190613029565b85856040518463ffffffff1660e01b81526004016124a693929190613779565b60006040518083038186803b1580156124be57600080fd5b505afa1580156124d2573d6000803e3d6000fd5b505050506040513d6000823e3d601f19601f820116820180604052508101906124fb9190612f47565b905060606125098c8c610705565b90506000600760009054906101000a900473ffffffffffffffffffffffffffffffffffffffff1673ffffffffffffffffffffffffffffffffffffffff1663352a4d158c85856040518463ffffffff1660e01b815260040161256c9392919061361f565b60206040518083038186803b15801561258457600080fd5b505afa158015612598573d6000803e3d6000fd5b505050506040513d601f19601f820116820180604052508101906125bc9190612d76565b9050806040518060400160405280600681526020017f507074453036000000000000000000000000000000000000000000000000000081525090612636576040517f08c379a000000000000000000000000000000000000000000000000000000000815260040161262d91906136e1565b60405180910390fd5b505050896005819055506006600081548092919060010191905055505050505050505050505050565b612667612821565b73ffffffffffffffffffffffffffffffffffffffff1660008054906101000a900473ffffffffffffffffffffffffffffffffffffffff1673ffffffffffffffffffffffffffffffffffffffff16146126f4576040517f08c379a00000000000000000000000000000000000000000000000000000000081526004016126eb90613723565b60405180910390fd5b600073ffffffffffffffffffffffffffffffffffffffff168173ffffffffffffffffffffffffffffffffffffffff161415612764576040517f08c379a000000000000000000000000000000000000000000000000000000000815260040161275b90613703565b60405180910390fd5b8073ffffffffffffffffffffffffffffffffffffffff1660008054906101000a900473ffffffffffffffffffffffffffffffffffffffff1673ffffffffffffffffffffffffffffffffffffffff167f8be0079c531659141344cd1fd0a4f28419497f9722a3daafe3b4186f6b6457e060405160405180910390a3806000806101000a81548173ffffffffffffffffffffffffffffffffffffffff021916908373ffffffffffffffffffffffffffffffffffffffff16021790555050565b600033905090565b8260018190555080600360006101000a81548160ff02191690831515021790555081600281905550600460008154809291906001019190505550505050565b6040518060a0016040528061287b6128af565b81526020016128886128c9565b81526020016128956128c9565b81526020016128a26128c9565b8152602001606081525090565b604051806040016040528060008152602001600081525090565b60405180604001604052806128dc6128ef565b81526020016128e96128ef565b81525090565b6040518060400160405280600290602082028036833780820191505090505090565b60008135905061292081613b07565b92915050565b600082601f83011261293757600080fd5b815161294a61294582613826565b6137f5565b9150818183526020840193506020810190508385604084028201111561296f57600080fd5b60005b8381101561299f57816129858882612b92565b845260208401935060408301925050600181019050612972565b5050505092915050565b600082601f8301126129ba57600080fd5b60026129cd6129c882613852565b6137f5565b915081838560208402820111156129e357600080fd5b60005b83811015612a1357816129f98882612ce2565b8452602084019350602083019250506001810190506129e6565b5050505092915050565b600082601f830112612a2e57600080fd5b6008612a41612a3c82613878565b6137f5565b91508183856020840282011115612a5757600080fd5b60005b83811015612a875781612a6d8882612ccd565b845260208401935060208301925050600181019050612a5a565b5050505092915050565b600082601f830112612aa257600080fd5b8135612ab5612ab08261389e565b6137f5565b91508181835260208401935060208101905083856020840282011115612ada57600080fd5b60005b83811015612b0a5781612af08882612ccd565b845260208401935060208301925050600181019050612add565b5050505092915050565b600081519050612b2381613b1e565b92915050565b600081519050612b3881613b35565b92915050565b600081519050612b4d81613b4c565b92915050565b600081519050612b6281613b63565b92915050565b600081359050612b7781613b7a565b92915050565b600081519050612b8c81613b91565b92915050565b600060408284031215612ba457600080fd5b612bae60406137f5565b90506000612bbe84828501612ce2565b6000830152506020612bd284828501612ce2565b60208301525092915050565b600060808284031215612bf057600080fd5b612bfa60406137f5565b90506000612c0a848285016129a9565b6000830152506040612c1e848285016129a9565b60208301525092915050565b60006101e08284031215612c3d57600080fd5b612c4760a06137f5565b90506000612c5784828501612b92565b6000830152506040612c6b84828501612bde565b60208301525060c0612c7f84828501612bde565b604083015250610140612c9484828501612bde565b6060830152506101c082015167ffffffffffffffff811115612cb557600080fd5b612cc184828501612926565b60808301525092915050565b600081359050612cdc81613ba8565b92915050565b600081519050612cf181613ba8565b92915050565b600081519050612d0681613bbf565b92915050565b600060208284031215612d1e57600080fd5b6000612d2c84828501612911565b91505092915050565b600060208284031215612d4757600080fd5b600082013567ffffffffffffffff811115612d6157600080fd5b612d6d84828501612a91565b91505092915050565b600060208284031215612d8857600080fd5b6000612d9684828501612b14565b91505092915050565b600060208284031215612db157600080fd5b6000612dbf84828501612b29565b91505092915050565b600060208284031215612dda57600080fd5b6000612de884828501612b3e565b91505092915050565b600060208284031215612e0357600080fd5b6000612e1184828501612b53565b91505092915050565b600060208284031215612e2c57600080fd5b6000612e3a84828501612b68565b91505092915050565b60008060408385031215612e5657600080fd5b6000612e6485828601612b68565b9250506020612e7585828601612ccd565b9150509250929050565b60008060006101408486031215612e9557600080fd5b6000612ea386828701612b68565b9350506020612eb486828701612ccd565b9250506040612ec586828701612a1d565b9150509250925092565b600080600060608486031215612ee457600080fd5b6000612ef286828701612b68565b9350506020612f0386828701612ccd565b9250506040612f1486828701612ccd565b9150509250925092565b600060208284031215612f3057600080fd5b6000612f3e84828501612b7d565b91505092915050565b600060208284031215612f5957600080fd5b600082015167ffffffffffffffff811115612f7357600080fd5b612f7f84828501612c2a565b91505092915050565b600060208284031215612f9a57600080fd5b6000612fa884828501612ce2565b91505092915050565b60008060408385031215612fc457600080fd5b6000612fd285828601612ccd565b9250506020612fe385828601612ccd565b9150509250929050565b6000806040838503121561300057600080fd5b600061300e85828601612ce2565b925050602061301f85828601612ce2565b9150509250929050565b60006020828403121561303b57600080fd5b600061304984828501612cf7565b91505092915050565b6000806040838503121561306557600080fd5b600061307385828601612cf7565b925050602061308485828601612cf7565b9150509250929050565b600080600080608085870312156130a457600080fd5b60006130b287828801612cf7565b94505060206130c387828801612cf7565b93505060406130d487828801612cf7565b92505060606130e587828801612cf7565b91505092959194509250565b60006130fd83836134b4565b60408301905092915050565b6000613115838361358b565b60208301905092915050565b600061312d83836135a9565b60208301905092915050565b600061314583836135b8565b60208301905092915050565b61315a816139e4565b82525050565b600061316b826138fe565b6131758185613974565b9350613180836138ca565b8060005b838110156131b157815161319888826130f1565b97506131a383613940565b925050600181019050613184565b5085935050505092915050565b6131c781613909565b6131d18184613985565b92506131dc826138da565b8060005b8381101561320d5781516131f48782613109565b96506131ff8361394d565b9250506001810190506131e0565b505050505050565b61321e81613914565b6132288184613990565b9250613233826138e4565b8060005b8381101561326457815161324b8782613109565b96506132568361395a565b925050600181019050613237565b505050505050565b60006132778261391f565b613281818561399b565b935061328c836138ee565b8060005b838110156132bd5781516132a48882613109565b97506132af83613967565b925050600181019050613290565b5085935050505092915050565b60006132d58261391f565b6132df81856139ac565b93506132ea836138ee565b8060005b8381101561331b5781516133028882613139565b975061330d83613967565b9250506001810190506132ee565b5085935050505092915050565b60006133338261391f565b61333d81856139bd565b9350613348836138ee565b8060005b838110156133795781516133608882613121565b975061336b83613967565b92505060018101905061334c565b5085935050505092915050565b61338f816139f6565b82525050565b60006133a08261392a565b6133aa81856139c8565b93506133ba818560208601613ac1565b80840191505092915050565b6133cf81613a8b565b82525050565b60006133e082613935565b6133ea81856139d3565b93506133fa818560208601613ac1565b61340381613af6565b840191505092915050565b600061341b6026836139d3565b91507f4f776e61626c653a206e6577206f776e657220697320746865207a65726f206160008301527f64647265737300000000000000000000000000000000000000000000000000006020830152604082019050919050565b60006134816020836139d3565b91507f4f776e61626c653a2063616c6c6572206973206e6f7420746865206f776e65726000830152602082019050919050565b6040820160008201516134ca600085018261358b565b5060208201516134dd602085018261358b565b50505050565b6080820160008201516134f960008501826131be565b50602082015161350c60408501826131be565b50505050565b60006101e08301600083015161352b60008601826134b4565b50602083015161353e60408601826134e3565b50604083015161355160c08601826134e3565b5060608301516135656101408601826134e3565b5060808301518482036101c086015261357e8282613160565b9150508091505092915050565b61359481613a74565b82525050565b6135a381613a74565b82525050565b6135b281613a74565b82525050565b6135c181613a74565b82525050565b6135d081613aaf565b82525050565b60006135e28284613328565b915081905092915050565b60006135f98284613395565b915081905092915050565b60006020820190506136196000830184613151565b92915050565b6000610140820190506136356000830186613215565b8181036101008301526136488185613512565b905081810361012083015261365d818461326c565b9050949350505050565b6000602082019050818103600083015261368181846132ca565b905092915050565b600060208201905081810360008301526136a3818461326c565b905092915050565b60006020820190506136c06000830184613386565b92915050565b60006020820190506136db60008301846133c6565b92915050565b600060208201905081810360008301526136fb81846133d5565b905092915050565b6000602082019050818103600083015261371c8161340e565b9050919050565b6000602082019050818103600083015261373c81613474565b9050919050565b6000602082019050613758600083018461359a565b92915050565b600060208201905061377360008301846135c7565b92915050565b600060608201905061378e60008301866135c7565b61379b60208301856135c7565b6137a860408301846135c7565b949350505050565b60006080820190506137c560008301876135c7565b6137d260208301866135c7565b6137df60408301856135c7565b6137ec606083018461359a565b95945050505050565b6000604051905081810181811067ffffffffffffffff8211171561381c5761381b613af4565b5b8060405250919050565b600067ffffffffffffffff82111561384157613840613af4565b5b602082029050602081019050919050565b600067ffffffffffffffff82111561386d5761386c613af4565b5b602082029050919050565b600067ffffffffffffffff82111561389357613892613af4565b5b602082029050919050565b600067ffffffffffffffff8211156138b9576138b8613af4565b5b602082029050602081019050919050565b6000819050602082019050919050565b6000819050919050565b6000819050919050565b6000819050602082019050919050565b600081519050919050565b600060029050919050565b600060089050919050565b600081519050919050565b600081519050919050565b600081519050919050565b6000602082019050919050565b6000602082019050919050565b6000602082019050919050565b6000602082019050919050565b600082825260208201905092915050565b600081905092915050565b600081905092915050565b600082825260208201905092915050565b600082825260208201905092915050565b600081905092915050565b600081905092915050565b600082825260208201905092915050565b60006139ef82613a54565b9050919050565b60008115159050919050565b6000819050919050565b6000613a17826139e4565b9050919050565b6000613a29826139e4565b9050919050565b6000613a3b826139e4565b9050919050565b6000613a4d826139e4565b9050919050565b600073ffffffffffffffffffffffffffffffffffffffff82169050919050565b6000819050919050565b600060ff82169050919050565b6000613a9682613a9d565b9050919050565b6000613aa882613a54565b9050919050565b6000613aba82613a7e565b9050919050565b60005b83811015613adf578082015181840152602081019050613ac4565b83811115613aee576000848401525b50505050565bfe5b6000601f19601f8301169050919050565b613b10816139e4565b8114613b1b57600080fd5b50565b613b27816139f6565b8114613b3257600080fd5b50565b613b3e81613a02565b8114613b4957600080fd5b50565b613b5581613a0c565b8114613b6057600080fd5b50565b613b6c81613a1e565b8114613b7757600080fd5b50565b613b8381613a30565b8114613b8e57600080fd5b50565b613b9a81613a42565b8114613ba557600080fd5b50565b613bb181613a74565b8114613bbc57600080fd5b50565b613bc881613a7e565b8114613bd357600080fd5b5056fea2646970667358221220a0ff8dac3fa58f3c554ecac4d7d2c33572d0f4a6c0f226b18e753bd6d518522764736f6c63430007020033",
  "linkReferences": {
    "contracts/crypto/Hasher.sol": {
      "PoseidonT3": [
        {
          "length": 20,
          "start": 6050
        }
      ],
      "PoseidonT4": [
        {
          "length": 20,
          "start": 2111
        }
      ],
      "PoseidonT5": [
        {
          "length": 20,
          "start": 6194
        }
      ],
      "PoseidonT6": [
        {
          "length": 20,
          "start": 7001
        }
      ]
    }
  },
  "deployedLinkReferences": {
    "contracts/crypto/Hasher.sol": {
      "PoseidonT3": [
        {
          "length": 20,
          "start": 5558
        }
      ],
      "PoseidonT4": [
        {
          "length": 20,
          "start": 1619
        }
      ],
      "PoseidonT5": [
        {
          "length": 20,
          "start": 5702
        }
      ],
      "PoseidonT6": [
        {
          "length": 20,
          "start": 6509
        }
      ]
    }
  }
}