{
  "_format": "hh-sol-artifact-1",
  "contractName": "SignUpToken",
  "sourceName": "contracts/SignUpToken.sol",
  "abi": [
    {
      "inputs": [],
      "stateMutability": "nonpayable",
      "type": "constructor"
    },
    {
      "anonymous": false,
      "inputs": [
        {
          "indexed": true,
          "internalType": "address",
          "name": "owner",
          "type": "address"
        },
        {
          "indexed": true,
          "internalType": "address",
          "name": "approved",
          "type": "address"
        },
        {
          "indexed": true,
          "internalType": "uint256",
          "name": "tokenId",
          "type": "uint256"
        }
      ],
      "name": "Approval",
      "type": "event"
    },
    {
      "anonymous": false,
      "inputs": [
        {
          "indexed": true,
          "internalType": "address",
          "name": "owner",
          "type": "address"
        },
        {
          "indexed": true,
          "internalType": "address",
          "name": "operator",
          "type": "address"
        },
        {
          "indexed": false,
          "internalType": "bool",
          "name": "approved",
          "type": "bool"
        }
      ],
      "name": "ApprovalForAll",
      "type": "event"
    },
    {
      "anonymous": false,
      "inputs": [
        {
          "indexed": true,
          "internalType": "address",
          "name": "previousOwner",
          "type": "address"
        },
        {
          "indexed": true,
          "internalType": "address",
          "name": "newOwner",
          "type": "address"
        }
      ],
      "name": "OwnershipTransferred",
      "type": "event"
    },
    {
      "anonymous": false,
      "inputs": [
        {
          "indexed": true,
          "internalType": "address",
          "name": "from",
          "type": "address"
        },
        {
          "indexed": true,
          "internalType": "address",
          "name": "to",
          "type": "address"
        },
        {
          "indexed": true,
          "internalType": "uint256",
          "name": "tokenId",
          "type": "uint256"
        }
      ],
      "name": "Transfer",
      "type": "event"
    },
    {
      "inputs": [
        {
          "internalType": "address",
          "name": "to",
          "type": "address"
        },
        {
          "internalType": "uint256",
          "name": "tokenId",
          "type": "uint256"
        }
      ],
      "name": "approve",
      "outputs": [],
      "stateMutability": "nonpayable",
      "type": "function"
    },
    {
      "inputs": [
        {
          "internalType": "address",
          "name": "owner",
          "type": "address"
        }
      ],
      "name": "balanceOf",
      "outputs": [
        {
          "internalType": "uint256",
          "name": "",
          "type": "uint256"
        }
      ],
      "stateMutability": "view",
      "type": "function"
    },
    {
      "inputs": [],
      "name": "baseURI",
      "outputs": [
        {
          "internalType": "string",
          "name": "",
          "type": "string"
        }
      ],
      "stateMutability": "view",
      "type": "function"
    },
    {
      "inputs": [
        {
          "internalType": "uint256",
          "name": "tokenId",
          "type": "uint256"
        }
      ],
      "name": "getApproved",
      "outputs": [
        {
          "internalType": "address",
          "name": "",
          "type": "address"
        }
      ],
      "stateMutability": "view",
      "type": "function"
    },
    {
      "inputs": [],
      "name": "getCurrentSupply",
      "outputs": [
        {
          "internalType": "uint256",
          "name": "",
          "type": "uint256"
        }
      ],
      "stateMutability": "view",
      "type": "function"
    },
    {
      "inputs": [
        {
          "internalType": "address",
          "name": "to",
          "type": "address"
        }
      ],
      "name": "giveToken",
      "outputs": [],
      "stateMutability": "nonpayable",
      "type": "function"
    },
    {
      "inputs": [
        {
          "internalType": "address",
          "name": "owner",
          "type": "address"
        },
        {
          "internalType": "address",
          "name": "operator",
          "type": "address"
        }
      ],
      "name": "isApprovedForAll",
      "outputs": [
        {
          "internalType": "bool",
          "name": "",
          "type": "bool"
        }
      ],
      "stateMutability": "view",
      "type": "function"
    },
    {
      "inputs": [],
      "name": "name",
      "outputs": [
        {
          "internalType": "string",
          "name": "",
          "type": "string"
        }
      ],
      "stateMutability": "view",
      "type": "function"
    },
    {
      "inputs": [],
      "name": "owner",
      "outputs": [
        {
          "internalType": "address",
          "name": "",
          "type": "address"
        }
      ],
      "stateMutability": "view",
      "type": "function"
    },
    {
      "inputs": [
        {
          "internalType": "uint256",
          "name": "tokenId",
          "type": "uint256"
        }
      ],
      "name": "ownerOf",
      "outputs": [
        {
          "internalType": "address",
          "name": "",
          "type": "address"
        }
      ],
      "stateMutability": "view",
      "type": "function"
    },
    {
      "inputs": [],
      "name": "renounceOwnership",
      "outputs": [],
      "stateMutability": "nonpayable",
      "type": "function"
    },
    {
      "inputs": [
        {
          "internalType": "address",
          "name": "from",
          "type": "address"
        },
        {
          "internalType": "address",
          "name": "to",
          "type": "address"
        },
        {
          "internalType": "uint256",
          "name": "tokenId",
          "type": "uint256"
        }
      ],
      "name": "safeTransferFrom",
      "outputs": [],
      "stateMutability": "nonpayable",
      "type": "function"
    },
    {
      "inputs": [
        {
          "internalType": "address",
          "name": "from",
          "type": "address"
        },
        {
          "internalType": "address",
          "name": "to",
          "type": "address"
        },
        {
          "internalType": "uint256",
          "name": "tokenId",
          "type": "uint256"
        },
        {
          "internalType": "bytes",
          "name": "_data",
          "type": "bytes"
        }
      ],
      "name": "safeTransferFrom",
      "outputs": [],
      "stateMutability": "nonpayable",
      "type": "function"
    },
    {
      "inputs": [
        {
          "internalType": "address",
          "name": "operator",
          "type": "address"
        },
        {
          "internalType": "bool",
          "name": "approved",
          "type": "bool"
        }
      ],
      "name": "setApprovalForAll",
      "outputs": [],
      "stateMutability": "nonpayable",
      "type": "function"
    },
    {
      "inputs": [
        {
          "internalType": "bytes4",
          "name": "interfaceId",
          "type": "bytes4"
        }
      ],
      "name": "supportsInterface",
      "outputs": [
        {
          "internalType": "bool",
          "name": "",
          "type": "bool"
        }
      ],
      "stateMutability": "view",
      "type": "function"
    },
    {
      "inputs": [],
      "name": "symbol",
      "outputs": [
        {
          "internalType": "string",
          "name": "",
          "type": "string"
        }
      ],
      "stateMutability": "view",
      "type": "function"
    },
    {
      "inputs": [
        {
          "internalType": "uint256",
          "name": "index",
          "type": "uint256"
        }
      ],
      "name": "tokenByIndex",
      "outputs": [
        {
          "internalType": "uint256",
          "name": "",
          "type": "uint256"
        }
      ],
      "stateMutability": "view",
      "type": "function"
    },
    {
      "inputs": [
        {
          "internalType": "address",
          "name": "owner",
          "type": "address"
        },
        {
          "internalType": "uint256",
          "name": "index",
          "type": "uint256"
        }
      ],
      "name": "tokenOfOwnerByIndex",
      "outputs": [
        {
          "internalType": "uint256",
          "name": "",
          "type": "uint256"
        }
      ],
      "stateMutability": "view",
      "type": "function"
    },
    {
      "inputs": [
        {
          "internalType": "uint256",
          "name": "tokenId",
          "type": "uint256"
        }
      ],
      "name": "tokenURI",
      "outputs": [
        {
          "internalType": "string",
          "name": "",
          "type": "string"
        }
      ],
      "stateMutability": "view",
      "type": "function"
    },
    {
      "inputs": [],
      "name": "totalSupply",
      "outputs": [
        {
          "internalType": "uint256",
          "name": "",
          "type": "uint256"
        }
      ],
      "stateMutability": "view",
      "type": "function"
    },
    {
      "inputs": [
        {
          "internalType": "address",
          "name": "from",
          "type": "address"
        },
        {
          "internalType": "address",
          "name": "to",
          "type": "address"
        },
        {
          "internalType": "uint256",
          "name": "tokenId",
          "type": "uint256"
        }
      ],
      "name": "transferFrom",
      "outputs": [],
      "stateMutability": "nonpayable",
      "type": "function"
    },
    {
      "inputs": [
        {
          "internalType": "address",
          "name": "newOwner",
          "type": "address"
        }
      ],
      "name": "transferOwnership",
      "outputs": [],
      "stateMutability": "nonpayable",
      "type": "function"
    }
  ],
  "bytecode": "0x60806040526001600b553480156200001657600080fd5b506040518060400160405280600b81526020017f5369676e5570546f6b656e0000000000000000000000000000000000000000008152506040518060400160405280600b81526020017f5369676e5570546f6b656e0000000000000000000000000000000000000000008152506200009b6301ffc9a760e01b620001ce60201b60201c565b8160069080519060200190620000b3929190620002df565b508060079080519060200190620000cc929190620002df565b50620000e56380ac58cd60e01b620001ce60201b60201c565b620000fd635b5e139f60e01b620001ce60201b60201c565b6200011563780e9d6360e01b620001ce60201b60201c565b5050600062000129620002d760201b60201c565b905080600a60006101000a81548173ffffffffffffffffffffffffffffffffffffffff021916908373ffffffffffffffffffffffffffffffffffffffff1602179055508073ffffffffffffffffffffffffffffffffffffffff16600073ffffffffffffffffffffffffffffffffffffffff167f8be0079c531659141344cd1fd0a4f28419497f9722a3daafe3b4186f6b6457e060405160405180910390a35062000385565b63ffffffff60e01b817bffffffffffffffffffffffffffffffffffffffffffffffffffffffff191614156200026b576040517f08c379a000000000000000000000000000000000000000000000000000000000815260040180806020018281038252601c8152602001807f4552433136353a20696e76616c696420696e746572666163652069640000000081525060200191505060405180910390fd5b6001600080837bffffffffffffffffffffffffffffffffffffffffffffffffffffffff19167bffffffffffffffffffffffffffffffffffffffffffffffffffffffff1916815260200190815260200160002060006101000a81548160ff02191690831515021790555050565b600033905090565b828054600181600116156101000203166002900490600052602060002090601f016020900481019282601f106200032257805160ff191683800117855562000353565b8280016001018555821562000353579182015b828111156200035257825182559160200191906001019062000335565b5b50905062000362919062000366565b5090565b5b808211156200038157600081600090555060010162000367565b5090565b612f2b80620003956000396000f3fe608060405234801561001057600080fd5b50600436106101425760003560e01c80636c0360eb116100b8578063a22cb4651161007c578063a22cb46514610683578063b88d4fde146106d3578063c87b56dd146107d8578063e26835ce1461087f578063e985e9c5146108c3578063f2fde38b1461093d57610142565b80636c0360eb146104e757806370a082311461056a578063715018a6146105c25780638da5cb5b146105cc57806395d89b411461060057610142565b806323b872dd1161010a57806323b872dd146102f15780632f745c591461035f57806342842e0e146103c15780634f3e1efc1461042f5780634f6ccce71461044d5780636352211e1461048f57610142565b806301ffc9a71461014757806306fdde03146101aa578063081812fc1461022d578063095ea7b31461028557806318160ddd146102d3575b600080fd5b6101926004803603602081101561015d57600080fd5b8101908080357bffffffffffffffffffffffffffffffffffffffffffffffffffffffff19169060200190929190505050610981565b60405180821515815260200191505060405180910390f35b6101b26109e8565b6040518080602001828103825283818151815260200191508051906020019080838360005b838110156101f25780820151818401526020810190506101d7565b50505050905090810190601f16801561021f5780820380516001836020036101000a031916815260200191505b509250505060405180910390f35b6102596004803603602081101561024357600080fd5b8101908080359060200190929190505050610a8a565b604051808273ffffffffffffffffffffffffffffffffffffffff16815260200191505060405180910390f35b6102d16004803603604081101561029b57600080fd5b81019080803573ffffffffffffffffffffffffffffffffffffffff16906020019092919080359060200190929190505050610b25565b005b6102db610c69565b6040518082815260200191505060405180910390f35b61035d6004803603606081101561030757600080fd5b81019080803573ffffffffffffffffffffffffffffffffffffffff169060200190929190803573ffffffffffffffffffffffffffffffffffffffff16906020019092919080359060200190929190505050610c7a565b005b6103ab6004803603604081101561037557600080fd5b81019080803573ffffffffffffffffffffffffffffffffffffffff16906020019092919080359060200190929190505050610cf0565b6040518082815260200191505060405180910390f35b61042d600480360360608110156103d757600080fd5b81019080803573ffffffffffffffffffffffffffffffffffffffff169060200190929190803573ffffffffffffffffffffffffffffffffffffffff16906020019092919080359060200190929190505050610d4b565b005b610437610d6b565b6040518082815260200191505060405180910390f35b6104796004803603602081101561046357600080fd5b8101908080359060200190929190505050610d75565b6040518082815260200191505060405180910390f35b6104bb600480360360208110156104a557600080fd5b8101908080359060200190929190505050610d98565b604051808273ffffffffffffffffffffffffffffffffffffffff16815260200191505060405180910390f35b6104ef610dcf565b6040518080602001828103825283818151815260200191508051906020019080838360005b8381101561052f578082015181840152602081019050610514565b50505050905090810190601f16801561055c5780820380516001836020036101000a031916815260200191505b509250505060405180910390f35b6105ac6004803603602081101561058057600080fd5b81019080803573ffffffffffffffffffffffffffffffffffffffff169060200190929190505050610e71565b6040518082815260200191505060405180910390f35b6105ca610f46565b005b6105d46110d1565b604051808273ffffffffffffffffffffffffffffffffffffffff16815260200191505060405180910390f35b6106086110fb565b6040518080602001828103825283818151815260200191508051906020019080838360005b8381101561064857808201518184015260208101905061062d565b50505050905090810190601f1680156106755780820380516001836020036101000a031916815260200191505b509250505060405180910390f35b6106d16004803603604081101561069957600080fd5b81019080803573ffffffffffffffffffffffffffffffffffffffff16906020019092919080351515906020019092919050505061119d565b005b6107d6600480360360808110156106e957600080fd5b81019080803573ffffffffffffffffffffffffffffffffffffffff169060200190929190803573ffffffffffffffffffffffffffffffffffffffff169060200190929190803590602001909291908035906020019064010000000081111561075057600080fd5b82018360208201111561076257600080fd5b8035906020019184600183028401116401000000008311171561078457600080fd5b91908080601f016020809104026020016040519081016040528093929190818152602001838380828437600081840152601f19601f820116905080830192505050505050509192919290505050611353565b005b610804600480360360208110156107ee57600080fd5b81019080803590602001909291905050506113cb565b6040518080602001828103825283818151815260200191508051906020019080838360005b83811015610844578082015181840152602081019050610829565b50505050905090810190601f1680156108715780820380516001836020036101000a031916815260200191505b509250505060405180910390f35b6108c16004803603602081101561089557600080fd5b81019080803573ffffffffffffffffffffffffffffffffffffffff1690602001909291905050506116b4565b005b610925600480360360408110156108d957600080fd5b81019080803573ffffffffffffffffffffffffffffffffffffffff169060200190929190803573ffffffffffffffffffffffffffffffffffffffff16906020019092919050505061179e565b60405180821515815260200191505060405180910390f35b61097f6004803603602081101561095357600080fd5b81019080803573ffffffffffffffffffffffffffffffffffffffff169060200190929190505050611832565b005b6000806000837bffffffffffffffffffffffffffffffffffffffffffffffffffffffff19167bffffffffffffffffffffffffffffffffffffffffffffffffffffffff1916815260200190815260200160002060009054906101000a900460ff169050919050565b606060068054600181600116156101000203166002900480601f016020809104026020016040519081016040528092919081815260200182805460018160011615610100020316600290048015610a805780601f10610a5557610100808354040283529160200191610a80565b820191906000526020600020905b815481529060010190602001808311610a6357829003601f168201915b5050505050905090565b6000610a9582611a42565b610aea576040517f08c379a000000000000000000000000000000000000000000000000000000000815260040180806020018281038252602c815260200180612e20602c913960400191505060405180910390fd5b6004600083815260200190815260200160002060009054906101000a900473ffffffffffffffffffffffffffffffffffffffff169050919050565b6000610b3082610d98565b90508073ffffffffffffffffffffffffffffffffffffffff168373ffffffffffffffffffffffffffffffffffffffff161415610bb7576040517f08c379a0000000000000000000000000000000000000000000000000000000008152600401808060200182810382526021815260200180612ea46021913960400191505060405180910390fd5b8073ffffffffffffffffffffffffffffffffffffffff16610bd6611a5f565b73ffffffffffffffffffffffffffffffffffffffff161480610c055750610c0481610bff611a5f565b61179e565b5b610c5a576040517f08c379a0000000000000000000000000000000000000000000000000000000008152600401808060200182810382526038815260200180612d736038913960400191505060405180910390fd5b610c648383611a67565b505050565b6000610c756002611b20565b905090565b610c8b610c85611a5f565b82611b35565b610ce0576040517f08c379a0000000000000000000000000000000000000000000000000000000008152600401808060200182810382526031815260200180612ec56031913960400191505060405180910390fd5b610ceb838383611c29565b505050565b6000610d4382600160008673ffffffffffffffffffffffffffffffffffffffff1673ffffffffffffffffffffffffffffffffffffffff168152602001908152602001600020611e6c90919063ffffffff16565b905092915050565b610d6683838360405180602001604052806000815250611353565b505050565b6000600b54905090565b600080610d8c836002611e8690919063ffffffff16565b50905080915050919050565b6000610dc882604051806060016040528060298152602001612dd5602991396002611eb29092919063ffffffff16565b9050919050565b606060098054600181600116156101000203166002900480601f016020809104026020016040519081016040528092919081815260200182805460018160011615610100020316600290048015610e675780601f10610e3c57610100808354040283529160200191610e67565b820191906000526020600020905b815481529060010190602001808311610e4a57829003601f168201915b5050505050905090565b60008073ffffffffffffffffffffffffffffffffffffffff168273ffffffffffffffffffffffffffffffffffffffff161415610ef8576040517f08c379a000000000000000000000000000000000000000000000000000000000815260040180806020018281038252602a815260200180612dab602a913960400191505060405180910390fd5b610f3f600160008473ffffffffffffffffffffffffffffffffffffffff1673ffffffffffffffffffffffffffffffffffffffff168152602001908152602001600020611ed1565b9050919050565b610f4e611a5f565b73ffffffffffffffffffffffffffffffffffffffff16600a60009054906101000a900473ffffffffffffffffffffffffffffffffffffffff1673ffffffffffffffffffffffffffffffffffffffff1614611010576040517f08c379a00000000000000000000000000000000000000000000000000000000081526004018080602001828103825260208152602001807f4f776e61626c653a2063616c6c6572206973206e6f7420746865206f776e657281525060200191505060405180910390fd5b600073ffffffffffffffffffffffffffffffffffffffff16600a60009054906101000a900473ffffffffffffffffffffffffffffffffffffffff1673ffffffffffffffffffffffffffffffffffffffff167f8be0079c531659141344cd1fd0a4f28419497f9722a3daafe3b4186f6b6457e060405160405180910390a36000600a60006101000a81548173ffffffffffffffffffffffffffffffffffffffff021916908373ffffffffffffffffffffffffffffffffffffffff160217905550565b6000600a60009054906101000a900473ffffffffffffffffffffffffffffffffffffffff16905090565b606060078054600181600116156101000203166002900480601f0160208091040260200160405190810160405280929190818152602001828054600181600116156101000203166002900480156111935780601f1061116857610100808354040283529160200191611193565b820191906000526020600020905b81548152906001019060200180831161117657829003601f168201915b5050505050905090565b6111a5611a5f565b73ffffffffffffffffffffffffffffffffffffffff168273ffffffffffffffffffffffffffffffffffffffff161415611246576040517f08c379a00000000000000000000000000000000000000000000000000000000081526004018080602001828103825260198152602001807f4552433732313a20617070726f766520746f2063616c6c65720000000000000081525060200191505060405180910390fd5b8060056000611253611a5f565b73ffffffffffffffffffffffffffffffffffffffff1673ffffffffffffffffffffffffffffffffffffffff16815260200190815260200160002060008473ffffffffffffffffffffffffffffffffffffffff1673ffffffffffffffffffffffffffffffffffffffff16815260200190815260200160002060006101000a81548160ff0219169083151502179055508173ffffffffffffffffffffffffffffffffffffffff16611300611a5f565b73ffffffffffffffffffffffffffffffffffffffff167f17307eab39ab6107e8899845ad3d59bd9653f200f220920489ca2b5937696c318360405180821515815260200191505060405180910390a35050565b61136461135e611a5f565b83611b35565b6113b9576040517f08c379a0000000000000000000000000000000000000000000000000000000008152600401808060200182810382526031815260200180612ec56031913960400191505060405180910390fd5b6113c584848484611ee6565b50505050565b60606113d682611a42565b61142b576040517f08c379a000000000000000000000000000000000000000000000000000000000815260040180806020018281038252602f815260200180612e75602f913960400191505060405180910390fd5b6060600860008481526020019081526020016000208054600181600116156101000203166002900480601f0160208091040260200160405190810160405280929190818152602001828054600181600116156101000203166002900480156114d45780601f106114a9576101008083540402835291602001916114d4565b820191906000526020600020905b8154815290600101906020018083116114b757829003601f168201915b5050505050905060006009805460018160011615610100020316600290049050141561150357809150506116af565b6000815111156115dc57600981604051602001808380546001816001161561010002031660029004801561156e5780601f1061154c57610100808354040283529182019161156e565b820191906000526020600020905b81548152906001019060200180831161155a575b505082805190602001908083835b6020831061159f578051825260208201915060208101905060208303925061157c565b6001836020036101000a038019825116818451168082178552505050505050905001925050506040516020818303038152906040529150506116af565b60096115e784611f58565b60405160200180838054600181600116156101000203166002900480156116455780601f10611623576101008083540402835291820191611645565b820191906000526020600020905b815481529060010190602001808311611631575b505082805190602001908083835b602083106116765780518252602082019150602081019050602083039250611653565b6001836020036101000a038019825116818451168082178552505050505050905001925050506040516020818303038152906040529150505b919050565b6116bc611a5f565b73ffffffffffffffffffffffffffffffffffffffff16600a60009054906101000a900473ffffffffffffffffffffffffffffffffffffffff1673ffffffffffffffffffffffffffffffffffffffff161461177e576040517f08c379a00000000000000000000000000000000000000000000000000000000081526004018080602001828103825260208152602001807f4f776e61626c653a2063616c6c6572206973206e6f7420746865206f776e657281525060200191505060405180910390fd5b61178a81600b5461209f565b6001600b6000828254019250508190555050565b6000600560008473ffffffffffffffffffffffffffffffffffffffff1673ffffffffffffffffffffffffffffffffffffffff16815260200190815260200160002060008373ffffffffffffffffffffffffffffffffffffffff1673ffffffffffffffffffffffffffffffffffffffff16815260200190815260200160002060009054906101000a900460ff16905092915050565b61183a611a5f565b73ffffffffffffffffffffffffffffffffffffffff16600a60009054906101000a900473ffffffffffffffffffffffffffffffffffffffff1673ffffffffffffffffffffffffffffffffffffffff16146118fc576040517f08c379a00000000000000000000000000000000000000000000000000000000081526004018080602001828103825260208152602001807f4f776e61626c653a2063616c6c6572206973206e6f7420746865206f776e657281525060200191505060405180910390fd5b600073ffffffffffffffffffffffffffffffffffffffff168173ffffffffffffffffffffffffffffffffffffffff161415611982576040517f08c379a0000000000000000000000000000000000000000000000000000000008152600401808060200182810382526026815260200180612cd76026913960400191505060405180910390fd5b8073ffffffffffffffffffffffffffffffffffffffff16600a60009054906101000a900473ffffffffffffffffffffffffffffffffffffffff1673ffffffffffffffffffffffffffffffffffffffff167f8be0079c531659141344cd1fd0a4f28419497f9722a3daafe3b4186f6b6457e060405160405180910390a380600a60006101000a81548173ffffffffffffffffffffffffffffffffffffffff021916908373ffffffffffffffffffffffffffffffffffffffff16021790555050565b6000611a5882600261229390919063ffffffff16565b9050919050565b600033905090565b816004600083815260200190815260200160002060006101000a81548173ffffffffffffffffffffffffffffffffffffffff021916908373ffffffffffffffffffffffffffffffffffffffff160217905550808273ffffffffffffffffffffffffffffffffffffffff16611ada83610d98565b73ffffffffffffffffffffffffffffffffffffffff167f8c5be1e5ebec7d5bd14f71427d1e84f3dd0314c0f7b2291e5b200ac8c7c3b92560405160405180910390a45050565b6000611b2e826000016122ad565b9050919050565b6000611b4082611a42565b611b95576040517f08c379a000000000000000000000000000000000000000000000000000000000815260040180806020018281038252602c815260200180612d47602c913960400191505060405180910390fd5b6000611ba083610d98565b90508073ffffffffffffffffffffffffffffffffffffffff168473ffffffffffffffffffffffffffffffffffffffff161480611c0f57508373ffffffffffffffffffffffffffffffffffffffff16611bf784610a8a565b73ffffffffffffffffffffffffffffffffffffffff16145b80611c205750611c1f818561179e565b5b91505092915050565b8273ffffffffffffffffffffffffffffffffffffffff16611c4982610d98565b73ffffffffffffffffffffffffffffffffffffffff1614611cb5576040517f08c379a0000000000000000000000000000000000000000000000000000000008152600401808060200182810382526029815260200180612e4c6029913960400191505060405180910390fd5b600073ffffffffffffffffffffffffffffffffffffffff168273ffffffffffffffffffffffffffffffffffffffff161415611d3b576040517f08c379a0000000000000000000000000000000000000000000000000000000008152600401808060200182810382526024815260200180612cfd6024913960400191505060405180910390fd5b611d468383836122be565b611d51600082611a67565b611da281600160008673ffffffffffffffffffffffffffffffffffffffff1673ffffffffffffffffffffffffffffffffffffffff1681526020019081526020016000206122c390919063ffffffff16565b50611df481600160008573ffffffffffffffffffffffffffffffffffffffff1673ffffffffffffffffffffffffffffffffffffffff1681526020019081526020016000206122dd90919063ffffffff16565b50611e0b818360026122f79092919063ffffffff16565b50808273ffffffffffffffffffffffffffffffffffffffff168473ffffffffffffffffffffffffffffffffffffffff167fddf252ad1be2c89b69c2b068fc378daa952ba7f163c4a11628f55a4df523b3ef60405160405180910390a4505050565b6000611e7b836000018361232c565b60001c905092915050565b600080600080611e9986600001866123af565b915091508160001c8160001c9350935050509250929050565b6000611ec5846000018460001b84612448565b60001c90509392505050565b6000611edf8260000161253e565b9050919050565b611ef1848484611c29565b611efd8484848461254f565b611f52576040517f08c379a0000000000000000000000000000000000000000000000000000000008152600401808060200182810382526032815260200180612ca56032913960400191505060405180910390fd5b50505050565b60606000821415611fa0576040518060400160405280600181526020017f3000000000000000000000000000000000000000000000000000000000000000815250905061209a565b600082905060005b60008214611fca578080600101915050600a8281611fc257fe5b049150611fa8565b60608167ffffffffffffffff81118015611fe357600080fd5b506040519080825280601f01601f1916602001820160405280156120165781602001600182028036833780820191505090505b50905060006001830390508593505b6000841461209257600a848161203757fe5b0660300160f81b8282806001900393508151811061205157fe5b60200101907effffffffffffffffffffffffffffffffffffffffffffffffffffffffffffff1916908160001a905350600a848161208a57fe5b049350612025565b819450505050505b919050565b600073ffffffffffffffffffffffffffffffffffffffff168273ffffffffffffffffffffffffffffffffffffffff161415612142576040517f08c379a00000000000000000000000000000000000000000000000000000000081526004018080602001828103825260208152602001807f4552433732313a206d696e7420746f20746865207a65726f206164647265737381525060200191505060405180910390fd5b61214b81611a42565b156121be576040517f08c379a000000000000000000000000000000000000000000000000000000000815260040180806020018281038252601c8152602001807f4552433732313a20746f6b656e20616c7265616479206d696e7465640000000081525060200191505060405180910390fd5b6121ca600083836122be565b61221b81600160008573ffffffffffffffffffffffffffffffffffffffff1673ffffffffffffffffffffffffffffffffffffffff1681526020019081526020016000206122dd90919063ffffffff16565b50612232818360026122f79092919063ffffffff16565b50808273ffffffffffffffffffffffffffffffffffffffff16600073ffffffffffffffffffffffffffffffffffffffff167fddf252ad1be2c89b69c2b068fc378daa952ba7f163c4a11628f55a4df523b3ef60405160405180910390a45050565b60006122a5836000018360001b612768565b905092915050565b600081600001805490509050919050565b505050565b60006122d5836000018360001b61278b565b905092915050565b60006122ef836000018360001b612873565b905092915050565b6000612323846000018460001b8473ffffffffffffffffffffffffffffffffffffffff1660001b6128e3565b90509392505050565b60008183600001805490501161238d576040517f08c379a0000000000000000000000000000000000000000000000000000000008152600401808060200182810382526022815260200180612c836022913960400191505060405180910390fd5b82600001828154811061239c57fe5b9060005260206000200154905092915050565b60008082846000018054905011612411576040517f08c379a0000000000000000000000000000000000000000000000000000000008152600401808060200182810382526022815260200180612dfe6022913960400191505060405180910390fd5b600084600001848154811061242257fe5b906000526020600020906002020190508060000154816001015492509250509250929050565b6000808460010160008581526020019081526020016000205490506000811415839061250f576040517f08c379a00000000000000000000000000000000000000000000000000000000081526004018080602001828103825283818151815260200191508051906020019080838360005b838110156124d45780820151818401526020810190506124b9565b50505050905090810190601f1680156125015780820380516001836020036101000a031916815260200191505b509250505060405180910390fd5b5084600001600182038154811061252257fe5b9060005260206000209060020201600101549150509392505050565b600081600001805490509050919050565b60006125708473ffffffffffffffffffffffffffffffffffffffff166129bf565b61257d5760019050612760565b60606126e763150b7a0260e01b612592611a5f565b888787604051602401808573ffffffffffffffffffffffffffffffffffffffff1681526020018473ffffffffffffffffffffffffffffffffffffffff16815260200183815260200180602001828103825283818151815260200191508051906020019080838360005b838110156126165780820151818401526020810190506125fb565b50505050905090810190601f1680156126435780820380516001836020036101000a031916815260200191505b5095505050505050604051602081830303815290604052907bffffffffffffffffffffffffffffffffffffffffffffffffffffffff19166020820180517bffffffffffffffffffffffffffffffffffffffffffffffffffffffff8381831617835250505050604051806060016040528060328152602001612ca5603291398773ffffffffffffffffffffffffffffffffffffffff166129d29092919063ffffffff16565b9050600081806020019051602081101561270057600080fd5b8101908080519060200190929190505050905063150b7a0260e01b7bffffffffffffffffffffffffffffffffffffffffffffffffffffffff1916817bffffffffffffffffffffffffffffffffffffffffffffffffffffffff191614925050505b949350505050565b600080836001016000848152602001908152602001600020541415905092915050565b6000808360010160008481526020019081526020016000205490506000811461286757600060018203905060006001866000018054905003905060008660000182815481106127d657fe5b90600052602060002001549050808760000184815481106127f357fe5b906000526020600020018190555060018301876001016000838152602001908152602001600020819055508660000180548061282b57fe5b6001900381819060005260206000200160009055905586600101600087815260200190815260200160002060009055600194505050505061286d565b60009150505b92915050565b600061287f83836129ea565b6128d85782600001829080600181540180825580915050600190039060005260206000200160009091909190915055826000018054905083600101600084815260200190815260200160002081905550600190506128dd565b600090505b92915050565b600080846001016000858152602001908152602001600020549050600081141561298a578460000160405180604001604052808681526020018581525090806001815401808255809150506001900390600052602060002090600202016000909190919091506000820151816000015560208201518160010155505084600001805490508560010160008681526020019081526020016000208190555060019150506129b8565b8285600001600183038154811061299d57fe5b90600052602060002090600202016001018190555060009150505b9392505050565b600080823b905060008111915050919050565b60606129e18484600085612a0d565b90509392505050565b600080836001016000848152602001908152602001600020541415905092915050565b606082471015612a68576040517f08c379a0000000000000000000000000000000000000000000000000000000008152600401808060200182810382526026815260200180612d216026913960400191505060405180910390fd5b612a71856129bf565b612ae3576040517f08c379a000000000000000000000000000000000000000000000000000000000815260040180806020018281038252601d8152602001807f416464726573733a2063616c6c20746f206e6f6e2d636f6e747261637400000081525060200191505060405180910390fd5b600060608673ffffffffffffffffffffffffffffffffffffffff1685876040518082805190602001908083835b60208310612b335780518252602082019150602081019050602083039250612b10565b6001836020036101000a03801982511681845116808217855250505050505090500191505060006040518083038185875af1925050503d8060008114612b95576040519150601f19603f3d011682016040523d82523d6000602084013e612b9a565b606091505b5091509150612baa828286612bb6565b92505050949350505050565b60608315612bc657829050612c7b565b600083511115612bd95782518084602001fd5b816040517f08c379a00000000000000000000000000000000000000000000000000000000081526004018080602001828103825283818151815260200191508051906020019080838360005b83811015612c40578082015181840152602081019050612c25565b50505050905090810190601f168015612c6d5780820380516001836020036101000a031916815260200191505b509250505060405180910390fd5b939250505056fe456e756d657261626c655365743a20696e646578206f7574206f6620626f756e64734552433732313a207472616e7366657220746f206e6f6e20455243373231526563656976657220696d706c656d656e7465724f776e61626c653a206e6577206f776e657220697320746865207a65726f20616464726573734552433732313a207472616e7366657220746f20746865207a65726f2061646472657373416464726573733a20696e73756666696369656e742062616c616e636520666f722063616c6c4552433732313a206f70657261746f7220717565727920666f72206e6f6e6578697374656e7420746f6b656e4552433732313a20617070726f76652063616c6c6572206973206e6f74206f776e6572206e6f7220617070726f76656420666f7220616c6c4552433732313a2062616c616e636520717565727920666f7220746865207a65726f20616464726573734552433732313a206f776e657220717565727920666f72206e6f6e6578697374656e7420746f6b656e456e756d657261626c654d61703a20696e646578206f7574206f6620626f756e64734552433732313a20617070726f76656420717565727920666f72206e6f6e6578697374656e7420746f6b656e4552433732313a207472616e73666572206f6620746f6b656e2074686174206973206e6f74206f776e4552433732314d657461646174613a2055524920717565727920666f72206e6f6e6578697374656e7420746f6b656e4552433732313a20617070726f76616c20746f2063757272656e74206f776e65724552433732313a207472616e736665722063616c6c6572206973206e6f74206f776e6572206e6f7220617070726f766564a2646970667358221220eb4f42c74fde13c6f7e6a19158162874760da1176d4ab98396ff51a8062f49cc64736f6c63430007020033",
  "linkReferences": {},
  "deployedLinkReferences": {}
}