{
  "_format": "hh-sol-artifact-1",
  "contractName": "MockVerifier",
  "sourceName": "contracts/crypto/Verifier.sol",
  "abi": [
    {
      "inputs": [
        {
          "internalType": "uint256[8]",
          "name": "",
          "type": "uint256[8]"
        },
        {
          "components": [
            {
              "components": [
                {
                  "internalType": "uint256",
                  "name": "x",
                  "type": "uint256"
                },
                {
                  "internalType": "uint256",
                  "name": "y",
                  "type": "uint256"
                }
              ],
              "internalType": "struct Pairing.G1Point",
              "name": "alpha1",
              "type": "tuple"
            },
            {
              "components": [
                {
                  "internalType": "uint256[2]",
                  "name": "x",
                  "type": "uint256[2]"
                },
                {
                  "internalType": "uint256[2]",
                  "name": "y",
                  "type": "uint256[2]"
                }
              ],
              "internalType": "struct Pairing.G2Point",
              "name": "beta2",
              "type": "tuple"
            },
            {
              "components": [
                {
                  "internalType": "uint256[2]",
                  "name": "x",
                  "type": "uint256[2]"
                },
                {
                  "internalType": "uint256[2]",
                  "name": "y",
                  "type": "uint256[2]"
                }
              ],
              "internalType": "struct Pairing.G2Point",
              "name": "gamma2",
              "type": "tuple"
            },
            {
              "components": [
                {
                  "internalType": "uint256[2]",
                  "name": "x",
                  "type": "uint256[2]"
                },
                {
                  "internalType": "uint256[2]",
                  "name": "y",
                  "type": "uint256[2]"
                }
              ],
              "internalType": "struct Pairing.G2Point",
              "name": "delta2",
              "type": "tuple"
            },
            {
              "components": [
                {
                  "internalType": "uint256",
                  "name": "x",
                  "type": "uint256"
                },
                {
                  "internalType": "uint256",
                  "name": "y",
                  "type": "uint256"
                }
              ],
              "internalType": "struct Pairing.G1Point[]",
              "name": "ic",
              "type": "tuple[]"
            }
          ],
          "internalType": "struct SnarkCommon.VerifyingKey",
          "name": "",
          "type": "tuple"
        },
        {
          "internalType": "uint256",
          "name": "",
          "type": "uint256"
        }
      ],
      "name": "verify",
      "outputs": [
        {
          "internalType": "bool",
          "name": "",
          "type": "bool"
        }
      ],
      "stateMutability": "view",
      "type": "function"
    }
  ],
  "bytecode": "0x608060405260016000806101000a81548160ff02191690831515021790555034801561002a57600080fd5b506104d78061003a6000396000f3fe608060405234801561001057600080fd5b506004361061002b5760003560e01c806322b72c9414610030575b600080fd5b61004a60048036038101906100459190610335565b610060565b60405161005791906103ae565b60405180910390f35b60008060009054906101000a900460ff1690509392505050565b600082601f83011261008b57600080fd5b813561009e610099826103fa565b6103c9565b915081818352602084019350602081019050838560408402820111156100c357600080fd5b60005b838110156100f357816100d988826101e5565b8452602084019350604083019250506001810190506100c6565b5050505092915050565b600082601f83011261010e57600080fd5b600261012161011c82610426565b6103c9565b9150818385602084028201111561013757600080fd5b60005b83811015610167578161014d8882610320565b84526020840193506020830192505060018101905061013a565b5050505092915050565b600082601f83011261018257600080fd5b60086101956101908261044c565b6103c9565b915081838560208402820111156101ab57600080fd5b60005b838110156101db57816101c18882610320565b8452602084019350602083019250506001810190506101ae565b5050505092915050565b6000604082840312156101f757600080fd5b61020160406103c9565b9050600061021184828501610320565b600083015250602061022584828501610320565b60208301525092915050565b60006080828403121561024357600080fd5b61024d60406103c9565b9050600061025d848285016100fd565b6000830152506040610271848285016100fd565b60208301525092915050565b60006101e0828403121561029057600080fd5b61029a60a06103c9565b905060006102aa848285016101e5565b60008301525060406102be84828501610231565b60208301525060c06102d284828501610231565b6040830152506101406102e784828501610231565b6060830152506101c082013567ffffffffffffffff81111561030857600080fd5b6103148482850161007a565b60808301525092915050565b60008135905061032f8161048a565b92915050565b6000806000610140848603121561034b57600080fd5b600061035986828701610171565b93505061010084013567ffffffffffffffff81111561037757600080fd5b6103838682870161027d565b92505061012061039586828701610320565b9150509250925092565b6103a881610472565b82525050565b60006020820190506103c3600083018461039f565b92915050565b6000604051905081810181811067ffffffffffffffff821117156103f0576103ef610488565b5b8060405250919050565b600067ffffffffffffffff82111561041557610414610488565b5b602082029050602081019050919050565b600067ffffffffffffffff82111561044157610440610488565b5b602082029050919050565b600067ffffffffffffffff82111561046757610466610488565b5b602082029050919050565b60008115159050919050565b6000819050919050565bfe5b6104938161047e565b811461049e57600080fd5b5056fea26469706673582212205c73e42c7785f5afd64e4202421702ba040a721072f8339689d673487ad9a35c64736f6c63430007020033",
  "linkReferences": {},
  "deployedLinkReferences": {}
}