{
  "_format": "hh-sol-artifact-1",
  "contractName": "Verifier",
  "sourceName": "contracts/crypto/Verifier.sol",
  "abi": [
    {
      "inputs": [
        {
          "internalType": "uint256[8]",
          "name": "_proof",
          "type": "uint256[8]"
        },
        {
          "components": [
            {
              "components": [
                {
                  "internalType": "uint256",
                  "name": "x",
                  "type": "uint256"
                },
                {
                  "internalType": "uint256",
                  "name": "y",
                  "type": "uint256"
                }
              ],
              "internalType": "struct Pairing.G1Point",
              "name": "alpha1",
              "type": "tuple"
            },
            {
              "components": [
                {
                  "internalType": "uint256[2]",
                  "name": "x",
                  "type": "uint256[2]"
                },
                {
                  "internalType": "uint256[2]",
                  "name": "y",
                  "type": "uint256[2]"
                }
              ],
              "internalType": "struct Pairing.G2Point",
              "name": "beta2",
              "type": "tuple"
            },
            {
              "components": [
                {
                  "internalType": "uint256[2]",
                  "name": "x",
                  "type": "uint256[2]"
                },
                {
                  "internalType": "uint256[2]",
                  "name": "y",
                  "type": "uint256[2]"
                }
              ],
              "internalType": "struct Pairing.G2Point",
              "name": "gamma2",
              "type": "tuple"
            },
            {
              "components": [
                {
                  "internalType": "uint256[2]",
                  "name": "x",
                  "type": "uint256[2]"
                },
                {
                  "internalType": "uint256[2]",
                  "name": "y",
                  "type": "uint256[2]"
                }
              ],
              "internalType": "struct Pairing.G2Point",
              "name": "delta2",
              "type": "tuple"
            },
            {
              "components": [
                {
                  "internalType": "uint256",
                  "name": "x",
                  "type": "uint256"
                },
                {
                  "internalType": "uint256",
                  "name": "y",
                  "type": "uint256"
                }
              ],
              "internalType": "struct Pairing.G1Point[]",
              "name": "ic",
              "type": "tuple[]"
            }
          ],
          "internalType": "struct SnarkCommon.VerifyingKey",
          "name": "vk",
          "type": "tuple"
        },
        {
          "internalType": "uint256",
          "name": "input",
          "type": "uint256"
        }
      ],
      "name": "verify",
      "outputs": [
        {
          "internalType": "bool",
          "name": "",
          "type": "bool"
        }
      ],
      "stateMutability": "view",
      "type": "function"
    }
  ],
  "bytecode": "0x608060405234801561001057600080fd5b506114d2806100206000396000f3fe608060405234801561001057600080fd5b506004361061002b5760003560e01c806322b72c9414610030575b600080fd5b61004a60048036038101906100459190611155565b610060565b60405161005791906112c7565b60405180910390f35b600061006a610d45565b60405180604001604052808660006008811061008257fe5b602002015181526020018660016008811061009957fe5b6020020151815250816000018190525060405180604001604052806040518060400160405280886002600881106100cc57fe5b60200201518152602001886003600881106100e357fe5b6020020151815250815260200160405180604001604052808860046008811061010857fe5b602002015181526020018860056008811061011f57fe5b6020020151815250815250816020018190525060405180604001604052808660066008811061014a57fe5b602002015181526020018660076008811061016157fe5b602002015181525081604001819052507f30644e72e131a029b85045b68181585d97816a916871ca8d3c208c16d87cfd47816000015160000151106040518060400160405280600381526020017f564531000000000000000000000000000000000000000000000000000000000081525090610213576040517f08c379a000000000000000000000000000000000000000000000000000000000815260040161020a91906112e2565b60405180910390fd5b507f30644e72e131a029b85045b68181585d97816a916871ca8d3c208c16d87cfd47816000015160200151106040518060400160405280600381526020017f5645310000000000000000000000000000000000000000000000000000000000815250906102b6576040517f08c379a00000000000000000000000000000000000000000000000000000000081526004016102ad91906112e2565b60405180910390fd5b507f30644e72e131a029b85045b68181585d97816a916871ca8d3c208c16d87cfd478160200151600001516000600281106102ed57fe5b6020020151106040518060400160405280600381526020017f56453100000000000000000000000000000000000000000000000000000000008152509061036a576040517f08c379a000000000000000000000000000000000000000000000000000000000815260040161036191906112e2565b60405180910390fd5b507f30644e72e131a029b85045b68181585d97816a916871ca8d3c208c16d87cfd478160200151602001516000600281106103a157fe5b6020020151106040518060400160405280600381526020017f56453100000000000000000000000000000000000000000000000000000000008152509061041e576040517f08c379a000000000000000000000000000000000000000000000000000000000815260040161041591906112e2565b60405180910390fd5b507f30644e72e131a029b85045b68181585d97816a916871ca8d3c208c16d87cfd4781602001516000015160016002811061045557fe5b6020020151106040518060400160405280600381526020017f5645310000000000000000000000000000000000000000000000000000000000815250906104d2576040517f08c379a00000000000000000000000000000000000000000000000000000000081526004016104c991906112e2565b60405180910390fd5b507f30644e72e131a029b85045b68181585d97816a916871ca8d3c208c16d87cfd4781602001516020015160016002811061050957fe5b6020020151106040518060400160405280600381526020017f564531000000000000000000000000000000000000000000000000000000000081525090610586576040517f08c379a000000000000000000000000000000000000000000000000000000000815260040161057d91906112e2565b60405180910390fd5b507f30644e72e131a029b85045b68181585d97816a916871ca8d3c208c16d87cfd47816040015160000151106040518060400160405280600381526020017f564531000000000000000000000000000000000000000000000000000000000081525090610629576040517f08c379a000000000000000000000000000000000000000000000000000000000815260040161062091906112e2565b60405180910390fd5b507f30644e72e131a029b85045b68181585d97816a916871ca8d3c208c16d87cfd47816040015160200151106040518060400160405280600381526020017f5645310000000000000000000000000000000000000000000000000000000000815250906106cc576040517f08c379a00000000000000000000000000000000000000000000000000000000081526004016106c391906112e2565b60405180910390fd5b507f30644e72e131a029b85045b68181585d2833e84879b9709143e1f593f000000183106040518060400160405280600381526020017f564532000000000000000000000000000000000000000000000000000000000081525090610767576040517f08c379a000000000000000000000000000000000000000000000000000000000815260040161075e91906112e2565b60405180910390fd5b50610770610d78565b604051806040016040528060008152602001600081525090506107b4816107af87608001516001815181106107a157fe5b602002602001015187610819565b6108e1565b90506107d88186608001516000815181106107cb57fe5b60200260200101516108e1565b905061080e6107ea83600001516109c8565b836020015187600001518860200151858a6040015188604001518c60600151610a7b565b925050509392505050565b610821610d78565b610829610d92565b83600001518160006003811061083b57fe5b60200201818152505083602001518160016003811061085657fe5b602002018181525050828160026003811061086d57fe5b602002018181525050600060608360808460076107d05a03fa9050806000811461089657610898565bfe5b50806108d9576040517f08c379a00000000000000000000000000000000000000000000000000000000081526004016108d090611304565b60405180910390fd5b505092915050565b6108e9610d78565b6108f1610db4565b83600001518160006004811061090357fe5b60200201818152505083602001518160016004811061091e57fe5b60200201818152505082600001518160026004811061093957fe5b60200201818152505082602001518160036004811061095457fe5b602002018181525050600060608360c08460066107d05a03fa9050806000811461097d5761097f565bfe5b50806109c0576040517f08c379a00000000000000000000000000000000000000000000000000000000081526004016109b790611324565b60405180910390fd5b505092915050565b6109d0610d78565b600082600001511480156109e8575060008260200151145b15610a0b5760405180604001604052806000815260200160008152509050610a76565b6040518060400160405280836000015181526020017f30644e72e131a029b85045b68181585d97816a916871ca8d3c208c16d87cfd47846020015181610a4d57fe5b067f30644e72e131a029b85045b68181585d97816a916871ca8d3c208c16d87cfd470381525090505b919050565b6000610a85610dd6565b60405180608001604052808b8152602001898152602001878152602001858152509050610ab0610e03565b60405180608001604052808b815260200189815260200187815260200185815250905060006018905060608167ffffffffffffffff81118015610af257600080fd5b50604051908082528060200260200182016040528015610b215781602001602082028036833780820191505090505b50905060005b6004811015610caa576000600682029050858260048110610b4457fe5b602002015160000151836000830181518110610b5c57fe5b602002602001018181525050858260048110610b7457fe5b602002015160200151836001830181518110610b8c57fe5b602002602001018181525050848260048110610ba457fe5b602002015160000151600060028110610bb957fe5b6020020151836002830181518110610bcd57fe5b602002602001018181525050848260048110610be557fe5b602002015160000151600160028110610bfa57fe5b6020020151836003830181518110610c0e57fe5b602002602001018181525050848260048110610c2657fe5b602002015160200151600060028110610c3b57fe5b6020020151836004830181518110610c4f57fe5b602002602001018181525050848260048110610c6757fe5b602002015160200151600160028110610c7c57fe5b6020020151836005830181518110610c9057fe5b602002602001018181525050508080600101915050610b27565b50610cb3610e30565b6000602082602086026020860160086107d05a03fa90508060008114610cd857610cda565bfe5b5080610d1b576040517f08c379a0000000000000000000000000000000000000000000000000000000008152600401610d1290611344565b60405180910390fd5b600082600060018110610d2a57fe5b60200201511415965050505050505098975050505050505050565b6040518060600160405280610d58610d78565b8152602001610d65610e52565b8152602001610d72610d78565b81525090565b604051806040016040528060008152602001600081525090565b6040518060600160405280600390602082028036833780820191505090505090565b6040518060800160405280600490602082028036833780820191505090505090565b60405180608001604052806004905b610ded610d78565b815260200190600190039081610de55790505090565b60405180608001604052806004905b610e1a610e52565b815260200190600190039081610e125790505090565b6040518060200160405280600190602082028036833780820191505090505090565b6040518060400160405280610e65610e78565b8152602001610e72610e78565b81525090565b6040518060400160405280600290602082028036833780820191505090505090565b600082601f830112610eab57600080fd5b8135610ebe610eb982611395565b611364565b91508181835260208401935060208101905083856040840282011115610ee357600080fd5b60005b83811015610f135781610ef98882611005565b845260208401935060408301925050600181019050610ee6565b5050505092915050565b600082601f830112610f2e57600080fd5b6002610f41610f3c826113c1565b611364565b91508183856020840282011115610f5757600080fd5b60005b83811015610f875781610f6d8882611140565b845260208401935060208301925050600181019050610f5a565b5050505092915050565b600082601f830112610fa257600080fd5b6008610fb5610fb0826113e7565b611364565b91508183856020840282011115610fcb57600080fd5b60005b83811015610ffb5781610fe18882611140565b845260208401935060208301925050600181019050610fce565b5050505092915050565b60006040828403121561101757600080fd5b6110216040611364565b9050600061103184828501611140565b600083015250602061104584828501611140565b60208301525092915050565b60006080828403121561106357600080fd5b61106d6040611364565b9050600061107d84828501610f1d565b600083015250604061109184828501610f1d565b60208301525092915050565b60006101e082840312156110b057600080fd5b6110ba60a0611364565b905060006110ca84828501611005565b60008301525060406110de84828501611051565b60208301525060c06110f284828501611051565b60408301525061014061110784828501611051565b6060830152506101c082013567ffffffffffffffff81111561112857600080fd5b61113484828501610e9a565b60808301525092915050565b60008135905061114f81611485565b92915050565b6000806000610140848603121561116b57600080fd5b600061117986828701610f91565b93505061010084013567ffffffffffffffff81111561119757600080fd5b6111a38682870161109d565b9250506101206111b586828701611140565b9150509250925092565b6111c881611429565b82525050565b60006111d98261140d565b6111e38185611418565b93506111f381856020860161143f565b6111fc81611474565b840191505092915050565b6000611214601283611418565b91507f70616972696e672d6d756c2d6661696c656400000000000000000000000000006000830152602082019050919050565b6000611254601283611418565b91507f70616972696e672d6164642d6661696c656400000000000000000000000000006000830152602082019050919050565b6000611294601583611418565b91507f70616972696e672d6f70636f64652d6661696c656400000000000000000000006000830152602082019050919050565b60006020820190506112dc60008301846111bf565b92915050565b600060208201905081810360008301526112fc81846111ce565b905092915050565b6000602082019050818103600083015261131d81611207565b9050919050565b6000602082019050818103600083015261133d81611247565b9050919050565b6000602082019050818103600083015261135d81611287565b9050919050565b6000604051905081810181811067ffffffffffffffff8211171561138b5761138a611472565b5b8060405250919050565b600067ffffffffffffffff8211156113b0576113af611472565b5b602082029050602081019050919050565b600067ffffffffffffffff8211156113dc576113db611472565b5b602082029050919050565b600067ffffffffffffffff82111561140257611401611472565b5b602082029050919050565b600081519050919050565b600082825260208201905092915050565b60008115159050919050565b6000819050919050565b60005b8381101561145d578082015181840152602081019050611442565b8381111561146c576000848401525b50505050565bfe5b6000601f19601f8301169050919050565b61148e81611435565b811461149957600080fd5b5056fea264697066735822122049e89e1e33f830a4766d378613e6e08a661e9ac018718c6180b034c6adbb128264736f6c63430007020033",
  "linkReferences": {},
  "deployedLinkReferences": {}
}