{
  "_format": "hh-sol-artifact-1",
  "contractName": "DomainObjs",
  "sourceName": "contracts/DomainObjs.sol",
  "abi": [
    {
      "inputs": [
        {
          "internalType": "uint256[]",
          "name": "array",
          "type": "uint256[]"
        }
      ],
      "name": "hash2",
      "outputs": [
        {
          "internalType": "uint256",
          "name": "",
          "type": "uint256"
        }
      ],
      "stateMutability": "pure",
      "type": "function"
    },
    {
      "inputs": [
        {
          "internalType": "uint256[]",
          "name": "array",
          "type": "uint256[]"
        }
      ],
      "name": "hash3",
      "outputs": [
        {
          "internalType": "uint256",
          "name": "",
          "type": "uint256"
        }
      ],
      "stateMutability": "pure",
      "type": "function"
    },
    {
      "inputs": [
        {
          "internalType": "uint256[]",
          "name": "array",
          "type": "uint256[]"
        }
      ],
      "name": "hash4",
      "outputs": [
        {
          "internalType": "uint256",
          "name": "",
          "type": "uint256"
        }
      ],
      "stateMutability": "pure",
      "type": "function"
    },
    {
      "inputs": [
        {
          "internalType": "uint256[]",
          "name": "array",
          "type": "uint256[]"
        }
      ],
      "name": "hash5",
      "outputs": [
        {
          "internalType": "uint256",
          "name": "",
          "type": "uint256"
        }
      ],
      "stateMutability": "pure",
      "type": "function"
    },
    {
      "inputs": [
        {
          "internalType": "uint256",
          "name": "_left",
          "type": "uint256"
        },
        {
          "internalType": "uint256",
          "name": "_right",
          "type": "uint256"
        }
      ],
      "name": "hashLeftRight",
      "outputs": [
        {
          "internalType": "uint256",
          "name": "",
          "type": "uint256"
        }
      ],
      "stateMutability": "pure",
      "type": "function"
    },
    {
      "inputs": [
        {
          "components": [
            {
              "components": [
                {
                  "internalType": "uint256",
                  "name": "x",
                  "type": "uint256"
                },
                {
                  "internalType": "uint256",
                  "name": "y",
                  "type": "uint256"
                }
              ],
              "internalType": "struct IPubKey.PubKey",
              "name": "pubKey",
              "type": "tuple"
            },
            {
              "internalType": "uint256",
              "name": "voiceCreditBalance",
              "type": "uint256"
            }
          ],
          "internalType": "struct DomainObjs.StateLeaf",
          "name": "_stateLeaf",
          "type": "tuple"
        }
      ],
      "name": "hashStateLeaf",
      "outputs": [
        {
          "internalType": "uint256",
          "name": "",
          "type": "uint256"
        }
      ],
      "stateMutability": "pure",
      "type": "function"
    },
    {
      "inputs": [
        {
          "internalType": "uint256[]",
          "name": "array",
          "type": "uint256[]"
        }
      ],
      "name": "sha256Hash",
      "outputs": [
        {
          "internalType": "uint256",
          "name": "",
          "type": "uint256"
        }
      ],
      "stateMutability": "pure",
      "type": "function"
    }
  ],
  "bytecode": "0x608060405234801561001057600080fd5b50610b76806100206000396000f3fe608060405234801561001057600080fd5b506004361061007d5760003560e01c806358bfc3791161005b57806358bfc379146101125780635bb9399514610142578063793c56321461017257806386d238d9146101a25761007d565b80631e1016fe146100825780634d4ef74d146100b25780634e9e97fa146100e2575b600080fd5b61009c60048036038101906100979190610765565b6101d2565b6040516100a991906109f7565b60405180910390f35b6100cc60048036038101906100c79190610765565b610262565b6040516100d991906109f7565b60405180910390f35b6100fc60048036038101906100f79190610765565b6102f2565b60405161010991906109f7565b60405180910390f35b61012c60048036038101906101279190610765565b610382565b60405161013991906109f7565b60405180910390f35b61015c60048036038101906101579190610821565b610426565b60405161016991906109f7565b60405180910390f35b61018c600480360381019061018791906107cf565b6104ba565b60405161019991906109f7565b60405180910390f35b6101bc60048036038101906101b79190610765565b61057b565b6040516101c991906109f7565b60405180910390f35b600073__$9b3049adcf18347c4fcd511e1429cbc37d$__63c4420fb4836040518263ffffffff1660e01b815260040161020b91906109d5565b60206040518083038186803b15801561022357600080fd5b505af4158015610237573d6000803e3d6000fd5b505050506040513d601f19601f8201168201806040525081019061025b91906107f8565b9050919050565b600073__$d4acaf6f169a2634c49d403ce7efde36fd$__63c4420fb4836040518263ffffffff1660e01b815260040161029b91906109d5565b60206040518083038186803b1580156102b357600080fd5b505af41580156102c7573d6000803e3d6000fd5b505050506040513d601f19601f820116820180604052508101906102eb91906107f8565b9050919050565b600073__$584f44aaf914c42633951b34ceb432be31$__63c4420fb4836040518263ffffffff1660e01b815260040161032b91906109d5565b60206040518083038186803b15801561034357600080fd5b505af4158015610357573d6000803e3d6000fd5b505050506040513d601f19601f8201168201806040525081019061037b91906107f8565b9050919050565b60007f30644e72e131a029b85045b68181585d2833e84879b9709143e1f593f00000016002836040516020016103b891906109a7565b6040516020818303038152906040526040516103d491906109be565b602060405180830381855afa1580156103f1573d6000803e3d6000fd5b5050506040513d601f19601f8201168201806040525081019061041491906107a6565b60001c8161041e57fe5b069050919050565b60006060600267ffffffffffffffff8111801561044257600080fd5b506040519080825280602002602001820160405280156104715781602001602082028036833780820191505090505b509050838160008151811061048257fe5b602002602001018181525050828160018151811061049c57fe5b6020026020010181815250506104b181610262565b91505092915050565b60006060600367ffffffffffffffff811180156104d657600080fd5b506040519080825280602002602001820160405280156105055781602001602082028036833780820191505090505b5090508260000151600001518160008151811061051e57fe5b6020026020010181815250508260000151602001518160018151811061054057fe5b60200260200101818152505082602001518160028151811061055e57fe5b602002602001018181525050610573816101d2565b915050919050565b600073__$2a5b9c44d836f7997ae51e8d308a712a39$__63c4420fb4836040518263ffffffff1660e01b81526004016105b491906109d5565b60206040518083038186803b1580156105cc57600080fd5b505af41580156105e0573d6000803e3d6000fd5b505050506040513d601f19601f8201168201806040525081019061060491906107f8565b9050919050565b600082601f83011261061c57600080fd5b813561062f61062a82610a43565b610a12565b9150818183526020840193506020810190508385602084028201111561065457600080fd5b60005b83811015610684578161066a888261073b565b845260208401935060208301925050600181019050610657565b5050505092915050565b60008151905061069d81610b12565b92915050565b6000604082840312156106b557600080fd5b6106bf6040610a12565b905060006106cf8482850161073b565b60008301525060206106e38482850161073b565b60208301525092915050565b60006060828403121561070157600080fd5b61070b6040610a12565b9050600061071b848285016106a3565b600083015250604061072f8482850161073b565b60208301525092915050565b60008135905061074a81610b29565b92915050565b60008151905061075f81610b29565b92915050565b60006020828403121561077757600080fd5b600082013567ffffffffffffffff81111561079157600080fd5b61079d8482850161060b565b91505092915050565b6000602082840312156107b857600080fd5b60006107c68482850161068e565b91505092915050565b6000606082840312156107e157600080fd5b60006107ef848285016106ef565b91505092915050565b60006020828403121561080a57600080fd5b600061081884828501610750565b91505092915050565b6000806040838503121561083457600080fd5b60006108428582860161073b565b92505060206108538582860161073b565b9150509250929050565b60006108698383610989565b60208301905092915050565b60006108818383610998565b60208301905092915050565b600061089882610a7f565b6108a28185610aa2565b93506108ad83610a6f565b8060005b838110156108de5781516108c58882610875565b97506108d083610a95565b9250506001810190506108b1565b5085935050505092915050565b60006108f682610a7f565b6109008185610ab3565b935061090b83610a6f565b8060005b8381101561093c578151610923888261085d565b975061092e83610a95565b92505060018101905061090f565b5085935050505092915050565b600061095482610a8a565b61095e8185610abe565b935061096e818560208601610add565b80840191505092915050565b61098381610ad3565b82525050565b61099281610ad3565b82525050565b6109a181610ad3565b82525050565b60006109b382846108eb565b915081905092915050565b60006109ca8284610949565b915081905092915050565b600060208201905081810360008301526109ef818461088d565b905092915050565b6000602082019050610a0c600083018461097a565b92915050565b6000604051905081810181811067ffffffffffffffff82111715610a3957610a38610b10565b5b8060405250919050565b600067ffffffffffffffff821115610a5e57610a5d610b10565b5b602082029050602081019050919050565b6000819050602082019050919050565b600081519050919050565b600081519050919050565b6000602082019050919050565b600082825260208201905092915050565b600081905092915050565b600081905092915050565b6000819050919050565b6000819050919050565b60005b83811015610afb578082015181840152602081019050610ae0565b83811115610b0a576000848401525b50505050565bfe5b610b1b81610ac9565b8114610b2657600080fd5b50565b610b3281610ad3565b8114610b3d57600080fd5b5056fea2646970667358221220ebbf21b0c402526fd5b2deb842c3b976417128d34eb70b121dd9c34d1784d78564736f6c63430007020033",
  "linkReferences": {
    "contracts/crypto/Hasher.sol": {
      "PoseidonT3": [
        {
          "length": 20,
          "start": 646
        }
      ],
      "PoseidonT4": [
        {
          "length": 20,
          "start": 502
        }
      ],
      "PoseidonT5": [
        {
          "length": 20,
          "start": 790
        }
      ],
      "PoseidonT6": [
        {
          "length": 20,
          "start": 1439
        }
      ]
    }
  },
  "deployedLinkReferences": {
    "contracts/crypto/Hasher.sol": {
      "PoseidonT3": [
        {
          "length": 20,
          "start": 614
        }
      ],
      "PoseidonT4": [
        {
          "length": 20,
          "start": 470
        }
      ],
      "PoseidonT5": [
        {
          "length": 20,
          "start": 758
        }
      ],
      "PoseidonT6": [
        {
          "length": 20,
          "start": 1407
        }
      ]
    }
  }
}