{
  "_format": "hh-sol-artifact-1",
  "contractName": "ConstantInitialVoiceCreditProxy",
  "sourceName": "contracts/initialVoiceCreditProxy/ConstantInitialVoiceCreditProxy.sol",
  "abi": [
    {
      "inputs": [
        {
          "internalType": "uint256",
          "name": "_balance",
          "type": "uint256"
        }
      ],
      "stateMutability": "nonpayable",
      "type": "constructor"
    },
    {
      "inputs": [
        {
          "internalType": "address",
          "name": "_user",
          "type": "address"
        },
        {
          "internalType": "bytes",
          "name": "_data",
          "type": "bytes"
        }
      ],
      "name": "getVoiceCredits",
      "outputs": [
        {
          "internalType": "uint256",
          "name": "",
          "type": "uint256"
        }
      ],
      "stateMutability": "view",
      "type": "function"
    }
  ],
  "bytecode": "0x608060405234801561001057600080fd5b506040516101bc3803806101bc8339818101604052602081101561003357600080fd5b810190808051906020019092919050505080600081905550506101618061005b6000396000f3fe608060405234801561001057600080fd5b506004361061002b5760003560e01c8063b36543a914610030575b600080fd5b6101096004803603604081101561004657600080fd5b81019080803573ffffffffffffffffffffffffffffffffffffffff1690602001909291908035906020019064010000000081111561008357600080fd5b82018360208201111561009557600080fd5b803590602001918460018302840111640100000000831117156100b757600080fd5b91908080601f016020809104026020016040519081016040528093929190818152602001838380828437600081840152601f19601f82011690508083019250505050505050919291929050505061011f565b6040518082815260200191505060405180910390f35b6000805490509291505056fea264697066735822122092f62a37f5b6a72f798022b6bfeb7b15b775a0d8725ac5db496169c33cc6ac0e64736f6c63430007020033",
  "linkReferences": {},
  "deployedLinkReferences": {}
}