{
  "_format": "hh-sol-artifact-1",
  "contractName": "DomainObjs",
  "sourceName": "contracts/DomainObjs.sol",
  "abi": [
    {
      "inputs": [
        {
          "internalType": "uint256[2]",
          "name": "array",
          "type": "uint256[2]"
        }
      ],
      "name": "hash2",
      "outputs": [
        {
          "internalType": "uint256",
          "name": "",
          "type": "uint256"
        }
      ],
      "stateMutability": "pure",
      "type": "function"
    },
    {
      "inputs": [
        {
          "internalType": "uint256[3]",
          "name": "array",
          "type": "uint256[3]"
        }
      ],
      "name": "hash3",
      "outputs": [
        {
          "internalType": "uint256",
          "name": "",
          "type": "uint256"
        }
      ],
      "stateMutability": "pure",
      "type": "function"
    },
    {
      "inputs": [
        {
          "internalType": "uint256[4]",
          "name": "array",
          "type": "uint256[4]"
        }
      ],
      "name": "hash4",
      "outputs": [
        {
          "internalType": "uint256",
          "name": "",
          "type": "uint256"
        }
      ],
      "stateMutability": "pure",
      "type": "function"
    },
    {
      "inputs": [
        {
          "internalType": "uint256[5]",
          "name": "array",
          "type": "uint256[5]"
        }
      ],
      "name": "hash5",
      "outputs": [
        {
          "internalType": "uint256",
          "name": "",
          "type": "uint256"
        }
      ],
      "stateMutability": "pure",
      "type": "function"
    },
    {
      "inputs": [
        {
          "internalType": "uint256",
          "name": "_left",
          "type": "uint256"
        },
        {
          "internalType": "uint256",
          "name": "_right",
          "type": "uint256"
        }
      ],
      "name": "hashLeftRight",
      "outputs": [
        {
          "internalType": "uint256",
          "name": "",
          "type": "uint256"
        }
      ],
      "stateMutability": "pure",
      "type": "function"
    },
    {
      "inputs": [
        {
          "components": [
            {
              "components": [
                {
                  "internalType": "uint256",
                  "name": "x",
                  "type": "uint256"
                },
                {
                  "internalType": "uint256",
                  "name": "y",
                  "type": "uint256"
                }
              ],
              "internalType": "struct IPubKey.PubKey",
              "name": "pubKey",
              "type": "tuple"
            },
            {
              "internalType": "uint256",
              "name": "voiceCreditBalance",
              "type": "uint256"
            },
            {
              "internalType": "uint256",
              "name": "timestamp",
              "type": "uint256"
            }
          ],
          "internalType": "struct DomainObjs.StateLeaf",
          "name": "_stateLeaf",
          "type": "tuple"
        }
      ],
      "name": "hashStateLeaf",
      "outputs": [
        {
          "internalType": "uint256",
          "name": "",
          "type": "uint256"
        }
      ],
      "stateMutability": "pure",
      "type": "function"
    },
    {
      "inputs": [
        {
          "internalType": "uint256[]",
          "name": "array",
          "type": "uint256[]"
        }
      ],
      "name": "sha256Hash",
      "outputs": [
        {
          "internalType": "uint256",
          "name": "",
          "type": "uint256"
        }
      ],
      "stateMutability": "pure",
      "type": "function"
    }
  ],
  "bytecode": "0x608060405234801561001057600080fd5b50611049806100206000396000f3fe608060405234801561001057600080fd5b506004361061007d5760003560e01c806362a361bb1161005b57806362a361bb146101125780637d0a81c8146101425780639cfced9714610172578063bea140b3146101a25761007d565b80633dfb88b21461008257806358bfc379146100b25780635bb93995146100e2575b600080fd5b61009c60048036038101906100979190610963565b6101d2565b6040516100a99190610d8f565b60405180910390f35b6100cc60048036038101906100c791906109b5565b610262565b6040516100d99190610d8f565b60405180910390f35b6100fc60048036038101906100f79190610a71565b610306565b6040516101099190610d8f565b60405180910390f35b61012c60048036038101906101279190610911565b610350565b6040516101399190610d8f565b60405180910390f35b61015c60048036038101906101579190610a1f565b6103e0565b6040516101699190610d8f565b60405180910390f35b61018c6004803603810190610187919061098c565b61046f565b6040516101999190610d8f565b60405180910390f35b6101bc60048036038101906101b7919061093a565b6104ff565b6040516101c99190610d8f565b60405180910390f35b600073__$584f44aaf914c42633951b34ceb432be31$__63248f6677836040518263ffffffff1660e01b815260040161020b9190610d59565b60206040518083038186803b15801561022357600080fd5b505af4158015610237573d6000803e3d6000fd5b505050506040513d601f19601f8201168201806040525081019061025b9190610a48565b9050919050565b60007f30644e72e131a029b85045b68181585d2833e84879b9709143e1f593f00000016002836040516020016102989190610cf5565b6040516020818303038152906040526040516102b49190610d0c565b602060405180830381855afa1580156102d1573d6000803e3d6000fd5b5050506040513d601f19601f820116820180604052508101906102f491906109f6565b60001c816102fe57fe5b069050919050565b600061031061058f565b838160006002811061031e57fe5b602002018181525050828160016002811061033557fe5b60200201818152505061034781610350565b91505092915050565b600073__$d4acaf6f169a2634c49d403ce7efde36fd$__6329a5f2f6836040518263ffffffff1660e01b81526004016103899190610d23565b60206040518083038186803b1580156103a157600080fd5b505af41580156103b5573d6000803e3d6000fd5b505050506040513d601f19601f820116820180604052508101906103d99190610a48565b9050919050565b60006103ea6105b1565b8260000151600001518160006004811061040057fe5b6020020181815250508260000151602001518160016004811061041f57fe5b60200201818152505082602001518160026004811061043a57fe5b60200201818152505082604001518160036004811061045557fe5b602002018181525050610467816101d2565b915050919050565b600073__$2a5b9c44d836f7997ae51e8d308a712a39$__634937a258836040518263ffffffff1660e01b81526004016104a89190610d74565b60206040518083038186803b1580156104c057600080fd5b505af41580156104d4573d6000803e3d6000fd5b505050506040513d601f19601f820116820180604052508101906104f89190610a48565b9050919050565b600073__$9b3049adcf18347c4fcd511e1429cbc37d$__6325cc70e8836040518263ffffffff1660e01b81526004016105389190610d3e565b60206040518083038186803b15801561055057600080fd5b505af4158015610564573d6000803e3d6000fd5b505050506040513d601f19601f820116820180604052508101906105889190610a48565b9050919050565b6040518060400160405280600290602082028036833780820191505090505090565b6040518060800160405280600490602082028036833780820191505090505090565b600082601f8301126105e457600080fd5b60026105f76105f282610ddb565b610daa565b9150818385602084028201111561060d57600080fd5b60005b8381101561063d578161062388826108e7565b845260208401935060208301925050600181019050610610565b5050505092915050565b600082601f83011261065857600080fd5b600361066b61066682610e01565b610daa565b9150818385602084028201111561068157600080fd5b60005b838110156106b1578161069788826108e7565b845260208401935060208301925050600181019050610684565b5050505092915050565b600082601f8301126106cc57600080fd5b60046106df6106da82610e27565b610daa565b915081838560208402820111156106f557600080fd5b60005b83811015610725578161070b88826108e7565b8452602084019350602083019250506001810190506106f8565b5050505092915050565b600082601f83011261074057600080fd5b600561075361074e82610e4d565b610daa565b9150818385602084028201111561076957600080fd5b60005b83811015610799578161077f88826108e7565b84526020840193506020830192505060018101905061076c565b5050505092915050565b600082601f8301126107b457600080fd5b81356107c76107c282610e73565b610daa565b915081818352602084019350602081019050838560208402820111156107ec57600080fd5b60005b8381101561081c578161080288826108e7565b8452602084019350602083019250506001810190506107ef565b5050505092915050565b60008151905061083581610fe5565b92915050565b60006040828403121561084d57600080fd5b6108576040610daa565b90506000610867848285016108e7565b600083015250602061087b848285016108e7565b60208301525092915050565b60006080828403121561089957600080fd5b6108a36060610daa565b905060006108b38482850161083b565b60008301525060406108c7848285016108e7565b60208301525060606108db848285016108e7565b60408301525092915050565b6000813590506108f681610ffc565b92915050565b60008151905061090b81610ffc565b92915050565b60006040828403121561092357600080fd5b6000610931848285016105d3565b91505092915050565b60006060828403121561094c57600080fd5b600061095a84828501610647565b91505092915050565b60006080828403121561097557600080fd5b6000610983848285016106bb565b91505092915050565b600060a0828403121561099e57600080fd5b60006109ac8482850161072f565b91505092915050565b6000602082840312156109c757600080fd5b600082013567ffffffffffffffff8111156109e157600080fd5b6109ed848285016107a3565b91505092915050565b600060208284031215610a0857600080fd5b6000610a1684828501610826565b91505092915050565b600060808284031215610a3157600080fd5b6000610a3f84828501610887565b91505092915050565b600060208284031215610a5a57600080fd5b6000610a68848285016108fc565b91505092915050565b60008060408385031215610a8457600080fd5b6000610a92858286016108e7565b9250506020610aa3858286016108e7565b9150509250929050565b6000610ab98383610cd7565b60208301905092915050565b6000610ad18383610ce6565b60208301905092915050565b610ae681610ed7565b610af08184610f5a565b9250610afb82610e9f565b8060005b83811015610b2c578151610b138782610ac5565b9650610b1e83610f19565b925050600181019050610aff565b505050505050565b610b3d81610ee2565b610b478184610f65565b9250610b5282610ea9565b8060005b83811015610b83578151610b6a8782610ac5565b9650610b7583610f26565b925050600181019050610b56565b505050505050565b610b9481610eed565b610b9e8184610f70565b9250610ba982610eb3565b8060005b83811015610bda578151610bc18782610ac5565b9650610bcc83610f33565b925050600181019050610bad565b505050505050565b610beb81610ef8565b610bf58184610f7b565b9250610c0082610ebd565b8060005b83811015610c31578151610c188782610ac5565b9650610c2383610f40565b925050600181019050610c04565b505050505050565b6000610c4482610f03565b610c4e8185610f86565b9350610c5983610ec7565b8060005b83811015610c8a578151610c718882610aad565b9750610c7c83610f4d565b925050600181019050610c5d565b5085935050505092915050565b6000610ca282610f0e565b610cac8185610f91565b9350610cbc818560208601610fb0565b80840191505092915050565b610cd181610fa6565b82525050565b610ce081610fa6565b82525050565b610cef81610fa6565b82525050565b6000610d018284610c39565b915081905092915050565b6000610d188284610c97565b915081905092915050565b6000604082019050610d386000830184610add565b92915050565b6000606082019050610d536000830184610b34565b92915050565b6000608082019050610d6e6000830184610b8b565b92915050565b600060a082019050610d896000830184610be2565b92915050565b6000602082019050610da46000830184610cc8565b92915050565b6000604051905081810181811067ffffffffffffffff82111715610dd157610dd0610fe3565b5b8060405250919050565b600067ffffffffffffffff821115610df657610df5610fe3565b5b602082029050919050565b600067ffffffffffffffff821115610e1c57610e1b610fe3565b5b602082029050919050565b600067ffffffffffffffff821115610e4257610e41610fe3565b5b602082029050919050565b600067ffffffffffffffff821115610e6857610e67610fe3565b5b602082029050919050565b600067ffffffffffffffff821115610e8e57610e8d610fe3565b5b602082029050602081019050919050565b6000819050919050565b6000819050919050565b6000819050919050565b6000819050919050565b6000819050602082019050919050565b600060029050919050565b600060039050919050565b600060049050919050565b600060059050919050565b600081519050919050565b600081519050919050565b6000602082019050919050565b6000602082019050919050565b6000602082019050919050565b6000602082019050919050565b6000602082019050919050565b600081905092915050565b600081905092915050565b600081905092915050565b600081905092915050565b600081905092915050565b600081905092915050565b6000819050919050565b6000819050919050565b60005b83811015610fce578082015181840152602081019050610fb3565b83811115610fdd576000848401525b50505050565bfe5b610fee81610f9c565b8114610ff957600080fd5b50565b61100581610fa6565b811461101057600080fd5b5056fea264697066735822122025a37f87020aa1aa3165ab2f6d30d93a3ee30a4841cae9e496c0b8e7e62213f964736f6c63430007020033",
  "linkReferences": {
    "contracts/crypto/Hasher.sol": {
      "PoseidonT3": [
        {
          "length": 20,
          "start": 884
        }
      ],
      "PoseidonT4": [
        {
          "length": 20,
          "start": 1315
        }
      ],
      "PoseidonT5": [
        {
          "length": 20,
          "start": 502
        }
      ],
      "PoseidonT6": [
        {
          "length": 20,
          "start": 1171
        }
      ]
    }
  },
  "deployedLinkReferences": {
    "contracts/crypto/Hasher.sol": {
      "PoseidonT3": [
        {
          "length": 20,
          "start": 852
        }
      ],
      "PoseidonT4": [
        {
          "length": 20,
          "start": 1283
        }
      ],
      "PoseidonT5": [
        {
          "length": 20,
          "start": 470
        }
      ],
      "PoseidonT6": [
        {
          "length": 20,
          "start": 1139
        }
      ]
    }
  }
}