{
  "_format": "hh-sol-artifact-1",
  "contractName": "MACI",
  "sourceName": "contracts/MACI.sol",
  "abi": [
    {
      "inputs": [
        {
          "internalType": "contract PollFactory",
          "name": "_pollFactory",
          "type": "address"
        },
        {
          "internalType": "contract SignUpGatekeeper",
          "name": "_signUpGatekeeper",
          "type": "address"
        },
        {
          "internalType": "contract InitialVoiceCreditProxy",
          "name": "_initialVoiceCreditProxy",
          "type": "address"
        }
      ],
      "stateMutability": "nonpayable",
      "type": "constructor"
    },
    {
      "anonymous": false,
      "inputs": [
        {
          "indexed": false,
          "internalType": "uint256",
          "name": "_pollId",
          "type": "uint256"
        },
        {
          "indexed": false,
          "internalType": "address",
          "name": "_pollAddr",
          "type": "address"
        },
        {
          "components": [
            {
              "internalType": "uint256",
              "name": "x",
              "type": "uint256"
            },
            {
              "internalType": "uint256",
              "name": "y",
              "type": "uint256"
            }
          ],
          "indexed": false,
          "internalType": "struct IPubKey.PubKey",
          "name": "_pubKey",
          "type": "tuple"
        }
      ],
      "name": "DeployPoll",
      "type": "event"
    },
    {
      "anonymous": false,
      "inputs": [
        {
          "indexed": false,
          "internalType": "contract VkRegistry",
          "name": "_vkRegistry",
          "type": "address"
        },
        {
          "indexed": false,
          "internalType": "contract MessageAqFactory",
          "name": "_messageAqFactory",
          "type": "address"
        }
      ],
      "name": "Init",
      "type": "event"
    },
    {
      "anonymous": false,
      "inputs": [
        {
          "indexed": false,
          "internalType": "uint256",
          "name": "_pollId",
          "type": "uint256"
        }
      ],
      "name": "MergeStateAq",
      "type": "event"
    },
    {
      "anonymous": false,
      "inputs": [
        {
          "indexed": false,
          "internalType": "uint256",
          "name": "_pollId",
          "type": "uint256"
        },
        {
          "indexed": false,
          "internalType": "uint256",
          "name": "_numSrQueueOps",
          "type": "uint256"
        }
      ],
      "name": "MergeStateAqSubRoots",
      "type": "event"
    },
    {
      "anonymous": false,
      "inputs": [
        {
          "indexed": true,
          "internalType": "address",
          "name": "previousOwner",
          "type": "address"
        },
        {
          "indexed": true,
          "internalType": "address",
          "name": "newOwner",
          "type": "address"
        }
      ],
      "name": "OwnershipTransferred",
      "type": "event"
    },
    {
      "anonymous": false,
      "inputs": [
        {
          "indexed": false,
          "internalType": "uint256",
          "name": "_stateIndex",
          "type": "uint256"
        },
        {
          "components": [
            {
              "internalType": "uint256",
              "name": "x",
              "type": "uint256"
            },
            {
              "internalType": "uint256",
              "name": "y",
              "type": "uint256"
            }
          ],
          "indexed": false,
          "internalType": "struct IPubKey.PubKey",
          "name": "_userPubKey",
          "type": "tuple"
        },
        {
          "indexed": false,
          "internalType": "uint256",
          "name": "_voiceCreditBalance",
          "type": "uint256"
        },
        {
          "indexed": false,
          "internalType": "uint256",
          "name": "_timestamp",
          "type": "uint256"
        }
      ],
      "name": "SignUp",
      "type": "event"
    },
    {
      "inputs": [
        {
          "internalType": "uint256",
          "name": "_duration",
          "type": "uint256"
        },
        {
          "components": [
            {
              "internalType": "uint256",
              "name": "maxMessages",
              "type": "uint256"
            },
            {
              "internalType": "uint256",
              "name": "maxVoteOptions",
              "type": "uint256"
            }
          ],
          "internalType": "struct Params.MaxValues",
          "name": "_maxValues",
          "type": "tuple"
        },
        {
          "components": [
            {
              "internalType": "uint8",
              "name": "intStateTreeDepth",
              "type": "uint8"
            },
            {
              "internalType": "uint8",
              "name": "messageTreeSubDepth",
              "type": "uint8"
            },
            {
              "internalType": "uint8",
              "name": "messageTreeDepth",
              "type": "uint8"
            },
            {
              "internalType": "uint8",
              "name": "voteOptionTreeDepth",
              "type": "uint8"
            }
          ],
          "internalType": "struct Params.TreeDepths",
          "name": "_treeDepths",
          "type": "tuple"
        },
        {
          "components": [
            {
              "internalType": "uint256",
              "name": "x",
              "type": "uint256"
            },
            {
              "internalType": "uint256",
              "name": "y",
              "type": "uint256"
            }
          ],
          "internalType": "struct IPubKey.PubKey",
          "name": "_coordinatorPubKey",
          "type": "tuple"
        }
      ],
      "name": "deployPoll",
      "outputs": [],
      "stateMutability": "nonpayable",
      "type": "function"
    },
    {
      "inputs": [
        {
          "internalType": "uint256",
          "name": "_pollId",
          "type": "uint256"
        }
      ],
      "name": "getPoll",
      "outputs": [
        {
          "internalType": "contract Poll",
          "name": "",
          "type": "address"
        }
      ],
      "stateMutability": "view",
      "type": "function"
    },
    {
      "inputs": [],
      "name": "getStateAqRoot",
      "outputs": [
        {
          "internalType": "uint256",
          "name": "",
          "type": "uint256"
        }
      ],
      "stateMutability": "view",
      "type": "function"
    },
    {
      "inputs": [
        {
          "internalType": "uint256[2]",
          "name": "array",
          "type": "uint256[2]"
        }
      ],
      "name": "hash2",
      "outputs": [
        {
          "internalType": "uint256",
          "name": "",
          "type": "uint256"
        }
      ],
      "stateMutability": "pure",
      "type": "function"
    },
    {
      "inputs": [
        {
          "internalType": "uint256[3]",
          "name": "array",
          "type": "uint256[3]"
        }
      ],
      "name": "hash3",
      "outputs": [
        {
          "internalType": "uint256",
          "name": "",
          "type": "uint256"
        }
      ],
      "stateMutability": "pure",
      "type": "function"
    },
    {
      "inputs": [
        {
          "internalType": "uint256[4]",
          "name": "array",
          "type": "uint256[4]"
        }
      ],
      "name": "hash4",
      "outputs": [
        {
          "internalType": "uint256",
          "name": "",
          "type": "uint256"
        }
      ],
      "stateMutability": "pure",
      "type": "function"
    },
    {
      "inputs": [
        {
          "internalType": "uint256[5]",
          "name": "array",
          "type": "uint256[5]"
        }
      ],
      "name": "hash5",
      "outputs": [
        {
          "internalType": "uint256",
          "name": "",
          "type": "uint256"
        }
      ],
      "stateMutability": "pure",
      "type": "function"
    },
    {
      "inputs": [
        {
          "internalType": "uint256",
          "name": "_left",
          "type": "uint256"
        },
        {
          "internalType": "uint256",
          "name": "_right",
          "type": "uint256"
        }
      ],
      "name": "hashLeftRight",
      "outputs": [
        {
          "internalType": "uint256",
          "name": "",
          "type": "uint256"
        }
      ],
      "stateMutability": "pure",
      "type": "function"
    },
    {
      "inputs": [
        {
          "components": [
            {
              "components": [
                {
                  "internalType": "uint256",
                  "name": "x",
                  "type": "uint256"
                },
                {
                  "internalType": "uint256",
                  "name": "y",
                  "type": "uint256"
                }
              ],
              "internalType": "struct IPubKey.PubKey",
              "name": "pubKey",
              "type": "tuple"
            },
            {
              "internalType": "uint256",
              "name": "voiceCreditBalance",
              "type": "uint256"
            },
            {
              "internalType": "uint256",
              "name": "timestamp",
              "type": "uint256"
            }
          ],
          "internalType": "struct DomainObjs.StateLeaf",
          "name": "_stateLeaf",
          "type": "tuple"
        }
      ],
      "name": "hashStateLeaf",
      "outputs": [
        {
          "internalType": "uint256",
          "name": "",
          "type": "uint256"
        }
      ],
      "stateMutability": "pure",
      "type": "function"
    },
    {
      "inputs": [
        {
          "internalType": "contract VkRegistry",
          "name": "_vkRegistry",
          "type": "address"
        },
        {
          "internalType": "contract MessageAqFactory",
          "name": "_messageAqFactory",
          "type": "address"
        }
      ],
      "name": "init",
      "outputs": [],
      "stateMutability": "nonpayable",
      "type": "function"
    },
    {
      "inputs": [],
      "name": "initialVoiceCreditProxy",
      "outputs": [
        {
          "internalType": "contract InitialVoiceCreditProxy",
          "name": "",
          "type": "address"
        }
      ],
      "stateMutability": "view",
      "type": "function"
    },
    {
      "inputs": [
        {
          "internalType": "uint256",
          "name": "_pollId",
          "type": "uint256"
        }
      ],
      "name": "mergeStateAq",
      "outputs": [
        {
          "internalType": "uint256",
          "name": "",
          "type": "uint256"
        }
      ],
      "stateMutability": "nonpayable",
      "type": "function"
    },
    {
      "inputs": [
        {
          "internalType": "uint256",
          "name": "_numSrQueueOps",
          "type": "uint256"
        },
        {
          "internalType": "uint256",
          "name": "_pollId",
          "type": "uint256"
        }
      ],
      "name": "mergeStateAqSubRoots",
      "outputs": [],
      "stateMutability": "nonpayable",
      "type": "function"
    },
    {
      "inputs": [],
      "name": "messageAqFactory",
      "outputs": [
        {
          "internalType": "contract MessageAqFactory",
          "name": "",
          "type": "address"
        }
      ],
      "stateMutability": "view",
      "type": "function"
    },
    {
      "inputs": [],
      "name": "numSignUps",
      "outputs": [
        {
          "internalType": "uint256",
          "name": "",
          "type": "uint256"
        }
      ],
      "stateMutability": "view",
      "type": "function"
    },
    {
      "inputs": [
        {
          "internalType": "uint256",
          "name": "",
          "type": "uint256"
        }
      ],
      "name": "numStateLeaves",
      "outputs": [
        {
          "internalType": "uint256",
          "name": "",
          "type": "uint256"
        }
      ],
      "stateMutability": "view",
      "type": "function"
    },
    {
      "inputs": [],
      "name": "owner",
      "outputs": [
        {
          "internalType": "address",
          "name": "",
          "type": "address"
        }
      ],
      "stateMutability": "view",
      "type": "function"
    },
    {
      "inputs": [],
      "name": "pollFactory",
      "outputs": [
        {
          "internalType": "contract PollFactory",
          "name": "",
          "type": "address"
        }
      ],
      "stateMutability": "view",
      "type": "function"
    },
    {
      "inputs": [
        {
          "internalType": "uint256",
          "name": "",
          "type": "uint256"
        }
      ],
      "name": "polls",
      "outputs": [
        {
          "internalType": "contract Poll",
          "name": "",
          "type": "address"
        }
      ],
      "stateMutability": "view",
      "type": "function"
    },
    {
      "inputs": [],
      "name": "renounceOwnership",
      "outputs": [],
      "stateMutability": "nonpayable",
      "type": "function"
    },
    {
      "inputs": [
        {
          "internalType": "uint256[]",
          "name": "array",
          "type": "uint256[]"
        }
      ],
      "name": "sha256Hash",
      "outputs": [
        {
          "internalType": "uint256",
          "name": "",
          "type": "uint256"
        }
      ],
      "stateMutability": "pure",
      "type": "function"
    },
    {
      "inputs": [
        {
          "components": [
            {
              "internalType": "uint256",
              "name": "x",
              "type": "uint256"
            },
            {
              "internalType": "uint256",
              "name": "y",
              "type": "uint256"
            }
          ],
          "internalType": "struct IPubKey.PubKey",
          "name": "_pubKey",
          "type": "tuple"
        },
        {
          "internalType": "bytes",
          "name": "_signUpGatekeeperData",
          "type": "bytes"
        },
        {
          "internalType": "bytes",
          "name": "_initialVoiceCreditProxyData",
          "type": "bytes"
        }
      ],
      "name": "signUp",
      "outputs": [],
      "stateMutability": "nonpayable",
      "type": "function"
    },
    {
      "inputs": [],
      "name": "signUpGatekeeper",
      "outputs": [
        {
          "internalType": "contract SignUpGatekeeper",
          "name": "",
          "type": "address"
        }
      ],
      "stateMutability": "view",
      "type": "function"
    },
    {
      "inputs": [],
      "name": "signUpTimestamp",
      "outputs": [
        {
          "internalType": "uint256",
          "name": "",
          "type": "uint256"
        }
      ],
      "stateMutability": "view",
      "type": "function"
    },
    {
      "inputs": [],
      "name": "stateAq",
      "outputs": [
        {
          "internalType": "contract AccQueue",
          "name": "",
          "type": "address"
        }
      ],
      "stateMutability": "view",
      "type": "function"
    },
    {
      "inputs": [],
      "name": "stateTreeDepth",
      "outputs": [
        {
          "internalType": "uint8",
          "name": "",
          "type": "uint8"
        }
      ],
      "stateMutability": "view",
      "type": "function"
    },
    {
      "inputs": [
        {
          "internalType": "address",
          "name": "newOwner",
          "type": "address"
        }
      ],
      "name": "transferOwnership",
      "outputs": [],
      "stateMutability": "nonpayable",
      "type": "function"
    },
    {
      "inputs": [],
      "name": "vkRegistry",
      "outputs": [
        {
          "internalType": "contract VkRegistry",
          "name": "",
          "type": "address"
        }
      ],
      "stateMutability": "view",
      "type": "function"
    }
  ],
  "bytecode": "0x6080604052600a600060146101000a81548160ff021916908360ff16021790555060006001556000600860146101000a81548160ff0219169083151502179055503480156200004d57600080fd5b5060405162006e0938038062006e098339818101604052810190620000739190620002cb565b6000620000856200027060201b60201c565b9050806000806101000a81548173ffffffffffffffffffffffffffffffffffffffff021916908373ffffffffffffffffffffffffffffffffffffffff1602179055508073ffffffffffffffffffffffffffffffffffffffff16600073ffffffffffffffffffffffffffffffffffffffff167f8be0079c531659141344cd1fd0a4f28419497f9722a3daafe3b4186f6b6457e060405160405180910390a3506002604051620001339062000278565b6200013f919062000332565b604051809103906000f0801580156200015c573d6000803e3d6000fd5b50600860006101000a81548173ffffffffffffffffffffffffffffffffffffffff021916908373ffffffffffffffffffffffffffffffffffffffff16021790555082600660006101000a81548173ffffffffffffffffffffffffffffffffffffffff021916908373ffffffffffffffffffffffffffffffffffffffff16021790555081600960006101000a81548173ffffffffffffffffffffffffffffffffffffffff021916908373ffffffffffffffffffffffffffffffffffffffff16021790555080600a60006101000a81548173ffffffffffffffffffffffffffffffffffffffff021916908373ffffffffffffffffffffffffffffffffffffffff16021790555042600b819055505050506200042e565b600033905090565b6130138062003df683390190565b6000815190506200029781620003e0565b92915050565b600081519050620002ae81620003fa565b92915050565b600081519050620002c58162000414565b92915050565b600080600060608486031215620002e157600080fd5b6000620002f1868287016200029d565b93505060206200030486828701620002b4565b9250506040620003178682870162000286565b9150509250925092565b6200032c81620003cc565b82525050565b600060208201905062000349600083018462000321565b92915050565b60006200035c826200039f565b9050919050565b600062000370826200034f565b9050919050565b600062000384826200034f565b9050919050565b600062000398826200034f565b9050919050565b600073ffffffffffffffffffffffffffffffffffffffff82169050919050565b600060ff82169050919050565b6000620003d982620003bf565b9050919050565b620003eb8162000363565b8114620003f757600080fd5b50565b620004058162000377565b81146200041157600080fd5b50565b6200041f816200038b565b81146200042b57600080fd5b50565b6139b8806200043e6000396000f3fe608060405234801561001057600080fd5b50600436106101c45760003560e01c8063652c76e4116100f9578063b293a26711610097578063cfa1fa0311610071578063cfa1fa0314610535578063dd0982a314610551578063f09a401614610581578063f2fde38b1461059d576101c4565b8063b293a267146104cb578063b61ede7f146104e7578063bea140b314610505576101c4565b80638da5cb5b116100d35780638da5cb5b1461042f5780639cfced971461044d578063aab4a6701461047d578063ac2f00741461049b576101c4565b8063652c76e4146103d7578063715018a6146103f55780637d0a81c8146103ff576101c4565b80633364120a1161016657806358bfc3791161014057806358bfc379146103295780635bb9399514610359578063603baff81461038957806362a361bb146103a7576101c4565b80633364120a146102bf578063343393b5146102db5780633dfb88b2146102f9576101c4565b806313fb8932116101a257806313fb8932146102235780631a8cbcaa146102415780632803c35c146102715780632877e036146102a1576101c4565b8063079410db146101c95780630f78c3f2146101e7578063122db15314610205575b600080fd5b6101d16105b9565b6040516101de9190613100565b60405180910390f35b6101ef6105df565b6040516101fc91906132df565b60405180910390f35b61020d6105e5565b60405161021a91906132df565b60405180910390f35b61022b6105eb565b604051610238919061311b565b60405180910390f35b61025b6004803603810190610256919061263d565b610611565b60405161026891906130e5565b60405180910390f35b61028b6004803603810190610286919061263d565b610692565b60405161029891906132df565b60405180910390f35b6102a96106aa565b6040516102b691906132df565b60405180910390f35b6102d960048036038101906102d49190612595565b61076b565b005b6102e3610b58565b6040516102f091906130ca565b60405180910390f35b610313600480360381019061030e9190612474565b610b7e565b60405161032091906132df565b60405180910390f35b610343600480360381019061033e91906124c6565b610c0e565b60405161035091906132df565b60405180910390f35b610373600480360381019061036e91906126f3565b610cb2565b60405161038091906132df565b60405180910390f35b610391610cfc565b60405161039e9190613079565b60405180910390f35b6103c160048036038101906103bc9190612422565b610d22565b6040516103ce91906132df565b60405180910390f35b6103df610db2565b6040516103ec919061343c565b60405180910390f35b6103fd610dc5565b005b61041960048036038101906104149190612614565b610eff565b60405161042691906132df565b60405180910390f35b610437610f8e565b6040516104449190612fc2565b60405180910390f35b6104676004803603810190610462919061249d565b610fb7565b60405161047491906132df565b60405180910390f35b610485611047565b6040516104929190613094565b60405180910390f35b6104b560048036038101906104b0919061263d565b61106d565b6040516104c291906130e5565b60405180910390f35b6104e560048036038101906104e0919061268f565b6110a0565b005b6104ef6112cc565b6040516104fc91906130af565b60405180910390f35b61051f600480360381019061051a919061244b565b6112f2565b60405161052c91906132df565b60405180910390f35b61054f600480360381019061054a91906126f3565b611382565b005b61056b6004803603810190610566919061263d565b611545565b60405161057891906132df565b60405180910390f35b61059b60048036038101906105969190612559565b611740565b005b6105b760048036038101906105b291906123d0565b611ceb565b005b600960009054906101000a900473ffffffffffffffffffffffffffffffffffffffff1681565b600b5481565b60035481565b600560009054906101000a900473ffffffffffffffffffffffffffffffffffffffff1681565b60006001548210610657576040517f08c379a000000000000000000000000000000000000000000000000000000000815260040161064e9061317f565b60405180910390fd5b6002600083815260200190815260200160002060009054906101000a900473ffffffffffffffffffffffffffffffffffffffff169050919050565b60046020528060005260406000206000915090505481565b6000600860009054906101000a900473ffffffffffffffffffffffffffffffffffffffff1673ffffffffffffffffffffffffffffffffffffffff16631b9b8aa7600060149054906101000a900460ff166040518263ffffffff1660e01b81526004016107169190613421565b60206040518083038186803b15801561072e57600080fd5b505afa158015610742573d6000803e3d6000fd5b505050506040513d601f19601f820116820180604052508101906107669190612666565b905090565b60011515600860149054906101000a900460ff161515146107c1576040517f08c379a00000000000000000000000000000000000000000000000000000000081526004016107b89061323f565b60405180910390fd5b606460035410610806576040517f08c379a00000000000000000000000000000000000000000000000000000000081526004016107fd9061315f565b60405180910390fd5b600960009054906101000a900473ffffffffffffffffffffffffffffffffffffffff1673ffffffffffffffffffffffffffffffffffffffff166324b8fbf633846040518363ffffffff1660e01b8152600401610863929190612fdd565b600060405180830381600087803b15801561087d57600080fd5b505af1158015610891573d6000803e3d6000fd5b505050507f30644e72e131a029b85045b68181585d2833e84879b9709143e1f593f000000183600001511080156108eb57507f30644e72e131a029b85045b68181585d2833e84879b9709143e1f593f00000018360200151105b61092a576040517f08c379a00000000000000000000000000000000000000000000000000000000081526004016109219061325f565b60405180910390fd5b6000600a60009054906101000a900473ffffffffffffffffffffffffffffffffffffffff1673ffffffffffffffffffffffffffffffffffffffff1663b36543a933846040518363ffffffff1660e01b8152600401610989929190612fdd565b60206040518083038186803b1580156109a157600080fd5b505afa1580156109b5573d6000803e3d6000fd5b505050506040513d601f19601f820116820180604052508101906109d99190612666565b9050640100000000811115610a23576040517f08c379a0000000000000000000000000000000000000000000000000000000008152600401610a1a9061319f565b60405180910390fd5b60004290506000610a4d604051806060016040528088815260200185815260200184815250610eff565b90506000600860009054906101000a900473ffffffffffffffffffffffffffffffffffffffff1673ffffffffffffffffffffffffffffffffffffffff16631ffc735d836040518263ffffffff1660e01b8152600401610aac91906132df565b602060405180830381600087803b158015610ac657600080fd5b505af1158015610ada573d6000803e3d6000fd5b505050506040513d601f19601f82011682018060405250810190610afe9190612666565b90506003600081548092919060010191905055507f99f34e3b6821c0bd1f5732936411fe3fd65fb78cbcd657c61bfb8deb08c0591f81888686604051610b4794939291906133b3565b60405180910390a150505050505050565b600660009054906101000a900473ffffffffffffffffffffffffffffffffffffffff1681565b600073__$584f44aaf914c42633951b34ceb432be31$__63248f6677836040518263ffffffff1660e01b8152600401610bb79190613043565b60206040518083038186803b158015610bcf57600080fd5b505af4158015610be3573d6000803e3d6000fd5b505050506040513d601f19601f82011682018060405250810190610c079190612666565b9050919050565b60007f30644e72e131a029b85045b68181585d2833e84879b9709143e1f593f0000001600283604051602001610c449190612f94565b604051602081830303815290604052604051610c609190612fab565b602060405180830381855afa158015610c7d573d6000803e3d6000fd5b5050506040513d601f19601f82011682018060405250810190610ca09190612507565b60001c81610caa57fe5b069050919050565b6000610cbc611e9c565b8381600060028110610cca57fe5b6020020181815250508281600160028110610ce157fe5b602002018181525050610cf381610d22565b91505092915050565b600860009054906101000a900473ffffffffffffffffffffffffffffffffffffffff1681565b600073__$d4acaf6f169a2634c49d403ce7efde36fd$__6329a5f2f6836040518263ffffffff1660e01b8152600401610d5b919061300d565b60206040518083038186803b158015610d7357600080fd5b505af4158015610d87573d6000803e3d6000fd5b505050506040513d601f19601f82011682018060405250810190610dab9190612666565b9050919050565b600060149054906101000a900460ff1681565b610dcd611e94565b73ffffffffffffffffffffffffffffffffffffffff16610deb610f8e565b73ffffffffffffffffffffffffffffffffffffffff1614610e41576040517f08c379a0000000000000000000000000000000000000000000000000000000008152600401610e389061327f565b60405180910390fd5b600073ffffffffffffffffffffffffffffffffffffffff1660008054906101000a900473ffffffffffffffffffffffffffffffffffffffff1673ffffffffffffffffffffffffffffffffffffffff167f8be0079c531659141344cd1fd0a4f28419497f9722a3daafe3b4186f6b6457e060405160405180910390a360008060006101000a81548173ffffffffffffffffffffffffffffffffffffffff021916908373ffffffffffffffffffffffffffffffffffffffff160217905550565b6000610f09611ebe565b82600001516000015181600060048110610f1f57fe5b60200201818152505082600001516020015181600160048110610f3e57fe5b602002018181525050826020015181600260048110610f5957fe5b602002018181525050826040015181600360048110610f7457fe5b602002018181525050610f8681610b7e565b915050919050565b60008060009054906101000a900473ffffffffffffffffffffffffffffffffffffffff16905090565b600073__$2a5b9c44d836f7997ae51e8d308a712a39$__634937a258836040518263ffffffff1660e01b8152600401610ff0919061305e565b60206040518083038186803b15801561100857600080fd5b505af415801561101c573d6000803e3d6000fd5b505050506040513d601f19601f820116820180604052508101906110409190612666565b9050919050565b600a60009054906101000a900473ffffffffffffffffffffffffffffffffffffffff1681565b60026020528060005260406000206000915054906101000a900473ffffffffffffffffffffffffffffffffffffffff1681565b60011515600860149054906101000a900460ff161515146110f6576040517f08c379a00000000000000000000000000000000000000000000000000000000081526004016110ed9061323f565b60405180910390fd5b60006001549050611105611ee0565b6040518060400160405280856020015160ff16600560ff160a60ff168152602001856000015160ff16600560ff160a60ff1681525090506000600660009054906101000a900473ffffffffffffffffffffffffffffffffffffffff1673ffffffffffffffffffffffffffffffffffffffff166359d7738d8888888689600560009054906101000a900473ffffffffffffffffffffffffffffffffffffffff16306111ad610f8e565b6040518963ffffffff1660e01b81526004016111d0989796959493929190613331565b602060405180830381600087803b1580156111ea57600080fd5b505af11580156111fe573d6000803e3d6000fd5b505050506040513d601f19601f820116820180604052508101906112229190612530565b9050806002600085815260200190815260200160002060006101000a81548173ffffffffffffffffffffffffffffffffffffffff021916908373ffffffffffffffffffffffffffffffffffffffff1602179055506001600081548092919060010191905055507f76b880f3c8580b5bb05765c3b2160a2860692566e7f8cce8c58d23e77f3130c28382866040516112bb939291906132fa565b60405180910390a150505050505050565b600760009054906101000a900473ffffffffffffffffffffffffffffffffffffffff1681565b600073__$9b3049adcf18347c4fcd511e1429cbc37d$__6325cc70e8836040518263ffffffff1660e01b815260040161132b9190613028565b60206040518083038186803b15801561134357600080fd5b505af4158015611357573d6000803e3d6000fd5b505050506040513d601f19601f8201168201806040525081019061137b9190612666565b9050919050565b806002600082815260200190815260200160002060009054906101000a900473ffffffffffffffffffffffffffffffffffffffff1673ffffffffffffffffffffffffffffffffffffffff163373ffffffffffffffffffffffffffffffffffffffff1614611424576040517f08c379a000000000000000000000000000000000000000000000000000000000815260040161141b9061329f565b60405180910390fd5b60011515600860149054906101000a900460ff1615151461147a576040517f08c379a00000000000000000000000000000000000000000000000000000000081526004016114719061323f565b60405180910390fd5b600860009054906101000a900473ffffffffffffffffffffffffffffffffffffffff1673ffffffffffffffffffffffffffffffffffffffff1663c15da65b846040518263ffffffff1660e01b81526004016114d591906132df565b600060405180830381600087803b1580156114ef57600080fd5b505af1158015611503573d6000803e3d6000fd5b505050507fe9807dca2e13777d1fc97a0c403970f20bd5e78e84a50035d517015a8932a10c82846040516115389291906133f8565b60405180910390a1505050565b6000816002600082815260200190815260200160002060009054906101000a900473ffffffffffffffffffffffffffffffffffffffff1673ffffffffffffffffffffffffffffffffffffffff163373ffffffffffffffffffffffffffffffffffffffff16146115e9576040517f08c379a00000000000000000000000000000000000000000000000000000000081526004016115e09061329f565b60405180910390fd5b60011515600860149054906101000a900460ff1615151461163f576040517f08c379a00000000000000000000000000000000000000000000000000000000081526004016116369061323f565b60405180910390fd5b6000600860009054906101000a900473ffffffffffffffffffffffffffffffffffffffff1673ffffffffffffffffffffffffffffffffffffffff166324a47aeb600060149054906101000a900460ff166040518263ffffffff1660e01b81526004016116ab9190613421565b602060405180830381600087803b1580156116c557600080fd5b505af11580156116d9573d6000803e3d6000fd5b505050506040513d601f19601f820116820180604052508101906116fd9190612666565b90507fa62757197c6e5a785ec97eb7bdae582c9bd5df5bc9f66566238abc8cef5a87b58460405161172e91906132df565b60405180910390a18092505050919050565b611748611e94565b73ffffffffffffffffffffffffffffffffffffffff16611766610f8e565b73ffffffffffffffffffffffffffffffffffffffff16146117bc576040517f08c379a00000000000000000000000000000000000000000000000000000000081526004016117b39061327f565b60405180910390fd5b60001515600860149054906101000a900460ff16151514611812576040517f08c379a0000000000000000000000000000000000000000000000000000000008152600401611809906131bf565b60405180910390fd5b81600560006101000a81548173ffffffffffffffffffffffffffffffffffffffff021916908373ffffffffffffffffffffffffffffffffffffffff16021790555080600760006101000a81548173ffffffffffffffffffffffffffffffffffffffff021916908373ffffffffffffffffffffffffffffffffffffffff1602179055503073ffffffffffffffffffffffffffffffffffffffff16600660009054906101000a900473ffffffffffffffffffffffffffffffffffffffff1673ffffffffffffffffffffffffffffffffffffffff16638da5cb5b6040518163ffffffff1660e01b815260040160206040518083038186803b15801561191357600080fd5b505afa158015611927573d6000803e3d6000fd5b505050506040513d601f19601f8201168201806040525081019061194b91906123f9565b73ffffffffffffffffffffffffffffffffffffffff16146119a1576040517f08c379a0000000000000000000000000000000000000000000000000000000008152600401611998906132bf565b60405180910390fd5b600660009054906101000a900473ffffffffffffffffffffffffffffffffffffffff1673ffffffffffffffffffffffffffffffffffffffff1663d46f5ff2600760009054906101000a900473ffffffffffffffffffffffffffffffffffffffff166040518263ffffffff1660e01b8152600401611a1e91906130af565b600060405180830381600087803b158015611a3857600080fd5b505af1158015611a4c573d6000803e3d6000fd5b50505050600660009054906101000a900473ffffffffffffffffffffffffffffffffffffffff1673ffffffffffffffffffffffffffffffffffffffff16600760009054906101000a900473ffffffffffffffffffffffffffffffffffffffff1673ffffffffffffffffffffffffffffffffffffffff16638da5cb5b6040518163ffffffff1660e01b815260040160206040518083038186803b158015611af157600080fd5b505afa158015611b05573d6000803e3d6000fd5b505050506040513d601f19601f82011682018060405250810190611b2991906123f9565b73ffffffffffffffffffffffffffffffffffffffff1614611b7f576040517f08c379a0000000000000000000000000000000000000000000000000000000008152600401611b769061321f565b60405180910390fd5b611b87610f8e565b73ffffffffffffffffffffffffffffffffffffffff16600560009054906101000a900473ffffffffffffffffffffffffffffffffffffffff1673ffffffffffffffffffffffffffffffffffffffff16638da5cb5b6040518163ffffffff1660e01b815260040160206040518083038186803b158015611c0557600080fd5b505afa158015611c19573d6000803e3d6000fd5b505050506040513d601f19601f82011682018060405250810190611c3d91906123f9565b73ffffffffffffffffffffffffffffffffffffffff1614611c93576040517f08c379a0000000000000000000000000000000000000000000000000000000008152600401611c8a906131ff565b60405180910390fd5b6001600860146101000a81548160ff0219169083151502179055507f45acd56f401dc3db1d520e5e214f090b4ab3e3fbf42fd24596cb511edaad876a8282604051611cdf929190613136565b60405180910390a15050565b611cf3611e94565b73ffffffffffffffffffffffffffffffffffffffff16611d11610f8e565b73ffffffffffffffffffffffffffffffffffffffff1614611d67576040517f08c379a0000000000000000000000000000000000000000000000000000000008152600401611d5e9061327f565b60405180910390fd5b600073ffffffffffffffffffffffffffffffffffffffff168173ffffffffffffffffffffffffffffffffffffffff161415611dd7576040517f08c379a0000000000000000000000000000000000000000000000000000000008152600401611dce906131df565b60405180910390fd5b8073ffffffffffffffffffffffffffffffffffffffff1660008054906101000a900473ffffffffffffffffffffffffffffffffffffffff1673ffffffffffffffffffffffffffffffffffffffff167f8be0079c531659141344cd1fd0a4f28419497f9722a3daafe3b4186f6b6457e060405160405180910390a3806000806101000a81548173ffffffffffffffffffffffffffffffffffffffff021916908373ffffffffffffffffffffffffffffffffffffffff16021790555050565b600033905090565b6040518060400160405280600290602082028036833780820191505090505090565b6040518060800160405280600490602082028036833780820191505090505090565b6040518060400160405280600060ff168152602001600060ff1681525090565b600081359050611f0f816138e1565b92915050565b600081519050611f24816138e1565b92915050565b600082601f830112611f3b57600080fd5b6002611f4e611f4982613488565b613457565b91508183856020840282011115611f6457600080fd5b60005b83811015611f945781611f7a8882612391565b845260208401935060208301925050600181019050611f67565b5050505092915050565b600082601f830112611faf57600080fd5b6003611fc2611fbd826134ae565b613457565b91508183856020840282011115611fd857600080fd5b60005b838110156120085781611fee8882612391565b845260208401935060208301925050600181019050611fdb565b5050505092915050565b600082601f83011261202357600080fd5b6004612036612031826134d4565b613457565b9150818385602084028201111561204c57600080fd5b60005b8381101561207c57816120628882612391565b84526020840193506020830192505060018101905061204f565b5050505092915050565b600082601f83011261209757600080fd5b60056120aa6120a5826134fa565b613457565b915081838560208402820111156120c057600080fd5b60005b838110156120f057816120d68882612391565b8452602084019350602083019250506001810190506120c3565b5050505092915050565b600082601f83011261210b57600080fd5b813561211e61211982613520565b613457565b9150818183526020840193506020810190508385602084028201111561214357600080fd5b60005b8381101561217357816121598882612391565b845260208401935060208301925050600181019050612146565b5050505092915050565b60008151905061218c816138f8565b92915050565b600082601f8301126121a357600080fd5b81356121b66121b18261354c565b613457565b915080825260208301602083018583830111156121d257600080fd5b6121dd83828461388c565b50505092915050565b6000813590506121f58161390f565b92915050565b60008151905061220a81613926565b92915050565b60008135905061221f8161393d565b92915050565b60006040828403121561223757600080fd5b6122416040613457565b9050600061225184828501612391565b600083015250602061226584828501612391565b60208301525092915050565b60006040828403121561228357600080fd5b61228d6040613457565b9050600061229d84828501612391565b60008301525060206122b184828501612391565b60208301525092915050565b6000608082840312156122cf57600080fd5b6122d96060613457565b905060006122e984828501612271565b60008301525060406122fd84828501612391565b602083015250606061231184828501612391565b60408301525092915050565b60006080828403121561232f57600080fd5b6123396080613457565b90506000612349848285016123bb565b600083015250602061235d848285016123bb565b6020830152506040612371848285016123bb565b6040830152506060612385848285016123bb565b60608301525092915050565b6000813590506123a081613954565b92915050565b6000815190506123b581613954565b92915050565b6000813590506123ca8161396b565b92915050565b6000602082840312156123e257600080fd5b60006123f084828501611f00565b91505092915050565b60006020828403121561240b57600080fd5b600061241984828501611f15565b91505092915050565b60006040828403121561243457600080fd5b600061244284828501611f2a565b91505092915050565b60006060828403121561245d57600080fd5b600061246b84828501611f9e565b91505092915050565b60006080828403121561248657600080fd5b600061249484828501612012565b91505092915050565b600060a082840312156124af57600080fd5b60006124bd84828501612086565b91505092915050565b6000602082840312156124d857600080fd5b600082013567ffffffffffffffff8111156124f257600080fd5b6124fe848285016120fa565b91505092915050565b60006020828403121561251957600080fd5b60006125278482850161217d565b91505092915050565b60006020828403121561254257600080fd5b6000612550848285016121fb565b91505092915050565b6000806040838503121561256c57600080fd5b600061257a85828601612210565b925050602061258b858286016121e6565b9150509250929050565b6000806000608084860312156125aa57600080fd5b60006125b886828701612271565b935050604084013567ffffffffffffffff8111156125d557600080fd5b6125e186828701612192565b925050606084013567ffffffffffffffff8111156125fe57600080fd5b61260a86828701612192565b9150509250925092565b60006080828403121561262657600080fd5b6000612634848285016122bd565b91505092915050565b60006020828403121561264f57600080fd5b600061265d84828501612391565b91505092915050565b60006020828403121561267857600080fd5b6000612686848285016123a6565b91505092915050565b60008060008061012085870312156126a657600080fd5b60006126b487828801612391565b94505060206126c587828801612225565b93505060606126d68782880161231d565b92505060e06126e787828801612271565b91505092959194509250565b6000806040838503121561270657600080fd5b600061271485828601612391565b925050602061272585828601612391565b9150509250929050565b600061273b8383612f49565b60208301905092915050565b60006127538383612f58565b60208301905092915050565b61276881613724565b82525050565b6127778161369b565b82525050565b612786816135b4565b6127908184613637565b925061279b8261357c565b8060005b838110156127cc5781516127b38782612747565b96506127be836135f6565b92505060018101905061279f565b505050505050565b6127dd816135bf565b6127e78184613642565b92506127f282613586565b8060005b8381101561282357815161280a8782612747565b965061281583613603565b9250506001810190506127f6565b505050505050565b612834816135ca565b61283e818461364d565b925061284982613590565b8060005b8381101561287a5781516128618782612747565b965061286c83613610565b92505060018101905061284d565b505050505050565b61288b816135d5565b6128958184613658565b92506128a08261359a565b8060005b838110156128d15781516128b88782612747565b96506128c38361361d565b9250506001810190506128a4565b505050505050565b60006128e4826135e0565b6128ee8185613663565b93506128f9836135a4565b8060005b8381101561292a578151612911888261272f565b975061291c8361362a565b9250506001810190506128fd565b5085935050505092915050565b6000612942826135eb565b61294c818561366e565b935061295c81856020860161389b565b612965816138d0565b840191505092915050565b600061297b826135eb565b612985818561367f565b935061299581856020860161389b565b80840191505092915050565b6129aa81613736565b82525050565b6129b98161375a565b82525050565b6129c88161377e565b82525050565b6129d7816137a2565b82525050565b6129e6816137c6565b82525050565b6129f5816137ea565b82525050565b612a048161380e565b82525050565b612a1381613832565b82525050565b6000612a2660278361368a565b91507f4d4143493a206d6178696d756d206e756d626572206f66207369676e7570732060008301527f72656163686564000000000000000000000000000000000000000000000000006020830152604082019050919050565b6000612a8c60268361368a565b91507f4d4143493a20706f6c6c2077697468205f706f6c6c496420646f6573206e6f7460008301527f20657869737400000000000000000000000000000000000000000000000000006020830152604082019050919050565b6000612af2601c8361368a565b91507f4d4143493a20746f6f206d616e7920766f6963652063726564697473000000006000830152602082019050919050565b6000612b3260198361368a565b91507f4d4143493a20616c726561647920696e697469616c69736564000000000000006000830152602082019050919050565b6000612b7260268361368a565b91507f4f776e61626c653a206e6577206f776e657220697320746865207a65726f206160008301527f64647265737300000000000000000000000000000000000000000000000000006020830152604082019050919050565b6000612bd860268361368a565b91507f4d4143493a20566b5265676973747279206f776e657220696e636f727265637460008301527f6c792073657400000000000000000000000000000000000000000000000000006020830152604082019050919050565b6000612c3e602c8361368a565b91507f4d4143493a204d6573736167654171466163746f7279206f776e657220696e6360008301527f6f72726563746c792073657400000000000000000000000000000000000000006020830152604082019050919050565b6000612ca460158361368a565b91507f4d4143493a206e6f7420696e697469616c6973656400000000000000000000006000830152602082019050919050565b6000612ce4603f8361368a565b91507f4d4143493a205f7075624b65792076616c7565732073686f756c64206265206c60008301527f657373207468616e2074686520736e61726b207363616c6172206669656c64006020830152604082019050919050565b6000612d4a60208361368a565b91507f4f776e61626c653a2063616c6c6572206973206e6f7420746865206f776e65726000830152602082019050919050565b6000612d8a60318361368a565b91507f4d4143493a206f6e6c79206120506f6c6c20636f6e74726163742063616e206360008301527f616c6c20746869732066756e6374696f6e0000000000000000000000000000006020830152604082019050919050565b6000612df060278361368a565b91507f4d4143493a20506f6c6c466163746f7279206f776e657220696e636f7272656360008301527f746c7920736574000000000000000000000000000000000000000000000000006020830152604082019050919050565b604082016000820151612e5f6000850182612f76565b506020820151612e726020850182612f76565b50505050565b604082016000820151612e8e6000850182612f2b565b506020820151612ea16020850182612f2b565b50505050565b604082016000820151612ebd6000850182612f2b565b506020820151612ed06020850182612f2b565b50505050565b608082016000820151612eec6000850182612f76565b506020820151612eff6020850182612f76565b506040820151612f126040850182612f76565b506060820151612f256060850182612f76565b50505050565b612f348161370d565b82525050565b612f438161370d565b82525050565b612f528161370d565b82525050565b612f618161370d565b82525050565b612f708161387a565b82525050565b612f7f81613717565b82525050565b612f8e81613717565b82525050565b6000612fa082846128d9565b915081905092915050565b6000612fb78284612970565b915081905092915050565b6000602082019050612fd7600083018461276e565b92915050565b6000604082019050612ff2600083018561275f565b81810360208301526130048184612937565b90509392505050565b6000604082019050613022600083018461277d565b92915050565b600060608201905061303d60008301846127d4565b92915050565b6000608082019050613058600083018461282b565b92915050565b600060a0820190506130736000830184612882565b92915050565b600060208201905061308e60008301846129a1565b92915050565b60006020820190506130a960008301846129b0565b92915050565b60006020820190506130c460008301846129ce565b92915050565b60006020820190506130df60008301846129dd565b92915050565b60006020820190506130fa60008301846129ec565b92915050565b600060208201905061311560008301846129fb565b92915050565b60006020820190506131306000830184612a0a565b92915050565b600060408201905061314b6000830185612a0a565b61315860208301846129ce565b9392505050565b6000602082019050818103600083015261317881612a19565b9050919050565b6000602082019050818103600083015261319881612a7f565b9050919050565b600060208201905081810360008301526131b881612ae5565b9050919050565b600060208201905081810360008301526131d881612b25565b9050919050565b600060208201905081810360008301526131f881612b65565b9050919050565b6000602082019050818103600083015261321881612bcb565b9050919050565b6000602082019050818103600083015261323881612c31565b9050919050565b6000602082019050818103600083015261325881612c97565b9050919050565b6000602082019050818103600083015261327881612cd7565b9050919050565b6000602082019050818103600083015261329881612d3d565b9050919050565b600060208201905081810360008301526132b881612d7d565b9050919050565b600060208201905081810360008301526132d881612de3565b9050919050565b60006020820190506132f46000830184612f3a565b92915050565b600060808201905061330f6000830186612f3a565b61331c602083018561276e565b6133296040830184612ea7565b949350505050565b60006101c082019050613347600083018b612f3a565b613354602083018a612e78565b6133616060830189612ed6565b61336e60e0830188612e49565b61337c610120830187612ea7565b61338a610160830186612a0a565b6133986101808301856129bf565b6133a66101a083018461276e565b9998505050505050505050565b600060a0820190506133c86000830187612f3a565b6133d56020830186612ea7565b6133e26060830185612f3a565b6133ef6080830184612f3a565b95945050505050565b600060408201905061340d6000830185612f3a565b61341a6020830184612f3a565b9392505050565b60006020820190506134366000830184612f67565b92915050565b60006020820190506134516000830184612f85565b92915050565b6000604051905081810181811067ffffffffffffffff8211171561347e5761347d6138ce565b5b8060405250919050565b600067ffffffffffffffff8211156134a3576134a26138ce565b5b602082029050919050565b600067ffffffffffffffff8211156134c9576134c86138ce565b5b602082029050919050565b600067ffffffffffffffff8211156134ef576134ee6138ce565b5b602082029050919050565b600067ffffffffffffffff821115613515576135146138ce565b5b602082029050919050565b600067ffffffffffffffff82111561353b5761353a6138ce565b5b602082029050602081019050919050565b600067ffffffffffffffff821115613567576135666138ce565b5b601f19601f8301169050602081019050919050565b6000819050919050565b6000819050919050565b6000819050919050565b6000819050919050565b6000819050602082019050919050565b600060029050919050565b600060039050919050565b600060049050919050565b600060059050919050565b600081519050919050565b600081519050919050565b6000602082019050919050565b6000602082019050919050565b6000602082019050919050565b6000602082019050919050565b6000602082019050919050565b600081905092915050565b600081905092915050565b600081905092915050565b600081905092915050565b600081905092915050565b600082825260208201905092915050565b600081905092915050565b600082825260208201905092915050565b60006136a6826136ed565b9050919050565b6000819050919050565b60006136c28261369b565b9050919050565b60006136d48261369b565b9050919050565b60006136e68261369b565b9050919050565b600073ffffffffffffffffffffffffffffffffffffffff82169050919050565b6000819050919050565b600060ff82169050919050565b600061372f82613856565b9050919050565b600061374182613748565b9050919050565b6000613753826136ed565b9050919050565b60006137658261376c565b9050919050565b6000613777826136ed565b9050919050565b600061378982613790565b9050919050565b600061379b826136ed565b9050919050565b60006137ad826137b4565b9050919050565b60006137bf826136ed565b9050919050565b60006137d1826137d8565b9050919050565b60006137e3826136ed565b9050919050565b60006137f5826137fc565b9050919050565b6000613807826136ed565b9050919050565b600061381982613820565b9050919050565b600061382b826136ed565b9050919050565b600061383d82613844565b9050919050565b600061384f826136ed565b9050919050565b600061386182613868565b9050919050565b6000613873826136ed565b9050919050565b600061388582613717565b9050919050565b82818337600083830152505050565b60005b838110156138b957808201518184015260208101905061389e565b838111156138c8576000848401525b50505050565bfe5b6000601f19601f8301169050919050565b6138ea8161369b565b81146138f557600080fd5b50565b613901816136ad565b811461390c57600080fd5b50565b613918816136b7565b811461392357600080fd5b50565b61392f816136c9565b811461393a57600080fd5b50565b613946816136db565b811461395157600080fd5b50565b61395d8161370d565b811461396857600080fd5b50565b61397481613717565b811461397f57600080fd5b5056fea2646970667358221220c7349b314871dfa132cec573a9cfc9524ee3b5a035d1091c4c8b8d273c4ccd7264736f6c6343000702003360e06040523480156200001157600080fd5b506040516200301338038062003013833981810160405260208110156200003757600080fd5b81019080805190602001909291905050508080600560006200005e6200095060201b60201c565b9050806000806101000a81548173ffffffffffffffffffffffffffffffffffffffff021916908373ffffffffffffffffffffffffffffffffffffffff1602179055508073ffffffffffffffffffffffffffffffffffffffff16600073ffffffffffffffffffffffffffffffffffffffff167f8be0079c531659141344cd1fd0a4f28419497f9722a3daafe3b4186f6b6457e060405160405180910390a3506000821162000157576040517f08c379a000000000000000000000000000000000000000000000000000000000815260040180806020018281038252602781526020018062002fec6027913960400191505060405180910390fd5b6020821115620001b3576040517f08c379a000000000000000000000000000000000000000000000000000000000815260040180806020018281038252602e81526020018062002f91602e913960400191505060405180910390fd5b6002811480620001c35750600581145b6200021a576040517f08c379a000000000000000000000000000000000000000000000000000000000815260040180806020018281038252602d81526020018062002fbf602d913960400191505060405180910390fd5b60028114600060146101000a81548160ff02191690831515021790555081608081815250508060a0818152505081810a60c081815250505050507f12817f4161f2f5ded33f26c55735a77e80e4f8975483c8c2704745128417f7116101726000602181106200028557fe5b01819055507f1c8de1edeabc24fc4c1595acaabb70be9b70f351d58c6fa338e1e9a994413bfb610172600160218110620002bb57fe5b01819055507f22fcda488c14b34fc60eb073fbe92fe10793e2ab14682e0f057332ddbef3d55c610172600260218110620002f157fe5b01819055507f2db474db7c7212646cb15c6177d87be30711e6c04f1139d8e495ef1d1d9982276101726003602181106200032757fe5b01819055507efde404053ec39a19f6ac347121a2264815dda84f910a388cb372e967a5d08c6101726004602181106200035c57fe5b01819055507f0723792ffab6ec6cfb3ece1509b9b4fb07e5bdb2299d1538e6e1db916f90cf896101726005602181106200039257fe5b01819055507f2a4392ec4e3d1811cd6a950cc865ee6f2342910a6551c5dce38cb995576c7c70610172600660218110620003c857fe5b01819055507f1dead4c14f75e9d8449c80b648dcd4694c2ee50da2ba16e5e438f0d77ab02e34610172600760218110620003fe57fe5b01819055507f124c53ce0953fffb7ab5e3c143df6cd48ba747d3959fcb8086405d763ed545506101726008602181106200043457fe5b01819055507f02bae19605746a8cd3f0927b2c01630f36f4d1bab9216ca839833e7ff6efa2066101726009602181106200046a57fe5b01819055507f1f8375099becf17173d457d0d07bfb74c7067df1143b5ad987046e8e66817bc9610172600a60218110620004a057fe5b01819055507f0e13e954d61bb3fa3b03e7d136ca909b610fa2ca4443d920d94d16684f2b83d4610172600b60218110620004d657fe5b01819055507f1416ef2fc4f88fcfc4f9eb12f8e214b1c3e31c6c10ece9cfa51f078a3bbf3457610172600c602181106200050c57fe5b01819055507f032f915ff71e198a7955d2697249f40fb94c65812ed24e670c9700f52fdf6e0e610172600d602181106200054257fe5b01819055507f08bfebf4b3ddb0f8c51dd40193f5996da9f3d799ee0d8beb6be4038132df60b4610172600e602181106200057857fe5b01819055507f065ac498cf4a5acaeb3b6cee826da9f834c961fa39feff6ae925b90dff79b613610172600f60218110620005ae57fe5b01819055507f2e72c628101a93201b912a3e3fe96d39b0a9076ec39b7935a015c59bb32b8a2a610172601060218110620005e457fe5b01819055507f19bba68e7b9da1e6ec42e52d7ab2adaf3b6a5521b1a454ec70f62e0ab702c0856101726011602181106200061a57fe5b01819055507f0de1f72745a5af2a34cac412e00eb6c8b5db1f3b52fa1bff88076c2726b83b086101726012602181106200065057fe5b01819055507f2e8f152603b2fac10d6a14c841327c23c502537367ccb1e42fab9a3bd9db2a8d6101726013602181106200068657fe5b01819055507f14e16c3e0dcfd7e621a32627ebf37f6c0afb4467d34c7b7aeffded11769dec85610172601460218110620006bc57fe5b01819055507f0be1e62127948b4805c85a1d836574f0892ca6473fcde98f3fd1781248a9768f610172601560218110620006f257fe5b01819055507f0930288fbd7c849197c8372f1dd8f9087f8a03f09b9cd904a469c15ef6b1b5156101726016602181106200072857fe5b01819055507f231cac34e215e3f404d2fcfb79e0705deeb3d40978f0ee31072f6cbc1b579e336101726017602181106200075e57fe5b01819055507f2e0e3cd2718ac7199b81dc14e841de40a9536b7ffe95fa1fc9c6b799e43e2c976101726018602181106200079457fe5b01819055507f0718452506f0a232e98966d84b1a4675a66bd80263a2dc58bdac873825752fc3610172601960218110620007ca57fe5b01819055507f162d4ed998307d6e132edbf5c11f62f53d4636aa10cb3c2244c2bf5577168c37610172601a602181106200080057fe5b01819055507f247d6a5544a8f295a894ae77c7efcdcbf52e3bf4e5d0c0d2f40557a61d449848610172601b602181106200083657fe5b01819055507f0b8de3868471f109e91670daca698dba917d1c5535821f33aa9598d1db8e3d19610172601c602181106200086c57fe5b01819055507f29851997020f527c92e20f030d232b81d334144a641e6a8866b46dd925005bbb610172601d60218110620008a257fe5b01819055507f1a9cfcbe29a2b6503a03049727c0bca3111afd62f2836f392080321d1b4ef642610172601e60218110620008d857fe5b01819055507f1aa3ead91fa89cc1d6cb1d0eb76a27190c6abfdd3265d6d0a1e5c58feddaddf6610172601f602181106200090e57fe5b01819055507f0702fc26a7d367e6677efefd95204a7e00144c2fc7dbc2a581aa00d99f51f0816101726020602181106200094457fe5b01819055505062000958565b600033905090565b60805160a05160c0516125b2620009df60003980610863528061150a52806116f852806119765280611a885250806106d05280610b675280610d6c52806117ef5280611e075280611f15528061216b52508061089b52806109095280610b37528061182552806119ac5280611a005280611d515280611e5452806120b652506125b26000f3fe608060405234801561001057600080fd5b50600436106101375760003560e01c806381d6a24a116100b8578063c00bdbcc1161007c578063c00bdbcc146105bd578063c15da65b146105eb578063d9c55ce114610619578063dda89a6e14610623578063e93fb4d414610641578063f2fde38b1461068357610137565b806381d6a24a146104525780638da5cb5b146104775780639cfced97146104ab578063b6a64acd14610524578063bea140b31461054457610137565b80633e1a8cc1116100ff5780633e1a8cc11461029957806358bfc379146102b75780635bb939951461038357806362a361bb146103cf578063715018a61461044857610137565b80631b9b8aa71461013c5780631ffc735d1461017e57806324a47aeb146101c05780633bfa6fce146102025780633dfb88b214610220575b600080fd5b6101686004803603602081101561015257600080fd5b81019080803590602001909291905050506106c7565b6040518082815260200191505060405180910390f35b6101aa6004803603602081101561019457600080fd5b810190808035906020019092919050505061075e565b6040518082815260200191505060405180910390f35b6101ec600480360360208110156101d657600080fd5b8101908080359060200190929190505050610962565b6040518082815260200191505060405180910390f35b61020a610d57565b6040518082815260200191505060405180910390f35b6102836004803603608081101561023657600080fd5b8101908080608001906004806020026040519081016040528092919082600460200280828437600081840152601f19601f8201169050808301925050505050509192919290505050610daa565b6040518082815260200191505060405180910390f35b6102a1610e65565b6040518082815260200191505060405180910390f35b61036d600480360360208110156102cd57600080fd5b81019080803590602001906401000000008111156102ea57600080fd5b8201836020820111156102fc57600080fd5b8035906020019184602083028401116401000000008311171561031e57600080fd5b919080806020026020016040519081016040528093929190818152602001838360200280828437600081840152601f19601f820116905080830192505050505050509192919290505050610ed6565b6040518082815260200191505060405180910390f35b6103b96004803603604081101561039957600080fd5b810190808035906020019092919080359060200190929190505050610ff5565b6040518082815260200191505060405180910390f35b610432600480360360408110156103e557600080fd5b8101908080604001906002806020026040519081016040528092919082600260200280828437600081840152601f19601f820116905080830192505050505050919291929050505061103f565b6040518082815260200191505060405180910390f35b6104506110fa565b005b61045a611267565b604051808381526020018281526020019250505060405180910390f35b61047f611279565b604051808273ffffffffffffffffffffffffffffffffffffffff16815260200191505060405180910390f35b61050e600480360360a08110156104c157600080fd5b810190808060a001906005806020026040519081016040528092919082600560200280828437600081840152601f19601f82011690508083019250505050505091929192905050506112a2565b6040518082815260200191505060405180910390f35b61052c61135d565b60405180821515815260200191505060405180910390f35b6105a76004803603606081101561055a57600080fd5b8101908080606001906003806020026040519081016040528092919082600360200280828437600081840152601f19601f8201169050808301925050505050509192919290505050611371565b6040518082815260200191505060405180910390f35b6105e9600480360360208110156105d357600080fd5b810190808035906020019092919050505061142c565b005b6106176004803603602081101561060157600080fd5b810190808035906020019092919050505061155f565b005b6106216118c3565b005b61062b611ad6565b6040518082815260200191505060405180910390f35b61066d6004803603602081101561065757600080fd5b8101908080359060200190929190505050611add565b6040518082815260200191505060405180910390f35b6106c56004803603602081101561069957600080fd5b81019080803573ffffffffffffffffffffffffffffffffffffffff169060200190929190505050611b55565b005b600061017154827f00000000000000000000000000000000000000000000000000000000000000000a1015610747576040517f08c379a000000000000000000000000000000000000000000000000000000000815260040180806020018281038252603181526020018061254c6031913960400191505060405180910390fd5b61014d826021811061075557fe5b01549050919050565b6000610768611d47565b73ffffffffffffffffffffffffffffffffffffffff16610786611279565b73ffffffffffffffffffffffffffffffffffffffff161461080f576040517f08c379a00000000000000000000000000000000000000000000000000000000081526004018080602001828103825260208152602001807f4f776e61626c653a2063616c6c6572206973206e6f7420746865206f776e657281525060200191505060405180910390fd5b6000610171549050610822836000611d4f565b600181016101718190555061014d600061083c9190612336565b61016f60009055600061016e60006101000a81548160ff02191690831515021790555060007f0000000000000000000000000000000000000000000000000000000000000000610171548161088d57fe5b0614156109595760026000017f0000000000000000000000000000000000000000000000000000000000000000602181106108c457fe5b600402016000600481106108d457fe5b015461014c600060015481526020019081526020016000208190555060016000815480929190600101919050555060026000017f00000000000000000000000000000000000000000000000000000000000000006021811061093257fe5b6004020160006004811061094257fe5b0160009055600260840160006109589190612336565b5b80915050919050565b600061096c611d47565b73ffffffffffffffffffffffffffffffffffffffff1661098a611279565b73ffffffffffffffffffffffffffffffffffffffff1614610a13576040517f08c379a00000000000000000000000000000000000000000000000000000000081526004018080602001828103825260208152602001807f4f776e61626c653a2063616c6c6572206973206e6f7420746865206f776e657281525060200191505060405180910390fd5b60008211610a6c576040517f08c379a00000000000000000000000000000000000000000000000000000000081526004018080602001828103825260248152602001806125286024913960400191505060405180910390fd5b6001151561016e60009054906101000a900460ff16151514610ad9576040517f08c379a000000000000000000000000000000000000000000000000000000000815260040180806020018281038252603881526020018061247e6038913960400191505060405180910390fd5b6020821115610b33576040517f08c379a00000000000000000000000000000000000000000000000000000000081526004018080602001828103825260268152602001806124276026913960400191505060405180910390fd5b60007f000000000000000000000000000000000000000000000000000000000000000090505b600115610b9e5761017154817f00000000000000000000000000000000000000000000000000000000000000000a10610b9157610b9e565b8080600101915050610b59565b80831015610bf7576040517f08c379a000000000000000000000000000000000000000000000000000000000815260040180806020018281038252602a8152602001806124fe602a913960400191505060405180910390fd5b80831415610c225761016f5461014d8460218110610c1157fe5b018190555061016f54915050610d52565b600061016f54905060008290505b84811015610d37576000610c4382611ed5565b9050600060149054906101000a900460ff1615610ca157610c62612349565b8381600060028110610c7057fe5b6020020181815250508181600160028110610c8757fe5b602002018181525050610c998161103f565b935050610d29565b610ca961236b565b8381600060058110610cb757fe5b6020020181815250508181600160058110610cce57fe5b6020020181815250508181600260058110610ce557fe5b6020020181815250508181600360058110610cfc57fe5b6020020181815250508181600460058110610d1357fe5b602002018181525050610d25816112a2565b9350505b508080600101915050610c30565b508061014d8560218110610d4757fe5b018190555080925050505b919050565b600080600190505b600115610da357600154817f00000000000000000000000000000000000000000000000000000000000000000a10610d9657610da3565b8080600101915050610d5f565b8091505090565b600073__$584f44aaf914c42633951b34ceb432be31$__63248f6677836040518263ffffffff1660e01b81526004018082600460200280838360005b83811015610e01578082015181840152602081019050610de6565b5050505090500191505060206040518083038186803b158015610e2357600080fd5b505af4158015610e37573d6000803e3d6000fd5b505050506040513d6020811015610e4d57600080fd5b81019080805190602001909291905050509050919050565b600061016e60009054906101000a900460ff16610ecd576040517f08c379a00000000000000000000000000000000000000000000000000000000081526004018080602001828103825260278152602001806124d76027913960400191505060405180910390fd5b61016f54905090565b60007f30644e72e131a029b85045b68181585d2833e84879b9709143e1f593f000000160028360405160200180828051906020019060200280838360005b83811015610f2f578082015181840152602081019050610f14565b505050509050019150506040516020818303038152906040526040518082805190602001908083835b60208310610f7b5780518252602082019150602081019050602083039250610f58565b6001836020036101000a038019825116818451168082178552505050505050905001915050602060405180830381855afa158015610fbd573d6000803e3d6000fd5b5050506040513d6020811015610fd257600080fd5b810190808051906020019092919050505060001c81610fed57fe5b069050919050565b6000610fff612349565b838160006002811061100d57fe5b602002018181525050828160016002811061102457fe5b6020020181815250506110368161103f565b91505092915050565b600073__$d4acaf6f169a2634c49d403ce7efde36fd$__6329a5f2f6836040518263ffffffff1660e01b81526004018082600260200280838360005b8381101561109657808201518184015260208101905061107b565b5050505090500191505060206040518083038186803b1580156110b857600080fd5b505af41580156110cc573d6000803e3d6000fd5b505050506040513d60208110156110e257600080fd5b81019080805190602001909291905050509050919050565b611102611d47565b73ffffffffffffffffffffffffffffffffffffffff16611120611279565b73ffffffffffffffffffffffffffffffffffffffff16146111a9576040517f08c379a00000000000000000000000000000000000000000000000000000000081526004018080602001828103825260208152602001807f4f776e61626c653a2063616c6c6572206973206e6f7420746865206f776e657281525060200191505060405180910390fd5b600073ffffffffffffffffffffffffffffffffffffffff1660008054906101000a900473ffffffffffffffffffffffffffffffffffffffff1673ffffffffffffffffffffffffffffffffffffffff167f8be0079c531659141344cd1fd0a4f28419497f9722a3daafe3b4186f6b6457e060405160405180910390a360008060006101000a81548173ffffffffffffffffffffffffffffffffffffffff021916908373ffffffffffffffffffffffffffffffffffffffff160217905550565b60008061017054600154915091509091565b60008060009054906101000a900473ffffffffffffffffffffffffffffffffffffffff16905090565b600073__$2a5b9c44d836f7997ae51e8d308a712a39$__634937a258836040518263ffffffff1660e01b81526004018082600560200280838360005b838110156112f95780820151818401526020810190506112de565b5050505090500191505060206040518083038186803b15801561131b57600080fd5b505af415801561132f573d6000803e3d6000fd5b505050506040513d602081101561134557600080fd5b81019080805190602001909291905050509050919050565b61016e60009054906101000a900460ff1681565b600073__$9b3049adcf18347c4fcd511e1429cbc37d$__6325cc70e8836040518263ffffffff1660e01b81526004018082600360200280838360005b838110156113c85780820151818401526020810190506113ad565b5050505090500191505060206040518083038186803b1580156113ea57600080fd5b505af41580156113fe573d6000803e3d6000fd5b505050506040513d602081101561141457600080fd5b81019080805190602001909291905050509050919050565b611434611d47565b73ffffffffffffffffffffffffffffffffffffffff16611452611279565b73ffffffffffffffffffffffffffffffffffffffff16146114db576040517f08c379a00000000000000000000000000000000000000000000000000000000081526004018080602001828103825260208152602001807f4f776e61626c653a2063616c6c6572206973206e6f7420746865206f776e657281525060200191505060405180910390fd5b8061014c60006001548152602001908152602001600020819055506001600081548092919060010191905055507f00000000000000000000000000000000000000000000000000000000000000006101716000828254019250508190555061016f60009055600061016e60006101000a81548160ff02191690831515021790555050565b611567611d47565b73ffffffffffffffffffffffffffffffffffffffff16611585611279565b73ffffffffffffffffffffffffffffffffffffffff161461160e576040517f08c379a00000000000000000000000000000000000000000000000000000000081526004018080602001828103825260208152602001807f4f776e61626c653a2063616c6c6572206973206e6f7420746865206f776e657281525060200191505060405180910390fd5b6000151561016e60009054906101000a900460ff1615151461167b576040517f08c379a00000000000000000000000000000000000000000000000000000000081526004018080602001828103825260218152602001806124b66021913960400191505060405180910390fd5b600061017154116116f4576040517f08c379a000000000000000000000000000000000000000000000000000000000815260040180806020018281038252601a8152602001807f41636351756575653a206e6f7468696e6720746f206d6572676500000000000081525060200191505060405180910390fd5b60007f0000000000000000000000000000000000000000000000000000000000000000610171548161172257fe5b0614611731576117306118c3565b5b60018054141561176d576117456000611add565b61016f81905550600161016e60006101000a81548160ff0219169083151502179055506118c0565b6000611777610d57565b90506000806101705490505b6001548110156117e9576000841415801561179d57508382145b156117aa575050506118c0565b6117c16117b961017054611add565b600085611eee565b6101706000815480929190600101919050555081806001019250508080600101915050611783565b506000827f00000000000000000000000000000000000000000000000000000000000000000a90506001546101705414156118775760006118497f0000000000000000000000000000000000000000000000000000000000000000611ed5565b9050600060015490505b828110156118745761186782600087611eee565b8080600101915050611853565b50505b60a7600001836021811061188757fe5b6004020160006004811061189757fe5b015461016f81905550600161016e60006101000a81548160ff0219169083151502179055505050505b50565b6118cb611d47565b73ffffffffffffffffffffffffffffffffffffffff166118e9611279565b73ffffffffffffffffffffffffffffffffffffffff1614611972576040517f08c379a00000000000000000000000000000000000000000000000000000000081526004018080602001828103825260208152602001807f4f776e61626c653a2063616c6c6572206973206e6f7420746865206f776e657281525060200191505060405180910390fd5b60007f000000000000000000000000000000000000000000000000000000000000000061017154816119a057fe5b0614156119ef576119d07f0000000000000000000000000000000000000000000000000000000000000000611ed5565b61014c6000600154815260200190815260200160002081905550611a76565b6119f960006120b3565b60026000017f000000000000000000000000000000000000000000000000000000000000000060218110611a2957fe5b60040201600060048110611a3957fe5b015461014c600060015481526020019081526020016000208190555060026000016000611a66919061238d565b61014d6000611a759190612336565b5b600060018054019050806001819055507f000000000000000000000000000000000000000000000000000000000000000081026101718190555061016f60009055600061016e60006101000a81548160ff02191690831515021790555050565b6101715481565b60008160015411611b39576040517f08c379a000000000000000000000000000000000000000000000000000000000815260040180806020018281038252603181526020018061244d6031913960400191505060405180910390fd5b61014c6000838152602001908152602001600020549050919050565b611b5d611d47565b73ffffffffffffffffffffffffffffffffffffffff16611b7b611279565b73ffffffffffffffffffffffffffffffffffffffff1614611c04576040517f08c379a00000000000000000000000000000000000000000000000000000000081526004018080602001828103825260208152602001807f4f776e61626c653a2063616c6c6572206973206e6f7420746865206f776e657281525060200191505060405180910390fd5b600073ffffffffffffffffffffffffffffffffffffffff168173ffffffffffffffffffffffffffffffffffffffff161415611c8a576040517f08c379a00000000000000000000000000000000000000000000000000000000081526004018080602001828103825260268152602001806124016026913960400191505060405180910390fd5b8073ffffffffffffffffffffffffffffffffffffffff1660008054906101000a900473ffffffffffffffffffffffffffffffffffffffff1673ffffffffffffffffffffffffffffffffffffffff167f8be0079c531659141344cd1fd0a4f28419497f9722a3daafe3b4186f6b6457e060405160405180910390a3806000806101000a81548173ffffffffffffffffffffffffffffffffffffffff021916908373ffffffffffffffffffffffffffffffffffffffff16021790555050565b600033905090565b7f0000000000000000000000000000000000000000000000000000000000000000811115611de5576040517f08c379a00000000000000000000000000000000000000000000000000000000081526004018080602001828103825260178152602001807f41636351756575653a20696e76616c6964206c6576656c00000000000000000081525060200191505060405180910390fd5b5b600115611ed057600060026084018260218110611dff57fe5b0154905060017f0000000000000000000000000000000000000000000000000000000000000000038114611ea1578260026000018360218110611e3e57fe5b600402018260048110611e4d57fe5b01819055507f00000000000000000000000000000000000000000000000000000000000000008214611e9b5760026084018260218110611e8957fe5b01600081548092919060010191905055505b50611ed1565b611eab82846121fd565b925060026084018260218110611ebd57fe5b0160009055818060010192505050611de6565b5b5050565b60006101728260218110611ee557fe5b01549050919050565b80821115611efb576120ae565b600060a76084018360218110611f0d57fe5b0154905060017f0000000000000000000000000000000000000000000000000000000000000000038114611f86578360a76000018460218110611f4c57fe5b600402018260048110611f5b57fe5b018190555060a76084018360218110611f7057fe5b01600081548092919060010191905055506120ac565b60008060149054906101000a900460ff161561200457611fa4612349565b60a76000018560218110611fb457fe5b60040201600060048110611fc457fe5b015481600060028110611fd357fe5b6020020181815250508581600160028110611fea57fe5b602002018181525050611ffc8161103f565b915050612087565b61200c61236b565b60005b838160ff1610156120635760a7600001866021811061202a57fe5b600402018160ff166004811061203c57fe5b0154828260ff166005811061204d57fe5b602002018181525050808060010191505061200f565b508581846005811061207157fe5b602002018181525050612083816112a2565b9150505b60a7608401846021811061209757fe5b01600090556120aa816001860185611eee565b505b505b505050565b5b7f00000000000000000000000000000000000000000000000000000000000000008110156121fa576000600260840182602181106120ee57fe5b01549050600081146121d757600061210461236b565b600061210f85611ed5565b905060005b848160ff161015612168576002600001866021811061212f57fe5b600402018160ff166004811061214157fe5b0154838260ff166005811061215257fe5b6020020181815250508080600101915050612114565b5b7f00000000000000000000000000000000000000000000000000000000000000008160ff1610156121ba5781838260ff16600581106121a457fe5b6020020181815250508080600101915050612169565b6121c3836112a2565b93506121d28460018801611d4f565b505050505b600260840182602181106121e757fe5b01600090558180600101925050506120b4565b50565b600061220761236b565b6002600001846021811061221757fe5b6004020160006004811061222757fe5b01548160006005811061223657fe5b6020020181815250506002600001846021811061224f57fe5b6004020160016004811061225f57fe5b01548160016005811061226e57fe5b6020020181815250506002600001846021811061228757fe5b6004020160026004811061229757fe5b0154816002600581106122a657fe5b602002018181525050600260000184602181106122bf57fe5b600402016003600481106122cf57fe5b0154816003600581106122de57fe5b60200201818152505082816004600581106122f557fe5b6020020181815250506000612309826112a2565b90506002600001856021811061231b57fe5b60040201600061232b91906123a3565b809250505092915050565b50806021019061234691906123bf565b50565b6040518060400160405280600290602082028036833780820191505090505090565b6040518060a00160405280600590602082028036833780820191505090505090565b5080602160040201906123a091906123dc565b50565b5060008155600101600081556001016000815560010160009055565b5b808211156123d85760008160009055506001016123c0565b5090565b5b808211156123fc57600081816123f391906123a3565b506004016123dd565b509056fe4f776e61626c653a206e6577206f776e657220697320746865207a65726f206164647265737341636351756575653a205f6465707468206d757374206265206c7465204d41585f444550544841636351756575653a205f696e646578206d75737420726566657220746f206120636f6d706c657465207375627472656541636351756575653a207375627472656573206d757374206265206d6572676564206265666f72652063616c6c696e67206d65726765282941636351756575653a20737562747265657320616c7265616479206d657267656441636351756575653a207375627472656573206d757374206265206d657267656420666972737441636351756575653a205f6465707468206d75737420626520677465207468652053525420646570746841636351756575653a205f6465707468206d757374206265206d6f7265207468616e203041636351756575653a206765744d61696e526f6f743a205f6465707468206d757374206265206869676820656e6f756768a2646970667358221220e749f34a7f7a92ea026e920f147f2a6e8bd9ec9db3416acf05a5cdddf0324a7b64736f6c6343000702003341636351756575653a206f6e6c7920737570706f72747320757020746f204d41585f4445505448206c6576656c7341636351756575653a206f6e6c7920737570706f727473205f686173684c656e677468206f662032206f72203541636351756575653a205f7375624465707468206d757374206265206d6f7265207468616e2030",
  "linkReferences": {
    "contracts/crypto/Hasher.sol": {
      "PoseidonT3": [
        {
          "length": 20,
          "start": 4452
        },
        {
          "length": 20,
          "start": 22552
        }
      ],
      "PoseidonT4": [
        {
          "length": 20,
          "start": 5940
        },
        {
          "length": 20,
          "start": 23370
        }
      ],
      "PoseidonT5": [
        {
          "length": 20,
          "start": 4032
        },
        {
          "length": 20,
          "start": 21891
        }
      ],
      "PoseidonT6": [
        {
          "length": 20,
          "start": 5113
        },
        {
          "length": 20,
          "start": 23163
        }
      ]
    }
  },
  "deployedLinkReferences": {
    "contracts/crypto/Hasher.sol": {
      "PoseidonT3": [
        {
          "length": 20,
          "start": 3366
        }
      ],
      "PoseidonT4": [
        {
          "length": 20,
          "start": 4854
        }
      ],
      "PoseidonT5": [
        {
          "length": 20,
          "start": 2946
        }
      ],
      "PoseidonT6": [
        {
          "length": 20,
          "start": 4027
        }
      ]
    }
  }
}