{
  "_format": "hh-sol-artifact-1",
  "contractName": "MACI",
  "sourceName": "contracts/MACI.sol",
  "abi": [
    {
      "inputs": [
        {
          "internalType": "contract PollFactory",
          "name": "_pollFactory",
          "type": "address"
        },
        {
          "internalType": "contract SignUpGatekeeper",
          "name": "_signUpGatekeeper",
          "type": "address"
        },
        {
          "internalType": "contract InitialVoiceCreditProxy",
          "name": "_initialVoiceCreditProxy",
          "type": "address"
        }
      ],
      "stateMutability": "nonpayable",
      "type": "constructor"
    },
    {
      "anonymous": false,
      "inputs": [
        {
          "indexed": false,
          "internalType": "uint256",
          "name": "_pollId",
          "type": "uint256"
        },
        {
          "indexed": false,
          "internalType": "address",
          "name": "_pollAddr",
          "type": "address"
        },
        {
          "components": [
            {
              "internalType": "uint256",
              "name": "x",
              "type": "uint256"
            },
            {
              "internalType": "uint256",
              "name": "y",
              "type": "uint256"
            }
          ],
          "indexed": false,
          "internalType": "struct IPubKey.PubKey",
          "name": "_pubKey",
          "type": "tuple"
        }
      ],
      "name": "DeployPoll",
      "type": "event"
    },
    {
      "anonymous": false,
      "inputs": [
        {
          "indexed": false,
          "internalType": "contract VkRegistry",
          "name": "_vkRegistry",
          "type": "address"
        },
        {
          "indexed": false,
          "internalType": "contract MessageAqFactory",
          "name": "_messageAqFactory",
          "type": "address"
        }
      ],
      "name": "Init",
      "type": "event"
    },
    {
      "anonymous": false,
      "inputs": [
        {
          "indexed": false,
          "internalType": "uint256",
          "name": "_pollId",
          "type": "uint256"
        }
      ],
      "name": "MergeStateAq",
      "type": "event"
    },
    {
      "anonymous": false,
      "inputs": [
        {
          "indexed": false,
          "internalType": "uint256",
          "name": "_pollId",
          "type": "uint256"
        },
        {
          "indexed": false,
          "internalType": "uint256",
          "name": "_numSrQueueOps",
          "type": "uint256"
        }
      ],
      "name": "MergeStateAqSubRoots",
      "type": "event"
    },
    {
      "anonymous": false,
      "inputs": [
        {
          "indexed": true,
          "internalType": "address",
          "name": "previousOwner",
          "type": "address"
        },
        {
          "indexed": true,
          "internalType": "address",
          "name": "newOwner",
          "type": "address"
        }
      ],
      "name": "OwnershipTransferred",
      "type": "event"
    },
    {
      "anonymous": false,
      "inputs": [
        {
          "indexed": false,
          "internalType": "uint256",
          "name": "_stateIndex",
          "type": "uint256"
        },
        {
          "components": [
            {
              "internalType": "uint256",
              "name": "x",
              "type": "uint256"
            },
            {
              "internalType": "uint256",
              "name": "y",
              "type": "uint256"
            }
          ],
          "indexed": false,
          "internalType": "struct IPubKey.PubKey",
          "name": "_userPubKey",
          "type": "tuple"
        },
        {
          "indexed": false,
          "internalType": "uint256",
          "name": "_voiceCreditBalance",
          "type": "uint256"
        },
        {
          "indexed": false,
          "internalType": "uint256",
          "name": "_timestamp",
          "type": "uint256"
        }
      ],
      "name": "SignUp",
      "type": "event"
    },
    {
      "inputs": [
        {
          "internalType": "uint256",
          "name": "_duration",
          "type": "uint256"
        },
        {
          "components": [
            {
              "internalType": "uint256",
              "name": "maxMessages",
              "type": "uint256"
            },
            {
              "internalType": "uint256",
              "name": "maxVoteOptions",
              "type": "uint256"
            }
          ],
          "internalType": "struct Params.MaxValues",
          "name": "_maxValues",
          "type": "tuple"
        },
        {
          "components": [
            {
              "internalType": "uint8",
              "name": "intStateTreeDepth",
              "type": "uint8"
            },
            {
              "internalType": "uint8",
              "name": "messageTreeSubDepth",
              "type": "uint8"
            },
            {
              "internalType": "uint8",
              "name": "messageTreeDepth",
              "type": "uint8"
            },
            {
              "internalType": "uint8",
              "name": "voteOptionTreeDepth",
              "type": "uint8"
            }
          ],
          "internalType": "struct Params.TreeDepths",
          "name": "_treeDepths",
          "type": "tuple"
        },
        {
          "components": [
            {
              "internalType": "uint256",
              "name": "x",
              "type": "uint256"
            },
            {
              "internalType": "uint256",
              "name": "y",
              "type": "uint256"
            }
          ],
          "internalType": "struct IPubKey.PubKey",
          "name": "_coordinatorPubKey",
          "type": "tuple"
        }
      ],
      "name": "deployPoll",
      "outputs": [],
      "stateMutability": "nonpayable",
      "type": "function"
    },
    {
      "inputs": [
        {
          "internalType": "uint256",
          "name": "_pollId",
          "type": "uint256"
        }
      ],
      "name": "getPoll",
      "outputs": [
        {
          "internalType": "contract Poll",
          "name": "",
          "type": "address"
        }
      ],
      "stateMutability": "view",
      "type": "function"
    },
    {
      "inputs": [],
      "name": "getStateAqRoot",
      "outputs": [
        {
          "internalType": "uint256",
          "name": "",
          "type": "uint256"
        }
      ],
      "stateMutability": "view",
      "type": "function"
    },
    {
      "inputs": [
        {
          "internalType": "uint256[2]",
          "name": "array",
          "type": "uint256[2]"
        }
      ],
      "name": "hash2",
      "outputs": [
        {
          "internalType": "uint256",
          "name": "",
          "type": "uint256"
        }
      ],
      "stateMutability": "pure",
      "type": "function"
    },
    {
      "inputs": [
        {
          "internalType": "uint256[3]",
          "name": "array",
          "type": "uint256[3]"
        }
      ],
      "name": "hash3",
      "outputs": [
        {
          "internalType": "uint256",
          "name": "",
          "type": "uint256"
        }
      ],
      "stateMutability": "pure",
      "type": "function"
    },
    {
      "inputs": [
        {
          "internalType": "uint256[4]",
          "name": "array",
          "type": "uint256[4]"
        }
      ],
      "name": "hash4",
      "outputs": [
        {
          "internalType": "uint256",
          "name": "",
          "type": "uint256"
        }
      ],
      "stateMutability": "pure",
      "type": "function"
    },
    {
      "inputs": [
        {
          "internalType": "uint256[5]",
          "name": "array",
          "type": "uint256[5]"
        }
      ],
      "name": "hash5",
      "outputs": [
        {
          "internalType": "uint256",
          "name": "",
          "type": "uint256"
        }
      ],
      "stateMutability": "pure",
      "type": "function"
    },
    {
      "inputs": [
        {
          "internalType": "uint256",
          "name": "_left",
          "type": "uint256"
        },
        {
          "internalType": "uint256",
          "name": "_right",
          "type": "uint256"
        }
      ],
      "name": "hashLeftRight",
      "outputs": [
        {
          "internalType": "uint256",
          "name": "",
          "type": "uint256"
        }
      ],
      "stateMutability": "pure",
      "type": "function"
    },
    {
      "inputs": [
        {
          "components": [
            {
              "components": [
                {
                  "internalType": "uint256",
                  "name": "x",
                  "type": "uint256"
                },
                {
                  "internalType": "uint256",
                  "name": "y",
                  "type": "uint256"
                }
              ],
              "internalType": "struct IPubKey.PubKey",
              "name": "pubKey",
              "type": "tuple"
            },
            {
              "internalType": "uint256",
              "name": "voiceCreditBalance",
              "type": "uint256"
            },
            {
              "internalType": "uint256",
              "name": "timestamp",
              "type": "uint256"
            }
          ],
          "internalType": "struct DomainObjs.StateLeaf",
          "name": "_stateLeaf",
          "type": "tuple"
        }
      ],
      "name": "hashStateLeaf",
      "outputs": [
        {
          "internalType": "uint256",
          "name": "",
          "type": "uint256"
        }
      ],
      "stateMutability": "pure",
      "type": "function"
    },
    {
      "inputs": [
        {
          "internalType": "contract VkRegistry",
          "name": "_vkRegistry",
          "type": "address"
        },
        {
          "internalType": "contract MessageAqFactory",
          "name": "_messageAqFactory",
          "type": "address"
        }
      ],
      "name": "init",
      "outputs": [],
      "stateMutability": "nonpayable",
      "type": "function"
    },
    {
      "inputs": [],
      "name": "initialVoiceCreditProxy",
      "outputs": [
        {
          "internalType": "contract InitialVoiceCreditProxy",
          "name": "",
          "type": "address"
        }
      ],
      "stateMutability": "view",
      "type": "function"
    },
    {
      "inputs": [
        {
          "internalType": "uint256",
          "name": "_pollId",
          "type": "uint256"
        }
      ],
      "name": "mergeStateAq",
      "outputs": [
        {
          "internalType": "uint256",
          "name": "",
          "type": "uint256"
        }
      ],
      "stateMutability": "nonpayable",
      "type": "function"
    },
    {
      "inputs": [
        {
          "internalType": "uint256",
          "name": "_numSrQueueOps",
          "type": "uint256"
        },
        {
          "internalType": "uint256",
          "name": "_pollId",
          "type": "uint256"
        }
      ],
      "name": "mergeStateAqSubRoots",
      "outputs": [],
      "stateMutability": "nonpayable",
      "type": "function"
    },
    {
      "inputs": [],
      "name": "messageAqFactory",
      "outputs": [
        {
          "internalType": "contract MessageAqFactory",
          "name": "",
          "type": "address"
        }
      ],
      "stateMutability": "view",
      "type": "function"
    },
    {
      "inputs": [],
      "name": "numSignUps",
      "outputs": [
        {
          "internalType": "uint256",
          "name": "",
          "type": "uint256"
        }
      ],
      "stateMutability": "view",
      "type": "function"
    },
    {
      "inputs": [
        {
          "internalType": "uint256",
          "name": "",
          "type": "uint256"
        }
      ],
      "name": "numStateLeaves",
      "outputs": [
        {
          "internalType": "uint256",
          "name": "",
          "type": "uint256"
        }
      ],
      "stateMutability": "view",
      "type": "function"
    },
    {
      "inputs": [],
      "name": "owner",
      "outputs": [
        {
          "internalType": "address",
          "name": "",
          "type": "address"
        }
      ],
      "stateMutability": "view",
      "type": "function"
    },
    {
      "inputs": [],
      "name": "pollFactory",
      "outputs": [
        {
          "internalType": "contract PollFactory",
          "name": "",
          "type": "address"
        }
      ],
      "stateMutability": "view",
      "type": "function"
    },
    {
      "inputs": [
        {
          "internalType": "uint256",
          "name": "",
          "type": "uint256"
        }
      ],
      "name": "polls",
      "outputs": [
        {
          "internalType": "contract Poll",
          "name": "",
          "type": "address"
        }
      ],
      "stateMutability": "view",
      "type": "function"
    },
    {
      "inputs": [],
      "name": "renounceOwnership",
      "outputs": [],
      "stateMutability": "nonpayable",
      "type": "function"
    },
    {
      "inputs": [
        {
          "internalType": "uint256[]",
          "name": "array",
          "type": "uint256[]"
        }
      ],
      "name": "sha256Hash",
      "outputs": [
        {
          "internalType": "uint256",
          "name": "",
          "type": "uint256"
        }
      ],
      "stateMutability": "pure",
      "type": "function"
    },
    {
      "inputs": [
        {
          "components": [
            {
              "internalType": "uint256",
              "name": "x",
              "type": "uint256"
            },
            {
              "internalType": "uint256",
              "name": "y",
              "type": "uint256"
            }
          ],
          "internalType": "struct IPubKey.PubKey",
          "name": "_pubKey",
          "type": "tuple"
        },
        {
          "internalType": "bytes",
          "name": "_signUpGatekeeperData",
          "type": "bytes"
        },
        {
          "internalType": "bytes",
          "name": "_initialVoiceCreditProxyData",
          "type": "bytes"
        }
      ],
      "name": "signUp",
      "outputs": [],
      "stateMutability": "nonpayable",
      "type": "function"
    },
    {
      "inputs": [],
      "name": "signUpGatekeeper",
      "outputs": [
        {
          "internalType": "contract SignUpGatekeeper",
          "name": "",
          "type": "address"
        }
      ],
      "stateMutability": "view",
      "type": "function"
    },
    {
      "inputs": [],
      "name": "signUpTimestamp",
      "outputs": [
        {
          "internalType": "uint256",
          "name": "",
          "type": "uint256"
        }
      ],
      "stateMutability": "view",
      "type": "function"
    },
    {
      "inputs": [],
      "name": "stateAq",
      "outputs": [
        {
          "internalType": "contract AccQueue",
          "name": "",
          "type": "address"
        }
      ],
      "stateMutability": "view",
      "type": "function"
    },
    {
      "inputs": [],
      "name": "stateTreeDepth",
      "outputs": [
        {
          "internalType": "uint8",
          "name": "",
          "type": "uint8"
        }
      ],
      "stateMutability": "view",
      "type": "function"
    },
    {
      "inputs": [
        {
          "internalType": "address",
          "name": "newOwner",
          "type": "address"
        }
      ],
      "name": "transferOwnership",
      "outputs": [],
      "stateMutability": "nonpayable",
      "type": "function"
    },
    {
      "inputs": [],
      "name": "vkRegistry",
      "outputs": [
        {
          "internalType": "contract VkRegistry",
          "name": "",
          "type": "address"
        }
      ],
      "stateMutability": "view",
      "type": "function"
    }
  ],
  "bytecode": "0x6080604052600a600060146101000a81548160ff021916908360ff16021790555060006001556000600860146101000a81548160ff0219169083151502179055503480156200004d57600080fd5b5060405162006c6f38038062006c6f8339818101604052810190620000739190620002cb565b6000620000856200027060201b60201c565b9050806000806101000a81548173ffffffffffffffffffffffffffffffffffffffff021916908373ffffffffffffffffffffffffffffffffffffffff1602179055508073ffffffffffffffffffffffffffffffffffffffff16600073ffffffffffffffffffffffffffffffffffffffff167f8be0079c531659141344cd1fd0a4f28419497f9722a3daafe3b4186f6b6457e060405160405180910390a3506002604051620001339062000278565b6200013f919062000332565b604051809103906000f0801580156200015c573d6000803e3d6000fd5b50600860006101000a81548173ffffffffffffffffffffffffffffffffffffffff021916908373ffffffffffffffffffffffffffffffffffffffff16021790555082600660006101000a81548173ffffffffffffffffffffffffffffffffffffffff021916908373ffffffffffffffffffffffffffffffffffffffff16021790555081600960006101000a81548173ffffffffffffffffffffffffffffffffffffffff021916908373ffffffffffffffffffffffffffffffffffffffff16021790555080600a60006101000a81548173ffffffffffffffffffffffffffffffffffffffff021916908373ffffffffffffffffffffffffffffffffffffffff16021790555042600b819055505050506200042e565b600033905090565b6130138062003c5c83390190565b6000815190506200029781620003e0565b92915050565b600081519050620002ae81620003fa565b92915050565b600081519050620002c58162000414565b92915050565b600080600060608486031215620002e157600080fd5b6000620002f1868287016200029d565b93505060206200030486828701620002b4565b9250506040620003178682870162000286565b9150509250925092565b6200032c81620003cc565b82525050565b600060208201905062000349600083018462000321565b92915050565b60006200035c826200039f565b9050919050565b600062000370826200034f565b9050919050565b600062000384826200034f565b9050919050565b600062000398826200034f565b9050919050565b600073ffffffffffffffffffffffffffffffffffffffff82169050919050565b600060ff82169050919050565b6000620003d982620003bf565b9050919050565b620003eb8162000363565b8114620003f757600080fd5b50565b620004058162000377565b81146200041157600080fd5b50565b6200041f816200038b565b81146200042b57600080fd5b50565b61381e806200043e6000396000f3fe608060405234801561001057600080fd5b50600436106101c45760003560e01c8063652c76e4116100f9578063b293a26711610097578063cfa1fa0311610071578063cfa1fa0314610535578063dd0982a314610551578063f09a401614610581578063f2fde38b1461059d576101c4565b8063b293a267146104cb578063b61ede7f146104e7578063bea140b314610505576101c4565b80638da5cb5b116100d35780638da5cb5b1461042f5780639cfced971461044d578063aab4a6701461047d578063ac2f00741461049b576101c4565b8063652c76e4146103d7578063715018a6146103f55780637d0a81c8146103ff576101c4565b80633364120a1161016657806358bfc3791161014057806358bfc379146103295780635bb9399514610359578063603baff81461038957806362a361bb146103a7576101c4565b80633364120a146102bf578063343393b5146102db5780633dfb88b2146102f9576101c4565b806313fb8932116101a257806313fb8932146102235780631a8cbcaa146102415780632803c35c146102715780632877e036146102a1576101c4565b8063079410db146101c95780630f78c3f2146101e7578063122db15314610205575b600080fd5b6101d16105b9565b6040516101de9190612f86565b60405180910390f35b6101ef6105df565b6040516101fc9190613145565b60405180910390f35b61020d6105e5565b60405161021a9190613145565b60405180910390f35b61022b6105eb565b6040516102389190612fa1565b60405180910390f35b61025b60048036038101906102569190612529565b610611565b6040516102689190612f6b565b60405180910390f35b61028b60048036038101906102869190612529565b610692565b6040516102989190613145565b60405180910390f35b6102a96106aa565b6040516102b69190613145565b60405180910390f35b6102d960048036038101906102d49190612481565b61076b565b005b6102e3610b58565b6040516102f09190612f50565b60405180910390f35b610313600480360381019061030e9190612360565b610b7e565b6040516103209190613145565b60405180910390f35b610343600480360381019061033e91906123b2565b610c0e565b6040516103509190613145565b60405180910390f35b610373600480360381019061036e91906125df565b610cb2565b6040516103809190613145565b60405180910390f35b610391610cfc565b60405161039e9190612eff565b60405180910390f35b6103c160048036038101906103bc919061230e565b610d22565b6040516103ce9190613145565b60405180910390f35b6103df610db2565b6040516103ec91906132a2565b60405180910390f35b6103fd610dc5565b005b61041960048036038101906104149190612500565b610eff565b6040516104269190613145565b60405180910390f35b610437610f8e565b6040516104449190612e48565b60405180910390f35b61046760048036038101906104629190612389565b610fb7565b6040516104749190613145565b60405180910390f35b610485611047565b6040516104929190612f1a565b60405180910390f35b6104b560048036038101906104b09190612529565b61106d565b6040516104c29190612f6b565b60405180910390f35b6104e560048036038101906104e0919061257b565b6110a0565b005b6104ef6112cc565b6040516104fc9190612f35565b60405180910390f35b61051f600480360381019061051a9190612337565b6112f2565b60405161052c9190613145565b60405180910390f35b61054f600480360381019061054a91906125df565b611382565b005b61056b60048036038101906105669190612529565b611545565b6040516105789190613145565b60405180910390f35b61059b60048036038101906105969190612445565b611740565b005b6105b760048036038101906105b291906122bc565b611bd7565b005b600960009054906101000a900473ffffffffffffffffffffffffffffffffffffffff1681565b600b5481565b60035481565b600560009054906101000a900473ffffffffffffffffffffffffffffffffffffffff1681565b60006001548210610657576040517f08c379a000000000000000000000000000000000000000000000000000000000815260040161064e90613005565b60405180910390fd5b6002600083815260200190815260200160002060009054906101000a900473ffffffffffffffffffffffffffffffffffffffff169050919050565b60046020528060005260406000206000915090505481565b6000600860009054906101000a900473ffffffffffffffffffffffffffffffffffffffff1673ffffffffffffffffffffffffffffffffffffffff16631b9b8aa7600060149054906101000a900460ff166040518263ffffffff1660e01b81526004016107169190613287565b60206040518083038186803b15801561072e57600080fd5b505afa158015610742573d6000803e3d6000fd5b505050506040513d601f19601f820116820180604052508101906107669190612552565b905090565b60011515600860149054906101000a900460ff161515146107c1576040517f08c379a00000000000000000000000000000000000000000000000000000000081526004016107b8906130a5565b60405180910390fd5b606460035410610806576040517f08c379a00000000000000000000000000000000000000000000000000000000081526004016107fd90612fe5565b60405180910390fd5b600960009054906101000a900473ffffffffffffffffffffffffffffffffffffffff1673ffffffffffffffffffffffffffffffffffffffff166324b8fbf633846040518363ffffffff1660e01b8152600401610863929190612e63565b600060405180830381600087803b15801561087d57600080fd5b505af1158015610891573d6000803e3d6000fd5b505050507f30644e72e131a029b85045b68181585d2833e84879b9709143e1f593f000000183600001511080156108eb57507f30644e72e131a029b85045b68181585d2833e84879b9709143e1f593f00000018360200151105b61092a576040517f08c379a0000000000000000000000000000000000000000000000000000000008152600401610921906130c5565b60405180910390fd5b6000600a60009054906101000a900473ffffffffffffffffffffffffffffffffffffffff1673ffffffffffffffffffffffffffffffffffffffff1663b36543a933846040518363ffffffff1660e01b8152600401610989929190612e63565b60206040518083038186803b1580156109a157600080fd5b505afa1580156109b5573d6000803e3d6000fd5b505050506040513d601f19601f820116820180604052508101906109d99190612552565b9050640100000000811115610a23576040517f08c379a0000000000000000000000000000000000000000000000000000000008152600401610a1a90613025565b60405180910390fd5b60004290506000610a4d604051806060016040528088815260200185815260200184815250610eff565b90506000600860009054906101000a900473ffffffffffffffffffffffffffffffffffffffff1673ffffffffffffffffffffffffffffffffffffffff16631ffc735d836040518263ffffffff1660e01b8152600401610aac9190613145565b602060405180830381600087803b158015610ac657600080fd5b505af1158015610ada573d6000803e3d6000fd5b505050506040513d601f19601f82011682018060405250810190610afe9190612552565b90506003600081548092919060010191905055507f99f34e3b6821c0bd1f5732936411fe3fd65fb78cbcd657c61bfb8deb08c0591f81888686604051610b479493929190613219565b60405180910390a150505050505050565b600660009054906101000a900473ffffffffffffffffffffffffffffffffffffffff1681565b600073__$584f44aaf914c42633951b34ceb432be31$__63248f6677836040518263ffffffff1660e01b8152600401610bb79190612ec9565b60206040518083038186803b158015610bcf57600080fd5b505af4158015610be3573d6000803e3d6000fd5b505050506040513d601f19601f82011682018060405250810190610c079190612552565b9050919050565b60007f30644e72e131a029b85045b68181585d2833e84879b9709143e1f593f0000001600283604051602001610c449190612e1a565b604051602081830303815290604052604051610c609190612e31565b602060405180830381855afa158015610c7d573d6000803e3d6000fd5b5050506040513d601f19601f82011682018060405250810190610ca091906123f3565b60001c81610caa57fe5b069050919050565b6000610cbc611d88565b8381600060028110610cca57fe5b6020020181815250508281600160028110610ce157fe5b602002018181525050610cf381610d22565b91505092915050565b600860009054906101000a900473ffffffffffffffffffffffffffffffffffffffff1681565b600073__$d4acaf6f169a2634c49d403ce7efde36fd$__6329a5f2f6836040518263ffffffff1660e01b8152600401610d5b9190612e93565b60206040518083038186803b158015610d7357600080fd5b505af4158015610d87573d6000803e3d6000fd5b505050506040513d601f19601f82011682018060405250810190610dab9190612552565b9050919050565b600060149054906101000a900460ff1681565b610dcd611d80565b73ffffffffffffffffffffffffffffffffffffffff16610deb610f8e565b73ffffffffffffffffffffffffffffffffffffffff1614610e41576040517f08c379a0000000000000000000000000000000000000000000000000000000008152600401610e38906130e5565b60405180910390fd5b600073ffffffffffffffffffffffffffffffffffffffff1660008054906101000a900473ffffffffffffffffffffffffffffffffffffffff1673ffffffffffffffffffffffffffffffffffffffff167f8be0079c531659141344cd1fd0a4f28419497f9722a3daafe3b4186f6b6457e060405160405180910390a360008060006101000a81548173ffffffffffffffffffffffffffffffffffffffff021916908373ffffffffffffffffffffffffffffffffffffffff160217905550565b6000610f09611daa565b82600001516000015181600060048110610f1f57fe5b60200201818152505082600001516020015181600160048110610f3e57fe5b602002018181525050826020015181600260048110610f5957fe5b602002018181525050826040015181600360048110610f7457fe5b602002018181525050610f8681610b7e565b915050919050565b60008060009054906101000a900473ffffffffffffffffffffffffffffffffffffffff16905090565b600073__$2a5b9c44d836f7997ae51e8d308a712a39$__634937a258836040518263ffffffff1660e01b8152600401610ff09190612ee4565b60206040518083038186803b15801561100857600080fd5b505af415801561101c573d6000803e3d6000fd5b505050506040513d601f19601f820116820180604052508101906110409190612552565b9050919050565b600a60009054906101000a900473ffffffffffffffffffffffffffffffffffffffff1681565b60026020528060005260406000206000915054906101000a900473ffffffffffffffffffffffffffffffffffffffff1681565b60011515600860149054906101000a900460ff161515146110f6576040517f08c379a00000000000000000000000000000000000000000000000000000000081526004016110ed906130a5565b60405180910390fd5b60006001549050611105611dcc565b6040518060400160405280856020015160ff16600560ff160a60ff168152602001856000015160ff16600560ff160a60ff1681525090506000600660009054906101000a900473ffffffffffffffffffffffffffffffffffffffff1673ffffffffffffffffffffffffffffffffffffffff166359d7738d8888888689600560009054906101000a900473ffffffffffffffffffffffffffffffffffffffff16306111ad610f8e565b6040518963ffffffff1660e01b81526004016111d0989796959493929190613197565b602060405180830381600087803b1580156111ea57600080fd5b505af11580156111fe573d6000803e3d6000fd5b505050506040513d601f19601f82011682018060405250810190611222919061241c565b9050806002600085815260200190815260200160002060006101000a81548173ffffffffffffffffffffffffffffffffffffffff021916908373ffffffffffffffffffffffffffffffffffffffff1602179055506001600081548092919060010191905055507f76b880f3c8580b5bb05765c3b2160a2860692566e7f8cce8c58d23e77f3130c28382866040516112bb93929190613160565b60405180910390a150505050505050565b600760009054906101000a900473ffffffffffffffffffffffffffffffffffffffff1681565b600073__$9b3049adcf18347c4fcd511e1429cbc37d$__6325cc70e8836040518263ffffffff1660e01b815260040161132b9190612eae565b60206040518083038186803b15801561134357600080fd5b505af4158015611357573d6000803e3d6000fd5b505050506040513d601f19601f8201168201806040525081019061137b9190612552565b9050919050565b806002600082815260200190815260200160002060009054906101000a900473ffffffffffffffffffffffffffffffffffffffff1673ffffffffffffffffffffffffffffffffffffffff163373ffffffffffffffffffffffffffffffffffffffff1614611424576040517f08c379a000000000000000000000000000000000000000000000000000000000815260040161141b90613105565b60405180910390fd5b60011515600860149054906101000a900460ff1615151461147a576040517f08c379a0000000000000000000000000000000000000000000000000000000008152600401611471906130a5565b60405180910390fd5b600860009054906101000a900473ffffffffffffffffffffffffffffffffffffffff1673ffffffffffffffffffffffffffffffffffffffff1663c15da65b846040518263ffffffff1660e01b81526004016114d59190613145565b600060405180830381600087803b1580156114ef57600080fd5b505af1158015611503573d6000803e3d6000fd5b505050507fe9807dca2e13777d1fc97a0c403970f20bd5e78e84a50035d517015a8932a10c828460405161153892919061325e565b60405180910390a1505050565b6000816002600082815260200190815260200160002060009054906101000a900473ffffffffffffffffffffffffffffffffffffffff1673ffffffffffffffffffffffffffffffffffffffff163373ffffffffffffffffffffffffffffffffffffffff16146115e9576040517f08c379a00000000000000000000000000000000000000000000000000000000081526004016115e090613105565b60405180910390fd5b60011515600860149054906101000a900460ff1615151461163f576040517f08c379a0000000000000000000000000000000000000000000000000000000008152600401611636906130a5565b60405180910390fd5b6000600860009054906101000a900473ffffffffffffffffffffffffffffffffffffffff1673ffffffffffffffffffffffffffffffffffffffff166324a47aeb600060149054906101000a900460ff166040518263ffffffff1660e01b81526004016116ab9190613287565b602060405180830381600087803b1580156116c557600080fd5b505af11580156116d9573d6000803e3d6000fd5b505050506040513d601f19601f820116820180604052508101906116fd9190612552565b90507fa62757197c6e5a785ec97eb7bdae582c9bd5df5bc9f66566238abc8cef5a87b58460405161172e9190613145565b60405180910390a18092505050919050565b611748611d80565b73ffffffffffffffffffffffffffffffffffffffff16611766610f8e565b73ffffffffffffffffffffffffffffffffffffffff16146117bc576040517f08c379a00000000000000000000000000000000000000000000000000000000081526004016117b3906130e5565b60405180910390fd5b60001515600860149054906101000a900460ff16151514611812576040517f08c379a000000000000000000000000000000000000000000000000000000000815260040161180990613045565b60405180910390fd5b81600560006101000a81548173ffffffffffffffffffffffffffffffffffffffff021916908373ffffffffffffffffffffffffffffffffffffffff16021790555080600760006101000a81548173ffffffffffffffffffffffffffffffffffffffff021916908373ffffffffffffffffffffffffffffffffffffffff1602179055503073ffffffffffffffffffffffffffffffffffffffff16600660009054906101000a900473ffffffffffffffffffffffffffffffffffffffff1673ffffffffffffffffffffffffffffffffffffffff16638da5cb5b6040518163ffffffff1660e01b815260040160206040518083038186803b15801561191357600080fd5b505afa158015611927573d6000803e3d6000fd5b505050506040513d601f19601f8201168201806040525081019061194b91906122e5565b73ffffffffffffffffffffffffffffffffffffffff16146119a1576040517f08c379a000000000000000000000000000000000000000000000000000000000815260040161199890613125565b60405180910390fd5b600660009054906101000a900473ffffffffffffffffffffffffffffffffffffffff1673ffffffffffffffffffffffffffffffffffffffff1663d46f5ff2600760009054906101000a900473ffffffffffffffffffffffffffffffffffffffff166040518263ffffffff1660e01b8152600401611a1e9190612f35565b600060405180830381600087803b158015611a3857600080fd5b505af1158015611a4c573d6000803e3d6000fd5b50505050600660009054906101000a900473ffffffffffffffffffffffffffffffffffffffff1673ffffffffffffffffffffffffffffffffffffffff16600760009054906101000a900473ffffffffffffffffffffffffffffffffffffffff1673ffffffffffffffffffffffffffffffffffffffff16638da5cb5b6040518163ffffffff1660e01b815260040160206040518083038186803b158015611af157600080fd5b505afa158015611b05573d6000803e3d6000fd5b505050506040513d601f19601f82011682018060405250810190611b2991906122e5565b73ffffffffffffffffffffffffffffffffffffffff1614611b7f576040517f08c379a0000000000000000000000000000000000000000000000000000000008152600401611b7690613085565b60405180910390fd5b6001600860146101000a81548160ff0219169083151502179055507f45acd56f401dc3db1d520e5e214f090b4ab3e3fbf42fd24596cb511edaad876a8282604051611bcb929190612fbc565b60405180910390a15050565b611bdf611d80565b73ffffffffffffffffffffffffffffffffffffffff16611bfd610f8e565b73ffffffffffffffffffffffffffffffffffffffff1614611c53576040517f08c379a0000000000000000000000000000000000000000000000000000000008152600401611c4a906130e5565b60405180910390fd5b600073ffffffffffffffffffffffffffffffffffffffff168173ffffffffffffffffffffffffffffffffffffffff161415611cc3576040517f08c379a0000000000000000000000000000000000000000000000000000000008152600401611cba90613065565b60405180910390fd5b8073ffffffffffffffffffffffffffffffffffffffff1660008054906101000a900473ffffffffffffffffffffffffffffffffffffffff1673ffffffffffffffffffffffffffffffffffffffff167f8be0079c531659141344cd1fd0a4f28419497f9722a3daafe3b4186f6b6457e060405160405180910390a3806000806101000a81548173ffffffffffffffffffffffffffffffffffffffff021916908373ffffffffffffffffffffffffffffffffffffffff16021790555050565b600033905090565b6040518060400160405280600290602082028036833780820191505090505090565b6040518060800160405280600490602082028036833780820191505090505090565b6040518060400160405280600060ff168152602001600060ff1681525090565b600081359050611dfb81613747565b92915050565b600081519050611e1081613747565b92915050565b600082601f830112611e2757600080fd5b6002611e3a611e35826132ee565b6132bd565b91508183856020840282011115611e5057600080fd5b60005b83811015611e805781611e66888261227d565b845260208401935060208301925050600181019050611e53565b5050505092915050565b600082601f830112611e9b57600080fd5b6003611eae611ea982613314565b6132bd565b91508183856020840282011115611ec457600080fd5b60005b83811015611ef45781611eda888261227d565b845260208401935060208301925050600181019050611ec7565b5050505092915050565b600082601f830112611f0f57600080fd5b6004611f22611f1d8261333a565b6132bd565b91508183856020840282011115611f3857600080fd5b60005b83811015611f685781611f4e888261227d565b845260208401935060208301925050600181019050611f3b565b5050505092915050565b600082601f830112611f8357600080fd5b6005611f96611f9182613360565b6132bd565b91508183856020840282011115611fac57600080fd5b60005b83811015611fdc5781611fc2888261227d565b845260208401935060208301925050600181019050611faf565b5050505092915050565b600082601f830112611ff757600080fd5b813561200a61200582613386565b6132bd565b9150818183526020840193506020810190508385602084028201111561202f57600080fd5b60005b8381101561205f5781612045888261227d565b845260208401935060208301925050600181019050612032565b5050505092915050565b6000815190506120788161375e565b92915050565b600082601f83011261208f57600080fd5b81356120a261209d826133b2565b6132bd565b915080825260208301602083018583830111156120be57600080fd5b6120c98382846136f2565b50505092915050565b6000813590506120e181613775565b92915050565b6000815190506120f68161378c565b92915050565b60008135905061210b816137a3565b92915050565b60006040828403121561212357600080fd5b61212d60406132bd565b9050600061213d8482850161227d565b60008301525060206121518482850161227d565b60208301525092915050565b60006040828403121561216f57600080fd5b61217960406132bd565b905060006121898482850161227d565b600083015250602061219d8482850161227d565b60208301525092915050565b6000608082840312156121bb57600080fd5b6121c560606132bd565b905060006121d58482850161215d565b60008301525060406121e98482850161227d565b60208301525060606121fd8482850161227d565b60408301525092915050565b60006080828403121561221b57600080fd5b61222560806132bd565b90506000612235848285016122a7565b6000830152506020612249848285016122a7565b602083015250604061225d848285016122a7565b6040830152506060612271848285016122a7565b60608301525092915050565b60008135905061228c816137ba565b92915050565b6000815190506122a1816137ba565b92915050565b6000813590506122b6816137d1565b92915050565b6000602082840312156122ce57600080fd5b60006122dc84828501611dec565b91505092915050565b6000602082840312156122f757600080fd5b600061230584828501611e01565b91505092915050565b60006040828403121561232057600080fd5b600061232e84828501611e16565b91505092915050565b60006060828403121561234957600080fd5b600061235784828501611e8a565b91505092915050565b60006080828403121561237257600080fd5b600061238084828501611efe565b91505092915050565b600060a0828403121561239b57600080fd5b60006123a984828501611f72565b91505092915050565b6000602082840312156123c457600080fd5b600082013567ffffffffffffffff8111156123de57600080fd5b6123ea84828501611fe6565b91505092915050565b60006020828403121561240557600080fd5b600061241384828501612069565b91505092915050565b60006020828403121561242e57600080fd5b600061243c848285016120e7565b91505092915050565b6000806040838503121561245857600080fd5b6000612466858286016120fc565b9250506020612477858286016120d2565b9150509250929050565b60008060006080848603121561249657600080fd5b60006124a48682870161215d565b935050604084013567ffffffffffffffff8111156124c157600080fd5b6124cd8682870161207e565b925050606084013567ffffffffffffffff8111156124ea57600080fd5b6124f68682870161207e565b9150509250925092565b60006080828403121561251257600080fd5b6000612520848285016121a9565b91505092915050565b60006020828403121561253b57600080fd5b60006125498482850161227d565b91505092915050565b60006020828403121561256457600080fd5b600061257284828501612292565b91505092915050565b600080600080610120858703121561259257600080fd5b60006125a08782880161227d565b94505060206125b187828801612111565b93505060606125c287828801612209565b92505060e06125d38782880161215d565b91505092959194509250565b600080604083850312156125f257600080fd5b60006126008582860161227d565b92505060206126118582860161227d565b9150509250929050565b60006126278383612dcf565b60208301905092915050565b600061263f8383612dde565b60208301905092915050565b6126548161358a565b82525050565b61266381613501565b82525050565b6126728161341a565b61267c818461349d565b9250612687826133e2565b8060005b838110156126b857815161269f8782612633565b96506126aa8361345c565b92505060018101905061268b565b505050505050565b6126c981613425565b6126d381846134a8565b92506126de826133ec565b8060005b8381101561270f5781516126f68782612633565b965061270183613469565b9250506001810190506126e2565b505050505050565b61272081613430565b61272a81846134b3565b9250612735826133f6565b8060005b8381101561276657815161274d8782612633565b965061275883613476565b925050600181019050612739565b505050505050565b6127778161343b565b61278181846134be565b925061278c82613400565b8060005b838110156127bd5781516127a48782612633565b96506127af83613483565b925050600181019050612790565b505050505050565b60006127d082613446565b6127da81856134c9565b93506127e58361340a565b8060005b838110156128165781516127fd888261261b565b975061280883613490565b9250506001810190506127e9565b5085935050505092915050565b600061282e82613451565b61283881856134d4565b9350612848818560208601613701565b61285181613736565b840191505092915050565b600061286782613451565b61287181856134e5565b9350612881818560208601613701565b80840191505092915050565b6128968161359c565b82525050565b6128a5816135c0565b82525050565b6128b4816135e4565b82525050565b6128c381613608565b82525050565b6128d28161362c565b82525050565b6128e181613650565b82525050565b6128f081613674565b82525050565b6128ff81613698565b82525050565b60006129126027836134f0565b91507f4d4143493a206d6178696d756d206e756d626572206f66207369676e7570732060008301527f72656163686564000000000000000000000000000000000000000000000000006020830152604082019050919050565b60006129786026836134f0565b91507f4d4143493a20706f6c6c2077697468205f706f6c6c496420646f6573206e6f7460008301527f20657869737400000000000000000000000000000000000000000000000000006020830152604082019050919050565b60006129de601c836134f0565b91507f4d4143493a20746f6f206d616e7920766f6963652063726564697473000000006000830152602082019050919050565b6000612a1e6019836134f0565b91507f4d4143493a20616c726561647920696e697469616c69736564000000000000006000830152602082019050919050565b6000612a5e6026836134f0565b91507f4f776e61626c653a206e6577206f776e657220697320746865207a65726f206160008301527f64647265737300000000000000000000000000000000000000000000000000006020830152604082019050919050565b6000612ac4602c836134f0565b91507f4d4143493a204d6573736167654171466163746f7279206f776e657220696e6360008301527f6f72726563746c792073657400000000000000000000000000000000000000006020830152604082019050919050565b6000612b2a6015836134f0565b91507f4d4143493a206e6f7420696e697469616c6973656400000000000000000000006000830152602082019050919050565b6000612b6a603f836134f0565b91507f4d4143493a205f7075624b65792076616c7565732073686f756c64206265206c60008301527f657373207468616e2074686520736e61726b207363616c6172206669656c64006020830152604082019050919050565b6000612bd06020836134f0565b91507f4f776e61626c653a2063616c6c6572206973206e6f7420746865206f776e65726000830152602082019050919050565b6000612c106031836134f0565b91507f4d4143493a206f6e6c79206120506f6c6c20636f6e74726163742063616e206360008301527f616c6c20746869732066756e6374696f6e0000000000000000000000000000006020830152604082019050919050565b6000612c766027836134f0565b91507f4d4143493a20506f6c6c466163746f7279206f776e657220696e636f7272656360008301527f746c7920736574000000000000000000000000000000000000000000000000006020830152604082019050919050565b604082016000820151612ce56000850182612dfc565b506020820151612cf86020850182612dfc565b50505050565b604082016000820151612d146000850182612db1565b506020820151612d276020850182612db1565b50505050565b604082016000820151612d436000850182612db1565b506020820151612d566020850182612db1565b50505050565b608082016000820151612d726000850182612dfc565b506020820151612d856020850182612dfc565b506040820151612d986040850182612dfc565b506060820151612dab6060850182612dfc565b50505050565b612dba81613573565b82525050565b612dc981613573565b82525050565b612dd881613573565b82525050565b612de781613573565b82525050565b612df6816136e0565b82525050565b612e058161357d565b82525050565b612e148161357d565b82525050565b6000612e2682846127c5565b915081905092915050565b6000612e3d828461285c565b915081905092915050565b6000602082019050612e5d600083018461265a565b92915050565b6000604082019050612e78600083018561264b565b8181036020830152612e8a8184612823565b90509392505050565b6000604082019050612ea86000830184612669565b92915050565b6000606082019050612ec360008301846126c0565b92915050565b6000608082019050612ede6000830184612717565b92915050565b600060a082019050612ef9600083018461276e565b92915050565b6000602082019050612f14600083018461288d565b92915050565b6000602082019050612f2f600083018461289c565b92915050565b6000602082019050612f4a60008301846128ba565b92915050565b6000602082019050612f6560008301846128c9565b92915050565b6000602082019050612f8060008301846128d8565b92915050565b6000602082019050612f9b60008301846128e7565b92915050565b6000602082019050612fb660008301846128f6565b92915050565b6000604082019050612fd160008301856128f6565b612fde60208301846128ba565b9392505050565b60006020820190508181036000830152612ffe81612905565b9050919050565b6000602082019050818103600083015261301e8161296b565b9050919050565b6000602082019050818103600083015261303e816129d1565b9050919050565b6000602082019050818103600083015261305e81612a11565b9050919050565b6000602082019050818103600083015261307e81612a51565b9050919050565b6000602082019050818103600083015261309e81612ab7565b9050919050565b600060208201905081810360008301526130be81612b1d565b9050919050565b600060208201905081810360008301526130de81612b5d565b9050919050565b600060208201905081810360008301526130fe81612bc3565b9050919050565b6000602082019050818103600083015261311e81612c03565b9050919050565b6000602082019050818103600083015261313e81612c69565b9050919050565b600060208201905061315a6000830184612dc0565b92915050565b60006080820190506131756000830186612dc0565b613182602083018561265a565b61318f6040830184612d2d565b949350505050565b60006101c0820190506131ad600083018b612dc0565b6131ba602083018a612cfe565b6131c76060830189612d5c565b6131d460e0830188612ccf565b6131e2610120830187612d2d565b6131f06101608301866128f6565b6131fe6101808301856128ab565b61320c6101a083018461265a565b9998505050505050505050565b600060a08201905061322e6000830187612dc0565b61323b6020830186612d2d565b6132486060830185612dc0565b6132556080830184612dc0565b95945050505050565b60006040820190506132736000830185612dc0565b6132806020830184612dc0565b9392505050565b600060208201905061329c6000830184612ded565b92915050565b60006020820190506132b76000830184612e0b565b92915050565b6000604051905081810181811067ffffffffffffffff821117156132e4576132e3613734565b5b8060405250919050565b600067ffffffffffffffff82111561330957613308613734565b5b602082029050919050565b600067ffffffffffffffff82111561332f5761332e613734565b5b602082029050919050565b600067ffffffffffffffff82111561335557613354613734565b5b602082029050919050565b600067ffffffffffffffff82111561337b5761337a613734565b5b602082029050919050565b600067ffffffffffffffff8211156133a1576133a0613734565b5b602082029050602081019050919050565b600067ffffffffffffffff8211156133cd576133cc613734565b5b601f19601f8301169050602081019050919050565b6000819050919050565b6000819050919050565b6000819050919050565b6000819050919050565b6000819050602082019050919050565b600060029050919050565b600060039050919050565b600060049050919050565b600060059050919050565b600081519050919050565b600081519050919050565b6000602082019050919050565b6000602082019050919050565b6000602082019050919050565b6000602082019050919050565b6000602082019050919050565b600081905092915050565b600081905092915050565b600081905092915050565b600081905092915050565b600081905092915050565b600082825260208201905092915050565b600081905092915050565b600082825260208201905092915050565b600061350c82613553565b9050919050565b6000819050919050565b600061352882613501565b9050919050565b600061353a82613501565b9050919050565b600061354c82613501565b9050919050565b600073ffffffffffffffffffffffffffffffffffffffff82169050919050565b6000819050919050565b600060ff82169050919050565b6000613595826136bc565b9050919050565b60006135a7826135ae565b9050919050565b60006135b982613553565b9050919050565b60006135cb826135d2565b9050919050565b60006135dd82613553565b9050919050565b60006135ef826135f6565b9050919050565b600061360182613553565b9050919050565b60006136138261361a565b9050919050565b600061362582613553565b9050919050565b60006136378261363e565b9050919050565b600061364982613553565b9050919050565b600061365b82613662565b9050919050565b600061366d82613553565b9050919050565b600061367f82613686565b9050919050565b600061369182613553565b9050919050565b60006136a3826136aa565b9050919050565b60006136b582613553565b9050919050565b60006136c7826136ce565b9050919050565b60006136d982613553565b9050919050565b60006136eb8261357d565b9050919050565b82818337600083830152505050565b60005b8381101561371f578082015181840152602081019050613704565b8381111561372e576000848401525b50505050565bfe5b6000601f19601f8301169050919050565b61375081613501565b811461375b57600080fd5b50565b61376781613513565b811461377257600080fd5b50565b61377e8161351d565b811461378957600080fd5b50565b6137958161352f565b81146137a057600080fd5b50565b6137ac81613541565b81146137b757600080fd5b50565b6137c381613573565b81146137ce57600080fd5b50565b6137da8161357d565b81146137e557600080fd5b5056fea2646970667358221220e78f35c8f95c7207aeb4eb2382128fecd71ef24edbb5978b8b198248b460aef664736f6c6343000702003360e06040523480156200001157600080fd5b506040516200301338038062003013833981810160405260208110156200003757600080fd5b81019080805190602001909291905050508080600560006200005e6200095060201b60201c565b9050806000806101000a81548173ffffffffffffffffffffffffffffffffffffffff021916908373ffffffffffffffffffffffffffffffffffffffff1602179055508073ffffffffffffffffffffffffffffffffffffffff16600073ffffffffffffffffffffffffffffffffffffffff167f8be0079c531659141344cd1fd0a4f28419497f9722a3daafe3b4186f6b6457e060405160405180910390a3506000821162000157576040517f08c379a000000000000000000000000000000000000000000000000000000000815260040180806020018281038252602781526020018062002fec6027913960400191505060405180910390fd5b6020821115620001b3576040517f08c379a000000000000000000000000000000000000000000000000000000000815260040180806020018281038252602e81526020018062002f91602e913960400191505060405180910390fd5b6002811480620001c35750600581145b6200021a576040517f08c379a000000000000000000000000000000000000000000000000000000000815260040180806020018281038252602d81526020018062002fbf602d913960400191505060405180910390fd5b60028114600060146101000a81548160ff02191690831515021790555081608081815250508060a0818152505081810a60c081815250505050507f12817f4161f2f5ded33f26c55735a77e80e4f8975483c8c2704745128417f7116101726000602181106200028557fe5b01819055507f1c8de1edeabc24fc4c1595acaabb70be9b70f351d58c6fa338e1e9a994413bfb610172600160218110620002bb57fe5b01819055507f22fcda488c14b34fc60eb073fbe92fe10793e2ab14682e0f057332ddbef3d55c610172600260218110620002f157fe5b01819055507f2db474db7c7212646cb15c6177d87be30711e6c04f1139d8e495ef1d1d9982276101726003602181106200032757fe5b01819055507efde404053ec39a19f6ac347121a2264815dda84f910a388cb372e967a5d08c6101726004602181106200035c57fe5b01819055507f0723792ffab6ec6cfb3ece1509b9b4fb07e5bdb2299d1538e6e1db916f90cf896101726005602181106200039257fe5b01819055507f2a4392ec4e3d1811cd6a950cc865ee6f2342910a6551c5dce38cb995576c7c70610172600660218110620003c857fe5b01819055507f1dead4c14f75e9d8449c80b648dcd4694c2ee50da2ba16e5e438f0d77ab02e34610172600760218110620003fe57fe5b01819055507f124c53ce0953fffb7ab5e3c143df6cd48ba747d3959fcb8086405d763ed545506101726008602181106200043457fe5b01819055507f02bae19605746a8cd3f0927b2c01630f36f4d1bab9216ca839833e7ff6efa2066101726009602181106200046a57fe5b01819055507f1f8375099becf17173d457d0d07bfb74c7067df1143b5ad987046e8e66817bc9610172600a60218110620004a057fe5b01819055507f0e13e954d61bb3fa3b03e7d136ca909b610fa2ca4443d920d94d16684f2b83d4610172600b60218110620004d657fe5b01819055507f1416ef2fc4f88fcfc4f9eb12f8e214b1c3e31c6c10ece9cfa51f078a3bbf3457610172600c602181106200050c57fe5b01819055507f032f915ff71e198a7955d2697249f40fb94c65812ed24e670c9700f52fdf6e0e610172600d602181106200054257fe5b01819055507f08bfebf4b3ddb0f8c51dd40193f5996da9f3d799ee0d8beb6be4038132df60b4610172600e602181106200057857fe5b01819055507f065ac498cf4a5acaeb3b6cee826da9f834c961fa39feff6ae925b90dff79b613610172600f60218110620005ae57fe5b01819055507f2e72c628101a93201b912a3e3fe96d39b0a9076ec39b7935a015c59bb32b8a2a610172601060218110620005e457fe5b01819055507f19bba68e7b9da1e6ec42e52d7ab2adaf3b6a5521b1a454ec70f62e0ab702c0856101726011602181106200061a57fe5b01819055507f0de1f72745a5af2a34cac412e00eb6c8b5db1f3b52fa1bff88076c2726b83b086101726012602181106200065057fe5b01819055507f2e8f152603b2fac10d6a14c841327c23c502537367ccb1e42fab9a3bd9db2a8d6101726013602181106200068657fe5b01819055507f14e16c3e0dcfd7e621a32627ebf37f6c0afb4467d34c7b7aeffded11769dec85610172601460218110620006bc57fe5b01819055507f0be1e62127948b4805c85a1d836574f0892ca6473fcde98f3fd1781248a9768f610172601560218110620006f257fe5b01819055507f0930288fbd7c849197c8372f1dd8f9087f8a03f09b9cd904a469c15ef6b1b5156101726016602181106200072857fe5b01819055507f231cac34e215e3f404d2fcfb79e0705deeb3d40978f0ee31072f6cbc1b579e336101726017602181106200075e57fe5b01819055507f2e0e3cd2718ac7199b81dc14e841de40a9536b7ffe95fa1fc9c6b799e43e2c976101726018602181106200079457fe5b01819055507f0718452506f0a232e98966d84b1a4675a66bd80263a2dc58bdac873825752fc3610172601960218110620007ca57fe5b01819055507f162d4ed998307d6e132edbf5c11f62f53d4636aa10cb3c2244c2bf5577168c37610172601a602181106200080057fe5b01819055507f247d6a5544a8f295a894ae77c7efcdcbf52e3bf4e5d0c0d2f40557a61d449848610172601b602181106200083657fe5b01819055507f0b8de3868471f109e91670daca698dba917d1c5535821f33aa9598d1db8e3d19610172601c602181106200086c57fe5b01819055507f29851997020f527c92e20f030d232b81d334144a641e6a8866b46dd925005bbb610172601d60218110620008a257fe5b01819055507f1a9cfcbe29a2b6503a03049727c0bca3111afd62f2836f392080321d1b4ef642610172601e60218110620008d857fe5b01819055507f1aa3ead91fa89cc1d6cb1d0eb76a27190c6abfdd3265d6d0a1e5c58feddaddf6610172601f602181106200090e57fe5b01819055507f0702fc26a7d367e6677efefd95204a7e00144c2fc7dbc2a581aa00d99f51f0816101726020602181106200094457fe5b01819055505062000958565b600033905090565b60805160a05160c0516125b2620009df60003980610863528061150a52806116f852806119765280611a885250806106d05280610b675280610d6c52806117ef5280611e075280611f15528061216b52508061089b52806109095280610b37528061182552806119ac5280611a005280611d515280611e5452806120b652506125b26000f3fe608060405234801561001057600080fd5b50600436106101375760003560e01c806381d6a24a116100b8578063c00bdbcc1161007c578063c00bdbcc146105bd578063c15da65b146105eb578063d9c55ce114610619578063dda89a6e14610623578063e93fb4d414610641578063f2fde38b1461068357610137565b806381d6a24a146104525780638da5cb5b146104775780639cfced97146104ab578063b6a64acd14610524578063bea140b31461054457610137565b80633e1a8cc1116100ff5780633e1a8cc11461029957806358bfc379146102b75780635bb939951461038357806362a361bb146103cf578063715018a61461044857610137565b80631b9b8aa71461013c5780631ffc735d1461017e57806324a47aeb146101c05780633bfa6fce146102025780633dfb88b214610220575b600080fd5b6101686004803603602081101561015257600080fd5b81019080803590602001909291905050506106c7565b6040518082815260200191505060405180910390f35b6101aa6004803603602081101561019457600080fd5b810190808035906020019092919050505061075e565b6040518082815260200191505060405180910390f35b6101ec600480360360208110156101d657600080fd5b8101908080359060200190929190505050610962565b6040518082815260200191505060405180910390f35b61020a610d57565b6040518082815260200191505060405180910390f35b6102836004803603608081101561023657600080fd5b8101908080608001906004806020026040519081016040528092919082600460200280828437600081840152601f19601f8201169050808301925050505050509192919290505050610daa565b6040518082815260200191505060405180910390f35b6102a1610e65565b6040518082815260200191505060405180910390f35b61036d600480360360208110156102cd57600080fd5b81019080803590602001906401000000008111156102ea57600080fd5b8201836020820111156102fc57600080fd5b8035906020019184602083028401116401000000008311171561031e57600080fd5b919080806020026020016040519081016040528093929190818152602001838360200280828437600081840152601f19601f820116905080830192505050505050509192919290505050610ed6565b6040518082815260200191505060405180910390f35b6103b96004803603604081101561039957600080fd5b810190808035906020019092919080359060200190929190505050610ff5565b6040518082815260200191505060405180910390f35b610432600480360360408110156103e557600080fd5b8101908080604001906002806020026040519081016040528092919082600260200280828437600081840152601f19601f820116905080830192505050505050919291929050505061103f565b6040518082815260200191505060405180910390f35b6104506110fa565b005b61045a611267565b604051808381526020018281526020019250505060405180910390f35b61047f611279565b604051808273ffffffffffffffffffffffffffffffffffffffff16815260200191505060405180910390f35b61050e600480360360a08110156104c157600080fd5b810190808060a001906005806020026040519081016040528092919082600560200280828437600081840152601f19601f82011690508083019250505050505091929192905050506112a2565b6040518082815260200191505060405180910390f35b61052c61135d565b60405180821515815260200191505060405180910390f35b6105a76004803603606081101561055a57600080fd5b8101908080606001906003806020026040519081016040528092919082600360200280828437600081840152601f19601f8201169050808301925050505050509192919290505050611371565b6040518082815260200191505060405180910390f35b6105e9600480360360208110156105d357600080fd5b810190808035906020019092919050505061142c565b005b6106176004803603602081101561060157600080fd5b810190808035906020019092919050505061155f565b005b6106216118c3565b005b61062b611ad6565b6040518082815260200191505060405180910390f35b61066d6004803603602081101561065757600080fd5b8101908080359060200190929190505050611add565b6040518082815260200191505060405180910390f35b6106c56004803603602081101561069957600080fd5b81019080803573ffffffffffffffffffffffffffffffffffffffff169060200190929190505050611b55565b005b600061017154827f00000000000000000000000000000000000000000000000000000000000000000a1015610747576040517f08c379a000000000000000000000000000000000000000000000000000000000815260040180806020018281038252603181526020018061254c6031913960400191505060405180910390fd5b61014d826021811061075557fe5b01549050919050565b6000610768611d47565b73ffffffffffffffffffffffffffffffffffffffff16610786611279565b73ffffffffffffffffffffffffffffffffffffffff161461080f576040517f08c379a00000000000000000000000000000000000000000000000000000000081526004018080602001828103825260208152602001807f4f776e61626c653a2063616c6c6572206973206e6f7420746865206f776e657281525060200191505060405180910390fd5b6000610171549050610822836000611d4f565b600181016101718190555061014d600061083c9190612336565b61016f60009055600061016e60006101000a81548160ff02191690831515021790555060007f0000000000000000000000000000000000000000000000000000000000000000610171548161088d57fe5b0614156109595760026000017f0000000000000000000000000000000000000000000000000000000000000000602181106108c457fe5b600402016000600481106108d457fe5b015461014c600060015481526020019081526020016000208190555060016000815480929190600101919050555060026000017f00000000000000000000000000000000000000000000000000000000000000006021811061093257fe5b6004020160006004811061094257fe5b0160009055600260840160006109589190612336565b5b80915050919050565b600061096c611d47565b73ffffffffffffffffffffffffffffffffffffffff1661098a611279565b73ffffffffffffffffffffffffffffffffffffffff1614610a13576040517f08c379a00000000000000000000000000000000000000000000000000000000081526004018080602001828103825260208152602001807f4f776e61626c653a2063616c6c6572206973206e6f7420746865206f776e657281525060200191505060405180910390fd5b60008211610a6c576040517f08c379a00000000000000000000000000000000000000000000000000000000081526004018080602001828103825260248152602001806125286024913960400191505060405180910390fd5b6001151561016e60009054906101000a900460ff16151514610ad9576040517f08c379a000000000000000000000000000000000000000000000000000000000815260040180806020018281038252603881526020018061247e6038913960400191505060405180910390fd5b6020821115610b33576040517f08c379a00000000000000000000000000000000000000000000000000000000081526004018080602001828103825260268152602001806124276026913960400191505060405180910390fd5b60007f000000000000000000000000000000000000000000000000000000000000000090505b600115610b9e5761017154817f00000000000000000000000000000000000000000000000000000000000000000a10610b9157610b9e565b8080600101915050610b59565b80831015610bf7576040517f08c379a000000000000000000000000000000000000000000000000000000000815260040180806020018281038252602a8152602001806124fe602a913960400191505060405180910390fd5b80831415610c225761016f5461014d8460218110610c1157fe5b018190555061016f54915050610d52565b600061016f54905060008290505b84811015610d37576000610c4382611ed5565b9050600060149054906101000a900460ff1615610ca157610c62612349565b8381600060028110610c7057fe5b6020020181815250508181600160028110610c8757fe5b602002018181525050610c998161103f565b935050610d29565b610ca961236b565b8381600060058110610cb757fe5b6020020181815250508181600160058110610cce57fe5b6020020181815250508181600260058110610ce557fe5b6020020181815250508181600360058110610cfc57fe5b6020020181815250508181600460058110610d1357fe5b602002018181525050610d25816112a2565b9350505b508080600101915050610c30565b508061014d8560218110610d4757fe5b018190555080925050505b919050565b600080600190505b600115610da357600154817f00000000000000000000000000000000000000000000000000000000000000000a10610d9657610da3565b8080600101915050610d5f565b8091505090565b600073__$584f44aaf914c42633951b34ceb432be31$__63248f6677836040518263ffffffff1660e01b81526004018082600460200280838360005b83811015610e01578082015181840152602081019050610de6565b5050505090500191505060206040518083038186803b158015610e2357600080fd5b505af4158015610e37573d6000803e3d6000fd5b505050506040513d6020811015610e4d57600080fd5b81019080805190602001909291905050509050919050565b600061016e60009054906101000a900460ff16610ecd576040517f08c379a00000000000000000000000000000000000000000000000000000000081526004018080602001828103825260278152602001806124d76027913960400191505060405180910390fd5b61016f54905090565b60007f30644e72e131a029b85045b68181585d2833e84879b9709143e1f593f000000160028360405160200180828051906020019060200280838360005b83811015610f2f578082015181840152602081019050610f14565b505050509050019150506040516020818303038152906040526040518082805190602001908083835b60208310610f7b5780518252602082019150602081019050602083039250610f58565b6001836020036101000a038019825116818451168082178552505050505050905001915050602060405180830381855afa158015610fbd573d6000803e3d6000fd5b5050506040513d6020811015610fd257600080fd5b810190808051906020019092919050505060001c81610fed57fe5b069050919050565b6000610fff612349565b838160006002811061100d57fe5b602002018181525050828160016002811061102457fe5b6020020181815250506110368161103f565b91505092915050565b600073__$d4acaf6f169a2634c49d403ce7efde36fd$__6329a5f2f6836040518263ffffffff1660e01b81526004018082600260200280838360005b8381101561109657808201518184015260208101905061107b565b5050505090500191505060206040518083038186803b1580156110b857600080fd5b505af41580156110cc573d6000803e3d6000fd5b505050506040513d60208110156110e257600080fd5b81019080805190602001909291905050509050919050565b611102611d47565b73ffffffffffffffffffffffffffffffffffffffff16611120611279565b73ffffffffffffffffffffffffffffffffffffffff16146111a9576040517f08c379a00000000000000000000000000000000000000000000000000000000081526004018080602001828103825260208152602001807f4f776e61626c653a2063616c6c6572206973206e6f7420746865206f776e657281525060200191505060405180910390fd5b600073ffffffffffffffffffffffffffffffffffffffff1660008054906101000a900473ffffffffffffffffffffffffffffffffffffffff1673ffffffffffffffffffffffffffffffffffffffff167f8be0079c531659141344cd1fd0a4f28419497f9722a3daafe3b4186f6b6457e060405160405180910390a360008060006101000a81548173ffffffffffffffffffffffffffffffffffffffff021916908373ffffffffffffffffffffffffffffffffffffffff160217905550565b60008061017054600154915091509091565b60008060009054906101000a900473ffffffffffffffffffffffffffffffffffffffff16905090565b600073__$2a5b9c44d836f7997ae51e8d308a712a39$__634937a258836040518263ffffffff1660e01b81526004018082600560200280838360005b838110156112f95780820151818401526020810190506112de565b5050505090500191505060206040518083038186803b15801561131b57600080fd5b505af415801561132f573d6000803e3d6000fd5b505050506040513d602081101561134557600080fd5b81019080805190602001909291905050509050919050565b61016e60009054906101000a900460ff1681565b600073__$9b3049adcf18347c4fcd511e1429cbc37d$__6325cc70e8836040518263ffffffff1660e01b81526004018082600360200280838360005b838110156113c85780820151818401526020810190506113ad565b5050505090500191505060206040518083038186803b1580156113ea57600080fd5b505af41580156113fe573d6000803e3d6000fd5b505050506040513d602081101561141457600080fd5b81019080805190602001909291905050509050919050565b611434611d47565b73ffffffffffffffffffffffffffffffffffffffff16611452611279565b73ffffffffffffffffffffffffffffffffffffffff16146114db576040517f08c379a00000000000000000000000000000000000000000000000000000000081526004018080602001828103825260208152602001807f4f776e61626c653a2063616c6c6572206973206e6f7420746865206f776e657281525060200191505060405180910390fd5b8061014c60006001548152602001908152602001600020819055506001600081548092919060010191905055507f00000000000000000000000000000000000000000000000000000000000000006101716000828254019250508190555061016f60009055600061016e60006101000a81548160ff02191690831515021790555050565b611567611d47565b73ffffffffffffffffffffffffffffffffffffffff16611585611279565b73ffffffffffffffffffffffffffffffffffffffff161461160e576040517f08c379a00000000000000000000000000000000000000000000000000000000081526004018080602001828103825260208152602001807f4f776e61626c653a2063616c6c6572206973206e6f7420746865206f776e657281525060200191505060405180910390fd5b6000151561016e60009054906101000a900460ff1615151461167b576040517f08c379a00000000000000000000000000000000000000000000000000000000081526004018080602001828103825260218152602001806124b66021913960400191505060405180910390fd5b600061017154116116f4576040517f08c379a000000000000000000000000000000000000000000000000000000000815260040180806020018281038252601a8152602001807f41636351756575653a206e6f7468696e6720746f206d6572676500000000000081525060200191505060405180910390fd5b60007f0000000000000000000000000000000000000000000000000000000000000000610171548161172257fe5b0614611731576117306118c3565b5b60018054141561176d576117456000611add565b61016f81905550600161016e60006101000a81548160ff0219169083151502179055506118c0565b6000611777610d57565b90506000806101705490505b6001548110156117e9576000841415801561179d57508382145b156117aa575050506118c0565b6117c16117b961017054611add565b600085611eee565b6101706000815480929190600101919050555081806001019250508080600101915050611783565b506000827f00000000000000000000000000000000000000000000000000000000000000000a90506001546101705414156118775760006118497f0000000000000000000000000000000000000000000000000000000000000000611ed5565b9050600060015490505b828110156118745761186782600087611eee565b8080600101915050611853565b50505b60a7600001836021811061188757fe5b6004020160006004811061189757fe5b015461016f81905550600161016e60006101000a81548160ff0219169083151502179055505050505b50565b6118cb611d47565b73ffffffffffffffffffffffffffffffffffffffff166118e9611279565b73ffffffffffffffffffffffffffffffffffffffff1614611972576040517f08c379a00000000000000000000000000000000000000000000000000000000081526004018080602001828103825260208152602001807f4f776e61626c653a2063616c6c6572206973206e6f7420746865206f776e657281525060200191505060405180910390fd5b60007f000000000000000000000000000000000000000000000000000000000000000061017154816119a057fe5b0614156119ef576119d07f0000000000000000000000000000000000000000000000000000000000000000611ed5565b61014c6000600154815260200190815260200160002081905550611a76565b6119f960006120b3565b60026000017f000000000000000000000000000000000000000000000000000000000000000060218110611a2957fe5b60040201600060048110611a3957fe5b015461014c600060015481526020019081526020016000208190555060026000016000611a66919061238d565b61014d6000611a759190612336565b5b600060018054019050806001819055507f000000000000000000000000000000000000000000000000000000000000000081026101718190555061016f60009055600061016e60006101000a81548160ff02191690831515021790555050565b6101715481565b60008160015411611b39576040517f08c379a000000000000000000000000000000000000000000000000000000000815260040180806020018281038252603181526020018061244d6031913960400191505060405180910390fd5b61014c6000838152602001908152602001600020549050919050565b611b5d611d47565b73ffffffffffffffffffffffffffffffffffffffff16611b7b611279565b73ffffffffffffffffffffffffffffffffffffffff1614611c04576040517f08c379a00000000000000000000000000000000000000000000000000000000081526004018080602001828103825260208152602001807f4f776e61626c653a2063616c6c6572206973206e6f7420746865206f776e657281525060200191505060405180910390fd5b600073ffffffffffffffffffffffffffffffffffffffff168173ffffffffffffffffffffffffffffffffffffffff161415611c8a576040517f08c379a00000000000000000000000000000000000000000000000000000000081526004018080602001828103825260268152602001806124016026913960400191505060405180910390fd5b8073ffffffffffffffffffffffffffffffffffffffff1660008054906101000a900473ffffffffffffffffffffffffffffffffffffffff1673ffffffffffffffffffffffffffffffffffffffff167f8be0079c531659141344cd1fd0a4f28419497f9722a3daafe3b4186f6b6457e060405160405180910390a3806000806101000a81548173ffffffffffffffffffffffffffffffffffffffff021916908373ffffffffffffffffffffffffffffffffffffffff16021790555050565b600033905090565b7f0000000000000000000000000000000000000000000000000000000000000000811115611de5576040517f08c379a00000000000000000000000000000000000000000000000000000000081526004018080602001828103825260178152602001807f41636351756575653a20696e76616c6964206c6576656c00000000000000000081525060200191505060405180910390fd5b5b600115611ed057600060026084018260218110611dff57fe5b0154905060017f0000000000000000000000000000000000000000000000000000000000000000038114611ea1578260026000018360218110611e3e57fe5b600402018260048110611e4d57fe5b01819055507f00000000000000000000000000000000000000000000000000000000000000008214611e9b5760026084018260218110611e8957fe5b01600081548092919060010191905055505b50611ed1565b611eab82846121fd565b925060026084018260218110611ebd57fe5b0160009055818060010192505050611de6565b5b5050565b60006101728260218110611ee557fe5b01549050919050565b80821115611efb576120ae565b600060a76084018360218110611f0d57fe5b0154905060017f0000000000000000000000000000000000000000000000000000000000000000038114611f86578360a76000018460218110611f4c57fe5b600402018260048110611f5b57fe5b018190555060a76084018360218110611f7057fe5b01600081548092919060010191905055506120ac565b60008060149054906101000a900460ff161561200457611fa4612349565b60a76000018560218110611fb457fe5b60040201600060048110611fc457fe5b015481600060028110611fd357fe5b6020020181815250508581600160028110611fea57fe5b602002018181525050611ffc8161103f565b915050612087565b61200c61236b565b60005b838160ff1610156120635760a7600001866021811061202a57fe5b600402018160ff166004811061203c57fe5b0154828260ff166005811061204d57fe5b602002018181525050808060010191505061200f565b508581846005811061207157fe5b602002018181525050612083816112a2565b9150505b60a7608401846021811061209757fe5b01600090556120aa816001860185611eee565b505b505b505050565b5b7f00000000000000000000000000000000000000000000000000000000000000008110156121fa576000600260840182602181106120ee57fe5b01549050600081146121d757600061210461236b565b600061210f85611ed5565b905060005b848160ff161015612168576002600001866021811061212f57fe5b600402018160ff166004811061214157fe5b0154838260ff166005811061215257fe5b6020020181815250508080600101915050612114565b5b7f00000000000000000000000000000000000000000000000000000000000000008160ff1610156121ba5781838260ff16600581106121a457fe5b6020020181815250508080600101915050612169565b6121c3836112a2565b93506121d28460018801611d4f565b505050505b600260840182602181106121e757fe5b01600090558180600101925050506120b4565b50565b600061220761236b565b6002600001846021811061221757fe5b6004020160006004811061222757fe5b01548160006005811061223657fe5b6020020181815250506002600001846021811061224f57fe5b6004020160016004811061225f57fe5b01548160016005811061226e57fe5b6020020181815250506002600001846021811061228757fe5b6004020160026004811061229757fe5b0154816002600581106122a657fe5b602002018181525050600260000184602181106122bf57fe5b600402016003600481106122cf57fe5b0154816003600581106122de57fe5b60200201818152505082816004600581106122f557fe5b6020020181815250506000612309826112a2565b90506002600001856021811061231b57fe5b60040201600061232b91906123a3565b809250505092915050565b50806021019061234691906123bf565b50565b6040518060400160405280600290602082028036833780820191505090505090565b6040518060a00160405280600590602082028036833780820191505090505090565b5080602160040201906123a091906123dc565b50565b5060008155600101600081556001016000815560010160009055565b5b808211156123d85760008160009055506001016123c0565b5090565b5b808211156123fc57600081816123f391906123a3565b506004016123dd565b509056fe4f776e61626c653a206e6577206f776e657220697320746865207a65726f206164647265737341636351756575653a205f6465707468206d757374206265206c7465204d41585f444550544841636351756575653a205f696e646578206d75737420726566657220746f206120636f6d706c657465207375627472656541636351756575653a207375627472656573206d757374206265206d6572676564206265666f72652063616c6c696e67206d65726765282941636351756575653a20737562747265657320616c7265616479206d657267656441636351756575653a207375627472656573206d757374206265206d657267656420666972737441636351756575653a205f6465707468206d75737420626520677465207468652053525420646570746841636351756575653a205f6465707468206d757374206265206d6f7265207468616e203041636351756575653a206765744d61696e526f6f743a205f6465707468206d757374206265206869676820656e6f756768a2646970667358221220e749f34a7f7a92ea026e920f147f2a6e8bd9ec9db3416acf05a5cdddf0324a7b64736f6c6343000702003341636351756575653a206f6e6c7920737570706f72747320757020746f204d41585f4445505448206c6576656c7341636351756575653a206f6e6c7920737570706f727473205f686173684c656e677468206f662032206f72203541636351756575653a205f7375624465707468206d757374206265206d6f7265207468616e2030",
  "linkReferences": {
    "contracts/crypto/Hasher.sol": {
      "PoseidonT3": [
        {
          "length": 20,
          "start": 4452
        },
        {
          "length": 20,
          "start": 22142
        }
      ],
      "PoseidonT4": [
        {
          "length": 20,
          "start": 5940
        },
        {
          "length": 20,
          "start": 22960
        }
      ],
      "PoseidonT5": [
        {
          "length": 20,
          "start": 4032
        },
        {
          "length": 20,
          "start": 21481
        }
      ],
      "PoseidonT6": [
        {
          "length": 20,
          "start": 5113
        },
        {
          "length": 20,
          "start": 22753
        }
      ]
    }
  },
  "deployedLinkReferences": {
    "contracts/crypto/Hasher.sol": {
      "PoseidonT3": [
        {
          "length": 20,
          "start": 3366
        }
      ],
      "PoseidonT4": [
        {
          "length": 20,
          "start": 4854
        }
      ],
      "PoseidonT5": [
        {
          "length": 20,
          "start": 2946
        }
      ],
      "PoseidonT6": [
        {
          "length": 20,
          "start": 4027
        }
      ]
    }
  }
}