{
  "_format": "hh-sol-artifact-1",
  "contractName": "MACI",
  "sourceName": "contracts/MACI.sol",
  "abi": [
    {
      "inputs": [
        {
          "internalType": "contract PollFactory",
          "name": "_pollFactory",
          "type": "address"
        },
        {
          "internalType": "contract SignUpGatekeeper",
          "name": "_signUpGatekeeper",
          "type": "address"
        },
        {
          "internalType": "contract InitialVoiceCreditProxy",
          "name": "_initialVoiceCreditProxy",
          "type": "address"
        }
      ],
      "stateMutability": "nonpayable",
      "type": "constructor"
    },
    {
      "anonymous": false,
      "inputs": [
        {
          "indexed": false,
          "internalType": "uint256",
          "name": "_pollId",
          "type": "uint256"
        },
        {
          "indexed": false,
          "internalType": "address",
          "name": "_pollAddr",
          "type": "address"
        },
        {
          "components": [
            {
              "internalType": "uint256",
              "name": "x",
              "type": "uint256"
            },
            {
              "internalType": "uint256",
              "name": "y",
              "type": "uint256"
            }
          ],
          "indexed": false,
          "internalType": "struct IPubKey.PubKey",
          "name": "_pubKey",
          "type": "tuple"
        }
      ],
      "name": "DeployPoll",
      "type": "event"
    },
    {
      "anonymous": false,
      "inputs": [
        {
          "indexed": false,
          "internalType": "contract VkRegistry",
          "name": "_vkRegistry",
          "type": "address"
        },
        {
          "indexed": false,
          "internalType": "contract MessageAqFactory",
          "name": "_messageAqFactory",
          "type": "address"
        }
      ],
      "name": "Init",
      "type": "event"
    },
    {
      "anonymous": false,
      "inputs": [],
      "name": "MergeStateAq",
      "type": "event"
    },
    {
      "anonymous": false,
      "inputs": [
        {
          "indexed": false,
          "internalType": "uint256",
          "name": "_numSrQueueOps",
          "type": "uint256"
        }
      ],
      "name": "MergeStateAqSubRoots",
      "type": "event"
    },
    {
      "anonymous": false,
      "inputs": [
        {
          "indexed": true,
          "internalType": "address",
          "name": "previousOwner",
          "type": "address"
        },
        {
          "indexed": true,
          "internalType": "address",
          "name": "newOwner",
          "type": "address"
        }
      ],
      "name": "OwnershipTransferred",
      "type": "event"
    },
    {
      "anonymous": false,
      "inputs": [
        {
          "indexed": false,
          "internalType": "uint256",
          "name": "_stateIndex",
          "type": "uint256"
        },
        {
          "components": [
            {
              "internalType": "uint256",
              "name": "x",
              "type": "uint256"
            },
            {
              "internalType": "uint256",
              "name": "y",
              "type": "uint256"
            }
          ],
          "indexed": false,
          "internalType": "struct IPubKey.PubKey",
          "name": "_userPubKey",
          "type": "tuple"
        },
        {
          "indexed": false,
          "internalType": "uint256",
          "name": "_voiceCreditBalance",
          "type": "uint256"
        }
      ],
      "name": "SignUp",
      "type": "event"
    },
    {
      "inputs": [
        {
          "internalType": "uint256",
          "name": "_duration",
          "type": "uint256"
        },
        {
          "components": [
            {
              "internalType": "uint256",
              "name": "maxMessages",
              "type": "uint256"
            },
            {
              "internalType": "uint256",
              "name": "maxVoteOptions",
              "type": "uint256"
            }
          ],
          "internalType": "struct Params.MaxValues",
          "name": "_maxValues",
          "type": "tuple"
        },
        {
          "components": [
            {
              "internalType": "uint8",
              "name": "intStateTreeDepth",
              "type": "uint8"
            },
            {
              "internalType": "uint8",
              "name": "messageTreeSubDepth",
              "type": "uint8"
            },
            {
              "internalType": "uint8",
              "name": "messageTreeDepth",
              "type": "uint8"
            },
            {
              "internalType": "uint8",
              "name": "voteOptionTreeDepth",
              "type": "uint8"
            }
          ],
          "internalType": "struct Params.TreeDepths",
          "name": "_treeDepths",
          "type": "tuple"
        },
        {
          "components": [
            {
              "internalType": "uint256",
              "name": "x",
              "type": "uint256"
            },
            {
              "internalType": "uint256",
              "name": "y",
              "type": "uint256"
            }
          ],
          "internalType": "struct IPubKey.PubKey",
          "name": "_coordinatorPubKey",
          "type": "tuple"
        },
        {
          "internalType": "contract PollProcessorAndTallyer",
          "name": "_ppt",
          "type": "address"
        }
      ],
      "name": "deployPoll",
      "outputs": [],
      "stateMutability": "nonpayable",
      "type": "function"
    },
    {
      "inputs": [
        {
          "internalType": "uint256",
          "name": "_pollId",
          "type": "uint256"
        }
      ],
      "name": "getPoll",
      "outputs": [
        {
          "internalType": "contract Poll",
          "name": "",
          "type": "address"
        }
      ],
      "stateMutability": "view",
      "type": "function"
    },
    {
      "inputs": [],
      "name": "getStateAqRoot",
      "outputs": [
        {
          "internalType": "uint256",
          "name": "",
          "type": "uint256"
        }
      ],
      "stateMutability": "view",
      "type": "function"
    },
    {
      "inputs": [
        {
          "internalType": "uint256[]",
          "name": "array",
          "type": "uint256[]"
        }
      ],
      "name": "hash2",
      "outputs": [
        {
          "internalType": "uint256",
          "name": "",
          "type": "uint256"
        }
      ],
      "stateMutability": "pure",
      "type": "function"
    },
    {
      "inputs": [
        {
          "internalType": "uint256[]",
          "name": "array",
          "type": "uint256[]"
        }
      ],
      "name": "hash3",
      "outputs": [
        {
          "internalType": "uint256",
          "name": "",
          "type": "uint256"
        }
      ],
      "stateMutability": "pure",
      "type": "function"
    },
    {
      "inputs": [
        {
          "internalType": "uint256[]",
          "name": "array",
          "type": "uint256[]"
        }
      ],
      "name": "hash4",
      "outputs": [
        {
          "internalType": "uint256",
          "name": "",
          "type": "uint256"
        }
      ],
      "stateMutability": "pure",
      "type": "function"
    },
    {
      "inputs": [
        {
          "internalType": "uint256[]",
          "name": "array",
          "type": "uint256[]"
        }
      ],
      "name": "hash5",
      "outputs": [
        {
          "internalType": "uint256",
          "name": "",
          "type": "uint256"
        }
      ],
      "stateMutability": "pure",
      "type": "function"
    },
    {
      "inputs": [
        {
          "internalType": "uint256",
          "name": "_left",
          "type": "uint256"
        },
        {
          "internalType": "uint256",
          "name": "_right",
          "type": "uint256"
        }
      ],
      "name": "hashLeftRight",
      "outputs": [
        {
          "internalType": "uint256",
          "name": "",
          "type": "uint256"
        }
      ],
      "stateMutability": "pure",
      "type": "function"
    },
    {
      "inputs": [
        {
          "components": [
            {
              "components": [
                {
                  "internalType": "uint256",
                  "name": "x",
                  "type": "uint256"
                },
                {
                  "internalType": "uint256",
                  "name": "y",
                  "type": "uint256"
                }
              ],
              "internalType": "struct IPubKey.PubKey",
              "name": "pubKey",
              "type": "tuple"
            },
            {
              "internalType": "uint256",
              "name": "voiceCreditBalance",
              "type": "uint256"
            }
          ],
          "internalType": "struct DomainObjs.StateLeaf",
          "name": "_stateLeaf",
          "type": "tuple"
        }
      ],
      "name": "hashStateLeaf",
      "outputs": [
        {
          "internalType": "uint256",
          "name": "",
          "type": "uint256"
        }
      ],
      "stateMutability": "pure",
      "type": "function"
    },
    {
      "inputs": [
        {
          "internalType": "contract VkRegistry",
          "name": "_vkRegistry",
          "type": "address"
        },
        {
          "internalType": "contract MessageAqFactory",
          "name": "_messageAqFactory",
          "type": "address"
        }
      ],
      "name": "init",
      "outputs": [],
      "stateMutability": "nonpayable",
      "type": "function"
    },
    {
      "inputs": [],
      "name": "initialVoiceCreditProxy",
      "outputs": [
        {
          "internalType": "contract InitialVoiceCreditProxy",
          "name": "",
          "type": "address"
        }
      ],
      "stateMutability": "view",
      "type": "function"
    },
    {
      "inputs": [
        {
          "internalType": "uint256",
          "name": "_pollId",
          "type": "uint256"
        }
      ],
      "name": "mergeStateAq",
      "outputs": [
        {
          "internalType": "uint256",
          "name": "",
          "type": "uint256"
        }
      ],
      "stateMutability": "nonpayable",
      "type": "function"
    },
    {
      "inputs": [
        {
          "internalType": "uint256",
          "name": "_numSrQueueOps",
          "type": "uint256"
        },
        {
          "internalType": "uint256",
          "name": "_pollId",
          "type": "uint256"
        }
      ],
      "name": "mergeStateAqSubRoots",
      "outputs": [],
      "stateMutability": "nonpayable",
      "type": "function"
    },
    {
      "inputs": [],
      "name": "messageAqFactory",
      "outputs": [
        {
          "internalType": "contract MessageAqFactory",
          "name": "",
          "type": "address"
        }
      ],
      "stateMutability": "view",
      "type": "function"
    },
    {
      "inputs": [],
      "name": "numSignUps",
      "outputs": [
        {
          "internalType": "uint256",
          "name": "",
          "type": "uint256"
        }
      ],
      "stateMutability": "view",
      "type": "function"
    },
    {
      "inputs": [
        {
          "internalType": "uint256",
          "name": "",
          "type": "uint256"
        }
      ],
      "name": "numStateLeaves",
      "outputs": [
        {
          "internalType": "uint256",
          "name": "",
          "type": "uint256"
        }
      ],
      "stateMutability": "view",
      "type": "function"
    },
    {
      "inputs": [],
      "name": "owner",
      "outputs": [
        {
          "internalType": "address",
          "name": "",
          "type": "address"
        }
      ],
      "stateMutability": "view",
      "type": "function"
    },
    {
      "inputs": [],
      "name": "pollFactory",
      "outputs": [
        {
          "internalType": "contract PollFactory",
          "name": "",
          "type": "address"
        }
      ],
      "stateMutability": "view",
      "type": "function"
    },
    {
      "inputs": [
        {
          "internalType": "uint256",
          "name": "",
          "type": "uint256"
        }
      ],
      "name": "polls",
      "outputs": [
        {
          "internalType": "contract Poll",
          "name": "",
          "type": "address"
        }
      ],
      "stateMutability": "view",
      "type": "function"
    },
    {
      "inputs": [],
      "name": "renounceOwnership",
      "outputs": [],
      "stateMutability": "nonpayable",
      "type": "function"
    },
    {
      "inputs": [
        {
          "internalType": "uint256[]",
          "name": "array",
          "type": "uint256[]"
        }
      ],
      "name": "sha256Hash",
      "outputs": [
        {
          "internalType": "uint256",
          "name": "",
          "type": "uint256"
        }
      ],
      "stateMutability": "pure",
      "type": "function"
    },
    {
      "inputs": [
        {
          "components": [
            {
              "internalType": "uint256",
              "name": "x",
              "type": "uint256"
            },
            {
              "internalType": "uint256",
              "name": "y",
              "type": "uint256"
            }
          ],
          "internalType": "struct IPubKey.PubKey",
          "name": "_pubKey",
          "type": "tuple"
        },
        {
          "internalType": "bytes",
          "name": "_signUpGatekeeperData",
          "type": "bytes"
        },
        {
          "internalType": "bytes",
          "name": "_initialVoiceCreditProxyData",
          "type": "bytes"
        }
      ],
      "name": "signUp",
      "outputs": [],
      "stateMutability": "nonpayable",
      "type": "function"
    },
    {
      "inputs": [],
      "name": "signUpGatekeeper",
      "outputs": [
        {
          "internalType": "contract SignUpGatekeeper",
          "name": "",
          "type": "address"
        }
      ],
      "stateMutability": "view",
      "type": "function"
    },
    {
      "inputs": [],
      "name": "stateAq",
      "outputs": [
        {
          "internalType": "contract AccQueue",
          "name": "",
          "type": "address"
        }
      ],
      "stateMutability": "view",
      "type": "function"
    },
    {
      "inputs": [],
      "name": "stateTreeDepth",
      "outputs": [
        {
          "internalType": "uint8",
          "name": "",
          "type": "uint8"
        }
      ],
      "stateMutability": "view",
      "type": "function"
    },
    {
      "inputs": [
        {
          "internalType": "address",
          "name": "newOwner",
          "type": "address"
        }
      ],
      "name": "transferOwnership",
      "outputs": [],
      "stateMutability": "nonpayable",
      "type": "function"
    },
    {
      "inputs": [],
      "name": "vkRegistry",
      "outputs": [
        {
          "internalType": "contract VkRegistry",
          "name": "",
          "type": "address"
        }
      ],
      "stateMutability": "view",
      "type": "function"
    }
  ],
  "bytecode": "0x6080604052600a600060146101000a81548160ff021916908360ff16021790555060006001556000600860146101000a81548160ff0219169083151502179055503480156200004d57600080fd5b5060405162006b1738038062006b178339818101604052810190620000739190620002c4565b6000620000856200026960201b60201c565b9050806000806101000a81548173ffffffffffffffffffffffffffffffffffffffff021916908373ffffffffffffffffffffffffffffffffffffffff1602179055508073ffffffffffffffffffffffffffffffffffffffff16600073ffffffffffffffffffffffffffffffffffffffff167f8be0079c531659141344cd1fd0a4f28419497f9722a3daafe3b4186f6b6457e060405160405180910390a3506002604051620001339062000271565b6200013f91906200032b565b604051809103906000f0801580156200015c573d6000803e3d6000fd5b50600860006101000a81548173ffffffffffffffffffffffffffffffffffffffff021916908373ffffffffffffffffffffffffffffffffffffffff16021790555082600660006101000a81548173ffffffffffffffffffffffffffffffffffffffff021916908373ffffffffffffffffffffffffffffffffffffffff16021790555081600960006101000a81548173ffffffffffffffffffffffffffffffffffffffff021916908373ffffffffffffffffffffffffffffffffffffffff16021790555080600a60006101000a81548173ffffffffffffffffffffffffffffffffffffffff021916908373ffffffffffffffffffffffffffffffffffffffff16021790555050505062000427565b600033905090565b61325480620038c383390190565b6000815190506200029081620003d9565b92915050565b600081519050620002a781620003f3565b92915050565b600081519050620002be816200040d565b92915050565b600080600060608486031215620002da57600080fd5b6000620002ea8682870162000296565b9350506020620002fd86828701620002ad565b925050604062000310868287016200027f565b9150509250925092565b6200032581620003c5565b82525050565b60006020820190506200034260008301846200031a565b92915050565b6000620003558262000398565b9050919050565b6000620003698262000348565b9050919050565b60006200037d8262000348565b9050919050565b6000620003918262000348565b9050919050565b600073ffffffffffffffffffffffffffffffffffffffff82169050919050565b600060ff82169050919050565b6000620003d282620003b8565b9050919050565b620003e4816200035c565b8114620003f057600080fd5b50565b620003fe8162000370565b81146200040a57600080fd5b50565b620004188162000384565b81146200042457600080fd5b50565b61348c80620004376000396000f3fe608060405234801561001057600080fd5b50600436106101a95760003560e01c8063603baff8116100f9578063ac2f007411610097578063dd0982a311610071578063dd0982a3146104fc578063eb45070a1461052c578063f09a401614610548578063f2fde38b14610564576101a9565b8063ac2f007414610492578063b61ede7f146104c2578063cfa1fa03146104e0576101a9565b8063793c5632116100d3578063793c5632146103f657806386d238d9146104265780638da5cb5b14610456578063aab4a67014610474576101a9565b8063603baff8146103b0578063652c76e4146103ce578063715018a6146103ec576101a9565b80632877e036116101665780634d4ef74d116101405780634d4ef74d146102f05780634e9e97fa1461032057806358bfc379146103505780635bb9399514610380576101a9565b80632877e036146102985780633364120a146102b6578063343393b5146102d2576101a9565b8063079410db146101ae578063122db153146101cc57806313fb8932146101ea5780631a8cbcaa146102085780631e1016fe146102385780632803c35c14610268575b600080fd5b6101b6610580565b6040516101c39190612cfb565b60405180910390f35b6101d46105a6565b6040516101e19190612eba565b60405180910390f35b6101f26105ac565b6040516101ff9190612d16565b60405180910390f35b610222600480360381019061021d91906123c2565b6105d2565b60405161022f9190612ce0565b60405180910390f35b610252600480360381019061024d919061224b565b610653565b60405161025f9190612eba565b60405180910390f35b610282600480360381019061027d91906123c2565b6106e3565b60405161028f9190612eba565b60405180910390f35b6102a06106fb565b6040516102ad9190612eba565b60405180910390f35b6102d060048036038101906102cb919061231a565b6107bc565b005b6102da610b56565b6040516102e79190612cc5565b60405180910390f35b61030a6004803603810190610305919061224b565b610b7c565b6040516103179190612eba565b60405180910390f35b61033a6004803603810190610335919061224b565b610c0c565b6040516103479190612eba565b60405180910390f35b61036a6004803603810190610365919061224b565b610c9c565b6040516103779190612eba565b60405180910390f35b61039a6004803603810190610395919061248d565b610d40565b6040516103a79190612eba565b60405180910390f35b6103b8610dd4565b6040516103c59190612c74565b60405180910390f35b6103d6610dfa565b6040516103e39190612ffe565b60405180910390f35b6103f4610e0d565b005b610410600480360381019061040b9190612399565b610f60565b60405161041d9190612eba565b60405180910390f35b610440600480360381019061043b919061224b565b611021565b60405161044d9190612eba565b60405180910390f35b61045e6110b1565b60405161046b9190612c07565b60405180910390f35b61047c6110da565b6040516104899190612c8f565b60405180910390f35b6104ac60048036038101906104a791906123c2565b611100565b6040516104b99190612ce0565b60405180910390f35b6104ca611133565b6040516104d79190612caa565b60405180910390f35b6104fa60048036038101906104f5919061248d565b611159565b005b610516600480360381019061051191906123c2565b61131a565b6040516105239190612eba565b60405180910390f35b61054660048036038101906105419190612414565b61150a565b005b610562600480360381019061055d91906122de565b61174a565b005b61057e600480360381019061057991906121f9565b611d0e565b005b600960009054906101000a900473ffffffffffffffffffffffffffffffffffffffff1681565b60035481565b600560009054906101000a900473ffffffffffffffffffffffffffffffffffffffff1681565b60006001548210610618576040517f08c379a000000000000000000000000000000000000000000000000000000000815260040161060f90612d5a565b60405180910390fd5b6002600083815260200190815260200160002060009054906101000a900473ffffffffffffffffffffffffffffffffffffffff169050919050565b600073__$9b3049adcf18347c4fcd511e1429cbc37d$__63c4420fb4836040518263ffffffff1660e01b815260040161068c9190612c52565b60206040518083038186803b1580156106a457600080fd5b505af41580156106b8573d6000803e3d6000fd5b505050506040513d601f19601f820116820180604052508101906106dc91906123eb565b9050919050565b60046020528060005260406000206000915090505481565b6000600860009054906101000a900473ffffffffffffffffffffffffffffffffffffffff1673ffffffffffffffffffffffffffffffffffffffff16631b9b8aa7600060149054906101000a900460ff166040518263ffffffff1660e01b81526004016107679190612fe3565b60206040518083038186803b15801561077f57600080fd5b505afa158015610793573d6000803e3d6000fd5b505050506040513d601f19601f820116820180604052508101906107b791906123eb565b905090565b60011515600860149054906101000a900460ff16151514610812576040517f08c379a000000000000000000000000000000000000000000000000000000000815260040161080990612e1a565b60405180910390fd5b600960009054906101000a900473ffffffffffffffffffffffffffffffffffffffff1673ffffffffffffffffffffffffffffffffffffffff166324b8fbf633846040518363ffffffff1660e01b815260040161086f929190612c22565b600060405180830381600087803b15801561088957600080fd5b505af115801561089d573d6000803e3d6000fd5b505050507f30644e72e131a029b85045b68181585d2833e84879b9709143e1f593f000000183600001511080156108f757507f30644e72e131a029b85045b68181585d2833e84879b9709143e1f593f00000018360200151105b610936576040517f08c379a000000000000000000000000000000000000000000000000000000000815260040161092d90612e3a565b60405180910390fd5b6000600a60009054906101000a900473ffffffffffffffffffffffffffffffffffffffff1673ffffffffffffffffffffffffffffffffffffffff1663b36543a933846040518363ffffffff1660e01b8152600401610995929190612c22565b60206040518083038186803b1580156109ad57600080fd5b505afa1580156109c1573d6000803e3d6000fd5b505050506040513d601f19601f820116820180604052508101906109e591906123eb565b9050640100000000811115610a2f576040517f08c379a0000000000000000000000000000000000000000000000000000000008152600401610a2690612d7a565b60405180910390fd5b6000610a4e604051806040016040528087815260200184815250610f60565b90506000600860009054906101000a900473ffffffffffffffffffffffffffffffffffffffff1673ffffffffffffffffffffffffffffffffffffffff16631ffc735d836040518263ffffffff1660e01b8152600401610aad9190612eba565b602060405180830381600087803b158015610ac757600080fd5b505af1158015610adb573d6000803e3d6000fd5b505050506040513d601f19601f82011682018060405250810190610aff91906123eb565b90506003600081548092919060010191905055507fc7563c66f89e2fb0839e2b64ed54fe4803ff9428777814772ccfe4c385072c4b818785604051610b4693929190612f0c565b60405180910390a1505050505050565b600660009054906101000a900473ffffffffffffffffffffffffffffffffffffffff1681565b600073__$d4acaf6f169a2634c49d403ce7efde36fd$__63c4420fb4836040518263ffffffff1660e01b8152600401610bb59190612c52565b60206040518083038186803b158015610bcd57600080fd5b505af4158015610be1573d6000803e3d6000fd5b505050506040513d601f19601f82011682018060405250810190610c0591906123eb565b9050919050565b600073__$584f44aaf914c42633951b34ceb432be31$__63c4420fb4836040518263ffffffff1660e01b8152600401610c459190612c52565b60206040518083038186803b158015610c5d57600080fd5b505af4158015610c71573d6000803e3d6000fd5b505050506040513d601f19601f82011682018060405250810190610c9591906123eb565b9050919050565b60007f30644e72e131a029b85045b68181585d2833e84879b9709143e1f593f0000001600283604051602001610cd29190612bd9565b604051602081830303815290604052604051610cee9190612bf0565b602060405180830381855afa158015610d0b573d6000803e3d6000fd5b5050506040513d601f19601f82011682018060405250810190610d2e919061228c565b60001c81610d3857fe5b069050919050565b60006060600267ffffffffffffffff81118015610d5c57600080fd5b50604051908082528060200260200182016040528015610d8b5781602001602082028036833780820191505090505b5090508381600081518110610d9c57fe5b6020026020010181815250508281600181518110610db657fe5b602002602001018181525050610dcb81610b7c565b91505092915050565b600860009054906101000a900473ffffffffffffffffffffffffffffffffffffffff1681565b600060149054906101000a900460ff1681565b610e15611ed0565b73ffffffffffffffffffffffffffffffffffffffff1660008054906101000a900473ffffffffffffffffffffffffffffffffffffffff1673ffffffffffffffffffffffffffffffffffffffff1614610ea2576040517f08c379a0000000000000000000000000000000000000000000000000000000008152600401610e9990612e5a565b60405180910390fd5b600073ffffffffffffffffffffffffffffffffffffffff1660008054906101000a900473ffffffffffffffffffffffffffffffffffffffff1673ffffffffffffffffffffffffffffffffffffffff167f8be0079c531659141344cd1fd0a4f28419497f9722a3daafe3b4186f6b6457e060405160405180910390a360008060006101000a81548173ffffffffffffffffffffffffffffffffffffffff021916908373ffffffffffffffffffffffffffffffffffffffff160217905550565b60006060600367ffffffffffffffff81118015610f7c57600080fd5b50604051908082528060200260200182016040528015610fab5781602001602082028036833780820191505090505b50905082600001516000015181600081518110610fc457fe5b60200260200101818152505082600001516020015181600181518110610fe657fe5b60200260200101818152505082602001518160028151811061100457fe5b60200260200101818152505061101981610653565b915050919050565b600073__$2a5b9c44d836f7997ae51e8d308a712a39$__63c4420fb4836040518263ffffffff1660e01b815260040161105a9190612c52565b60206040518083038186803b15801561107257600080fd5b505af4158015611086573d6000803e3d6000fd5b505050506040513d601f19601f820116820180604052508101906110aa91906123eb565b9050919050565b60008060009054906101000a900473ffffffffffffffffffffffffffffffffffffffff16905090565b600a60009054906101000a900473ffffffffffffffffffffffffffffffffffffffff1681565b60026020528060005260406000206000915054906101000a900473ffffffffffffffffffffffffffffffffffffffff1681565b600760009054906101000a900473ffffffffffffffffffffffffffffffffffffffff1681565b806002600082815260200190815260200160002060009054906101000a900473ffffffffffffffffffffffffffffffffffffffff1673ffffffffffffffffffffffffffffffffffffffff163373ffffffffffffffffffffffffffffffffffffffff16146111fb576040517f08c379a00000000000000000000000000000000000000000000000000000000081526004016111f290612e7a565b60405180910390fd5b60011515600860149054906101000a900460ff16151514611251576040517f08c379a000000000000000000000000000000000000000000000000000000000815260040161124890612e1a565b60405180910390fd5b600860009054906101000a900473ffffffffffffffffffffffffffffffffffffffff1673ffffffffffffffffffffffffffffffffffffffff1663c15da65b846040518263ffffffff1660e01b81526004016112ac9190612eba565b600060405180830381600087803b1580156112c657600080fd5b505af11580156112da573d6000803e3d6000fd5b505050507fd4d5fb9d74ff0e8a39c0abaed94fedd30085668bc58c4742f4a9d59eac58ecef8360405161130d9190612eba565b60405180910390a1505050565b6000816002600082815260200190815260200160002060009054906101000a900473ffffffffffffffffffffffffffffffffffffffff1673ffffffffffffffffffffffffffffffffffffffff163373ffffffffffffffffffffffffffffffffffffffff16146113be576040517f08c379a00000000000000000000000000000000000000000000000000000000081526004016113b590612e7a565b60405180910390fd5b60011515600860149054906101000a900460ff16151514611414576040517f08c379a000000000000000000000000000000000000000000000000000000000815260040161140b90612e1a565b60405180910390fd5b6000600860009054906101000a900473ffffffffffffffffffffffffffffffffffffffff1673ffffffffffffffffffffffffffffffffffffffff166324a47aeb600060149054906101000a900460ff166040518263ffffffff1660e01b81526004016114809190612fe3565b602060405180830381600087803b15801561149a57600080fd5b505af11580156114ae573d6000803e3d6000fd5b505050506040513d601f19601f820116820180604052508101906114d291906123eb565b90507fe23146555fa0f7990a28ac5636ab3649bc39868078534ae86cee7c8d78e48a1860405160405180910390a18092505050919050565b60011515600860149054906101000a900460ff16151514611560576040517f08c379a000000000000000000000000000000000000000000000000000000000815260040161155790612e1a565b60405180910390fd5b6000600154905061156f611ed8565b6040518060400160405280866020015160ff16600560ff160a60ff168152602001866000015160ff16600560ff160a60ff1681525090506000600660009054906101000a900473ffffffffffffffffffffffffffffffffffffffff1673ffffffffffffffffffffffffffffffffffffffff1663374fa36389600060149054906101000a900460ff168a8a878b600560009054906101000a900473ffffffffffffffffffffffffffffffffffffffff16306116276110b1565b8e6040518b63ffffffff1660e01b815260040161164d9a99989796959493929190612f43565b602060405180830381600087803b15801561166757600080fd5b505af115801561167b573d6000803e3d6000fd5b505050506040513d601f19601f8201168201806040525081019061169f91906122b5565b9050806002600085815260200190815260200160002060006101000a81548173ffffffffffffffffffffffffffffffffffffffff021916908373ffffffffffffffffffffffffffffffffffffffff1602179055506001600081548092919060010191905055507f76b880f3c8580b5bb05765c3b2160a2860692566e7f8cce8c58d23e77f3130c283828760405161173893929190612ed5565b60405180910390a15050505050505050565b611752611ed0565b73ffffffffffffffffffffffffffffffffffffffff1660008054906101000a900473ffffffffffffffffffffffffffffffffffffffff1673ffffffffffffffffffffffffffffffffffffffff16146117df576040517f08c379a00000000000000000000000000000000000000000000000000000000081526004016117d690612e5a565b60405180910390fd5b60001515600860149054906101000a900460ff16151514611835576040517f08c379a000000000000000000000000000000000000000000000000000000000815260040161182c90612d9a565b60405180910390fd5b81600560006101000a81548173ffffffffffffffffffffffffffffffffffffffff021916908373ffffffffffffffffffffffffffffffffffffffff16021790555080600760006101000a81548173ffffffffffffffffffffffffffffffffffffffff021916908373ffffffffffffffffffffffffffffffffffffffff1602179055503073ffffffffffffffffffffffffffffffffffffffff16600660009054906101000a900473ffffffffffffffffffffffffffffffffffffffff1673ffffffffffffffffffffffffffffffffffffffff16638da5cb5b6040518163ffffffff1660e01b815260040160206040518083038186803b15801561193657600080fd5b505afa15801561194a573d6000803e3d6000fd5b505050506040513d601f19601f8201168201806040525081019061196e9190612222565b73ffffffffffffffffffffffffffffffffffffffff16146119c4576040517f08c379a00000000000000000000000000000000000000000000000000000000081526004016119bb90612e9a565b60405180910390fd5b600660009054906101000a900473ffffffffffffffffffffffffffffffffffffffff1673ffffffffffffffffffffffffffffffffffffffff1663d46f5ff2600760009054906101000a900473ffffffffffffffffffffffffffffffffffffffff166040518263ffffffff1660e01b8152600401611a419190612caa565b600060405180830381600087803b158015611a5b57600080fd5b505af1158015611a6f573d6000803e3d6000fd5b50505050600660009054906101000a900473ffffffffffffffffffffffffffffffffffffffff1673ffffffffffffffffffffffffffffffffffffffff16600760009054906101000a900473ffffffffffffffffffffffffffffffffffffffff1673ffffffffffffffffffffffffffffffffffffffff16638da5cb5b6040518163ffffffff1660e01b815260040160206040518083038186803b158015611b1457600080fd5b505afa158015611b28573d6000803e3d6000fd5b505050506040513d601f19601f82011682018060405250810190611b4c9190612222565b73ffffffffffffffffffffffffffffffffffffffff1614611ba2576040517f08c379a0000000000000000000000000000000000000000000000000000000008152600401611b9990612dfa565b60405180910390fd5b611baa6110b1565b73ffffffffffffffffffffffffffffffffffffffff16600560009054906101000a900473ffffffffffffffffffffffffffffffffffffffff1673ffffffffffffffffffffffffffffffffffffffff16638da5cb5b6040518163ffffffff1660e01b815260040160206040518083038186803b158015611c2857600080fd5b505afa158015611c3c573d6000803e3d6000fd5b505050506040513d601f19601f82011682018060405250810190611c609190612222565b73ffffffffffffffffffffffffffffffffffffffff1614611cb6576040517f08c379a0000000000000000000000000000000000000000000000000000000008152600401611cad90612dda565b60405180910390fd5b6001600860146101000a81548160ff0219169083151502179055507f45acd56f401dc3db1d520e5e214f090b4ab3e3fbf42fd24596cb511edaad876a8282604051611d02929190612d31565b60405180910390a15050565b611d16611ed0565b73ffffffffffffffffffffffffffffffffffffffff1660008054906101000a900473ffffffffffffffffffffffffffffffffffffffff1673ffffffffffffffffffffffffffffffffffffffff1614611da3576040517f08c379a0000000000000000000000000000000000000000000000000000000008152600401611d9a90612e5a565b60405180910390fd5b600073ffffffffffffffffffffffffffffffffffffffff168173ffffffffffffffffffffffffffffffffffffffff161415611e13576040517f08c379a0000000000000000000000000000000000000000000000000000000008152600401611e0a90612dba565b60405180910390fd5b8073ffffffffffffffffffffffffffffffffffffffff1660008054906101000a900473ffffffffffffffffffffffffffffffffffffffff1673ffffffffffffffffffffffffffffffffffffffff167f8be0079c531659141344cd1fd0a4f28419497f9722a3daafe3b4186f6b6457e060405160405180910390a3806000806101000a81548173ffffffffffffffffffffffffffffffffffffffff021916908373ffffffffffffffffffffffffffffffffffffffff16021790555050565b600033905090565b6040518060400160405280600060ff168152602001600060ff1681525090565b600081359050611f078161339e565b92915050565b600081519050611f1c8161339e565b92915050565b600082601f830112611f3357600080fd5b8135611f46611f418261304a565b613019565b91508181835260208401935060208101905083856020840282011115611f6b57600080fd5b60005b83811015611f9b5781611f8188826121ba565b845260208401935060208301925050600181019050611f6e565b5050505092915050565b600081519050611fb4816133b5565b92915050565b600082601f830112611fcb57600080fd5b8135611fde611fd982613076565b613019565b91508082526020830160208301858383011115611ffa57600080fd5b612005838284613349565b50505092915050565b60008135905061201d816133cc565b92915050565b600081359050612032816133e3565b92915050565b600081519050612047816133fa565b92915050565b60008135905061205c81613411565b92915050565b60006040828403121561207457600080fd5b61207e6040613019565b9050600061208e848285016121ba565b60008301525060206120a2848285016121ba565b60208301525092915050565b6000604082840312156120c057600080fd5b6120ca6040613019565b905060006120da848285016121ba565b60008301525060206120ee848285016121ba565b60208301525092915050565b60006060828403121561210c57600080fd5b6121166040613019565b90506000612126848285016120ae565b600083015250604061213a848285016121ba565b60208301525092915050565b60006080828403121561215857600080fd5b6121626080613019565b90506000612172848285016121e4565b6000830152506020612186848285016121e4565b602083015250604061219a848285016121e4565b60408301525060606121ae848285016121e4565b60608301525092915050565b6000813590506121c981613428565b92915050565b6000815190506121de81613428565b92915050565b6000813590506121f38161343f565b92915050565b60006020828403121561220b57600080fd5b600061221984828501611ef8565b91505092915050565b60006020828403121561223457600080fd5b600061224284828501611f0d565b91505092915050565b60006020828403121561225d57600080fd5b600082013567ffffffffffffffff81111561227757600080fd5b61228384828501611f22565b91505092915050565b60006020828403121561229e57600080fd5b60006122ac84828501611fa5565b91505092915050565b6000602082840312156122c757600080fd5b60006122d584828501612038565b91505092915050565b600080604083850312156122f157600080fd5b60006122ff8582860161204d565b92505060206123108582860161200e565b9150509250929050565b60008060006080848603121561232f57600080fd5b600061233d868287016120ae565b935050604084013567ffffffffffffffff81111561235a57600080fd5b61236686828701611fba565b925050606084013567ffffffffffffffff81111561238357600080fd5b61238f86828701611fba565b9150509250925092565b6000606082840312156123ab57600080fd5b60006123b9848285016120fa565b91505092915050565b6000602082840312156123d457600080fd5b60006123e2848285016121ba565b91505092915050565b6000602082840312156123fd57600080fd5b600061240b848285016121cf565b91505092915050565b6000806000806000610140868803121561242d57600080fd5b600061243b888289016121ba565b955050602061244c88828901612062565b945050606061245d88828901612146565b93505060e061246e888289016120ae565b92505061012061248088828901612023565b9150509295509295909350565b600080604083850312156124a057600080fd5b60006124ae858286016121ba565b92505060206124bf858286016121ba565b9150509250929050565b60006124d58383612b8e565b60208301905092915050565b60006124ed8383612b9d565b60208301905092915050565b612502816131bd565b82525050565b61251181613122565b82525050565b6000612522826130b6565b61252c81856130d9565b9350612537836130a6565b8060005b8381101561256857815161254f88826124e1565b975061255a836130cc565b92505060018101905061253b565b5085935050505092915050565b6000612580826130b6565b61258a81856130ea565b9350612595836130a6565b8060005b838110156125c65781516125ad88826124c9565b97506125b8836130cc565b925050600181019050612599565b5085935050505092915050565b60006125de826130c1565b6125e881856130f5565b93506125f8818560208601613358565b6126018161338d565b840191505092915050565b6000612617826130c1565b6126218185613106565b9350612631818560208601613358565b80840191505092915050565b612646816131cf565b82525050565b612655816131f3565b82525050565b61266481613217565b82525050565b6126738161323b565b82525050565b6126828161325f565b82525050565b61269181613283565b82525050565b6126a0816132a7565b82525050565b6126af816132cb565b82525050565b6126be816132ef565b82525050565b60006126d1602683613111565b91507f4d4143493a20706f6c6c2077697468205f706f6c6c496420646f6573206e6f7460008301527f20657869737400000000000000000000000000000000000000000000000000006020830152604082019050919050565b6000612737601c83613111565b91507f4d4143493a20746f6f206d616e7920766f6963652063726564697473000000006000830152602082019050919050565b6000612777601983613111565b91507f4d4143493a20616c726561647920696e697469616c69736564000000000000006000830152602082019050919050565b60006127b7602683613111565b91507f4f776e61626c653a206e6577206f776e657220697320746865207a65726f206160008301527f64647265737300000000000000000000000000000000000000000000000000006020830152604082019050919050565b600061281d602683613111565b91507f4d4143493a20566b5265676973747279206f776e657220696e636f727265637460008301527f6c792073657400000000000000000000000000000000000000000000000000006020830152604082019050919050565b6000612883602c83613111565b91507f4d4143493a204d6573736167654171466163746f7279206f776e657220696e6360008301527f6f72726563746c792073657400000000000000000000000000000000000000006020830152604082019050919050565b60006128e9601583613111565b91507f4d4143493a206e6f7420696e697469616c6973656400000000000000000000006000830152602082019050919050565b6000612929603f83613111565b91507f4d4143493a205f7075624b65792076616c7565732073686f756c64206265206c60008301527f657373207468616e2074686520736e61726b207363616c6172206669656c64006020830152604082019050919050565b600061298f602083613111565b91507f4f776e61626c653a2063616c6c6572206973206e6f7420746865206f776e65726000830152602082019050919050565b60006129cf603183613111565b91507f4d4143493a206f6e6c79206120506f6c6c20636f6e74726163742063616e206360008301527f616c6c20746869732066756e6374696f6e0000000000000000000000000000006020830152604082019050919050565b6000612a35602783613111565b91507f4d4143493a20506f6c6c466163746f7279206f776e657220696e636f7272656360008301527f746c7920736574000000000000000000000000000000000000000000000000006020830152604082019050919050565b604082016000820151612aa46000850182612bbb565b506020820151612ab76020850182612bbb565b50505050565b604082016000820151612ad36000850182612b70565b506020820151612ae66020850182612b70565b50505050565b604082016000820151612b026000850182612b70565b506020820151612b156020850182612b70565b50505050565b608082016000820151612b316000850182612bbb565b506020820151612b446020850182612bbb565b506040820151612b576040850182612bbb565b506060820151612b6a6060850182612bbb565b50505050565b612b79816131a6565b82525050565b612b88816131a6565b82525050565b612b97816131a6565b82525050565b612ba6816131a6565b82525050565b612bb581613337565b82525050565b612bc4816131b0565b82525050565b612bd3816131b0565b82525050565b6000612be58284612575565b915081905092915050565b6000612bfc828461260c565b915081905092915050565b6000602082019050612c1c6000830184612508565b92915050565b6000604082019050612c3760008301856124f9565b8181036020830152612c4981846125d3565b90509392505050565b60006020820190508181036000830152612c6c8184612517565b905092915050565b6000602082019050612c89600083018461263d565b92915050565b6000602082019050612ca4600083018461264c565b92915050565b6000602082019050612cbf600083018461266a565b92915050565b6000602082019050612cda6000830184612679565b92915050565b6000602082019050612cf56000830184612697565b92915050565b6000602082019050612d1060008301846126a6565b92915050565b6000602082019050612d2b60008301846126b5565b92915050565b6000604082019050612d4660008301856126b5565b612d53602083018461266a565b9392505050565b60006020820190508181036000830152612d73816126c4565b9050919050565b60006020820190508181036000830152612d938161272a565b9050919050565b60006020820190508181036000830152612db38161276a565b9050919050565b60006020820190508181036000830152612dd3816127aa565b9050919050565b60006020820190508181036000830152612df381612810565b9050919050565b60006020820190508181036000830152612e1381612876565b9050919050565b60006020820190508181036000830152612e33816128dc565b9050919050565b60006020820190508181036000830152612e538161291c565b9050919050565b60006020820190508181036000830152612e7381612982565b9050919050565b60006020820190508181036000830152612e93816129c2565b9050919050565b60006020820190508181036000830152612eb381612a28565b9050919050565b6000602082019050612ecf6000830184612b7f565b92915050565b6000608082019050612eea6000830186612b7f565b612ef76020830185612508565b612f046040830184612aec565b949350505050565b6000608082019050612f216000830186612b7f565b612f2e6020830185612aec565b612f3b6060830184612b7f565b949350505050565b600061020082019050612f59600083018d612b7f565b612f66602083018c612bca565b612f73604083018b612abd565b612f80608083018a612b1b565b612f8e610100830189612a8e565b612f9c610140830188612aec565b612faa6101808301876126b5565b612fb86101a083018661265b565b612fc66101c0830185612508565b612fd46101e0830184612688565b9b9a5050505050505050505050565b6000602082019050612ff86000830184612bac565b92915050565b60006020820190506130136000830184612bca565b92915050565b6000604051905081810181811067ffffffffffffffff821117156130405761303f61338b565b5b8060405250919050565b600067ffffffffffffffff8211156130655761306461338b565b5b602082029050602081019050919050565b600067ffffffffffffffff8211156130915761309061338b565b5b601f19601f8301169050602081019050919050565b6000819050602082019050919050565b600081519050919050565b600081519050919050565b6000602082019050919050565b600082825260208201905092915050565b600081905092915050565b600082825260208201905092915050565b600081905092915050565b600082825260208201905092915050565b600061312d82613186565b9050919050565b6000819050919050565b600061314982613122565b9050919050565b600061315b82613122565b9050919050565b600061316d82613122565b9050919050565b600061317f82613122565b9050919050565b600073ffffffffffffffffffffffffffffffffffffffff82169050919050565b6000819050919050565b600060ff82169050919050565b60006131c882613313565b9050919050565b60006131da826131e1565b9050919050565b60006131ec82613186565b9050919050565b60006131fe82613205565b9050919050565b600061321082613186565b9050919050565b600061322282613229565b9050919050565b600061323482613186565b9050919050565b60006132468261324d565b9050919050565b600061325882613186565b9050919050565b600061326a82613271565b9050919050565b600061327c82613186565b9050919050565b600061328e82613295565b9050919050565b60006132a082613186565b9050919050565b60006132b2826132b9565b9050919050565b60006132c482613186565b9050919050565b60006132d6826132dd565b9050919050565b60006132e882613186565b9050919050565b60006132fa82613301565b9050919050565b600061330c82613186565b9050919050565b600061331e82613325565b9050919050565b600061333082613186565b9050919050565b6000613342826131b0565b9050919050565b82818337600083830152505050565b60005b8381101561337657808201518184015260208101905061335b565b83811115613385576000848401525b50505050565bfe5b6000601f19601f8301169050919050565b6133a781613122565b81146133b257600080fd5b50565b6133be81613134565b81146133c957600080fd5b50565b6133d58161313e565b81146133e057600080fd5b50565b6133ec81613150565b81146133f757600080fd5b50565b61340381613162565b811461340e57600080fd5b50565b61341a81613174565b811461342557600080fd5b50565b613431816131a6565b811461343c57600080fd5b50565b613448816131b0565b811461345357600080fd5b5056fea264697066735822122010e56689a48a688de6807253b72a6e84548edea1ec36cc81ddc54afec54c320864736f6c6343000702003360e06040523480156200001157600080fd5b506040516200325438038062003254833981810160405260208110156200003757600080fd5b81019080805190602001909291905050508080600560006200005e6200095160201b60201c565b9050806000806101000a81548173ffffffffffffffffffffffffffffffffffffffff021916908373ffffffffffffffffffffffffffffffffffffffff1602179055508073ffffffffffffffffffffffffffffffffffffffff16600073ffffffffffffffffffffffffffffffffffffffff167f8be0079c531659141344cd1fd0a4f28419497f9722a3daafe3b4186f6b6457e060405160405180910390a3506000821162000157576040517f08c379a00000000000000000000000000000000000000000000000000000000081526004018080602001828103825260278152602001806200322d6027913960400191505060405180910390fd5b6020821115620001b3576040517f08c379a000000000000000000000000000000000000000000000000000000000815260040180806020018281038252602e815260200180620031d2602e913960400191505060405180910390fd5b6002811480620001c35750600581145b6200021a576040517f08c379a000000000000000000000000000000000000000000000000000000000815260040180806020018281038252602d81526020018062003200602d913960400191505060405180910390fd5b60028114600060146101000a81548160ff02191690831515021790555081608081815250508060a0818152505081810a60c081815250505050507f12817f4161f2f5ded33f26c55735a77e80e4f8975483c8c2704745128417f7116101726000602181106200028557fe5b01819055507f1c745b6722a9b9954b69b5a9050d7007d5ea7876a91f8b7606900fe4f3c27dd7610172600160218110620002bb57fe5b01819055507f07447748134d204ef2ab5036e2596ae75525a6e656c2518b7a479c0a582f1069610172600260218110620002f157fe5b01819055507f288f1cb6e72e7a6f0843345d3b5ba463d4d342e8dcedba8edf34f46ec397706f6101726003602181106200032757fe5b01819055507f2e84a4713bf4f66a79fa310f442c169114b19f85755cbd85caf4e9e75fbc75fb6101726004602181106200035d57fe5b01819055507f1c7ff9050a45b7ce5653fbbfd38e2919ae275da5e00f242957d8b241819195cd6101726005602181106200039357fe5b01819055507f0a25a1d78f420b1656e22f55400e07bab3d80c115532566a7007ca9a4586dab2610172600660218110620003c957fe5b01819055507f0f147d749cb9cc50ba3db2ac4cc9e6045d1bcafccb76eb3bd8f4d53019c4797e610172600760218110620003ff57fe5b01819055507f05cd01676fa9ec46d2544bd105729083b6af60e4fc14e56209cc4e38005760506101726008602181106200043557fe5b01819055507f11e6604fb2594cc2c139a2979c732bc3afd07c05333d892497673894aa3cf31c6101726009602181106200046b57fe5b01819055507f0902a68df274de8b1e013273d1b1a0b53f45239688149592fad1e1cfaf4d11de610172600a60218110620004a157fe5b01819055507f0e1109821e9745069f65894942ae9eaba5464a3d8700c6676fc3457c62ddd356610172600b60218110620004d757fe5b01819055507f23f4e23d57d2b986370eff740b59f633faed83877768e5bf0cdebf3242406419610172600c602181106200050d57fe5b01819055507f1ffdc33441e4ed70a9083afbccf0ad7f4b04a238399148ad0b264fc55501cd2c610172600d602181106200054357fe5b01819055507f0f94714ffb8eac6c789b5e87fa8730f831284191127778caa44735cd093a446c610172600e602181106200057957fe5b01819055507f11c2140af5215b7036baf194fc21379c3258196f2b538c1e14d7b4fe1e13c082610172600f60218110620005af57fe5b01819055507f10f574e6fe63aa64a74b8b3cb07be7bb25a690854adb44f6899c47155d678a79610172601060218110620005e557fe5b01819055507f1ee527f0b5144076313f736b2aa55fcd2136e56124c5655bb7df1cd61e3e3faa6101726011602181106200061b57fe5b01819055507f2523265fe50447a0c4b6bf88a371af94034ebb828a87f7e3009537395dfb32dc6101726012602181106200065157fe5b01819055507f1ed274e7d0facf51969d46f77b885abe581853f15d221677f91ff0ca3d796b986101726013602181106200068757fe5b01819055507f27e9744406711d6222b8e3156b872895f165b764e86c4c3369ae52a6025499f3610172601460218110620006bd57fe5b01819055507f23afbf7a5c7e390e86449e1e768bd8491343ca33b2285a7469ebc0253d62e3a4610172601560218110620006f357fe5b01819055507f07ad179e54b7163c74f261b4655bab5bc2734781d528e4b1135f82b06f3349b46101726016602181106200072957fe5b01819055507f13300bdf7d9200959145019010e4eb31e9e1db33aed6e87a48aad52c834509666101726017602181106200075f57fe5b01819055507f29b9b51eff3e1dd448419a0019ef8e7da0d569d0abcdf7782b466eecd9bad3776101726018602181106200079557fe5b01819055507f0e97d08c7d7d34dc3765f1ac6ec7a4cccc0ad34864d45e07234eeb2675599f76610172601960218110620007cb57fe5b01819055507f117d4aa74185dc55040c4e54e63062e1d32ec3cfc52e4c7a288b5cf14259e3d9610172601a602181106200080157fe5b01819055507f05e7ea8990bbb33252966e204bde1c42bc7166f57494904fc1a8620aea6361cd610172601b602181106200083757fe5b01819055507f03fa8d869c0e97b5d691a790e764ba717b25b9539fbdb6839b43f5d24bc71f73610172601c602181106200086d57fe5b01819055507f0a831e8a1a1e2a42177efcd3e926e5a4e4e2213f49f10d6c3c2e5e8564e44f74610172601d60218110620008a357fe5b01819055507f0ed3054277c164bc90d0a0018eae77e5872e1c048ebeae3c3ce1de6b3f7928a3610172601e60218110620008d957fe5b01819055507f16e5b9d3cbc783115527c0f2164ce6ede3547e18dd7f3bceaa8c52f91283e970610172601f602181106200090f57fe5b01819055507f120bc6a73a89314c7cc707c153dca8160f9ae17aa482c2fb13d2dd28940e66d66101726020602181106200094557fe5b01819055505062000959565b600033905090565b60805160a05160c0516127ed620009e5600039806109a352806116cc52806118d35280611b6a5280611c7c5250806107ec5280610cc05280610d875280610f3452806119ca5280611f9b528061208c528061210352806123945250806109db5280610a495280610c905280611a005280611ba05280611bf45280611f56528061229352506127ed6000f3fe608060405234801561001057600080fd5b506004361061012c5760003560e01c8063715018a6116100ad578063c15da65b11610071578063c15da65b14610707578063d9c55ce114610735578063dda89a6e1461073f578063e93fb4d41461075d578063f2fde38b1461079f5761012c565b8063715018a6146105af57806386d238d9146105b95780638da5cb5b14610685578063b6a64acd146106b9578063c00bdbcc146106d95761012c565b80633e1a8cc1116100f45780633e1a8cc1146102e15780634d4ef74d146102ff5780634e9e97fa146103cb57806358bfc379146104975780635bb93995146105635761012c565b80631b9b8aa7146101315780631e1016fe146101735780631ffc735d1461023f57806324a47aeb146102815780633bfa6fce146102c3575b600080fd5b61015d6004803603602081101561014757600080fd5b81019080803590602001909291905050506107e3565b6040518082815260200191505060405180910390f35b6102296004803603602081101561018957600080fd5b81019080803590602001906401000000008111156101a657600080fd5b8201836020820111156101b857600080fd5b803590602001918460208302840111640100000000831117156101da57600080fd5b919080806020026020016040519081016040528093929190818152602001838360200280828437600081840152601f19601f82011690508083019250505050505050919291929050505061087a565b6040518082815260200191505060405180910390f35b61026b6004803603602081101561025557600080fd5b810190808035906020019092919050505061094e565b6040518082815260200191505060405180910390f35b6102ad6004803603602081101561029757600080fd5b8101908080359060200190929190505050610aa2565b6040518082815260200191505060405180910390f35b6102cb610f1f565b6040518082815260200191505060405180910390f35b6102e9610f72565b6040518082815260200191505060405180910390f35b6103b56004803603602081101561031557600080fd5b810190808035906020019064010000000081111561033257600080fd5b82018360208201111561034457600080fd5b8035906020019184602083028401116401000000008311171561036657600080fd5b919080806020026020016040519081016040528093929190818152602001838360200280828437600081840152601f19601f820116905080830192505050505050509192919290505050610fe3565b6040518082815260200191505060405180910390f35b610481600480360360208110156103e157600080fd5b81019080803590602001906401000000008111156103fe57600080fd5b82018360208201111561041057600080fd5b8035906020019184602083028401116401000000008311171561043257600080fd5b919080806020026020016040519081016040528093929190818152602001838360200280828437600081840152601f19601f8201169050808301925050505050505091929192905050506110b7565b6040518082815260200191505060405180910390f35b61054d600480360360208110156104ad57600080fd5b81019080803590602001906401000000008111156104ca57600080fd5b8201836020820111156104dc57600080fd5b803590602001918460208302840111640100000000831117156104fe57600080fd5b919080806020026020016040519081016040528093929190818152602001838360200280828437600081840152601f19601f82011690508083019250505050505050919291929050505061118b565b6040518082815260200191505060405180910390f35b6105996004803603604081101561057957600080fd5b8101908080359060200190929190803590602001909291905050506112aa565b6040518082815260200191505060405180910390f35b6105b761133e565b005b61066f600480360360208110156105cf57600080fd5b81019080803590602001906401000000008111156105ec57600080fd5b8201836020820111156105fe57600080fd5b8035906020019184602083028401116401000000008311171561062057600080fd5b919080806020026020016040519081016040528093929190818152602001838360200280828437600081840152601f19601f8201169050808301925050505050505091929192905050506114c4565b6040518082815260200191505060405180910390f35b61068d611598565b604051808273ffffffffffffffffffffffffffffffffffffffff16815260200191505060405180910390f35b6106c16115c1565b60405180821515815260200191505060405180910390f35b610705600480360360208110156106ef57600080fd5b81019080803590602001909291905050506115d5565b005b6107336004803603602081101561071d57600080fd5b8101908080359060200190929190505050611721565b005b61073d611a9e565b005b610747611cca565b6040518082815260200191505060405180910390f35b6107896004803603602081101561077357600080fd5b8101908080359060200190929190505050611cd1565b6040518082815260200191505060405180910390f35b6107e1600480360360208110156107b557600080fd5b81019080803573ffffffffffffffffffffffffffffffffffffffff169060200190929190505050611d49565b005b600061017154827f00000000000000000000000000000000000000000000000000000000000000000a1015610863576040517f08c379a00000000000000000000000000000000000000000000000000000000081526004018080602001828103825260318152602001806127876031913960400191505060405180910390fd5b61014d826021811061087157fe5b01549050919050565b600073__$9b3049adcf18347c4fcd511e1429cbc37d$__63c4420fb4836040518263ffffffff1660e01b81526004018080602001828103825283818151815260200191508051906020019060200280838360005b838110156108e95780820151818401526020810190506108ce565b505050509050019250505060206040518083038186803b15801561090c57600080fd5b505af4158015610920573d6000803e3d6000fd5b505050506040513d602081101561093657600080fd5b81019080805190602001909291905050509050919050565b600080610171549050610962836000611f54565b600181016101718190555061014d600061097c91906125b5565b61016f60009055600061016e60006101000a81548160ff02191690831515021790555060007f000000000000000000000000000000000000000000000000000000000000000061017154816109cd57fe5b061415610a995760026000017f000000000000000000000000000000000000000000000000000000000000000060218110610a0457fe5b60040201600060048110610a1457fe5b015461014c600060015481526020019081526020016000208190555060016000815480929190600101919050555060026000017f000000000000000000000000000000000000000000000000000000000000000060218110610a7257fe5b60040201600060048110610a8257fe5b016000905560026084016000610a9891906125b5565b5b80915050919050565b6000610aac612044565b73ffffffffffffffffffffffffffffffffffffffff1660008054906101000a900473ffffffffffffffffffffffffffffffffffffffff1673ffffffffffffffffffffffffffffffffffffffff1614610b6c576040517f08c379a00000000000000000000000000000000000000000000000000000000081526004018080602001828103825260208152602001807f4f776e61626c653a2063616c6c6572206973206e6f7420746865206f776e657281525060200191505060405180910390fd5b60008211610bc5576040517f08c379a00000000000000000000000000000000000000000000000000000000081526004018080602001828103825260248152602001806127636024913960400191505060405180910390fd5b6001151561016e60009054906101000a900460ff16151514610c32576040517f08c379a00000000000000000000000000000000000000000000000000000000081526004018080602001828103825260388152602001806126b96038913960400191505060405180910390fd5b6020821115610c8c576040517f08c379a00000000000000000000000000000000000000000000000000000000081526004018080602001828103825260268152602001806126626026913960400191505060405180910390fd5b60007f000000000000000000000000000000000000000000000000000000000000000090505b600115610cf75761017154817f00000000000000000000000000000000000000000000000000000000000000000a10610cea57610cf7565b8080600101915050610cb2565b80831015610d50576040517f08c379a000000000000000000000000000000000000000000000000000000000815260040180806020018281038252602a815260200180612739602a913960400191505060405180910390fd5b80831415610d7b5761016f5461014d8460218110610d6a57fe5b018190555061016f54915050610f1a565b600061016f54905060607f000000000000000000000000000000000000000000000000000000000000000067ffffffffffffffff81118015610dbc57600080fd5b50604051908082528060200260200182016040528015610deb5781602001602082028036833780820191505090505b50905060008390505b85811015610efe576000610e078261204c565b9050600060149054906101000a900460ff1615610e62578383600081518110610e2c57fe5b6020026020010181815250508083600181518110610e4657fe5b602002602001018181525050610e5b83610fe3565b9350610ef0565b8383600081518110610e7057fe5b6020026020010181815250508083600181518110610e8a57fe5b6020026020010181815250508083600281518110610ea457fe5b6020026020010181815250508083600381518110610ebe57fe5b6020026020010181815250508083600481518110610ed857fe5b602002602001018181525050610eed836114c4565b93505b508080600101915050610df4565b508161014d8660218110610f0e57fe5b01819055508193505050505b919050565b600080600190505b600115610f6b57600154817f00000000000000000000000000000000000000000000000000000000000000000a10610f5e57610f6b565b8080600101915050610f27565b8091505090565b600061016e60009054906101000a900460ff16610fda576040517f08c379a00000000000000000000000000000000000000000000000000000000081526004018080602001828103825260278152602001806127126027913960400191505060405180910390fd5b61016f54905090565b600073__$d4acaf6f169a2634c49d403ce7efde36fd$__63c4420fb4836040518263ffffffff1660e01b81526004018080602001828103825283818151815260200191508051906020019060200280838360005b83811015611052578082015181840152602081019050611037565b505050509050019250505060206040518083038186803b15801561107557600080fd5b505af4158015611089573d6000803e3d6000fd5b505050506040513d602081101561109f57600080fd5b81019080805190602001909291905050509050919050565b600073__$584f44aaf914c42633951b34ceb432be31$__63c4420fb4836040518263ffffffff1660e01b81526004018080602001828103825283818151815260200191508051906020019060200280838360005b8381101561112657808201518184015260208101905061110b565b505050509050019250505060206040518083038186803b15801561114957600080fd5b505af415801561115d573d6000803e3d6000fd5b505050506040513d602081101561117357600080fd5b81019080805190602001909291905050509050919050565b60007f30644e72e131a029b85045b68181585d2833e84879b9709143e1f593f000000160028360405160200180828051906020019060200280838360005b838110156111e45780820151818401526020810190506111c9565b505050509050019150506040516020818303038152906040526040518082805190602001908083835b60208310611230578051825260208201915060208101905060208303925061120d565b6001836020036101000a038019825116818451168082178552505050505050905001915050602060405180830381855afa158015611272573d6000803e3d6000fd5b5050506040513d602081101561128757600080fd5b810190808051906020019092919050505060001c816112a257fe5b069050919050565b60006060600267ffffffffffffffff811180156112c657600080fd5b506040519080825280602002602001820160405280156112f55781602001602082028036833780820191505090505b509050838160008151811061130657fe5b602002602001018181525050828160018151811061132057fe5b60200260200101818152505061133581610fe3565b91505092915050565b611346612044565b73ffffffffffffffffffffffffffffffffffffffff1660008054906101000a900473ffffffffffffffffffffffffffffffffffffffff1673ffffffffffffffffffffffffffffffffffffffff1614611406576040517f08c379a00000000000000000000000000000000000000000000000000000000081526004018080602001828103825260208152602001807f4f776e61626c653a2063616c6c6572206973206e6f7420746865206f776e657281525060200191505060405180910390fd5b600073ffffffffffffffffffffffffffffffffffffffff1660008054906101000a900473ffffffffffffffffffffffffffffffffffffffff1673ffffffffffffffffffffffffffffffffffffffff167f8be0079c531659141344cd1fd0a4f28419497f9722a3daafe3b4186f6b6457e060405160405180910390a360008060006101000a81548173ffffffffffffffffffffffffffffffffffffffff021916908373ffffffffffffffffffffffffffffffffffffffff160217905550565b600073__$2a5b9c44d836f7997ae51e8d308a712a39$__63c4420fb4836040518263ffffffff1660e01b81526004018080602001828103825283818151815260200191508051906020019060200280838360005b83811015611533578082015181840152602081019050611518565b505050509050019250505060206040518083038186803b15801561155657600080fd5b505af415801561156a573d6000803e3d6000fd5b505050506040513d602081101561158057600080fd5b81019080805190602001909291905050509050919050565b60008060009054906101000a900473ffffffffffffffffffffffffffffffffffffffff16905090565b61016e60009054906101000a900460ff1681565b6115dd612044565b73ffffffffffffffffffffffffffffffffffffffff1660008054906101000a900473ffffffffffffffffffffffffffffffffffffffff1673ffffffffffffffffffffffffffffffffffffffff161461169d576040517f08c379a00000000000000000000000000000000000000000000000000000000081526004018080602001828103825260208152602001807f4f776e61626c653a2063616c6c6572206973206e6f7420746865206f776e657281525060200191505060405180910390fd5b8061014c60006001548152602001908152602001600020819055506001600081548092919060010191905055507f00000000000000000000000000000000000000000000000000000000000000006101716000828254019250508190555061016f60009055600061016e60006101000a81548160ff02191690831515021790555050565b611729612044565b73ffffffffffffffffffffffffffffffffffffffff1660008054906101000a900473ffffffffffffffffffffffffffffffffffffffff1673ffffffffffffffffffffffffffffffffffffffff16146117e9576040517f08c379a00000000000000000000000000000000000000000000000000000000081526004018080602001828103825260208152602001807f4f776e61626c653a2063616c6c6572206973206e6f7420746865206f776e657281525060200191505060405180910390fd5b6000151561016e60009054906101000a900460ff16151514611856576040517f08c379a00000000000000000000000000000000000000000000000000000000081526004018080602001828103825260218152602001806126f16021913960400191505060405180910390fd5b600061017154116118cf576040517f08c379a000000000000000000000000000000000000000000000000000000000815260040180806020018281038252601a8152602001807f41636351756575653a206e6f7468696e6720746f206d6572676500000000000081525060200191505060405180910390fd5b60007f000000000000000000000000000000000000000000000000000000000000000061017154816118fd57fe5b061461190c5761190b611a9e565b5b600180541415611948576119206000611cd1565b61016f81905550600161016e60006101000a81548160ff021916908315150217905550611a9b565b6000611952610f1f565b90506000806101705490505b6001548110156119c4576000841415801561197857508382145b1561198557505050611a9b565b61199c61199461017054611cd1565b600085612065565b610170600081548092919060010191905055508180600101925050808060010191505061195e565b506000827f00000000000000000000000000000000000000000000000000000000000000000a9050600154610170541415611a52576000611a247f000000000000000000000000000000000000000000000000000000000000000061204c565b9050600060015490505b82811015611a4f57611a4282600087612065565b8080600101915050611a2e565b50505b60a76000018360218110611a6257fe5b60040201600060048110611a7257fe5b015461016f81905550600161016e60006101000a81548160ff0219169083151502179055505050505b50565b611aa6612044565b73ffffffffffffffffffffffffffffffffffffffff1660008054906101000a900473ffffffffffffffffffffffffffffffffffffffff1673ffffffffffffffffffffffffffffffffffffffff1614611b66576040517f08c379a00000000000000000000000000000000000000000000000000000000081526004018080602001828103825260208152602001807f4f776e61626c653a2063616c6c6572206973206e6f7420746865206f776e657281525060200191505060405180910390fd5b60007f00000000000000000000000000000000000000000000000000000000000000006101715481611b9457fe5b061415611be357611bc47f000000000000000000000000000000000000000000000000000000000000000061204c565b61014c6000600154815260200190815260200160002081905550611c6a565b611bed6000612291565b60026000017f000000000000000000000000000000000000000000000000000000000000000060218110611c1d57fe5b60040201600060048110611c2d57fe5b015461014c600060015481526020019081526020016000208190555060026000016000611c5a91906125c8565b61014d6000611c6991906125b5565b5b600060018054019050806001819055507f000000000000000000000000000000000000000000000000000000000000000081026101718190555061016f60009055600061016e60006101000a81548160ff02191690831515021790555050565b6101715481565b60008160015411611d2d576040517f08c379a00000000000000000000000000000000000000000000000000000000081526004018080602001828103825260318152602001806126886031913960400191505060405180910390fd5b61014c6000838152602001908152602001600020549050919050565b611d51612044565b73ffffffffffffffffffffffffffffffffffffffff1660008054906101000a900473ffffffffffffffffffffffffffffffffffffffff1673ffffffffffffffffffffffffffffffffffffffff1614611e11576040517f08c379a00000000000000000000000000000000000000000000000000000000081526004018080602001828103825260208152602001807f4f776e61626c653a2063616c6c6572206973206e6f7420746865206f776e657281525060200191505060405180910390fd5b600073ffffffffffffffffffffffffffffffffffffffff168173ffffffffffffffffffffffffffffffffffffffff161415611e97576040517f08c379a000000000000000000000000000000000000000000000000000000000815260040180806020018281038252602681526020018061263c6026913960400191505060405180910390fd5b8073ffffffffffffffffffffffffffffffffffffffff1660008054906101000a900473ffffffffffffffffffffffffffffffffffffffff1673ffffffffffffffffffffffffffffffffffffffff167f8be0079c531659141344cd1fd0a4f28419497f9722a3daafe3b4186f6b6457e060405160405180910390a3806000806101000a81548173ffffffffffffffffffffffffffffffffffffffff021916908373ffffffffffffffffffffffffffffffffffffffff16021790555050565b7f0000000000000000000000000000000000000000000000000000000000000000811115611f8157612040565b600060026084018260218110611f9357fe5b0154905060017f000000000000000000000000000000000000000000000000000000000000000003811461200c578260026000018360218110611fd257fe5b600402018260048110611fe157fe5b018190555060026084018260218110611ff657fe5b016000815480929190600101919050555061203e565b60006120188385612429565b90506002608401836021811061202a57fe5b016000905561203c8160018501611f54565b505b505b5050565b600033905090565b6000610172826021811061205c57fe5b01549050919050565b808211156120725761228c565b600060a7608401836021811061208457fe5b0154905060017f00000000000000000000000000000000000000000000000000000000000000000381146120fd578360a760000184602181106120c357fe5b6004020182600481106120d257fe5b018190555060a760840183602181106120e757fe5b016000815480929190600101919050555061228a565b600060607f000000000000000000000000000000000000000000000000000000000000000067ffffffffffffffff8111801561213857600080fd5b506040519080825280602002602001820160405280156121675781602001602082028036833780820191505090505b509050600060149054906101000a900460ff16156121e45760a7600001856021811061218f57fe5b6004020160006004811061219f57fe5b0154816000815181106121ae57fe5b60200260200101818152505085816001815181106121c857fe5b6020026020010181815250506121dd81610fe3565b9150612264565b60005b838160ff16101561223e5760a7600001866021811061220257fe5b600402018160ff166004811061221457fe5b0154828260ff168151811061222557fe5b60200260200101818152505080806001019150506121e7565b508581848151811061224c57fe5b602002602001018181525050612261816114c4565b91505b60a7608401856021811061227457fe5b0160009055612287826001870186612065565b50505b505b505050565b7f00000000000000000000000000000000000000000000000000000000000000008111156122be57612426565b6000600260840182602181106122d057fe5b01549050600081146124185760006060600567ffffffffffffffff811180156122f857600080fd5b506040519080825280602002602001820160405280156123275781602001602082028036833780820191505090505b50905060006123358561204c565b905060005b848160ff161015612391576002600001866021811061235557fe5b600402018160ff166004811061236757fe5b0154838260ff168151811061237857fe5b602002602001018181525050808060010191505061233a565b5b7f00000000000000000000000000000000000000000000000000000000000000008160ff1610156123e65781838260ff16815181106123cd57fe5b6020026020010181815250508080600101915050612392565b6123ef836114c4565b93506123fe8460018801611f54565b6002608401866021811061240e57fe5b0160009055505050505b61242460018301612291565b505b50565b60006060600567ffffffffffffffff8111801561244557600080fd5b506040519080825280602002602001820160405280156124745781602001602082028036833780820191505090505b5090506002600001846021811061248757fe5b6004020160006004811061249757fe5b0154816000815181106124a657fe5b602002602001018181525050600260000184602181106124c257fe5b600402016001600481106124d257fe5b0154816001815181106124e157fe5b602002602001018181525050600260000184602181106124fd57fe5b6004020160026004811061250d57fe5b01548160028151811061251c57fe5b6020026020010181815250506002600001846021811061253857fe5b6004020160036004811061254857fe5b01548160038151811061255757fe5b602002602001018181525050828160048151811061257157fe5b6020026020010181815250506000612588826114c4565b90506002600001856021811061259a57fe5b6004020160006125aa91906125de565b809250505092915050565b5080602101906125c591906125fa565b50565b5080602160040201906125db9190612617565b50565b5060008155600101600081556001016000815560010160009055565b5b808211156126135760008160009055506001016125fb565b5090565b5b80821115612637576000818161262e91906125de565b50600401612618565b509056fe4f776e61626c653a206e6577206f776e657220697320746865207a65726f206164647265737341636351756575653a205f6465707468206d757374206265206c7465204d41585f444550544841636351756575653a205f696e646578206d75737420726566657220746f206120636f6d706c657465207375627472656541636351756575653a207375627472656573206d757374206265206d6572676564206265666f72652063616c6c696e67206d65726765282941636351756575653a20737562747265657320616c7265616479206d657267656441636351756575653a207375627472656573206d757374206265206d657267656420666972737441636351756575653a205f6465707468206d75737420626520677465207468652053525420646570746841636351756575653a205f6465707468206d757374206265206d6f7265207468616e203041636351756575653a206765744d61696e526f6f743a205f6465707468206d757374206265206869676820656e6f756768a26469706673582212203859b2a0e74162b2bfe7f11ec5c2a631846e3745cc852f5d204cbc58beec804664736f6c6343000702003341636351756575653a206f6e6c7920737570706f72747320757020746f204d41585f4445505448206c6576656c7341636351756575653a206f6e6c7920737570706f727473205f686173684c656e677468206f662032206f72203541636351756575653a205f7375624465707468206d757374206265206d6f7265207468616e2030",
  "linkReferences": {
    "contracts/crypto/Hasher.sol": {
      "PoseidonT3": [
        {
          "length": 20,
          "start": 4023
        },
        {
          "length": 20,
          "start": 21135
        }
      ],
      "PoseidonT4": [
        {
          "length": 20,
          "start": 2702
        },
        {
          "length": 20,
          "start": 19238
        }
      ],
      "PoseidonT5": [
        {
          "length": 20,
          "start": 4167
        },
        {
          "length": 20,
          "start": 21347
        }
      ],
      "PoseidonT6": [
        {
          "length": 20,
          "start": 5212
        },
        {
          "length": 20,
          "start": 22384
        }
      ]
    }
  },
  "deployedLinkReferences": {
    "contracts/crypto/Hasher.sol": {
      "PoseidonT3": [
        {
          "length": 20,
          "start": 2944
        }
      ],
      "PoseidonT4": [
        {
          "length": 20,
          "start": 1623
        }
      ],
      "PoseidonT5": [
        {
          "length": 20,
          "start": 3088
        }
      ],
      "PoseidonT6": [
        {
          "length": 20,
          "start": 4133
        }
      ]
    }
  }
}