{
  "_format": "hh-sol-artifact-1",
  "contractName": "AccQueueBinary0",
  "sourceName": "contracts/trees/AccQueue.sol",
  "abi": [
    {
      "inputs": [
        {
          "internalType": "uint256",
          "name": "_subDepth",
          "type": "uint256"
        }
      ],
      "stateMutability": "nonpayable",
      "type": "constructor"
    },
    {
      "anonymous": false,
      "inputs": [
        {
          "indexed": true,
          "internalType": "address",
          "name": "previousOwner",
          "type": "address"
        },
        {
          "indexed": true,
          "internalType": "address",
          "name": "newOwner",
          "type": "address"
        }
      ],
      "name": "OwnershipTransferred",
      "type": "event"
    },
    {
      "inputs": [],
      "name": "calcMinHeight",
      "outputs": [
        {
          "internalType": "uint256",
          "name": "",
          "type": "uint256"
        }
      ],
      "stateMutability": "view",
      "type": "function"
    },
    {
      "inputs": [
        {
          "internalType": "uint256",
          "name": "_leaf",
          "type": "uint256"
        }
      ],
      "name": "enqueue",
      "outputs": [
        {
          "internalType": "uint256",
          "name": "",
          "type": "uint256"
        }
      ],
      "stateMutability": "nonpayable",
      "type": "function"
    },
    {
      "inputs": [],
      "name": "fill",
      "outputs": [],
      "stateMutability": "nonpayable",
      "type": "function"
    },
    {
      "inputs": [
        {
          "internalType": "uint256",
          "name": "_depth",
          "type": "uint256"
        }
      ],
      "name": "getMainRoot",
      "outputs": [
        {
          "internalType": "uint256",
          "name": "",
          "type": "uint256"
        }
      ],
      "stateMutability": "view",
      "type": "function"
    },
    {
      "inputs": [],
      "name": "getSmallSRTroot",
      "outputs": [
        {
          "internalType": "uint256",
          "name": "",
          "type": "uint256"
        }
      ],
      "stateMutability": "view",
      "type": "function"
    },
    {
      "inputs": [],
      "name": "getSrIndices",
      "outputs": [
        {
          "internalType": "uint256",
          "name": "",
          "type": "uint256"
        },
        {
          "internalType": "uint256",
          "name": "",
          "type": "uint256"
        }
      ],
      "stateMutability": "view",
      "type": "function"
    },
    {
      "inputs": [
        {
          "internalType": "uint256",
          "name": "_index",
          "type": "uint256"
        }
      ],
      "name": "getSubRoot",
      "outputs": [
        {
          "internalType": "uint256",
          "name": "",
          "type": "uint256"
        }
      ],
      "stateMutability": "view",
      "type": "function"
    },
    {
      "inputs": [
        {
          "internalType": "uint256[2]",
          "name": "array",
          "type": "uint256[2]"
        }
      ],
      "name": "hash2",
      "outputs": [
        {
          "internalType": "uint256",
          "name": "",
          "type": "uint256"
        }
      ],
      "stateMutability": "pure",
      "type": "function"
    },
    {
      "inputs": [
        {
          "internalType": "uint256[3]",
          "name": "array",
          "type": "uint256[3]"
        }
      ],
      "name": "hash3",
      "outputs": [
        {
          "internalType": "uint256",
          "name": "",
          "type": "uint256"
        }
      ],
      "stateMutability": "pure",
      "type": "function"
    },
    {
      "inputs": [
        {
          "internalType": "uint256[4]",
          "name": "array",
          "type": "uint256[4]"
        }
      ],
      "name": "hash4",
      "outputs": [
        {
          "internalType": "uint256",
          "name": "",
          "type": "uint256"
        }
      ],
      "stateMutability": "pure",
      "type": "function"
    },
    {
      "inputs": [
        {
          "internalType": "uint256[5]",
          "name": "array",
          "type": "uint256[5]"
        }
      ],
      "name": "hash5",
      "outputs": [
        {
          "internalType": "uint256",
          "name": "",
          "type": "uint256"
        }
      ],
      "stateMutability": "pure",
      "type": "function"
    },
    {
      "inputs": [
        {
          "internalType": "uint256",
          "name": "_left",
          "type": "uint256"
        },
        {
          "internalType": "uint256",
          "name": "_right",
          "type": "uint256"
        }
      ],
      "name": "hashLeftRight",
      "outputs": [
        {
          "internalType": "uint256",
          "name": "",
          "type": "uint256"
        }
      ],
      "stateMutability": "pure",
      "type": "function"
    },
    {
      "inputs": [
        {
          "internalType": "uint256",
          "name": "_subRoot",
          "type": "uint256"
        }
      ],
      "name": "insertSubTree",
      "outputs": [],
      "stateMutability": "nonpayable",
      "type": "function"
    },
    {
      "inputs": [
        {
          "internalType": "uint256",
          "name": "_depth",
          "type": "uint256"
        }
      ],
      "name": "merge",
      "outputs": [
        {
          "internalType": "uint256",
          "name": "",
          "type": "uint256"
        }
      ],
      "stateMutability": "nonpayable",
      "type": "function"
    },
    {
      "inputs": [
        {
          "internalType": "uint256",
          "name": "_numSrQueueOps",
          "type": "uint256"
        }
      ],
      "name": "mergeSubRoots",
      "outputs": [],
      "stateMutability": "nonpayable",
      "type": "function"
    },
    {
      "inputs": [],
      "name": "numLeaves",
      "outputs": [
        {
          "internalType": "uint256",
          "name": "",
          "type": "uint256"
        }
      ],
      "stateMutability": "view",
      "type": "function"
    },
    {
      "inputs": [],
      "name": "owner",
      "outputs": [
        {
          "internalType": "address",
          "name": "",
          "type": "address"
        }
      ],
      "stateMutability": "view",
      "type": "function"
    },
    {
      "inputs": [],
      "name": "renounceOwnership",
      "outputs": [],
      "stateMutability": "nonpayable",
      "type": "function"
    },
    {
      "inputs": [
        {
          "internalType": "uint256[]",
          "name": "array",
          "type": "uint256[]"
        }
      ],
      "name": "sha256Hash",
      "outputs": [
        {
          "internalType": "uint256",
          "name": "",
          "type": "uint256"
        }
      ],
      "stateMutability": "pure",
      "type": "function"
    },
    {
      "inputs": [],
      "name": "subTreesMerged",
      "outputs": [
        {
          "internalType": "bool",
          "name": "",
          "type": "bool"
        }
      ],
      "stateMutability": "view",
      "type": "function"
    },
    {
      "inputs": [
        {
          "internalType": "address",
          "name": "newOwner",
          "type": "address"
        }
      ],
      "name": "transferOwnership",
      "outputs": [],
      "stateMutability": "nonpayable",
      "type": "function"
    }
  ],
  "bytecode": "0x60e06040523480156200001157600080fd5b5060405162002ebb38038062002ebb833981810160405260208110156200003757600080fd5b81019080805190602001909291905050508080600260006200005e6200093260201b60201c565b9050806000806101000a81548173ffffffffffffffffffffffffffffffffffffffff021916908373ffffffffffffffffffffffffffffffffffffffff1602179055508073ffffffffffffffffffffffffffffffffffffffff16600073ffffffffffffffffffffffffffffffffffffffff167f8be0079c531659141344cd1fd0a4f28419497f9722a3daafe3b4186f6b6457e060405160405180910390a3506000821162000157576040517f08c379a000000000000000000000000000000000000000000000000000000000815260040180806020018281038252602781526020018062002e946027913960400191505060405180910390fd5b6020821115620001b3576040517f08c379a000000000000000000000000000000000000000000000000000000000815260040180806020018281038252602e81526020018062002e39602e913960400191505060405180910390fd5b6002811480620001c35750600581145b6200021a576040517f08c379a000000000000000000000000000000000000000000000000000000000815260040180806020018281038252602d81526020018062002e67602d913960400191505060405180910390fd5b60028114600060146101000a81548160ff02191690831515021790555081608081815250508060a0818152505081810a60c0818152505050505060006101726000602181106200026657fe5b01819055507f2098f5fb9e239eab3ceac3f27b81e481dc3124d55ffed523a839ee8446b648646101726001602181106200029c57fe5b01819055507f1069673dcdb12263df301a6ff584a7ec261a44cb9dc68df067a4774460b1f1e1610172600260218110620002d257fe5b01819055507f18f43331537ee2af2e3d758d50f72106467c6eea50371dd528d57eb2b856d2386101726003602181106200030857fe5b01819055507f07f9d837cb17b0d36320ffe93ba52345f1b728571a568265caac97559dbc952a6101726004602181106200033e57fe5b01819055507f2b94cf5e8746b3f5c9631f4c5df32907a699c58c94b2ad4d7b5cec1639183f556101726005602181106200037457fe5b01819055507f2dee93c5a666459646ea7d22cca9e1bcfed71e6951b953611d11dda32ea09d78610172600660218110620003aa57fe5b01819055507f078295e5a22b84e982cf601eb639597b8b0515a88cb5ac7fa8a4aabe3c87349d610172600760218110620003e057fe5b01819055507f2fa5e5f18f6027a6501bec864564472a616b2e274a41211a444cbe3a99f3cc616101726008602181106200041657fe5b01819055507f0e884376d0d8fd21ecb780389e941f66e45e7acce3e228ab3e2156a614fcd7476101726009602181106200044c57fe5b01819055507f1b7201da72494f1e28717ad1a52eb469f95892f957713533de6175e5da190af2610172600a602181106200048257fe5b01819055507f1f8d8822725e36385200c0b201249819a6e6e1e4650808b5bebc6bface7d7636610172600b60218110620004b857fe5b01819055507f2c5d82f66c914bafb9701589ba8cfcfb6162b0a12acf88a8d0879a0471b5f85a610172600c60218110620004ee57fe5b01819055507f14c54148a0940bb820957f5adf3fa1134ef5c4aaa113f4646458f270e0bfbfd0610172600d602181106200052457fe5b01819055507f190d33b12f986f961e10c0ee44d8b9af11be25588cad89d416118e4bf4ebe80c610172600e602181106200055a57fe5b01819055507f22f98aa9ce704152ac17354914ad73ed1167ae6596af510aa5b3649325e06c92610172600f602181106200059057fe5b01819055507f2a7c7c9b6ce5880b9f6f228d72bf6a575a526f29c66ecceef8b753d38bba7323610172601060218110620005c657fe5b01819055507f2e8186e558698ec1c67af9c14d463ffc470043c9c2988b954d75dd643f36b992610172601160218110620005fc57fe5b01819055507f0f57c5571e9a4eab49e2c8cf050dae948aef6ead647392273546249d1c1ff10f6101726012602181106200063257fe5b01819055507f1830ee67b5fb554ad5f63d4388800e1cfe78e310697d46e43c9ce36134f72cca6101726013602181106200066857fe5b01819055507f2134e76ac5d21aab186c2be1dd8f84ee880a1e46eaf712f9d371b6df22191f3e6101726014602181106200069e57fe5b01819055507f19df90ec844ebc4ffeebd866f33859b0c051d8c958ee3aa88f8f8df3db91a5b1610172601560218110620006d457fe5b01819055507f18cca2a66b5c0787981e69aefd84852d74af0e93ef4912b4648c05f722efe52b6101726016602181106200070a57fe5b01819055507f2388909415230d1b4d1304d2d54f473a628338f2efad83fadf05644549d2538d6101726017602181106200074057fe5b01819055507f27171fb4a97b6cc0e9e8f543b5294de866a2af2c9c8d0b1d96e673e4529ed5406101726018602181106200077657fe5b01819055507f2ff6650540f629fd5711a0bc74fc0d28dcb230b9392583e5f8d59696dde6ae21610172601960218110620007ac57fe5b01819055507f120c58f143d491e95902f7f5277778a2e0ad5168f6add75669932630ce611518610172601a60218110620007e257fe5b01819055507f1f21feb70d3f21b07bf853d5e5db03071ec495a0a565a21da2d665d279483795610172601b602181106200081857fe5b01819055507f24be905fa71335e14c638cc0f66a8623a826e768068a9e968bb1a1dde18a72d2610172601c602181106200084e57fe5b01819055507f0f8666b62ed17491c50ceadead57d4cd597ef3821d65c328744c74e553dac26d610172601d602181106200088457fe5b01819055507f0918d46bf52d98b034413f4a1a1c41594e7a7a3f6ae08cb43d1a2a230e1959ef610172601e60218110620008ba57fe5b01819055507f1bbeb01b4c479ecde76917645e404dfa2e26f90d0afc5a65128513ad375c5ff2610172601f60218110620008f057fe5b01819055507f2f68a1c58e257e42a17a6c61dff5551ed560b9922ab119d5ac8e184c9734ead96101726020602181106200092657fe5b0181905550506200093a565b600033905090565b60805160a05160c05161247d620009bc60003980610863528061150a52806116f852806119765280611a885250806106d05280610b675280610d6c52806117ef5280611e075280611f1552508061089b52806109095280610b37528061182552806119ac5280611a005280611d515280611e5452806120b6525061247d6000f3fe608060405234801561001057600080fd5b50600436106101375760003560e01c806381d6a24a116100b8578063c00bdbcc1161007c578063c00bdbcc146105bd578063c15da65b146105eb578063d9c55ce114610619578063dda89a6e14610623578063e93fb4d414610641578063f2fde38b1461068357610137565b806381d6a24a146104525780638da5cb5b146104775780639cfced97146104ab578063b6a64acd14610524578063bea140b31461054457610137565b80633e1a8cc1116100ff5780633e1a8cc11461029957806358bfc379146102b75780635bb939951461038357806362a361bb146103cf578063715018a61461044857610137565b80631b9b8aa71461013c5780631ffc735d1461017e57806324a47aeb146101c05780633bfa6fce146102025780633dfb88b214610220575b600080fd5b6101686004803603602081101561015257600080fd5b81019080803590602001909291905050506106c7565b6040518082815260200191505060405180910390f35b6101aa6004803603602081101561019457600080fd5b810190808035906020019092919050505061075e565b6040518082815260200191505060405180910390f35b6101ec600480360360208110156101d657600080fd5b8101908080359060200190929190505050610962565b6040518082815260200191505060405180910390f35b61020a610d57565b6040518082815260200191505060405180910390f35b6102836004803603608081101561023657600080fd5b8101908080608001906004806020026040519081016040528092919082600460200280828437600081840152601f19601f8201169050808301925050505050509192919290505050610daa565b6040518082815260200191505060405180910390f35b6102a1610e65565b6040518082815260200191505060405180910390f35b61036d600480360360208110156102cd57600080fd5b81019080803590602001906401000000008111156102ea57600080fd5b8201836020820111156102fc57600080fd5b8035906020019184602083028401116401000000008311171561031e57600080fd5b919080806020026020016040519081016040528093929190818152602001838360200280828437600081840152601f19601f820116905080830192505050505050509192919290505050610ed6565b6040518082815260200191505060405180910390f35b6103b96004803603604081101561039957600080fd5b810190808035906020019092919080359060200190929190505050610ff5565b6040518082815260200191505060405180910390f35b610432600480360360408110156103e557600080fd5b8101908080604001906002806020026040519081016040528092919082600260200280828437600081840152601f19601f820116905080830192505050505050919291929050505061103f565b6040518082815260200191505060405180910390f35b6104506110fa565b005b61045a611267565b604051808381526020018281526020019250505060405180910390f35b61047f611279565b604051808273ffffffffffffffffffffffffffffffffffffffff16815260200191505060405180910390f35b61050e600480360360a08110156104c157600080fd5b810190808060a001906005806020026040519081016040528092919082600560200280828437600081840152601f19601f82011690508083019250505050505091929192905050506112a2565b6040518082815260200191505060405180910390f35b61052c61135d565b60405180821515815260200191505060405180910390f35b6105a76004803603606081101561055a57600080fd5b8101908080606001906003806020026040519081016040528092919082600360200280828437600081840152601f19601f8201169050808301925050505050509192919290505050611371565b6040518082815260200191505060405180910390f35b6105e9600480360360208110156105d357600080fd5b810190808035906020019092919050505061142c565b005b6106176004803603602081101561060157600080fd5b810190808035906020019092919050505061155f565b005b6106216118c3565b005b61062b611ad6565b6040518082815260200191505060405180910390f35b61066d6004803603602081101561065757600080fd5b8101908080359060200190929190505050611add565b6040518082815260200191505060405180910390f35b6106c56004803603602081101561069957600080fd5b81019080803573ffffffffffffffffffffffffffffffffffffffff169060200190929190505050611b55565b005b600061017154827f00000000000000000000000000000000000000000000000000000000000000000a1015610747576040517f08c379a00000000000000000000000000000000000000000000000000000000081526004018080602001828103825260318152602001806124176031913960400191505060405180910390fd5b61014d826021811061075557fe5b01549050919050565b6000610768611d47565b73ffffffffffffffffffffffffffffffffffffffff16610786611279565b73ffffffffffffffffffffffffffffffffffffffff161461080f576040517f08c379a00000000000000000000000000000000000000000000000000000000081526004018080602001828103825260208152602001807f4f776e61626c653a2063616c6c6572206973206e6f7420746865206f776e657281525060200191505060405180910390fd5b6000610171549050610822836000611d4f565b600181016101718190555061014d600061083c9190612201565b61016f60009055600061016e60006101000a81548160ff02191690831515021790555060007f0000000000000000000000000000000000000000000000000000000000000000610171548161088d57fe5b0614156109595760026000017f0000000000000000000000000000000000000000000000000000000000000000602181106108c457fe5b600402016000600481106108d457fe5b015461014c600060015481526020019081526020016000208190555060016000815480929190600101919050555060026000017f00000000000000000000000000000000000000000000000000000000000000006021811061093257fe5b6004020160006004811061094257fe5b0160009055600260840160006109589190612201565b5b80915050919050565b600061096c611d47565b73ffffffffffffffffffffffffffffffffffffffff1661098a611279565b73ffffffffffffffffffffffffffffffffffffffff1614610a13576040517f08c379a00000000000000000000000000000000000000000000000000000000081526004018080602001828103825260208152602001807f4f776e61626c653a2063616c6c6572206973206e6f7420746865206f776e657281525060200191505060405180910390fd5b60008211610a6c576040517f08c379a00000000000000000000000000000000000000000000000000000000081526004018080602001828103825260248152602001806123f36024913960400191505060405180910390fd5b6001151561016e60009054906101000a900460ff16151514610ad9576040517f08c379a00000000000000000000000000000000000000000000000000000000081526004018080602001828103825260388152602001806123496038913960400191505060405180910390fd5b6020821115610b33576040517f08c379a00000000000000000000000000000000000000000000000000000000081526004018080602001828103825260268152602001806122f26026913960400191505060405180910390fd5b60007f000000000000000000000000000000000000000000000000000000000000000090505b600115610b9e5761017154817f00000000000000000000000000000000000000000000000000000000000000000a10610b9157610b9e565b8080600101915050610b59565b80831015610bf7576040517f08c379a000000000000000000000000000000000000000000000000000000000815260040180806020018281038252602a8152602001806123c9602a913960400191505060405180910390fd5b80831415610c225761016f5461014d8460218110610c1157fe5b018190555061016f54915050610d52565b600061016f54905060008290505b84811015610d37576000610c4382611ed5565b9050600060149054906101000a900460ff1615610ca157610c62612214565b8381600060028110610c7057fe5b6020020181815250508181600160028110610c8757fe5b602002018181525050610c998161103f565b935050610d29565b610ca9612236565b8381600060058110610cb757fe5b6020020181815250508181600160058110610cce57fe5b6020020181815250508181600260058110610ce557fe5b6020020181815250508181600360058110610cfc57fe5b6020020181815250508181600460058110610d1357fe5b602002018181525050610d25816112a2565b9350505b508080600101915050610c30565b508061014d8560218110610d4757fe5b018190555080925050505b919050565b600080600190505b600115610da357600154817f00000000000000000000000000000000000000000000000000000000000000000a10610d9657610da3565b8080600101915050610d5f565b8091505090565b600073__$584f44aaf914c42633951b34ceb432be31$__63248f6677836040518263ffffffff1660e01b81526004018082600460200280838360005b83811015610e01578082015181840152602081019050610de6565b5050505090500191505060206040518083038186803b158015610e2357600080fd5b505af4158015610e37573d6000803e3d6000fd5b505050506040513d6020811015610e4d57600080fd5b81019080805190602001909291905050509050919050565b600061016e60009054906101000a900460ff16610ecd576040517f08c379a00000000000000000000000000000000000000000000000000000000081526004018080602001828103825260278152602001806123a26027913960400191505060405180910390fd5b61016f54905090565b60007f30644e72e131a029b85045b68181585d2833e84879b9709143e1f593f000000160028360405160200180828051906020019060200280838360005b83811015610f2f578082015181840152602081019050610f14565b505050509050019150506040516020818303038152906040526040518082805190602001908083835b60208310610f7b5780518252602082019150602081019050602083039250610f58565b6001836020036101000a038019825116818451168082178552505050505050905001915050602060405180830381855afa158015610fbd573d6000803e3d6000fd5b5050506040513d6020811015610fd257600080fd5b810190808051906020019092919050505060001c81610fed57fe5b069050919050565b6000610fff612214565b838160006002811061100d57fe5b602002018181525050828160016002811061102457fe5b6020020181815250506110368161103f565b91505092915050565b600073__$d4acaf6f169a2634c49d403ce7efde36fd$__6329a5f2f6836040518263ffffffff1660e01b81526004018082600260200280838360005b8381101561109657808201518184015260208101905061107b565b5050505090500191505060206040518083038186803b1580156110b857600080fd5b505af41580156110cc573d6000803e3d6000fd5b505050506040513d60208110156110e257600080fd5b81019080805190602001909291905050509050919050565b611102611d47565b73ffffffffffffffffffffffffffffffffffffffff16611120611279565b73ffffffffffffffffffffffffffffffffffffffff16146111a9576040517f08c379a00000000000000000000000000000000000000000000000000000000081526004018080602001828103825260208152602001807f4f776e61626c653a2063616c6c6572206973206e6f7420746865206f776e657281525060200191505060405180910390fd5b600073ffffffffffffffffffffffffffffffffffffffff1660008054906101000a900473ffffffffffffffffffffffffffffffffffffffff1673ffffffffffffffffffffffffffffffffffffffff167f8be0079c531659141344cd1fd0a4f28419497f9722a3daafe3b4186f6b6457e060405160405180910390a360008060006101000a81548173ffffffffffffffffffffffffffffffffffffffff021916908373ffffffffffffffffffffffffffffffffffffffff160217905550565b60008061017054600154915091509091565b60008060009054906101000a900473ffffffffffffffffffffffffffffffffffffffff16905090565b600073__$2a5b9c44d836f7997ae51e8d308a712a39$__634937a258836040518263ffffffff1660e01b81526004018082600560200280838360005b838110156112f95780820151818401526020810190506112de565b5050505090500191505060206040518083038186803b15801561131b57600080fd5b505af415801561132f573d6000803e3d6000fd5b505050506040513d602081101561134557600080fd5b81019080805190602001909291905050509050919050565b61016e60009054906101000a900460ff1681565b600073__$9b3049adcf18347c4fcd511e1429cbc37d$__6325cc70e8836040518263ffffffff1660e01b81526004018082600360200280838360005b838110156113c85780820151818401526020810190506113ad565b5050505090500191505060206040518083038186803b1580156113ea57600080fd5b505af41580156113fe573d6000803e3d6000fd5b505050506040513d602081101561141457600080fd5b81019080805190602001909291905050509050919050565b611434611d47565b73ffffffffffffffffffffffffffffffffffffffff16611452611279565b73ffffffffffffffffffffffffffffffffffffffff16146114db576040517f08c379a00000000000000000000000000000000000000000000000000000000081526004018080602001828103825260208152602001807f4f776e61626c653a2063616c6c6572206973206e6f7420746865206f776e657281525060200191505060405180910390fd5b8061014c60006001548152602001908152602001600020819055506001600081548092919060010191905055507f00000000000000000000000000000000000000000000000000000000000000006101716000828254019250508190555061016f60009055600061016e60006101000a81548160ff02191690831515021790555050565b611567611d47565b73ffffffffffffffffffffffffffffffffffffffff16611585611279565b73ffffffffffffffffffffffffffffffffffffffff161461160e576040517f08c379a00000000000000000000000000000000000000000000000000000000081526004018080602001828103825260208152602001807f4f776e61626c653a2063616c6c6572206973206e6f7420746865206f776e657281525060200191505060405180910390fd5b6000151561016e60009054906101000a900460ff1615151461167b576040517f08c379a00000000000000000000000000000000000000000000000000000000081526004018080602001828103825260218152602001806123816021913960400191505060405180910390fd5b600061017154116116f4576040517f08c379a000000000000000000000000000000000000000000000000000000000815260040180806020018281038252601a8152602001807f41636351756575653a206e6f7468696e6720746f206d6572676500000000000081525060200191505060405180910390fd5b60007f0000000000000000000000000000000000000000000000000000000000000000610171548161172257fe5b0614611731576117306118c3565b5b60018054141561176d576117456000611add565b61016f81905550600161016e60006101000a81548160ff0219169083151502179055506118c0565b6000611777610d57565b90506000806101705490505b6001548110156117e9576000841415801561179d57508382145b156117aa575050506118c0565b6117c16117b961017054611add565b600085611eee565b6101706000815480929190600101919050555081806001019250508080600101915050611783565b506000827f00000000000000000000000000000000000000000000000000000000000000000a90506001546101705414156118775760006118497f0000000000000000000000000000000000000000000000000000000000000000611ed5565b9050600060015490505b828110156118745761186782600087611eee565b8080600101915050611853565b50505b60a7600001836021811061188757fe5b6004020160006004811061189757fe5b015461016f81905550600161016e60006101000a81548160ff0219169083151502179055505050505b50565b6118cb611d47565b73ffffffffffffffffffffffffffffffffffffffff166118e9611279565b73ffffffffffffffffffffffffffffffffffffffff1614611972576040517f08c379a00000000000000000000000000000000000000000000000000000000081526004018080602001828103825260208152602001807f4f776e61626c653a2063616c6c6572206973206e6f7420746865206f776e657281525060200191505060405180910390fd5b60007f000000000000000000000000000000000000000000000000000000000000000061017154816119a057fe5b0614156119ef576119d07f0000000000000000000000000000000000000000000000000000000000000000611ed5565b61014c6000600154815260200190815260200160002081905550611a76565b6119f960006120b3565b60026000017f000000000000000000000000000000000000000000000000000000000000000060218110611a2957fe5b60040201600060048110611a3957fe5b015461014c600060015481526020019081526020016000208190555060026000016000611a669190612258565b61014d6000611a759190612201565b5b600060018054019050806001819055507f000000000000000000000000000000000000000000000000000000000000000081026101718190555061016f60009055600061016e60006101000a81548160ff02191690831515021790555050565b6101715481565b60008160015411611b39576040517f08c379a00000000000000000000000000000000000000000000000000000000081526004018080602001828103825260318152602001806123186031913960400191505060405180910390fd5b61014c6000838152602001908152602001600020549050919050565b611b5d611d47565b73ffffffffffffffffffffffffffffffffffffffff16611b7b611279565b73ffffffffffffffffffffffffffffffffffffffff1614611c04576040517f08c379a00000000000000000000000000000000000000000000000000000000081526004018080602001828103825260208152602001807f4f776e61626c653a2063616c6c6572206973206e6f7420746865206f776e657281525060200191505060405180910390fd5b600073ffffffffffffffffffffffffffffffffffffffff168173ffffffffffffffffffffffffffffffffffffffff161415611c8a576040517f08c379a00000000000000000000000000000000000000000000000000000000081526004018080602001828103825260268152602001806122cc6026913960400191505060405180910390fd5b8073ffffffffffffffffffffffffffffffffffffffff1660008054906101000a900473ffffffffffffffffffffffffffffffffffffffff1673ffffffffffffffffffffffffffffffffffffffff167f8be0079c531659141344cd1fd0a4f28419497f9722a3daafe3b4186f6b6457e060405160405180910390a3806000806101000a81548173ffffffffffffffffffffffffffffffffffffffff021916908373ffffffffffffffffffffffffffffffffffffffff16021790555050565b600033905090565b7f0000000000000000000000000000000000000000000000000000000000000000811115611de5576040517f08c379a00000000000000000000000000000000000000000000000000000000081526004018080602001828103825260178152602001807f41636351756575653a20696e76616c6964206c6576656c00000000000000000081525060200191505060405180910390fd5b5b600115611ed057600060026084018260218110611dff57fe5b0154905060017f0000000000000000000000000000000000000000000000000000000000000000038114611ea1578260026000018360218110611e3e57fe5b600402018260048110611e4d57fe5b01819055507f00000000000000000000000000000000000000000000000000000000000000008214611e9b5760026084018260218110611e8957fe5b01600081548092919060010191905055505b50611ed1565b611eab82846121a2565b925060026084018260218110611ebd57fe5b0160009055818060010192505050611de6565b5b5050565b60006101728260218110611ee557fe5b01549050919050565b80821115611efb576120ae565b600060a76084018360218110611f0d57fe5b0154905060017f0000000000000000000000000000000000000000000000000000000000000000038114611f86578360a76000018460218110611f4c57fe5b600402018260048110611f5b57fe5b018190555060a76084018360218110611f7057fe5b01600081548092919060010191905055506120ac565b60008060149054906101000a900460ff161561200457611fa4612214565b60a76000018560218110611fb457fe5b60040201600060048110611fc457fe5b015481600060028110611fd357fe5b6020020181815250508581600160028110611fea57fe5b602002018181525050611ffc8161103f565b915050612087565b61200c612236565b60005b838160ff1610156120635760a7600001866021811061202a57fe5b600402018160ff166004811061203c57fe5b0154828260ff166005811061204d57fe5b602002018181525050808060010191505061200f565b508581846005811061207157fe5b602002018181525050612083816112a2565b9150505b60a7608401846021811061209757fe5b01600090556120aa816001860185611eee565b505b505b505050565b5b7f000000000000000000000000000000000000000000000000000000000000000081101561219f576000600260840182602181106120ee57fe5b015490506000811461217c576000612104612214565b600061210f85611ed5565b90506002600001856021811061212157fe5b6004020160006004811061213157fe5b01548260006002811061214057fe5b602002018181525050808260016002811061215757fe5b6020020181815250506121698261103f565b92506121788360018701611d4f565b5050505b6002608401826021811061218c57fe5b01600090558180600101925050506120b4565b50565b6000806121d0600260000185602181106121b857fe5b600402016000600481106121c857fe5b015484610ff5565b9050600260000184602181106121e257fe5b600402016000600481106121f257fe5b01600090558091505092915050565b508060210190612211919061226e565b50565b6040518060400160405280600290602082028036833780820191505090505090565b6040518060a00160405280600590602082028036833780820191505090505090565b50806021600402019061226b919061228b565b50565b5b8082111561228757600081600090555060010161226f565b5090565b5b808211156122ab57600081816122a291906122af565b5060040161228c565b5090565b506000815560010160008155600101600081556001016000905556fe4f776e61626c653a206e6577206f776e657220697320746865207a65726f206164647265737341636351756575653a205f6465707468206d757374206265206c7465204d41585f444550544841636351756575653a205f696e646578206d75737420726566657220746f206120636f6d706c657465207375627472656541636351756575653a207375627472656573206d757374206265206d6572676564206265666f72652063616c6c696e67206d65726765282941636351756575653a20737562747265657320616c7265616479206d657267656441636351756575653a207375627472656573206d757374206265206d657267656420666972737441636351756575653a205f6465707468206d75737420626520677465207468652053525420646570746841636351756575653a205f6465707468206d757374206265206d6f7265207468616e203041636351756575653a206765744d61696e526f6f743a205f6465707468206d757374206265206869676820656e6f756768a2646970667358221220d598abbc5541d7ec0c3bc75ec7699366f3bc27105a058206c2b7ac79b4dc2c8164736f6c6343000702003341636351756575653a206f6e6c7920737570706f72747320757020746f204d41585f4445505448206c6576656c7341636351756575653a206f6e6c7920737570706f727473205f686173684c656e677468206f662032206f72203541636351756575653a205f7375624465707468206d757374206265206d6f7265207468616e2030",
  "linkReferences": {
    "contracts/crypto/Hasher.sol": {
      "PoseidonT3": [
        {
          "length": 20,
          "start": 6655
        }
      ],
      "PoseidonT4": [
        {
          "length": 20,
          "start": 7473
        }
      ],
      "PoseidonT5": [
        {
          "length": 20,
          "start": 5994
        }
      ],
      "PoseidonT6": [
        {
          "length": 20,
          "start": 7266
        }
      ]
    }
  },
  "deployedLinkReferences": {
    "contracts/crypto/Hasher.sol": {
      "PoseidonT3": [
        {
          "length": 20,
          "start": 4163
        }
      ],
      "PoseidonT4": [
        {
          "length": 20,
          "start": 4981
        }
      ],
      "PoseidonT5": [
        {
          "length": 20,
          "start": 3502
        }
      ],
      "PoseidonT6": [
        {
          "length": 20,
          "start": 4774
        }
      ]
    }
  }
}