{
  "_format": "hh-sol-artifact-1",
  "contractName": "Hasher",
  "sourceName": "contracts/crypto/Hasher.sol",
  "abi": [
    {
      "inputs": [
        {
          "internalType": "uint256[]",
          "name": "array",
          "type": "uint256[]"
        }
      ],
      "name": "hash2",
      "outputs": [
        {
          "internalType": "uint256",
          "name": "",
          "type": "uint256"
        }
      ],
      "stateMutability": "pure",
      "type": "function"
    },
    {
      "inputs": [
        {
          "internalType": "uint256[]",
          "name": "array",
          "type": "uint256[]"
        }
      ],
      "name": "hash3",
      "outputs": [
        {
          "internalType": "uint256",
          "name": "",
          "type": "uint256"
        }
      ],
      "stateMutability": "pure",
      "type": "function"
    },
    {
      "inputs": [
        {
          "internalType": "uint256[]",
          "name": "array",
          "type": "uint256[]"
        }
      ],
      "name": "hash4",
      "outputs": [
        {
          "internalType": "uint256",
          "name": "",
          "type": "uint256"
        }
      ],
      "stateMutability": "pure",
      "type": "function"
    },
    {
      "inputs": [
        {
          "internalType": "uint256[]",
          "name": "array",
          "type": "uint256[]"
        }
      ],
      "name": "hash5",
      "outputs": [
        {
          "internalType": "uint256",
          "name": "",
          "type": "uint256"
        }
      ],
      "stateMutability": "pure",
      "type": "function"
    },
    {
      "inputs": [
        {
          "internalType": "uint256",
          "name": "_left",
          "type": "uint256"
        },
        {
          "internalType": "uint256",
          "name": "_right",
          "type": "uint256"
        }
      ],
      "name": "hashLeftRight",
      "outputs": [
        {
          "internalType": "uint256",
          "name": "",
          "type": "uint256"
        }
      ],
      "stateMutability": "pure",
      "type": "function"
    },
    {
      "inputs": [
        {
          "internalType": "uint256[]",
          "name": "array",
          "type": "uint256[]"
        }
      ],
      "name": "sha256Hash",
      "outputs": [
        {
          "internalType": "uint256",
          "name": "",
          "type": "uint256"
        }
      ],
      "stateMutability": "pure",
      "type": "function"
    }
  ],
  "bytecode": "0x608060405234801561001057600080fd5b506109e8806100206000396000f3fe608060405234801561001057600080fd5b50600436106100625760003560e01c80631e1016fe146100675780634d4ef74d146101335780634e9e97fa146101ff57806358bfc379146102cb5780635bb939951461039757806386d238d9146103e3575b600080fd5b61011d6004803603602081101561007d57600080fd5b810190808035906020019064010000000081111561009a57600080fd5b8201836020820111156100ac57600080fd5b803590602001918460208302840111640100000000831117156100ce57600080fd5b919080806020026020016040519081016040528093929190818152602001838360200280828437600081840152601f19601f8201169050808301925050505050505091929192905050506104af565b6040518082815260200191505060405180910390f35b6101e96004803603602081101561014957600080fd5b810190808035906020019064010000000081111561016657600080fd5b82018360208201111561017857600080fd5b8035906020019184602083028401116401000000008311171561019a57600080fd5b919080806020026020016040519081016040528093929190818152602001838360200280828437600081840152601f19601f820116905080830192505050505050509192919290505050610583565b6040518082815260200191505060405180910390f35b6102b56004803603602081101561021557600080fd5b810190808035906020019064010000000081111561023257600080fd5b82018360208201111561024457600080fd5b8035906020019184602083028401116401000000008311171561026657600080fd5b919080806020026020016040519081016040528093929190818152602001838360200280828437600081840152601f19601f820116905080830192505050505050509192919290505050610657565b6040518082815260200191505060405180910390f35b610381600480360360208110156102e157600080fd5b81019080803590602001906401000000008111156102fe57600080fd5b82018360208201111561031057600080fd5b8035906020019184602083028401116401000000008311171561033257600080fd5b919080806020026020016040519081016040528093929190818152602001838360200280828437600081840152601f19601f82011690508083019250505050505050919291929050505061072b565b6040518082815260200191505060405180910390f35b6103cd600480360360408110156103ad57600080fd5b81019080803590602001909291908035906020019092919050505061084a565b6040518082815260200191505060405180910390f35b610499600480360360208110156103f957600080fd5b810190808035906020019064010000000081111561041657600080fd5b82018360208201111561042857600080fd5b8035906020019184602083028401116401000000008311171561044a57600080fd5b919080806020026020016040519081016040528093929190818152602001838360200280828437600081840152601f19601f8201169050808301925050505050505091929192905050506108de565b6040518082815260200191505060405180910390f35b600073__$9b3049adcf18347c4fcd511e1429cbc37d$__63c4420fb4836040518263ffffffff1660e01b81526004018080602001828103825283818151815260200191508051906020019060200280838360005b8381101561051e578082015181840152602081019050610503565b505050509050019250505060206040518083038186803b15801561054157600080fd5b505af4158015610555573d6000803e3d6000fd5b505050506040513d602081101561056b57600080fd5b81019080805190602001909291905050509050919050565b600073__$d4acaf6f169a2634c49d403ce7efde36fd$__63c4420fb4836040518263ffffffff1660e01b81526004018080602001828103825283818151815260200191508051906020019060200280838360005b838110156105f25780820151818401526020810190506105d7565b505050509050019250505060206040518083038186803b15801561061557600080fd5b505af4158015610629573d6000803e3d6000fd5b505050506040513d602081101561063f57600080fd5b81019080805190602001909291905050509050919050565b600073__$584f44aaf914c42633951b34ceb432be31$__63c4420fb4836040518263ffffffff1660e01b81526004018080602001828103825283818151815260200191508051906020019060200280838360005b838110156106c65780820151818401526020810190506106ab565b505050509050019250505060206040518083038186803b1580156106e957600080fd5b505af41580156106fd573d6000803e3d6000fd5b505050506040513d602081101561071357600080fd5b81019080805190602001909291905050509050919050565b60007f30644e72e131a029b85045b68181585d2833e84879b9709143e1f593f000000160028360405160200180828051906020019060200280838360005b83811015610784578082015181840152602081019050610769565b505050509050019150506040516020818303038152906040526040518082805190602001908083835b602083106107d057805182526020820191506020810190506020830392506107ad565b6001836020036101000a038019825116818451168082178552505050505050905001915050602060405180830381855afa158015610812573d6000803e3d6000fd5b5050506040513d602081101561082757600080fd5b810190808051906020019092919050505060001c8161084257fe5b069050919050565b60006060600267ffffffffffffffff8111801561086657600080fd5b506040519080825280602002602001820160405280156108955781602001602082028036833780820191505090505b50905083816000815181106108a657fe5b60200260200101818152505082816001815181106108c057fe5b6020026020010181815250506108d581610583565b91505092915050565b600073__$2a5b9c44d836f7997ae51e8d308a712a39$__63c4420fb4836040518263ffffffff1660e01b81526004018080602001828103825283818151815260200191508051906020019060200280838360005b8381101561094d578082015181840152602081019050610932565b505050509050019250505060206040518083038186803b15801561097057600080fd5b505af4158015610984573d6000803e3d6000fd5b505050506040513d602081101561099a57600080fd5b8101908080519060200190929190505050905091905056fea2646970667358221220f65a75253f4be4b546dbce04ff4a00d26d5b4af84606627005e301926ef1e8d064736f6c63430007020033",
  "linkReferences": {
    "contracts/crypto/Hasher.sol": {
      "PoseidonT3": [
        {
          "length": 20,
          "start": 1447
        }
      ],
      "PoseidonT4": [
        {
          "length": 20,
          "start": 1235
        }
      ],
      "PoseidonT5": [
        {
          "length": 20,
          "start": 1659
        }
      ],
      "PoseidonT6": [
        {
          "length": 20,
          "start": 2306
        }
      ]
    }
  },
  "deployedLinkReferences": {
    "contracts/crypto/Hasher.sol": {
      "PoseidonT3": [
        {
          "length": 20,
          "start": 1415
        }
      ],
      "PoseidonT4": [
        {
          "length": 20,
          "start": 1203
        }
      ],
      "PoseidonT5": [
        {
          "length": 20,
          "start": 1627
        }
      ],
      "PoseidonT6": [
        {
          "length": 20,
          "start": 2274
        }
      ]
    }
  }
}