{
  "_format": "hh-sol-artifact-1",
  "contractName": "PoseidonT6",
  "sourceName": "contracts/crypto/Hasher.sol",
  "abi": [
    {
      "inputs": [
        {
          "internalType": "uint256[]",
          "name": "input",
          "type": "uint256[]"
        }
      ],
      "name": "poseidon",
      "outputs": [
        {
          "internalType": "uint256",
          "name": "",
          "type": "uint256"
        }
      ],
      "stateMutability": "pure",
      "type": "function"
    }
  ],
  "bytecode": "0x610143610026600b82828239805160001a60731461001957fe5b30600052607381538281f3fe73000000000000000000000000000000000000000030146080604052600436106100355760003560e01c8063c4420fb41461003a575b600080fd5b6100f06004803603602081101561005057600080fd5b810190808035906020019064010000000081111561006d57600080fd5b82018360208201111561007f57600080fd5b803590602001918460208302840111640100000000831117156100a157600080fd5b919080806020026020016040519081016040528093929190818152602001838360200280828437600081840152601f19601f820116905080830192505050505050509192919290505050610106565b6040518082815260200191505060405180910390f35b600091905056fea26469706673582212203918d8622bbc4815853c539e38d14585ce84ba72f581dfdcae943ba1bb31d1ab64736f6c63430007020033",
  "linkReferences": {},
  "deployedLinkReferences": {}
}