{
  "_format": "hh-sol-artifact-1",
  "contractName": "SignUpTokenGatekeeper",
  "sourceName": "contracts/gatekeepers/SignUpTokenGatekeeper.sol",
  "abi": [
    {
      "inputs": [
        {
          "internalType": "contract SignUpToken",
          "name": "_token",
          "type": "address"
        }
      ],
      "stateMutability": "nonpayable",
      "type": "constructor"
    },
    {
      "inputs": [
        {
          "internalType": "address",
          "name": "_user",
          "type": "address"
        },
        {
          "internalType": "bytes",
          "name": "_data",
          "type": "bytes"
        }
      ],
      "name": "register",
      "outputs": [],
      "stateMutability": "nonpayable",
      "type": "function"
    }
  ],
  "bytecode": "0x608060405234801561001057600080fd5b506040516104673803806104678339818101604052602081101561003357600080fd5b8101908080519060200190929190505050806000806101000a81548173ffffffffffffffffffffffffffffffffffffffff021916908373ffffffffffffffffffffffffffffffffffffffff160217905550506103d3806100946000396000f3fe608060405234801561001057600080fd5b506004361061002b5760003560e01c806324b8fbf614610030575b600080fd5b6101096004803603604081101561004657600080fd5b81019080803573ffffffffffffffffffffffffffffffffffffffff1690602001909291908035906020019064010000000081111561008357600080fd5b82018360208201111561009557600080fd5b803590602001918460018302840111640100000000831117156100b757600080fd5b91908080601f016020809104026020016040519081016040528093929190818152602001838380828437600081840152601f19601f82011690508083019250505050505050919291929050505061010b565b005b600081806020019051602081101561012257600080fd5b8101908080519060200190929190505050905060008373ffffffffffffffffffffffffffffffffffffffff1660008054906101000a900473ffffffffffffffffffffffffffffffffffffffff1673ffffffffffffffffffffffffffffffffffffffff16636352211e846040518263ffffffff1660e01b81526004018082815260200191505060206040518083038186803b1580156101bf57600080fd5b505afa1580156101d3573d6000803e3d6000fd5b505050506040513d60208110156101e957600080fd5b810190808051906020019092919050505073ffffffffffffffffffffffffffffffffffffffff161490506001151581151514610270576040517f08c379a00000000000000000000000000000000000000000000000000000000081526004018080602001828103825260378152602001806103256037913960400191505060405180910390fd5b60006001600084815260200190815260200160002060009054906101000a900460ff16905060001515811515146102f2576040517f08c379a000000000000000000000000000000000000000000000000000000000815260040180806020018281038252604281526020018061035c6042913960600191505060405180910390fd5b600180600085815260200190815260200160002060006101000a81548160ff021916908315150217905550505050505056fe5369676e5570546f6b656e476174656b65657065723a2074686973207573657220646f6573206e6f74206f776e2074686520746f6b656e5369676e5570546f6b656e476174656b65657065723a207468697320746f6b656e2068617320616c7265616479206265656e207573656420746f207369676e207570a26469706673582212203bcffe052eb9e685b763d54cab59c6ea41806d7b9256739b05970e07f7aa856b64736f6c63430007020033",
  "linkReferences": {},
  "deployedLinkReferences": {}
}